:400000000040002011000000752400007524000008B502F04BFAC04638B51222254B1A6003F01CF9244802F0C7FF012003F036F9302002F0E5FF214A214B1A60214C802520
:40004000ED052560204A116802230B4313601F4A1F4B1A601F4A136808218B431360FA20C00003F08DF81C4803F080F81B4A1C4B1A601C4B1C4A1A60882189011B4A1160EE
:400080001B4A1A60802212061A4B1A608022D202194B1A604122194B1A60013A184B1A600820184903F006F8082002F0E3FF256038BDC04630001040001BB700060000804D
:4000C00004010B400C020B4078002E402D3E00007C002E406CF02E40DC050000007F2500040301400000014041FF00800003014040FF008008010B4000010B401C01014083
:4001000004010140B533000010B572B600222D4B1A60002410E02C4863001A195200821891881B195B001A5AC31858880004104302F01AFA0134E4B2012CECD9EE2212066D
:40014000224B1A6099231B04214A1360214A1360214A1360214A1360214A1360214B197802220A431A70204802783C218A4328390A430270197816220A431A70D822120493
:400180001A4B1A6020231A4A1360C4218902194A116080218900184A1160184A13604822174B1A60174A184B1A604022174B1A60C0225203164B1A60FFF72EFF02F0C4F98A
:4001C00010BDC0466CF02E40D4800100000002400001024000500F4010500F4020500F4030500F4000700F4001700F400800044000010440080104400C01044018010440A1
:4002000000020440000C180008020440000304400803044010B5064C2378002B07D1054B002B02D0044800E000BF0123237010BD10050020000000003873010008B5084B0E
:40024000002B03D00748084900E000BF07480368002B00D108BD064B002BFBD09847F9E7000000003873010014050020C80000200000000008B562B602F0F6F8012803D141
:4002800001220B4B1A7002E00022094B1A7000F0EFF9074B187801F0ABFC064B1B78002B03D004F075FF00F095F904F071FFF0E72D050020D600002070B590B0522800D904
:4002C00039E10C1C80009D4B1B589F469C4804F099F802F05DFD9B4B1B6880221202134000D00123C318002BF3D124E10BA8031C26CC26C306CC06C301F0ACFE1BE1924B56
:400300001B78002B00D116E100228F4B1A708F4804F078F80FE10B78022B00D00BE102F05DFA8B4804F06EF805E18A48082203F03EFF854B5B78002B08D1874804F062F8CE
:40034000864B187886490EF005FAF4E07E4B9978844803F0DBFF814C2078814910F0F8F823786078000218438021890011F06EF8E1E07848082203F01AFFDCE04A88784B81
:400380001A81D8E04A88131C802189008A4201D9754B1B8899B2724A1381704A137850780002184311F086FBC5E0704B1E221A82023259680A805B685A80634B5B78002B2B
:4003C0000BD121786A4803F0A1FF654B9B7A002B09D1012002F086F905E022785A4B9978644803F093FF02F0D3FC564B1B6880221202134000D00123C318002BF3D10022B3
:40040000514BDA7097E003AB07CC07C324681C60A4B20E2C14D14C4B1B79012B10D103AB1E89494A9368F3189360002505E0049B585D02F09FFC0135EDB2ABB29E42F6D8B3
:400440000F2C78D1049B1B783F4A1373002B06D001223D4B1A71484803F0D4FF6BE00022394B1A71454803F0CDFF64E0364B5B7B012B0DD1344B5B78012B5CD18B890E2BC5
:4004800059D10B89304A11698C466344136152E02D4B5B78012B4ED18B890E2B4BD106E06368585D02F066FC0135EDB200E00025ABB222899342F3D33DE007AB07CC07C3C9
:4004C0001A1C2368136000240BE0089B181941781A5DC37880780090294803F017FF0434E4B2A3B207AA12899342EED323E0164B5B78002B1FD1194B1878224910F0E6F8E4
:4005000019E00968204803F001FF14E001220E4B1A751E4803F076FF0DE01D4803F072FF0122094BDA7006E009781A4803F0EEFE0022054BDA7010B070BDC0468473010063
:40054000D8770100080224402C050020E8770100F47701006C150020007801009C270020CC000020107801008073010088010020247801003C780100587801007078010085
:400580008C78010050020020B0780100C4780100DC780100E878010038B5012002F0D6FF094A01235375936901339361074A934208D1054C0025657502F084FFA56104485A
:4005C00003F020FF38BDC0462C05002011270000F478010010B5032004F0CEFD041C72B606F0C5FA032C28D1042801D006282AD1002002F0B1FC02F0CBFB144B1B6880220B
:400600001202134000D00123C318002BF3D102F0C7FB02F0EDFD02F0C7FB052002F08EFD02F07EFB02F0BAFF02F0AEFF0022084B9A72012002F090FC05E0022C03D10228C9
:4006400001D002F0C7FD62B610BDC04608022440CC00002008B5062002F08AFC062002F09FFC012002F078FC012002F08DFC08BD08B5062002F07CFF012002F06DFF0A4A95
:400680000F231381094B0C3303CB03C202F046FF074802F009FF02F0FFFAFFF7DBFF054801F0DCFF08BDC04688150020CC00002099050000B902000070B500282CD0041CC4
:4006C000184903F0C9FE002828D0201C3D2103F0B5FE001BC3B20B2B22D8FF250540281C03F042FD061C211C2A1C03F0D3FE00240BE0A3000C4AD3185969301C2A1C03F03D
:40070000B5FE002803D00134E4B21A2CF1D9301C03F034FD201C04E0002002E0132000E0FF2070BD08790100CC00002000B587B004AB049099800022DA8001AA0E211181A1
:4007400003CB03C2074A137850780002184301A910F0ECFE002803D0034B1B78022BF1D007B000BD9C27002094270020F0B585B0041C744B5B78012B00D0DDE0031C313B85
:40078000DAB20E2A00D9DAE093006F4AD3589F46051C313D2B015B1B5B006C48181802F029F8021E05D0211C3039694803F0AEFDC5E06848037A0133DBB20372013B303C69
:4007C000E4B2C4545F4A9470DA00D31AC01829014D1B6D0009305D494919062203F0E7FC5D4803F00FFEAAE0051C313D2B015B1B5B005648181801F0FDFF021E05D0211C19
:400800003039534803F082FD99E05248037A0133DBB20372013B303CE4B2C454494A9470DA00D31AC01829014D1B6D00093047494919062203F0BBFC474803F0E3FD7EE034
:40084000051C313D2B015B1B5B004048181801F0D1FF021E05D0211C30393D4803F056FD6DE03C48037A0133DBB20372013B303CE4B2C454334A9470DA00D31AC0182901E9
:400880004D1B6D00093031494919062203F08FFC314803F0B7FD52E0051C313D2B015B1B5B002A48181801F0A5FF021E05D0211C3039274803F02AFD41E02648037A01332F
:4008C000DBB20372013B303CE4B2C4541D4A9470DA00D31AC01829014D1B6D0009301B494919062203F063FC1B4803F08BFD26E01A4B1B78022B15D01AE01648015DE30097
:400900001B1BC018827B437B077BC67A857A407A0097019602950390114803F0F7FC0134E4B200E000240B4B1B7AA342E5D806E00C4803F067FD02E00B4803F063FD05B0B2
:40094000F0BDC0462C050020D07401009C1500202C7901004415002044790100942700204C790100787901008479010010B5041C031C303BDAB2312A00D9D4E19300BA4A74
:40098000D3589F46B94803F03DFDB94803F03AFD02F0FEF9B74B1B6880221202134000D00123C318002BF3D1B34B1C70BBE1B34803F028FDAE4803F025FD02F0E9F9AD4B89
:4009C0001B6880221202134000D00123C318002BF3D1A94B1C70A6E1A94803F013FDA44803F010FD02F0D4F9A24B1B6880221202134000D00123C318002BF3D19E4B1C705B
:400A000091E1A04803F0FEFC994803F0FBFC02F0BFF9984B1B6880221202134000D00123C318002BF3D1944B1C707CE1964803F0E9FC8F4803F0E6FC02F0AAF98D4B1B68B3
:400A400080221202134000D00123C318002BF3D1894B1C7067E18D4803F0D4FC844803F0D1FC02F095F9834B1B6880221202134000D00123C318002BF3D17F4B1C7052E1C2
:400A8000834803F0BFFC7A4803F0BCFC02F080F9784B1B6880221202134000D00123C318002BF3D1744B1C703DE17A4803F0AAFC6F4803F0A7FC02F06BF96E4B1B68802293
:400AC0001202134000D00123C318002BF3D16A4B1C7028E1704803F095FC654803F092FC02F056F9634B1B6880221202134000D00123C318002BF3D15F4B1C7013E167480B
:400B000003F080FC5A4803F07DFC02F041F9594B1B6880221202134000D00123C318002BF3D1554B1C70FEE05D4803F06BFC504803F068FC02F02CF94E4B1B68802212023D
:400B4000134000D00123C318002BF3D14A4B1C70E9E0494B1B78303BDAB2312A00D9E2E09300504AD3589F464F4803F04BFC02F00FF9404B1B6880221202134000D0012353
:400B8000C318002BF3D1CEE0484803F03BFC02F0FFF8384B1B6880221202134000D00123C318002BF3D1BEE0414803F02BFC02F0EFF8304B1B6880221202134000D0012338
:400BC000C318002BF3D1AEE03A4803F01BFC02F0DFF8284B1B6880221202134000D00123C318002BF3D19EE0334803F00BFC02F0CFF8204B1B6880221202134000D00123F4
:400C0000C318002BF3D18EE02C4803F0FBFB02F0BFF8184B1B6880221202134000D00123C318002BF3D17EE0254803F0EBFB02F0AFF8104B1B6880221202134000D00123B1
:400C4000C318002BF3D16EE01E4803F0DBFB02F09FF8084B1B6880221202134000D00123C318002BF3D15EE00C75010090790100A0790100080224404C010020A47901002A
:400C8000B4790100C4790100D4790100E8790100FC790100107A0100247A0100387A01004C7A0100D4750100607A0100707A0100807A0100907A0100A07A0100B07A0100A2
:400CC000C07A0100D07A0100174803F09BFB02F05FF8164B1B6880221202134000D00123C318002BF3D11EE0114803F08BFB02F04FF80E4B1B6880221202134000D00123B0
:400D0000C318002BF3D10EE00A4803F07BFB02F03FF8064B1B6880221202134000D00123C318002BF3D110BDE07A010008022440F07A0100007B010010B582B0514B1B78D9
:400D4000032B03D1002201AB5A7009E0022B03D1012201AB5A7003E04B4803F053FB8EE03138C3B20E2B00D986E09800474B1B589F4601AC201C05F013FF2378082B7ED845
:400D80009B00434AD3589F46424803F03BFB76E0414803F037FB72E0404803F033FB6EE03F4803F02FFB6AE03E4803F02BFB66E03D4803F027FB62E03C4803F023FB5EE079
:400DC0003B4803F01FFB5AE001A80123037005F00EFF002853D1374803F014FB4FE001A80223037005F003FF002848D1314803F009FB44E001A80323037005F0F8FE002889
:400E00003DD12C4803F0FEFA39E001A80423037005F0EDFE002832D1264803F0F3FA2EE001A80523037005F0E2FE002827D1214803F0E8FA23E001A80623037005F0D7FEF9
:400E400000281CD11B4803F0DDFA18E001A80723037005F0CCFE002811D1164803F0D2FA0DE001A80823037005F0C1FE002806D1104803F0C7FA02E00F4803F0C3FA02B07E
:400E800010BDC04694270020107B01009C760100D87601001C7B01002C7B01003C7B01004C7B01005C7B01006C7B01007C7B01008C7B0100447901009C7B0100F0B547460E
:400EC00080B48046002629E074000B5D01340C5D154D2F68FD186D7803200540022D00D1203BDDB22B1C303BDBB2092B02D92B1C373BDBB23F197D7803273D40022D00D182
:400F0000203CE4B2251C303DEDB2092D01D9373CE5B21B01EC1843469C5501369642D3DB04BC9046F0BDC046A4040020F0B5474680B4B0B0002801D100F031FE051C29AB1C
:400F4000002429942A942B942C942D942E9400261C839E7621AB21942294239424942594269427949C839E7711A800213E2203F027F910AB1C803F236B441E700FAB1C8056
:400F80003B236B441E700D94281CFFF795FB1A2801D900F001FE8000D34B1B589F46D34803F030FA00F0FBFD6B7A312B12D1CF4803F028FA01F0ECFECD4B1B68802212028E
:400FC000134000D00123C318002BF3D102F0AAF800F0E5FDC74803F015FA00F0E0FDEB7A3F2B04D1C44803F00DFA00F0D8FDC14803F008FA00F0D3FDBE4803F003FA00F089
:40100000CEFD6B7A3F2B11D1BC4C201C04F0BCF861792279E378A67865782078009601950290B74803F072F900F0B9FDB14803F0E9F900F0B4FD2B7AB24A5278002A49D186
:401040003C2B0AD03F2B40D129A801F03DFCAE4829A903F05BF900F0A2FD0935281C3E2103F0ECF9401B172804DDA84803F0CAF900F095FDA64B1B78022B21D001F074FBBD
:4010800029AC002329932A932B932C932D932E932383A3769B494A7F0B3A2931201C03F086F8201C01F0EAFB002804D18F4803F0A9F900F074FD974803F0A4F900F06FFD62
:4010C000954803F09FF900F06AFD8A4803F09AF900F065FD914803F095F900F060FDE879884B5B78002B03D1FFF726FE00F057FD8A4803F087F900F052FD2B7A814A5278BE
:40110000002A73D13C2B02D03F2B4CD069E0804B1B78032B42D004AC00230493059306930793089309930A93A383A377291C093110A8022203F03BF83F266E44301C10A9B5
:401140000122FFF7BBFE3278E2775200291C0C3111A803F02CF821A811A91F22FFF7AEFEE27F201C21A903F022F8201C002105F0B4FC00280DD16A4B98683F236B441A78BC
:40118000C27721A903F013F8584803F03BF900F006FD604803F036F900F001FD5E4803F031F900F0FCFC5A4B1B78032B14D15D4803F0ACF8002405E0195D5B4803F0A6F8D7
:4011C0000134E4B2564B9B68DA7FA242F4D8574803F018F900F0E3FC4F4803F013F900F0DEFC444803F00EF900F0D9FC4B4803F009F900F0D4FC434B5B78002B6ED12B7AA2
:40120000434A1278022A64D03C2B2AD03F2B5BD1434D6E68308802F021FF0022444B02F04DFC02F0E5FE84B2708802F017FF00223F4B02F043FC02F0DBFE2B8A21B202B235
:401240003C4803F063F801F0A3FD294B1B6880221202134000D00123C318002BF3D100F09EFC032A2BD00FAC6B7A2370AB7A63703B266E44301C211C0122FFF71FFE284F27
:4012800033787A6813802B7B23706B7B6370301C211C0122FFF712FE33787A685380EB7B23702B7C6370301C211C0122FFF706FE33783B820D4803F0A5F800F070FC1648EA
:4012C00003F0A0F800F06BFC0A4803F09BF800F066FC114803F096F800F061FC0F4803F091F800F05CFCC046FC76010044790100080224409C7B0100A87B010094150020F6
:40130000BC7B01002C050020E47B0100F47B010094270020007C01007879010084790100880100200C7C0100187C0100AC7A01000000E43F207C01006B7A3C2B13D03F2BC5
:401340004AD1CA4B1B78022B08D1C94B5988DA889B88C84802F0DAFF00F021FCC64803F051F800F01CFCC54B5B78012B30D1BF4B1B78022B28D10FACAB7A2370EB7A637072
:401380003B266E44301C211C0122FFF797FDBC4F33783B806B7B2370AB7B6370301C211C0122FFF78BFD33787B80B64B1878391C0FF0CEF8002803D1B34803F023F8EEE3B0
:4013C000B24803F01FF8EAE3AB4803F01BF8E6E3AF4803F017F8E2E3AE4803F013F8DEE32B7A312B2FD03F2B02D0302B4AD10BE0A24B5B78002B03D1A74803F003F8CEE3FD
:40140000A64802F0FFFFCAE3984B1B78022B16D000230D9300200DA900F0AAFFA0231B06984200D0BBE301F0D9F9002001F05AF90022924B5A70944802F0E4FFAFE38E4831
:4014400002F0E0FFABE3894B1B78022B16D001230D9300200DA900F08BFFA0231B06984200D09CE301F080F9002001F08BF90122824B5A70844802F0C5FF90E37E4802F00C
:40148000C1FF8CE3834802F0BDFF88E37B4B5B78012B0BD10CA90B80023B4B80794A13785078000218430FF0BBFF78E3784802F0A9FF74E3714B5B78012B57D12B7A312B14
:4014C00016D16A4B1B78022B0ED000F01FFF002001F058F9002803D16B4802F093FF5EE36A4802F08FFF5AE3634802F08BFF56E3302B12D15D4B1B78042B0AD100F006FF87
:4015000001F06CF901225D4B1A705F4802F07AFF45E3594802F076FF41E33F2B22D11BE05F4E2501281B40003018C17942790379C778B8468778BC464778281B4000805DD6
:40154000454600956546019502970390554802F0DDFE0134E4B200E00024534B1B789C42DED31CE34B4802F04DFF18E3484802F049FF14E3414B5B78012B03D1687AFFF722
:40158000F5F80CE3424802F03DFF08E3374B1B78022B00D00CE1EC7A384B5B78012B00D0F5E0322C3AD002D8312C07D0EBE0332C00D188E0342C00D1B5E0E4E0314B1878B1
:4015C0000EF012FE021E20D0211C3039374802F09DFEE4E21D1C3649C95C012912D1344E013A327207205843301809300021062202F0E6FD00237355303CE4B234711F4BAD
:401600009C7007E00133DBB200E00023284A127A9A42DFD81C4802F0F5FEC0E2194B18780EF0E2FD021E45D0211C30391F4802F06DFEB4E21D1C1E49C95C012912D11C4E35
:40164000013A327207205843301809300021062202F0B6FD00237355303CE4B23471074B9C702CE00133DBB225E0C046942700206C1500204C7C0100787901002C0500200A
:40168000CC0000209C27002044790100007C0100847901009C7B0100887C01009C7C01009C150020B07C0100800500202C790100441500200023C24A127A9A42BAD8C148F8
:4016C00002F0A0FE6BE2C04B18780EF08DFD021E20D0211C3039BD4802F018FE5FE21D1CB749C95C012912D1B54E013A327207205843301809300021062202F061FD00239A
:401700007355303CE4B23471B14B9C7007E00133DBB200E00023AA4A127A9A42DFD8A94802F070FE3BE2A84B18780EF05DFD021E20D0211C3039A54802F0E8FD2FE21D1C67
:401740009F49C95C012912D19D4E013A327207205843301809300021062202F031FD00237355303CE4B23471994B9C7007E00133DBB200E00023924A127A9A42DFD89148D8
:4017800002F040FE0BE2934802F03CFE07E2312C0AD18D4B18780EF027FD011E00D1FEE18D4802F0B3FDFAE18A4802F02BFEF6E18A4802F027FEF2E1894B1B78022B0DD147
:4017C0002B7A3F2B06D105F0DAF9011C854802F09DFDE4E17F4802F015FEE0E17F4802F011FEDCE16B7A3F2B07D1794C7E48A16802F08CFD0023A360D1E1764802F002FE30
:40180000CDE1AA7A764B1B78022B2FD17049497801292BD1312A0AD03F2A1FD0302A21D100226B4B1A71714802F0ECFDB7E1704901230A6813700E330B81634A13785078AE
:40184000000218430FF072FE002800D0A7E101225F4B1A71674802F0D5FDA0E1634802F0D1FD9CE15B4802F0CDFD98E1022B1FD1574B5B78002B1BD1312A0AD03F2A0FD0EA
:40188000302A11D10022524B1A71584802F0BAFD85E101224E4B1A71564802F0B3FD7EE1524802F0AFFD7AE14A4802F0ABFD76E14A4802F0A7FD72E16B7A3F2B24D1484BA5
:4018C0001B78062B00D96AE19B004B4AD3589F464A4802F097FD62E1494802F093FD5EE1484802F08FFD5AE1474802F08BFD56E1464802F087FD52E1454802F083FD4EE125
:40190000444802F07FFD4AE1324802F07BFD46E12B7A2F4A5278002A2ED1314A1278022A26D0312B12D1032A0CD0002000F0DAFE002803D1234802F065FD30E1364802F0D3
:4019400061FD2CE1254802F05DFD28E1302B0BD1032A05D100F008FF1A4802F053FD1EE11E4802F04FFD1AE11A4802F04BFD16E11A4802F047FD12E1284802F043FD0EE118
:401980006B7A174A1278022A00D1B0E0303BDAB20F2A00D9A7E09300214AD3589F4600200EF0C0FC002807D1064802F02BFD00215023074AD154F2E0174802F023FDEEE0CF
:4019C00044150020447901009C2700202C7901002C0500209C7B0100DC7C01007879010094270020F07C0100007D010070780100881500205878010068770100087D0100D0
:401A0000207D0100407D01005C7D0100787D0100947D0100B07D0100007C0100847901008477010001200EF07DFC002807D15E4802F0E8FC012150235C4AD154AFE05C481C
:401A400002F0E0FCABE002200EF06CFC002807D1554802F0D7FC02215023544AD1549EE0534802F0CFFC9AE003200EF05BFC002807D14D4802F0C6FC032150234B4AD15468
:401A80008DE04B4802F0BEFC89E004200EF04AFC002807D1444802F0B5FC04215023434AD1547CE0424802F0ADFC78E03F4A5023D15C042973D88B003E4AD3589F463E480D
:401AC00002F0A0FC6BE03D4802F09CFC67E03C4802F098FC63E03B4802F094FC5FE03A4802F090FC5BE0394802F08CFC57E0384802F088FC53E02B7A3F2B0BD12B4BDB78DC
:401B0000002B03D0334802F07DFC48E0324802F079FC44E0312B16D1244BDB78002B0ED12E4B18782E490EF0E6FA002803D11E4802F068FC33E01E4802F064FC2FE0244829
:401B400002F060FC2BE0214802F05CFC27E06B7A312B0AD03F2B0FD0302B19D10022214B9A72114802F04EFC19E001221D4B9A720D4802F047FC12E01A4B9B7A002B03D0F6
:401B8000194802F03FFC0AE0184802F03BFC06E00E4802F037FC02E00C4802F033FC30B004BC9046F0BDC046447901002C050020007C0100C4770100D07D0100E87D0100C7
:401BC000007E0100187E0100347E01009C7B010078790100507E0100607E01009C27002050020020CC000020747E01008C7E0100F0B587B000AF38606B467B60B84B1B89CF
:401C00000433DB08DB006A46D31A9D466C4601F071F8061C85B2B34B9D4208D9B24A136804218B431360002001F096FC07E0AE4A116804230B431360012001F08DFC002D84
:401C400000D1B1E0A94B1B79012B00D0ACE0B6B2A34B1B89DA1E964205DBA549A54A5180033B9DB207E0A34A5388013B9BB25380002B00D00025002D00D12CE19C4A9D4B09
:401C80005A80002604E001F02DF9A0550136F6B2B3B2AB42F7D39848211C0B2202F078FA00283AD13B68012B23D1944900230A6813700F330B81924A137850780002184346
:401CC0000FF02AFC002800D005E1884900230B714B770B624B628B62CB620B634B638B63CB630B644B648B64CB64864802F08AFBF1E07E4900230B714B770B624B628B62C2
:401D0000CB620B634B638B63CB630B644B648B64CB647C4802F076FBDDE07B48211C0B2202F036FA002812D1704900234B770B624B628B62CB620B634B638B63CB630B644B
:401D40004B648B64CB64714802F05CFBC3E03B68002B1BD16E4B1B78002BFBD1FC603D820E33BB82664A13785078000218430C23F9180FF0AFFE041C03F00AFA002C00D1FB
:401D8000A9E0644B1B78022BECD0A4E0564A136804218B4313605E4B1B78002BFBD1201C291CFEF7C3FC96E0002D6FD04F4B0121512299541B7D002B3FD000224B4B1A75EB
:401DC0000026554C002518E001F076F8C3B2002BFAD0303B092B0CD8FF231840303860432D18201C0A2101F0E7FC041C0136F6B203E04A4802F006FB01E0052EE4D9404BEB
:401E00001878291C01220EF05FF9012803D1444802F0F8FA5CE0032803D1424802F0F2FA56E0072803D1404802F0ECFA50E000284ED13E4802F0E6FA4AE001F053F8C0B204
:401E40000A2807D0294A537F111C2031C854013353773DE0264A274B5A80244D00245123EC546B7F2E1C2036F054301CFFF75EF86C772C627460B460F46034617461B461C8
:401E8000F46134627462B462F46221E05123174AD35C002B1CD0174A5388013B9BB25380002B15D1114951228B541148114A50804B770B624B628B62CB620B634B638B6300
:401EC000CB630B644B648B64CB64194802F09AFA7B689D4601E07B689D46BD4607B0F0BDCC000020FF030000C80F24402C050020581B00004C010020A47E01008815002083
:401F00009C27002070780100B07E0100587801009827002094270020A0860100BC7E0100D07E0100F07E0100187F0100387F0100507F010070B5161C002405E04D1C087892
:401F400000F018FF0134291CB442F7DB301C70BDF0B557464646C0B483B04518441C00236BE022780A2A67D8920037498A589746631E1B780133DBB25EE0631E1A78531E8A
:401F8000D90FCB185B10D9B2002301E00133DBB28B42FBD30132D3B24EE0631E1A78531ED90FCB185B10D9B2002301E00133DBB28B42FBD30132D3B23EE0244B1B785A1E25
:401FC00013019B1A5B00224EF6180936301C0021142202F0F5F8671E3A78013A611C301C02F0E5F83B780133DBB225E0174B1B78013B98461E01F71A7F00154B9A46574462
:4020000009370197381C0021142202F0D9F8671E3A78013A611C019802F0C9F84346F31A5B00534401225A773B780133DBB203E0631E1B780133DBB2E418A54291D803B078
:402040000CBC90469A46F0BD6C800100800500209C150020F0B55F4656464D464446F0B48BB0051CA44B5B78012B00D19CE00122A14B5A700378002B00D095E09E4B1C7853
:402080000134E4B21C70671E3B01DB1B5B009B48C0186968053202F08AF86B78002B07D13B01DB1B5B00954AD31800229A7106E03B01DB1B5B00914AD31801229A718F4ED2
:4020C0003801C31B5B00F318DC712A7C1A72181C6968062202F06BF8E868297AFFF738FF854B1B785A1E13019B1A5B00F3185B7F002B07D013019B1A5B00804AD318002261
:402100005A770FE013019B1A5B007C4CE4180934201C0021142202F053F8201C7849052202F045F8744B1878013803011B1A5B00724AD318D97908229A569B79012B02D155
:402140005133099301E0502309936C4B0401251A6D005D196E79B0462E79B446EF78AE786D78A946251A6D00ED5C201A4000181809304346009363460193029703964B469E
:402180000493059506905F48099B02F0BFF800F0FFFD5D4B1B6880221202134000D00123C318002BF3D19FE000240DE023011B1B5B00524959186868062201F0E9FF00283C
:4021C00000D191E00134E4B24B4B1B789C42EDD30133DCB2484B1C70661E33019B1B5B004648C0186968062201F0E1FF6B78002B07D133019B1B5B00404AD31850229A7114
:4022000006E033019B1B5B003C4AD31852229A7133019B1B5B00394AD318DC712B78002B62D12A7C354C33019E1B7600A6193272E868297AFFF78CFE2F4B1B785A1E130189
:402240009B1A5B00E3185B7F002B07D013019B1A5B002A4AD31800225A770FE013019B1A5B00264CE4180934201C0021142201F0A7FF201C2249052201F099FF1E4B1878C9
:4022800001381E4B9A460401221A52005244D17993799B465579A9461579A846D578AC4697785678251A6D005346ED5C101C0930127A52B24B4600934346019363460293E5
:4022C00003970496059506900E485B4602F01EF800F05EFD0C4B1B6880221202134000D00123C318002BF3D10BB03CBC90469946A246AB46F0BDC046800500209C15002025
:4023000098800100A080010008022440164B18780A2810D8002120E00B015B1A5B00134A9B1800221A705A709A70DA701A715A710131C9B200E000210929EDD90FE00B011C
:402340005B1A5B00094A9B1800221A705A709A70DA701A715A710131C9B28142EFD3024B00221A705A707047800500209C15002080B58CB000AF021C3960FB1D1A700023A9
:40238000FB622B4B1B68FB612A4B1B68BB612A4B1B687B61294B1B683B61294B1B68FB60284B1B68BB60284B284A1A60284B294A1A602023FB18284A1A602023FB18012213
:4023C0005A603B681A682023FB189A601E4B2022BA181A601E4B214A1A602023FB18204A1A60FB1D1A782023FB185A60164B2022BA181A60164B1B4A1A60134B1B68FB6208
:402400000B4BFA691A600B4BBA691A600A4B7A691A600A4B3A691A60094BFA681A60094BBA681A60FB6A181CBD460CB080BDC04600010B4008010B401CFF0B4020FF0B4027
:4024400028FF0B402CFF0B4008001040B6E800000400104015000080B6D7060004000080B6EB000018000080014B18787047C04606F2FF0FFEE7C04608B5031C094A106814
:40248000C318094A9A1A802189008A4202DC054A136005E001F03CFE0C2303600120404208BDC04658010020B82F002070B50F4E0F4D13E029686B68AC68002202E001C9FD
:4024C00001C30432A242FAD1E868002202E0002102C304328242FAD11035013E002EE9D101F01CFEFDF7C6FEFEE7C04601000000C087010008B50F4A136801218B431360DD
:4025000000230AE0032B03D89A000B49505800E00A4899000A4A885001332F2BF2D9FDF7F3FD0022074B1A60024A116801230B43136008BD00001040000000007524000075
:4025400000000020C00000200323044A1360044A13600022034B1A607047C0463000304030003140000E3F4008B50A1C002101F027FE08BD70B5002905D11A4CE67F00234D
:40258000002200250FE0184CE67FF8E7E25C002A0DD00133DBB2E15C0839012902D99B18DBB200E00125B34201D2002DEED0002D16D0D218D1B20133DBB21A1C02E0A55469
:4025C0000132D2B28A4209D2D51A455D002DF6D104E0A318002018700132D2B29142F8D870BDC0465C0100208405002008B500F035FB08BD08B50022114B1A70114B1A70B1
:40260000114B1A70114B1A701149488C114B1880888C5880203188791873C97919710621D981223119825A82FA2189009982DA82013A1A831F32084B1A80FFF7D7FF08BD0A
:40264000A0270020982700209F2700209E2700205C010020742700208E27002010B58AB0041C04A81649182201F0A1FD2023154AD35C002B05D1FFF7BDFF01212023114A85
:40268000D154002C19D0104B1C60062300930F4B01936E23FF3302930D480E490E4A04AB02F08CFD002809D101220C4B1A700C48112131320FF086FF00E001200AB010BDDE
:4026C0000081010084050020C8160020808E0100E9290000D0160020A4100000942700200083010008B502282DD81B4B1B78062B2BD11A4B1B785B072AD4002808D1184BA9
:402700001E229A870232196B0A801B6B5A800CE001280AD1124B96229A87C822D200196B0A801B6B8022D2015A800E4B18700C482C300EF001F800280CD1084A1178042342
:402740000B43137006E0012004E00420FF3001E00420FF3008BDC04694270020A02700205C0100209F27002008B50EF05FF8034A117808230B43137008BDC046A027002090
:402780007047C04608B5022820D8002806D1104B0A221A8526325A849A8409E0012807D10B4B96221A85802212015A84F83A9A84084B1870064820300DF048FF002806D1CE
:4027C000054A117804230B43137000E0012008BD5C0100209E270020A027002008B50DF063FF034A117808230B43137008BDC046A027002010B5134B1B78062B1CD100285E
:402800001DD0002305E0C15C0F4AD21851710133DBB2052BF7D983790B48C3720DF0C2FE041E0DD10522074B1A70084B1888002806D00AF057FE03E00424FF3400E00124F9
:40284000201C10BD94270020742700208E27002038B50DF06FFE041C051C064B1B88002B01D00AF059FE002D02D10622024B1A70201C38BD8E2700209427002010B500283E
:402880001DD0104B9A6B5468998EC9B2002302E0E2540133DBB28B4202D2C25C002AF7D18B4202D2E31800221A70041C0021FFF761FE201C0121FFF75DFE002000E0012012
:4028C00010BDC0460083010010B5002812D00A4B9B6B5C681978002302E0C2540133DBB28B4202D2E25C002AF7D1C31800221A70002000E0012010BD008301000378407829
:40290000000218437047C04638B583890B2B20D1041C04300021221C35330FF06BFE051E11D16068FFF7EAFF830706D50A4B1B6882204000211C984705E0074B1B68062013
:40294000FF30211C9847054A137801218B43137000E00025281C38BDC8160020A0270020024B00225A701A707047C0469C2700208379002B07D000200BE0C25C002A07D110
:402980000133DBB200E00023052BF6D9002000E00120704708B50378042B05D1034B1B78052B01D1FFF754FF08BDC0469427002010B582B0041CFFF7A7FF0A4B1B78DB07F0
:4029C0000ED4002809D001A912238B70A3890B80C87020680FF062F802E020680FF0D8F802B010BDA0270020F0B583B0051C0C1C884A117801230B4313704C2800D9F8E015
:402A00008300854AD3589F4601AE0727377000237370301C04F0EBF8377001237370301C04F0E5F87D4B1E68301CFFF7A1FF00280CD0301C02F0B0FB784E30680021FFF72A
:402A40009FFE30680121FFF79BFE14E0744B1B78744E3370744B1B787370744B1B78B370301C02F099FB301C0021FFF789FE301C0121FFF785FE00200DF054FC06226C4B2C
:402A80001A70B6E0201CFFF785FFB2E02278694B1A70AEE05F4B1B789B0600D5A9E0664B1B78102B02D10522634BDA70634F3878614E311C0DF00AFE3878311C0DF01BFB28
:402AC00097E05F4B1B88002B01D00AF025FD0222574B1A708DE00622554B1A7089E0544B1B78022B00D184E04A4A1278D20700D47FE0484A1278520708D503224C4B1A702C
:402B0000444A137804218B43137072E0414A1278120708D50622464B1A703E4A137808218B43137065E0032B63D10622404B1A70444B1B78002B5CD10120FFF7D3FD00286C
:402B400057D103223A4B1A7053E0394B1B78022B4FD0304A1278D2074BD52E4A1278520707D50421324B19702A4A13788B4313703FE0284A1278120708D506222C4B1A707A
:402B8000244A137808218B43137032E0042B30D10622274B1A702C4B1B78002B29D10120FFF7F0FD002824D10422214B1A7020E0224E301C211C022201F0F9FA31785A319B
:402BC0008900224B591805312148042201F0EFFA0FE0FFF7C5FE0CE061881E4B994201D98021890020880EF065FF02E0201CFFF7DFFE084B1A7811231A4209D0054A1378E7
:402C000001218B431370144B1B68281C211C984703B0F0BDA02700205C8401009C0100207CF1FF0FA00100207DF1FF0F7BF1FF0F9427002098270020500200209C270020B9
:402C40008E2700209F2700209E270020808E010090270020FF010000C81600207047C04608B5092000F006FA08BDC04608B500F015F908BD08B500F09FF808BD08B5054ADD
:402C80001368802109060B431360FFF7E9FFFFF7EDFF08BD0000244008B5064B1B78002B04D1FFF7E7FF0122024B1A70FFF7E6FF08BDC046A80500200A4B1A680A4B1B68A6
:402CC0009A420CD0084B1B680133084A934200D10023074AD05CC0B2034A136000E000207047C046AC2F0020A427002001080000A8270020074B1B68074A1268934203D362
:402D0000054A1068181A04E0034A10681B1A034A98187047AC2F0020A42700200108000008B5092000F0B0F90B4B1A680B4B1A6000220B4B1A700B4B1A68802149020A43DF
:402D40001A601968084A0A401A60084A084B1A60092000F08FF908BDA4270020AC2F0020A92F002004032440FFFFFEFFED0F0000C00F2440044B1B681F221340082BF9D0E8
:402D8000024B18607047C0460802244040022440024B1B681F2018407047C0460802244008B500F0C1F808BD08B500F0CFF808BD08B500F0E9FB08BD38B5214A214B1A60F3
:402DC0000024214B1C600122204B1A60204B21490B6007202049086020490C6020490A60204A1360204B1C600425204B1D60023000F04AF90920032100F06EF909201C4973
:402E000000F058F9012000F03FF90120032100F063F90120174900F04DF9174B1C60174B1C60174B1C60174B1C60174B1D60174B1C60174B1C60174B1C60174B1C7038BDEC
:402E40000B0000020000244040002440480024400700008000032440040324401003244044002440000224400402244050002440A9350000B12D0000880E2440C80E2440A5
:402E8000480F2440080F2440C80F2440880F2440AC2F0020A4270020A92F0020044A1168044B0B40902109040B4313607047C04600010240FFFF0FFF08B5FFF71BFF0028E7
:402EC00002D0FFF7F9FE00E00020054B1A68D8239B001A4203D01A1C014B1A60002008BDC00F244010B5092000F0CEF8FFF702FF002806D0092000F0BDF8FFF7DDFE041C10
:402F000004E0074B1C68092000F0B4F8054B1868D822920010401A600002204310BDC04640032440C00F244008B5074A1368802189010B43136000F027FB012000F0AEF89C
:402F4000012000F097F808BD4800244008B5012000F09AF808BDC04604490A68BF231A4080017F3B184010430860704700020440034A1168034B0B4080041843106070476A
:402F800008020440FFFFE3FF04490A68BF231A4080017F3B184010430860704700030440034A1168034B0B40800418431060704708030440FFFFE3FF0230800803D0013842
:402FC000FDD1C046C046C0467047EFF3108072B6704780F31088704710B5041CFFF7F5FF07231C40E40404490B68044A134023430B60FFF7EEFF10BD00010B40FFFFC7FFF8
:4030000010B586B0041CFFF7E0FF0E4B1B6800930D4B1B680193033C0C4B1B5D02930C4B1B68039304AA0B4B04936B4605930A4B1A600A490A4A11601B68FFF7CAFF06B0EC
:4030400010BDC04608010B4000010B409085010030001040B6EA0000080010401700008004001040024B1B68012018407047C0460C002E401F2318401E3B8340181C014BAE
:403080001860704700E100E01F2318401E3B8340181C014B1860704780E100E01F2318401E3B8340181C014B1860704780E200E001BE704738B5041C0D1C1F2802D90020E5
:4030C000FFF7F6FFA400034B9C4664442068256038BDC0464000002070B5041C0E1E032E02D90020FFF7E4FF1F2C02D90020FFF7DFFF03252540ED000635FFF766FFA408B5
:40310000A400074B9C46644423680322AA409343AE40351C1D432560FFF75BFF70BDC04600E400E0034A13681B041B0C02490B43136070470CED00E00400FA0510B5041CA2
:4031400006E0084B1868FFF737FF074B9C46644480231B029C42F4D8024B58686043FFF72BFF10BD540200200080FFFF08B5034B1B7A5843FFF720FF08BDC0465402002002
:4031800010B5041C0F4A116801230B4313600E4A0E4B1A600E4A1368802109020B431360002809D100200CE00120FFF7DFFFFFF759FF002804D1013C002CF5D1102000E07B
:4031C000002010BD60F02E400220000078002E4010002E4008B5FFF7F8FE044A136804218B43136030BFFFF7F4FE08BD10ED00E030B583B0FFF7E9FE041C0E4A13685B000A
:403200005B0813600C4B1B889BB20C4A13600C4A116804230B4313600A4D2B6801930220FFF7DAFE30BF019B2B60201CFFF7D1FE03B030BD00000B4052F1FF0F0C000B40D9
:4032400010ED00E000010B40034B1868C0231B02184000D00120704700010B4010B50D4B1A6801218A431A601A68022082431A60094A10683024A043203C20431060106877
:40328000093CA043014311601A68802109060A431A6010BD00F02E4000FF2E4038B51D4B1B6801241C40002802D0012816D02BE0184B196801229143196019680220814378
:4032C0001960154B19682E3081432038014319601968093881430A431A6018E00D4B1A6802218A431A600C4A10680725A8430143116011683020814310380143116019680F
:4033000001220A431A6002E00020FFF7D1FE201C38BDC04600F02E4000FF2E4008B5FFF754FE044A1368C02109020B431360FFF750FE08BD00010B4010B5FFF746FE0849BA
:403340000A68084B1A408024E40122430A600A6813408022120213430B60FFF73AFE10BD00010B40FF3FFFFF70B5061CFFF72DFE041CFFF769FF002803D0FFF7DDFF01253E
:4033800000E000250848331C0340084A106808490840184310601368012D01D1FFF7BEFF201CFFF716FE70BD0404040010020B40FBFBFBFF10B5244B1B685B0715D5234B8D
:4033C0001B685B070ED5224B9969042001401F4C22688A4322609A6982439A61DB68002B00D098470420FFF7BFFF174B1B685B0518D5164B1B685B0510D5154B99698022D6
:40340000D2001140114802688A4302609969114A0A409A611B69002B00D098478020C000FFF7A2FF084B1B685B030CD5074B1B685B0304D5064B5B69002B00D098478020D0
:40344000C002FFF791FF10BD10020B4064020020B0050020FFFBFFFF8423014AD05070470000002010B5041CFFF7AFFD044A1168044B0B40A4031C431460FFF7AAFD10BDD2
:4034800010E400E0FF3FFFFF80229202014B1A607047C04600E100E080229202014B1A607047C04680E100E010B5041CFFF7F4FF201CFFF7D1FF0320FFF7D4FFFFF7E4FFF3
:4034C00010BDC04608B5FFF780FD044A136801218B431360FFF77DFD08BDC046000020400004000C014B18607047C046080120400004000C014B18607047C0461401204002
:403500000004000C014B18607047C0460C012040014B18607047C0463801204008B50022084B1A600C32084B1A600120FFF7F0FF0A20FFF7DDFF0A20FFF7E2FF0020FFF7A3
:40354000CFFF08BD0001204024012040014B18607047C0463001204004490A68F7231A40C000EF3B184010430860704700020440034A1168034B0B40400218431060704770
:4035800008020440FFF1FFFF034A10681023184010600009C0B27047100104400222014B1A60704780E200E008B5144B1B68002B00D09847124B1B685B071ED5114B1B6818
:4035C0000133114A934200D10023104A1268934205D10F4B1B6820220E4B1A7006E00C4A1268D2B20C49CA54064A13600B4B1B68DB06E3D104220A4B1A6008BDAC05002089
:40360000CC0F2440AC2F002001080000A427002040032440A92F0020A827002008032440C00F24400160704701607047244B1A781202244B1B781A43234B1B781B022349FE
:4036400009780B4322498B4201D1072A06D0D42109018B4206D1042A04D102E01D4B042200E01C4B1C490B601C4B1A601C4B1B781B021C4A1278134380229201934202D023
:40368000002B02D002E0184B00E0174B174A1360174B1B781B02174A12781343164A934205D0164A934204D0052B05D103E0144B02E0134B00E0124B124A13607047C046FB
:4036C000D9F0FF0FD8F0FF0FDFF0FF0FDEF0FF0F580B0000580D00006C002E4074002E40DBF0FF0FDAF0FF0F0220000078002E40DDF0FF0FDCF0FF0F0F0F0000050500004A
:40370000050F000080002E4008B5FFF72FFD08BD08B500F02FF808BD08B500F033F808BD08B500F02FF8034800F00EF8032000F011F808BDB137000008B5024800F02AF8B6
:4037400008BDC046B1370000014B18677047C0460000002010B5041CFFF737FC044A1368C0218B43A4011C431460FFF732FC10BD0CE400E080225201014B1A607047C046B7
:4037800000E100E080225201014B1A607047C04680E100E010B5041CFFF7F4FF201CFFF7D3FF0320FFF7D6FFFFF7E4FF10BDC04608B513F0ADFD08BD002243088B4274D373
:4037C00003098B425FD3030A8B4244D3030B8B4228D3030C8B420DD3FF22090212BA030C8B4202D31212090265D0030B8B4219D300E0090AC30B8B4201D3CB03C01A5241CA
:40380000830B8B4201D38B03C01A5241430B8B4201D34B03C01A5241030B8B4201D30B03C01A5241C30A8B4201D3CB02C01A5241830A8B4201D38B02C01A5241430A8B42A0
:4038400001D34B02C01A5241030A8B4201D30B02C01A5241CDD2C3098B4201D3CB01C01A524183098B4201D38B01C01A524143098B4201D34B01C01A524103098B4201D3D4
:403880000B01C01A5241C3088B4201D3CB00C01A524183088B4201D38B00C01A524143088B4201D34B00C01A5241411A00D20146524110467047FFE701B5002000F0FCF86F
:4038C00002BDC0460029F7D003B5FFF775FF0EBC4243891A1847C04603460B437FD4002243088B4274D303098B425FD3030A8B4244D3030B8B4228D3030C8B420DD3FF2280
:40390000090212BA030C8B4202D31212090265D0030B8B4219D300E0090AC30B8B4201D3CB03C01A5241830B8B4201D38B03C01A5241430B8B4201D34B03C01A5241030B55
:403940008B4201D30B03C01A5241C30A8B4201D3CB02C01A5241830A8B4201D38B02C01A5241430A8B4201D34B02C01A5241030A8B4201D30B02C01A5241CDD2C3098B4253
:4039800001D3CB01C01A524183098B4201D38B01C01A524143098B4201D34B01C01A524103098B4201D30B01C01A5241C3088B4201D3CB00C01A524183088B4201D38B00AD
:4039C000C01A524143088B4201D34B00C01A5241411A00D201465241104670475DE0CA0F00D04942031000D34042534000229C4603098B422DD3030A8B4212D3FC228901F2
:403A000012BA030A8B420CD3890192118B4208D3890192118B4204D389013AD0921100E08909C3098B4201D3CB01C01A524183098B4201D38B01C01A524143098B4201D3F9
:403A40004B01C01A524103098B4201D30B01C01A5241C3088B4201D3CB00C01A524183088B4201D38B00C01A5241D9D243088B4201D34B00C01A5241411A00D20146634633
:403A800052415B10104601D34042002B00D54942704763465B1000D3404201B5002000F00BF802BD0029F8D003B5FFF715FF0EBC4243891A1847C0467047C046F0B55F4618
:403AC00056464D464446F0B4051C061C080387B099464F00030BCC0F92469B467F0D019467D06C4B9F4236D080205B4640031843C0006B0F1843684B83469C46002398464B
:403B0000EE00674400934B4649461D03C90F5B0052462D0B5B0D894600D16EE05D498B4264D080205C4940038C4600210543ED00500F0543D20063444846FF187B1C9A462D
:403B4000009B604002900B430F2B00D9ACE053489B00C3589F465B461D4300D082E00823009300239B46023300269846CBE7029B01934346022B59D1012400250026019B58
:403B80001C40444B00212D030A0D12052D0B1543434A1B0515401D436D00E4076D082543301C291C07B03CBC90469946A246AB46F0BD2B434ED05B46002B00D185E15846CC
:403BC00000F088FA021C2823291C9B1A161C5846D940083EB0400B1CB54003439B462E1C0023304F0093BF1A98468CE7514629432ED10025002202219EE75146294323D0FE
:403C0000002D00D154E1281C00F064FA031C28215046C91A1A1CC8405146083A914095400A1C05431F480021C31A85E7032B00D1C2E1012B00D06DE14446019B00251C404F
:403C4000E4B2002300269DE700250022012173E7032171E70423009300239B4601330026984650E70C230093093B98464BE7802500242D030026074B84E74B46AB46161CCF
:403C80000193884675E7029BAB46161C019388466FE7C046FF07000001FCFFFFC0850100FFFF0F800DFCFFFF330C3604360C9C46331C140C1204120C5343984663465343FA
:403CC0009946634663430193331C41466343090C4B445B18994505D9802040028146019949440191190C039141460904090C1B045B1804932B0C9846331C2D04290C4B436E
:403D0000604600934346654658435E43009B4D431B0C9946AE194E448446B54203D980235B029946CC44350C2B1C0398634484460593009B36041B041B0CF3189C446046EC
:403D4000039058460504060C280C84465043351C81466046654344434846000C8346724314195C44A24203D98022520293465D44220CAD184A461204120C24044046A41843
:403D800062464A437143464360460096464670438046100C84468844E044414505D9802149028C46009961440091019803998446614499429B415B429946059843468446C2
:403DC0001204120C1B049B1863449C46AB4683429B4140460A19CC44A2428941E344CC45B6415C46000C8046494276425B426418334398448C428941AB459B4149425B425E
:403E000019430D1C009B4544EE187602E50D2E43B346049B56021E43731E9E415B46D20D324366021643DB010AD50123334076081E435B46DB071E435B465B089B465746EA
:403E4000634BFB18002B5ADD720709D00F223240042A05D0321DB242B6417642B344161C5A46D20106D55A465A4B1A4080239346DB00FB18584A934234DD0124029B002546
:403E80001C400026554B7DE680205B460003034208D0054206D105432D032D0B4C46161C4E4B6FE65D4605432D032D0B4B4B69E6504600F00FF9031C2033272B00DCA6E6AA
:403EC0005546083885400022ACE6281C00F002F9021C2032272A00DC75E6083885400026AB467DE65A46F608520716435A4601245502029A5B052D0B5B0D144042E6384DBF
:403F0000ED1B382D0ADD0124029B00251C400026002337E6019B5746029391E71F2D25DC304B321C9C466744BE405B46BB40371CEA407E1EB74113433B431E1C5B46EB4016
:403F40001D1C730709D00F233340042B05D0331DB342B6417642AD191E1C2B0220D50124029B00251C40002601230BE65A461E4BDB1BDA40131C202D1CD01C4A94465A4617
:403F80006744BA40171C3E43721E96411E4307230025334007D00F2300253340042BD6D16B076D022D0B0124F6081E43029B1C400023E7E50027E6E780255B4601242D0393
:403FC0001D43019B2D0323401C1C2D0B034BD9E5FF030000FFFFFFFEFE070000FF07000002FCFFFF1E040000E2FBFFFF3E0400000B0330B5134C1A0B4B00051C5B0DC90F50
:404000000020A34210DD104883420EDC80200F4C40030243E41A1F2C0ADD0D48C31ADA40131C48424340581830BD0A4BC818FBE7281CE040084CA44663449A40131C034340
:40404000EFE7C046FE0300001D0400003304000013040000FFFFFF7FEDFBFFFF38B5041E16D0C50F00D04442201C00F033F8174B1B1A0A2821DC021C211C153291400A1CBD
:404080000B21081AC4405B052403240B5B0D03E000250023002400220021101C24030A0D1205240B14430A4A1B0514401C436400ED0764082C43211C38BD0B3884405B0504
:4040C0002403240B5B0D0022E6E7C0461E040000FFFF0F801C2101231B04984201D3000C10391B0A984201D3000A08391B09984201D30009043902A2105C40187047C04680
:4041000004030202010101010000000000000000014B18687047C046080500200E4B70B500251E1C0D4CE41AA410A54204D0AB00F35898470135F8E714F030FB084B002586
:404140001E1C084CE41AA410A54204D0AB00F35898470135F8E770BDA8870100A8870100A8870100B087010008B5034B011C186800F074F808BDC0460805002008B5034B5E
:40418000011C186800F024F808BDC0460805002030B50024944208D0035D651C0C5DA34201D0181B02E02C1CF4E7002030BD002310B5934203D0CC5CC4540133F9E710BDB1
:4041C000031C8218934202D019700133FAE7704730B500293ED004390B68002B00DAC9181D4A1368141C002B02D14B60116031E099420DD208680A189A4203D11368C318C9
:404200000B6053684B60216024E08A4203D8131C5A68002AF9D11D685C198C420BD10968691858181960904214D110685268091819605A600EE08C4202D90C23036009E0CE
:4042400008680C18944203D114685268001908604A60596030BDC046D0140020032370B5CC1C9C430834051C0C2C01D20C2405E0002C03DA0C2300202B6042E08C42F9D3C1
:40428000204A1368101C191C002913D00A68121B0DD40B2A02D90A608B181FE08B4202D15A6802601BE04A685A600B1C17E00B1C4968E9E7144E3368002B03D1281C00F0EF
:4042C000ABF83060281C211C00F0A6F8031C421CD0D00322C61C964386420AD11C60181C07210B301A1D8843821A0AD05142995007E0311A281C00F08FF8431CBAD0331CB0
:40430000ECE770BDD0140020CC1400200FB40B4B13B51C68002C05D0A369002B02D1201C00F090FA05AB201CA168049A019300F09BFB16BC08BC04B01847C04608050020CA
:4043400070B5051C0E1C002804D08369002B01D100F078FAAC68A3891B0702D52369002B19D1281C211C00F001F9002813D00120404245E03178002B1BDAA269934211DADA
:40438000221C281C00F09AF8013042424241D0B20028ECD10136A3683278013BA360002AE8D10CE023681970236819780A2903D1E6E723681970236801332360EAE7002B0A
:4043C00017DAA269934208DB0A2322681370236819780A2911D1281C01E0281C0A21221C00F06CF8013042424241D0B2002806D0BDE70A23226813702368013323600A2076
:4044000070BD000008B5034B011C1868FFF798FF08BDC0460805002038B50023064C051C081C2360FEF728F8431C03D12368002B00D02B6038BDC046B02F0020021CC9B20C
:404440001378002B03D08B4204D00132F8E7181C002900D1101C704702780B78002A03D0013001319A42F7D0D01A7047002330B59A420DD0013AC45CCD5CAC4202D1934273
:4044800002D1251C631B03E00133002CF3D1F8E7181C30BD031C30B5002A07D00C7801335D1E013A2C700131002CF5D19A18934203D0002119700133F9E730BD70B5051CE5
:4044C0000E1C141C002804D08369002B01D100F0B9F9234B9C4201D16C6808E0214B9C4201D1AC6803E0204B9C4200D1EC68A369A360A3891B070AD52369002B07D023682B
:404500002269F6B2981A636998420FDB08E0281C211C00F02BF80028F1D0012040421DE0281C211C00F020F90028F6D1A3680130013BA36023685A1C22601E706369984256
:4045400005D0A389301CDB0708D50A2E06D1281C211C00F009F90028DFD1301C70BDC046088701002887010048870100354B70B51D68061C0C1C002D05D0AB69002B02D1BE
:40458000281C00F05FF9304B9C4201D16C6808E02E4B9C4201D1AC6803E02D4B9C4200D1EC68A3899AB2110723D4D10607D409220120326037321343A381404240E05307F7
:4045C00013D5616B002908D0231C4433994202D0301CFFF7FDFD002363632422A3899343A38100236360236923600822A3891343A3812369002B0BD1A023A2899B001340DE
:4046000080229200934203D0301C211C00F0ACF90123A289134005D00023A36063695B42A36103E0910700D46369A36000202369834205D1130603D540231A43A281013804
:4046400070BDC04608050020088701002887010048870100F7B58A89051C0C1C13075ED44B68002B02DC0B6C002B1ADDE76A002F17D000232E682B6080235B011A4001D04C
:40468000626D15E0281C216A0123B847021C431C0ED12B68002B0BD01D2B01D0162B02D12E6000205EE04021A3890B43A38159E0A3895B0706D56368D21A636B002B01D014
:4046C000236CD21A0023281C216AE76AB847A389421C06D12A68002A03D01D2A01D0162A19D10022626022692260DB0405D5431C02D12B68002B00D16065616B2E60002918
:40470000CFD0231C4433994202D0281CFFF760FD0020606326E040221343A38122E00F69002FBED00B680F60DB1B01930023920700D14B69A360019B002BB2DD281C216A0F
:404740003A1C019BA66AB047002806DC40220120A38940421343A38104E0019B3F181B1A0193E8E7FEBD000038B50B69051C0C1C002B01D100201CE0002804D08369002B8B
:4047800001D100F05FF80B4B9C4201D16C6808E0094B9C4201D1AC6803E0084B9C4200D1EC680C22A35E002BE4D0281C211CFFF751FF38BD088701002887010048870100F3
:4047C00008B5024900F0AEF808BDC04669470000002310B5041C03604360836081814366C281036143618361191C08225C30FFF7E7FC054B24626362044BA362044BE3628E
:40480000044B236310BDC046954F0000BD4F0000F54F00002150000070B568254B1E5D430E1C291C7431FFF719FD041E08D000212A1C016046600C30A0606832FFF7C0FC60
:40484000201C70BD836913B5002B28D18364C3640365134B134A1B6882620193984201D101238361041C00F01FF86060201C00F01BF8A060201C00F017F80421E06000222F
:404880006068FFF7A5FFA06809210122FFF7A0FFE06812210222FFF79BFF0123A36113BD04870100C1470000F8B51D4B061C1D68AB69002B02D1281CFFF7C4FF4835AC6895
:4048C0006B68013B05D40C22A75E002F10D06834F7E72B68002B06D1301C0421FFF79CFF2860002801D02D68E9E70C23336016E00123201C5B42E3810233A38167662760D1
:40490000A760676027616761A7615C30391C0822FFF756FC201C6763A763A764E764F8BD04870100F7B5041C071C002601914834002C16D06368A5680093009B013B00934D
:404940000DD4AB89012B08D90E22AB5E013304D0381C291C019B984706436835EDE72468E6E7301CFEBD0000F0B58B8991B09B0706D50B1C47330B600B6101234B6145E0C2
:404980000C1C0E23C95E061C002904DA8023A5891D4010D10CE001AA00F06EFB0028F5DBF023029D1B021D40194BED186B425D418027FF0001E000254027301C391CFFF7CD
:4049C0004DFC00280CD1A3899A051FD402221343A381231C4733236023610123636115E080220C4BB362A38920601343A38120616761002D0AD00E23E15E301C00F04EFBF7
:404A0000002803D00122A3891343A38111B0F0BD00E0FFFFC1470000936810B5013B9360002B05DA9469A34208DBCBB20A2B05D01368581C10601970C8B201E0FFF73EFDA5
:404A400010BDF8B5061C0F1C141CD518AC4208D02178301C3A1CFFF7DFFF0134431CF5D100E00020F8BD0000F0B59FB0061C0F1C02920593002804D08369002B01D1FFF726
:404A8000E1FE794B9F4201D1776808E0774B9F4201D1B76803E0764B9F4200D1F768BB891B070AD53B69002B07D0002306AD6B6120336B761033AB763DE0301C391CFFF7B7
:404AC00055FD0028F1D001204042CAE0059A111D12680591002A7EDB0992013423782E2B00D189E021786348032200F0FDFA002808D0604B0134C01A40238340181C2B68D9
:404B0000184328602178631C5B4806220293297600F0EAFA002800D191E0584B002B00D084E00722059B07339343083305936B69039A9B186B61029C2378002B04D1029BC9
:404B4000E31A049311D003E0252BF8D00134F3E7049B301C391C029AFFF773FF431C7BD06A69049B944663446B612378002B73D00122002352426A6002A95432521801348C
:404B80002B60EB60AB601370AB6521783C48052200F0AAFA002809D0394B0134C01A01238340181C2B6818432860EEE72B68DA0604D55322202102A8121811701A0704D55E
:404BC00053222B2102A81218117022782A2A00D17CE7099B05E05242EA60022213432B607BE72278303A092A04D80A214B4301349B18F6E7099371E763782A2B09D1059B80
:404C000002341A1D1B680592002B0DDA01235B420AE0002301342278303A092A04D80A214B4301349B18F6E707935BE705AB0093301C291C3A1C134B00E000BF07E005ABAD
:404C40000093301C291C3A1C0E4B00F08BF80390039B013300D06AE7BB895B0600D532E70B981FB0F0BDC0460887010028870100488701006E8701007287010000000000B0
:404C800068870100434A0000F7B5171C01930A698B6800900C1C934200DA131C221C3B6043321278002A01D001333B6023689B0602D53B6802333B60062523681D401ED0EF
:404CC000231C43331B785A1E9341226892061CD53020E1184031C870211C5A1C45310978A21840320233D1700FE0221C0123009801991932089EB047431C0ED00135E368A6
:404D00003A689B1A9D42F0DBDAE7221C009801994332089DA847431C02D10120404220E006232068E1683A6803400025042B03D18D1AEB43DB171D40A3682269934201DDEF
:404D40009B1AED180027AF420ADA221C0123009801991A32089EB047431CDED00137F2E70020FEBDF0B58BB006920A1C43320793059004920A7E0C1C109B6E2A00D1A8E0E3
:404D800011D8632A22D009D8002A00D1B2E0582A00D0C2E045310A707C4A4FE0642A1DD0692A1BD0B9E0732A00D1A7E009D86F2A29D0702A00D0B0E0202209680A432260CE
:404DC00037E0752A1FD0782A33D0A6E00E1C1A684236111D196013683370A1E021681A68080606D4490604D5111D19600023D55E02E0111D19601568002D3BDA2D23049A2B
:404E00006D42137036E021681A68080606D4490604D51568111D1960ADB202E0111D196015685A4B227E03930A276F2A1DD108271BE0221C782145321170554A1968039245
:404E4000081D226818600D68100602D4500600D5ADB2D30702D520231A4322601027002D03D1202322689A432260231C002243331A7002E00A27454B03936368A360002B56
:404E800003DB0422216891432160002D02D1049E002B0ED0049E281C391CFEF713FD039B013E5B5C281C3370391CFEF785FC051EF1D1082F09D12368DB0706D5636822694B
:404EC000934202DC3023013E3370049B9B1B23612BE009681A68080607D4490605D5111D19601368A28A1A8004E0111D1960136862691A600023049E236116E01A68111DBF
:404F0000196016680021301C626800F0EDF8002801D0801B6060636803E0261C42363270012323610023049A1370079B05980093211C069B09AAFFF7A7FE431C02D10120D3
:404F4000404221E0236905980699321C079DA847431CF4D023689B0705D4099BE068984212DA181C10E00025E368099A9B1A9D42F3DA221C0123059806991932079EB0470D
:404F8000431CDCD00135EFE70BB0F0BD798701008A87010038B50C1C0E25495F00F0B0F8002803DB636D1B18636503E0A289024B1340A38138BDC046FFEFFFFFF8B51E1C66
:404FC0008B89051C0C1C171CDB0505D50E23C95E0022022300F074F8A289054B281C1340A3813A1C0E23E15E331C00F01FF8F8BDFFEFFFFF38B50C1C0E25495F00F060F841
:40500000A389421C03D1054A1340A38104E0802252011343A381606538BDC046FFEFFFFF08B50E23C95E00F015F808BD38B5051C0020074C2060081C111C1A1CFCF77AFF82
:40504000431C03D12368002B00D02B6038BDC046B02F002038B50023064C051C081C236000F062F8431C03D12368002B00D02B6038BDC046B02F002038B50023064C051CBD
:40508000081C111C236000F057F8431C03D12368002B00D02B6038BDB02F002038B50023064C051C081C236000F04EF8431C03D12368002B00D02B6038BDC046B02F002007
:4050C00038B5051C0020074C2060081C111C1A1C00F042F8431C03D12368002B00D02B6038BDC046B02F0020C9B28218904204D003788B4202D00130F8E700207047000004
:4051000038B5051C0020074C2060081C111C1A1C00F02AF8431C03D12368002B00D02B6038BDC046B02F002058220120014B40421A607047B02F002058220120014B404295
:405140001A607047B02F00205822024B00201A607047C046B02F002058220120014B40421A607047B02F002058220120014B40421A607047B02F002010B501F04FFC10BDE2
:4051800010B501F061FC10BD10B501F065FC10BD10B500F067F910BD10B50749044609780220002907D1204601F080FC002802D120460BF0A1F910BD80030020FFB585B024
:4051C000002568460E9F057339481C460078002802D0082009B0F0BD10990F9801900097029105A807C800F067F80028F2D10120694603AA0D73002C1BD0002113E08B0060
:40520000E55A082D09D91E19B678002E05D0083DE55213785B1C137003E0042901D2012003E0491CC9B2B942E9D31178042900D300200028CED110990F9800F0A1FF0028B9
:4052400001D00120C6E701F0FFFB1A480599016021888180A188C180A27A0272A17B4172A089012540084843A0810220A073208950432081A5726846037B22460799069892
:4052800000F0A2F80028A5D16846094C007B607001F0F3FB00289DD1064808F0D7F8002898D108F0F3F8002894D1257092E7000068020020CC050020FFB53A4F1C4603467C
:4052C0003F780020364A0A9E0B9D002F12D100290FD0029991420CD3002B0AD0002C08D00999042905D3002E03D0FF216E318D4202D2012004B0F0BD00210A460D463FE028
:405300008B001E19B678002E36D0E35A002B33D073435B199DB20B0000F048F806040E15191D253F2388FF27A678233BEB37BB42DFD2032EDDD31FE0A3880C2BD9D91A4EEA
:40534000B342D6D818E02389302BD2D114E0A389482BCED110E0228A134E1346233B223EB342C6D208E0A38A0F4F1E46233E223FBE42BED29342BCD80028BBD1491CC9B2EF
:40538000099B9942BCD319461C2251434A190449521802998A42ACD8ACE70020EEE70000D808000068020020DCFF000030B47446641E2578641CAB4200D21D46635D5B0062
:4053C000E31830BC18470000FFB50F4606460024384381B01D46800701D0012438E0FEF7ABF9FEF799F900F097FA00282ED100F0D3FB00282AD11849084600F0F5FE00040B
:40540000000C23D13000154E04D03060B7800020F0803581AD1DEFB23946039800F046F804000ED1B088F2880837801AF9B280B201F0CAF9002801D0012407E0E8B200F0B7
:4054400019F900F031F906490120087000F076FA204605B0F0BD000099550000D80500206A02002010B503480078012801D101F04DF810BD6A02002070B5084B0446DA8843
:405480009E8800205518B54206D81D68AA182260DA885118D98070BD032070BDD80500200148008970470000D8050020F0B587B007460D4600208900009006916846FFF787
:4054C000DBFF844600285DD1304800990160002117E02E4B88001A680629115406D22C4C0419667882185670628805E0C419203CA67A8218567022891B68C018491C4280B1
:40550000C9B2A942E5D300242DE0601CC2B2059025E01E4FA30039689600581840887118039604904E88B04217D938466F46FE80B6464F786E4677710297049F4F80016821
:40554000039F5E18767879184E700168764659184E800068029F18184770521CD2B2AA42D7D30598C4B2AC42CFD36046002809D168460699FFF780FF8446002802D10549DA
:4055800000980860604607B0F0BD00006C020020D0870100700200207047000010B5002809D005494A68002A05D0011F08788000105801F0B7F810BD6C02002010B504465B
:4055C000FFF76EFFC0B2801DA0420CD307484068002808D0A100405801F016F8002801D00470001D10BD002010BD00006C020020F8B516460D460446FFF752FFC0B2801D7B
:40560000A04203D20020C0430090F8BDB2B2E9B2684601F01FF80099481C03D0024AA000526811500098F8BD6C020020F8B50746FFF736FF801DC6B20A49002005460C6878
:405640000DE06178002907D06188B94202D32078FFF7B4FF002804D1241D6D1CEDB2B542EFD3F8BD6C02002010B5002801D0FFF795FF10BD70B506460948002504680BE0B5
:405680006178002905D062882078121D0023FFF7AFFF241D6D1CEDB2B542F1D370BD00006C020020002070471CB5002469460C70142001902346054A05480FF025F9044892
:4056C0000068401C00D1FF2420461CBD25570000740200203EB5124A0146FF2000230124126800290DD0012914D0042908D104206946009308814B8110460FF000F980B2D5
:405700003EBD6846009304814381694610460FF0F1F8F4E768460093048143816946EBE77402002070B545890468416800890300FFF73CFE06240408081D2124002006F001
:40574000C1FC1BE0022908D0C8B22A4621460DF0C9F92046FFF788FF10E002202A4621460DF0C0F92946204600F00AF806E000200EF0BEFD02E020460FF066F9002070BD63
:40578000014B0022DB6818477802002070B5448905680089022803D0032809D0FF2070BD2246094C0023A46829460120A04708E0FFF7E6FC241DA2B200232946022007F0A7
:4057C00028FD002070BD000078020020704700000248002141600180418070477802002070B50C46002186B016460391012802D0022859D116E003A9012007F062FD0128F8
:405800001BD1039D324621462846FEF7D0FC0095287801900220694608814E816846FFF7B5FF41E0214D002B686809D0049004A9022007F046FD01281DD0022006B070BD6C
:40584000002812D0298840182146FEF7B0FC28880024801980B228806988091D884206D12C801348FFF792FF03E00320E6E788421AD96C6018E004986860E278A378110240
:4058800019430B4A698000231060E3565360032313815181A1788170E178C1706178417021780170042028800020C7E778020020E40500203EB515460C46022803D0042815
:4058C0000CD000203EBD0091019002206946088107484A8100680FF012F807E00DF002F9044B0022DB6829462046984701203EBD7402002078020020014AD16090607047F4
:4059000078020020034801688068081A0A21484300097047F005002010B5FDF701FF542204490548FEF743FC03490120C870002010BD0000EC870100D008002010B5FDF7D0
:40594000E7FE10BD70B5134C2368002B08D0207B1149C20705D04008400020738868A08070BD88680B4AA18880B29268814203D90A4D691A091802E0814202D2411A511807
:40598000A160A080A0689842EAD300F015F80EF0D3FF70BDF0050020C0102E40FFFF000010B508461946FFF7A7FF10BD704710B5FFF780FF10BD00000348002101604160D5
:4059C0008160C16070470000F005002010B502000DD0FFF7F1FF074C0321207B0843207310010A21FDF76EFF2060002010BDFF2010BD0000F005002000B504480A21806840
:405A000048430209FFF7D8FF104600BDF00500200248007B8007C00F70470000F005002010B537490868002802DA364B01221A70022290430860344800693149C00B403113
:405A4000096A08425AD0012000F074FA2E482F497C30FDF7E9FD2A480E216C30FDF7E4FD294820218430FDF7DFFD274814219C30FDF7DAFD2448FF21C131A430FDF7D4FDB2
:405A80002148FF212F31B030FDF7CEFD1E482049BC30FDF7C9FD1C481E49AC30FDF7C4FD1C491948491CB430FDF7BEFD16481A49B830FDF7B9FD14481849CC30FDF7B4FD1E
:405AC000114817490830FDF7AFFD0F481549A830FDF7AAFD0C4814498830FDF7A5FD0A4812498C30FDF7A0FD07481921C9029030FDF79AFDFDF79AFD002010BDFF2010BDF1
:405B000000F02E408802002000002E4055650000320300002F3F00003102000010520000EC160000FA12000031D000003AE3000070B50646581C80B245086D00002408E0F4
:405B4000304600F07FF81055000A1119A41C4870A4B2AC42F4D3D80705D0D0182038D15CC47FD454C17770BD30B50A4C002100195B1E07E0541864782502545C2C43048054
:405B8000891C89B29942F5DB994201D1515C018030BD000000102E4010B5FF2000F0CAF90F49FF2048700E481021801D41800121417001700A490020C91C4870FFF730FFF0
:405BC00004000AD100F0DEF807210648FDF72AFD044807211830FDF725FD204610BD000088020020CC112E4030B504465B1C1804450C002308E0204600F024F8241D59004B
:405C00005B1CA4B250529BB2AB42F4D330BD000070B500210A4D5B1E0AE0541864782602545C344346193480001D891C80B289B29942F2DB994202D1515C4019018070BD24
:405C400000102E40014940180088704700102E40014A80180180704700102E4010B50B490020487000F08EF8002000F089F9002000F076F907210648FDF7D4FC0448072188
:405C80001830FDF7CFFC002010BD00008B020020CC112E4010B506480078012803D102210448FDF7C1FC02490020C91E087010BD8B02002070F02E4010B50B46062812D018
:405CC00006DC01280CD0032801D1FFF7C7FF10BD0A28FCD00B28FAD105480078107010BDFFF75AFF10BD1146184600F065F910BD8E020020F8B5204DAC6A0127A0071F4E21
:405D0000002816DA307806280ED1286A384328621B480069F903084381B219481030FDF783FC042000F006F9134802212830FDF779FCE00711D0062000F0FCF80F49FF200A
:405D4000C91E48707078002802D1686B38436863094801212830FDF765FCE0050BD53078042802D1052000F0E5F80348FF2101312830FDF757FCF8BD40F02E408B020020CE
:405D800000002E4010B503212348FDF74DFC0120FDF7BAFC20483038406A204C80076178800F890001431C480C38FDF73DFC6078002808D0401E022181401820FDF772FEEC
:405DC000C000083800E0B82081B21548FDF72CFC1348032109021438FDF726FC10481149B830FDF721FC612189010F48FDF71CFC0D480321001FFDF717FC0C490C48FDF7FD
:405E000013FC0B480B496038FDF70EFC084801218838FDF709FC10BD70F02E408E020020D8102E4090890000041E2E40FF0F000058122E4020900000044800684007400FC1
:405E4000022801D0002070470120704700010B4000B5FFF7F1FF002805D009480168C908C900016000BD0748016A490849000162054801690122D2039143016100BD0000C9
:405E800000010B4040F02E4000002E400849087806280BD148780749002803D1486B400840004863C86A01221043C862704700008B02002040F02E40014800787047000071
:405EC0008B02002002484078022800D0012070478802002000B50300FFF768FA080D050D0B070507090D012000BD032000BD042000BD022000BDFF2000BD0000074A916868
:405F0000D26889B2064B92B2994204D105498A4201D1012100E000210170704780002E4033D000003FE3000001494870704700008B02002010B50446FDF7EEFB072C01D9FE
:405F4000FF2C01D102480470FDF7E2FB10BD00008B02002001494870704700008802002010B5064A012805D01921C9021046FDF75BFB10BD1D21C902F8E7000090002E404D
:405F800010B50A4A141D012808D009491046FDF74BFB08492046FDF747FB10BD04491046891CFDF741FB0349491DF3E788002E4031D000003AE300000078074AFF2803D01F
:405FC0004C2804D9553803E01078087070474F3808701070704700008A020020F0B50122002830D000292ED00224420600D003246D2342065B06D21800D0641C03460022ED
:406000001EE00C2516466E43104D00277519AF720E4F002ABB51696007D0661EB24209D106466D367606760E05E05E06760E8027BE1B00E080269B198919521C2E81D2B2B3
:40604000A242DED300221046F0BD000070070020074900200C2242435218927A012A05D0401CC0B20428F5D3002070470120704770070020F8B5044616460F000BD0184D8C
:406080006868A04203D9FF306E30A04203D3FF206E30864201D90120F8BD2046FEF778F800281BD0324639462046FEF780F8F0B200210C224A43521913895668F718A742B5
:4060C00008D90127A41B1B1B9772834206DAC01A1469C0B2491CC9B20429EAD30020F8BD7007002010B500F05BF80648FF22C1686E320C460448FEF75AF803492046FFF728
:406100006DFF10BD9402002000060020002070470020054A002902D0012902D002E0506000E09060002070479402002070B5084C154608460549A26889182A46FEF737F86F
:40614000A0684019A06028B270BD000000060020940200203EB50A226946FFF7E7FF044606480A2200686946FEF712F8002802D00020C0433EBD20463EBD00009402002028
:40618000002803D0FF226E32914201D2FF20704702490A61C860002070470000940200200248002141608160704700009402002070B5074C15460548626880182A46FFF7FA
:4061C00059FF60684019606028B270BD000600209402002010B503490A220968FFF7E8FF10BD00009402002010B50F4A002313600E4A13600E4B18600E4801600E490120F6
:4062000008600E490860000290600E490C4808600D4914300860FF381538506000F0BCF800F0CAF9002010BDC0020020A8020020D4020020D8020020C4020020B402002060
:40624000A0080020B8020020CC020020014610B50020002910D0094B1A689C685118A14209D25868196080188A0704D08A07920F891A091D196010BD002010BDA80200202A
:40628000F8B50024164E671E321F3D463168136806E01422624310328A58521C1BD0641C9C42F6D36A1C14D02C461422544322460C3288500C214843FFF7C8FF316800287A
:4062C00008510AD031680020103408517068401C70602846F8BD2546E4E73846F8BD0000B8020020F3B50026F64381B000281BDB1E490968884217D80299002914D01B4FB2
:40630000142204463F1D54432546396810354859401C09D0FDF700FA38682F1F4159C359994203DBFDF7F4F93046FEBD214608310091465801590C20704308180C22029975
:40634000FDF735FF0948761C001D0068C159B14200D100260549009A091D865008684159491C4151FDF7D4F90020FEBDB4020020002803DB07490968884202D90020C043A3
:40638000704704491422091D096850431030085870470000B4020020F0B500200D4A451E0346171F50600FE014260146714314680E1DA3510C461668083433511668083495
:4063C00035511468401C635039688842ECD30020F0BD0000B8020020F3B50026F64381B0002841DB2349096888423DD8029900293AD0204F142204463F1D544325463968C7
:4064000010354859401C2FD0FDF786F93868415900292BD0211D009146580C21005971430F46C1190C220298FDF7C1FE11480021001D0068761C00590C34C01901604160F4
:4064400081600C48001D00680159B14200D100260849009A091D865008684159491E4151FDF756F90020FEBD3046FEBDFDF750F9FAE70000B4020020FEB504460D46002081
:406480001E49089E0860471E009001900290002C11D0486885420ED2002A0CD0002E0AD0642E08D808460C3001681C2068430C18207A002801D03846FEBD0120226020726C
:4064C0001846FFF7DDFE6060401C13D06681A6810A4827610C3067610179A94200D205710021684601810A462846029B00F040F82846FEBD00202072DDE70000C002002080
:4065000038B50124009400F039F838BDFEB50027164EFF433D4600240EE01C20316860430818017A002906D04068FFF721FF002801D0254603E0641C3079A042EDDA681C1D
:4065400012D01C2130684D434419FDF7E5F869466068FFF741FF0546FDF7DAF8002DD9D1216868468847D5E7FEBD0000CC02002038B50024009400F001F838BD1FB500222D
:406580000C49541E0A60002811DB496888420ED808491C220C31096850430818406801A9FFF7A0FE401C02D0002004B010BD2046FBE70000C0020020F0B50021114A4D1EDA
:4065C000174611710C3F0B46BD6016E008461C2460431668041D355114680646235014680836A3551468361DA353044616680A34335318301468491C255078688142E5D380
:406600000020F0BDCC02002038B500210091002811DB0F49097888420DDA0D4D04010C3529680859002807D0201D0818694600F071F9002801D0002038BDFDF76DF8286874
:406640000F34015D491E0155FDF762F8009838BDDC020020F7B582B0002502986E1E06602E48D21C024017462D4A2C4610460C380178106805E02301C358002B0FD0641C2F
:40668000E4B28C42F7D3711C28D03401211D40180191039900F02CF900281FD101E02646F1E71F48016820460C300F521C480399026820460E3011541948039902682046C9
:4066C0000F3011540398784300F0A0F8144900280968085102D00024009011E001251AE00F48016801980818009900F02EF9002801D0012502E00098C0190090641CE4B2F1
:4067000003988442ECD3002D05D10298066004480179491C0171284605B0F0BDFCFF0000E8020020F8B50D4600216A468C461180002839DB23490978884235DA214B04011D
:406740000C3319680A59002A2ED020460C300B5A801C0E5C184670438018954224D3854222D2002006E007465F43BF18AF4206D0401CC0B2B042F6D36046002814D0114E62
:40678000271DC8190C366A46294600F008F900280AD168460088012808D030682946C01900F0D3F8002803D00120F8BD0020F8BDFCF7B2FF30680F34015D491C0155FCF75C
:4067C000A7FFF3E7DC020020F8B50F46002400F033F8002817D10C4900220B460C334A600EE021011D680E466A501D680C36AA53B61C1D680F31AA551D68641C6A54E4B2C3
:40680000BC42EED31A71F8BDDC020020014610B5002000290CD0C91C064B8A08596892005C888A18A24202D898685A60401810BD002010BDDC020020F8B5064600200F4D8C
:40684000009029700C0121466846FEF715FE00280CD129460C3100980860301B001F84B221466846FEF708FE002801D0FF20F8BD6C800098A8600020F8BD0000DC02002038
:40688000F8B5002827DB19490978884223DA174C05010C342168485900281CD028460C30085A009028460E300E5C401C0E5420682F1DC01900F064F800280CD12068002456
:4068C00045590EE0094829460C300068C01900F03CF8002801D00120F8BD00982D18641CE4B2B442EED30020F8BD0000DC02002030B50D4604000BD0A800FFF787FF606064
:40690000002805D000202570C0436080002030BD012030BD70B50D46040005D0002D03D00220205E002801DA012070BDFCF7F4FE0221615E60688900405828606088401EE7
:406940006080FCF7E5FE002070BD70B50D46040007D0002D05D002212078615E401E814201DB012070BDFCF7D7FE6088401C00B26080616880000D50FCF7CAFE002070BDAE
:4069800010B5040009D0227800216068FDF718FC0020C0436080002010BD012010BDF0B500231D46002802D00224045F0AE00120F0BD46689F00F6598E4201D1012503E01F
:4069C0005B1CDBB29C42F4DA15700020F0BD00000148007870470000F00200207CB505460024FEF7CDFBA8796946087000A8062229460130FDF7DBFB0021684605F0C0FDAB
:406A00000C2804D0072804D01F2804D004E0022402E0042400E0272420467CBD10B502280BD0032802D0042809D102E000F050F905E000F01FFAFF2801D100F02FFAFFF774
:406A40003BFAFFF747FA10BD10B500F057FAFFF733FAFFF73FFA10BD70B504460025FEF78FFB002C06D0A079012803D8214603F0E0F800E00125284670BD10B503240EF0C9
:406A8000ADFB002810D10EF051FB00280CD106F067FC002808D100F029FC002804D106F01DF8002800D10024204610BD70B50025044600280ED0A07901280BD8FEF760FB00
:406AC000A0790028204602D003F06AFD03E003F01FFD00E00125284670BD70B592B00E4605460024FEF74CFB03F0B8F900280AD000F0B3FD002806D0002D0ED0EA7F1F2AC9
:406B000003D9012409E002242EE000A829460130FDF74DFBE87F69460870002E0FD0002C22D1F27F1F2A01D901241DE008A831460130FDF73CFBF07F08A9087001E0002C1B
:406B400012D10020002D04D010A9684600F0BEFD0120002E04D010A908A800F03FFE01E0002801D000F038FD204612B070BD10B5FFF7A2F9012801D1FFF7A4F910BD1CB570
:406B8000FF206946087100200870FEF7F9FA6A4601A90620FFF790F86946002008561CBD38B504460120002C20D0617801291DD800290BD0FF25E535FEF7E2FA2846FFF727
:406BC00041F8C0B22070072803D00EE0FF25CD35F2E70020694608706846FFF78FF969460878012801D108202070002038BD70B504460120002C1FD06178012902D92278DE
:406C0000092A19D8002905D0FF25E5352078092803D004E0FF25CD35F8E708202070FEF7AFFA2078082808D00020FFF7A9F921782846FFF70DF8002070BD0120FFF7A0F9C2
:406C40000721F5E770B50D46040001D0002000E00548002802D0012102F098FD2946204603F078F970BD00004409002038B5054600200446009022466946284601F08EF8D2
:406C80000098002801D00EF08BFAA878214602F0C0FEA878214602F0AFFE641CE4B2052CE9D338BD064A02235188891C89B25180814201D8102900D953805088704700005C
:406CC000F20200200148407870470000F2020020F8B5624CFFF7F0F8012846D160480078002842D003F0BAF80028FAD005F052F90028F6D05B4E7078C00703D000F0B3FC52
:406D00000128EED0B07E0028E7D170780025002878D0000707D5AC20FEF794FF070B00F061F9384321D14F484178684604F0E2FF4D4F06462079B9784018C1B2B14271D855
:406D400003F08CF8002810D0464C203402F053FE6846008802F08BFE02F066FF43490988884203D10120FFF7E5F874E04049012008703C48807B00282BD04034608A002816
:406D800027D0E07E002824D1A1200001FEF75AFF208A4000B04218D97878002815D1A12424012046FEF74EFF0221884301462046FEF74EFFFF24F1342046FEF743FF03210E
:406DC000090201432046FEF743FF3878002800D03D7002F0AFFE0120FFF7A6F8244C08E0FCF7F8F9FFF768F806282CD02078002829D0FFF761F8062825D020780128EFD097
:406E000021E0FFE703F02AF8002824D0142002F02EFE174C0120207002F08CFE0020FFF783F809E015E0FCF7D5F9FFF745F8062809D02078002806D0FFF73EF8062802D02C
:406E400020780128EFD0207801288BD1FFF700F825700020F8BDFF20F8BD0000100900208802002024090020FA0200200C030020F202002010B50848FF244078002809D1C8
:406E800002F0ECFF012805D1FEF704FF0720FFF751F80024204610BD2409002038B5FFF70BF8012801D0002038BD02F0D7FF00280AD0114C6078C00703D000F0D4FB01287E
:406EC00002D0A07E002801D0FF2038BD617800290FD0684604F00EFF022806D96846008802F0C5FD012002F02BFE0320FFF722F8D9E70020F7E700002409002038B5FEF7B6
:406F0000DBFF042819D0052817D006281AD0032842D007280AD100206946087002460120FEF7CAFEFEF7C8FF0128FBD138BDFCF751F9FEF7C1FF0128F8D0FEF7BDFF01281F
:406F4000F5D138BD02F01AFE05E0FCF743F9FEF7B3FF012803D0FEF7AFFF0128F5D1A12424012046FEF76EFE01220E4983079B0F0A70022BE5D149880029E2D01043014601
:406F80002046FEF765FE2046FEF75CFE410849002046FEF75DFE38BD02F0F4FD0120FEF7C9FF38BDFA020020F8B50646002403F05DFC0546304603F071FC00210346012634
:406FC00032468A40174610462F401840002F03D0002801D1224394B2491CC9B20529EFD32046F8BD70B500252C460A4E03E0002C01D0002000E030460079002803D02046FF
:40700000FFF7D2FF0543641C2406240EEFD0284670BD0000440900201CB50020694648706846FFF7BDFD01AA69460A20FEF744FE6946042008561CBD10B50C4601F088FB98
:40704000002809D00179002906D0C1788078224603F053F8002010BD022010BD0148007870470000100900204030C07E002800D00120704700B500F001F800BD8821484325
:40708000064940186030417F491CC9B24177052901D300214177C8B2704700002409002013B501F055FB04000BD002F05AF8002807D0214601AA0A310620FEF7FDFD00203B
:4070C0001CBD02201CBD000010B50C4601F040FB00280AD002F045F8002806D0224604490A20FEF7E9FD002010BD022010BD0000F9080020F3B581B0074601460026029866
:4071000003F0ACFB0446002F01D0002500E0154D002D21D0284601F051FB032C04D13946029803F0C5FB06463846029902F064FC032C06D0002C10D00121384601F0F2FC24
:4071400003E03146384603F0FDFD284602F004FB0221284602F01AFBFEBD3846029902F04BFCFEBD4409002070B50446002504F02DFD002801D00C2070BD2078611C03F012
:40718000CDF8FF2802D01F25284670BD03F01AF9FF2804D02178621C02F0A0FBF4E70725F2E710B504F012FD002801D00C2010BD03F08CF8002010BD70B50D46044610219C
:4071C0000DF02EFF1021601806460DF029FF334610221946204604F02DFD102130460DF01FFF02202870204605F0C2FB70BD70B504464078217802028006850FE078114372
:40720000A67809050002090D0643084601F0A0FA002812D0022D10D0032D0ED0002E08D00179092909D0002907D0214600F0C1F870BD0089002105F088FA20460DF0B0FFC6
