:400000000040002011000000D51B0000D51B000008B501F0F9FD0000F8B572B680250024474EED003460211C2A1C464803F030FE211C2A1C444803F02BFE992302253C207B
:40004000424A1B041360424A42491460424A434F1460434A1360434A1360434A13782B4313700B788343283803430B70162113780B43137040223D4B1A603D4A3D4B1A6052
:4000800060223D4B1A603D4A3D4B1A6080223D4B92001A603C4BE13AFF3A1A603B4B0E3A1A6002F025FD3A4802F0E6FB012002F02BFD302002F004FC364A374BFA201A60E4
:4000C0008023364ADB053B601368C0001D4315600825334A334B1A603368AB43336002F08BFC314802F07EFC8821304A304B89011A60304B304A281C1A60304A1160304A7C
:4001000030491A608022304B12061A6080222F4BD2021A6041222E4B1A602E4B013A1A6002F000FC281C02F01DFC8023DB053B600323294A1360294A1360294B1C60F8BD3D
:400140006CF02E4000300F4000400F40000302400000024001700F40080004400C020B4020500F4030500F4000700F4000020440000C1800080204400003044000101B0044
:40018000080304400C0304401803044030001040001BB7000600008004010B4078002E402D3E00007C002E40DC050000007F2500040301400000014041FF008000030140C9
:4001C00040FF0080F52B000008010B4000010B4024010140080101403000304030003140000E3F4010B5064C2378002B07D1054B002B02D0044800E000BF0123237010BD91
:40020000E016002000000000FC86010008B5084B002B03D00748084900E000BF07480368002B00D108BD064B002BFBD09847F9E700000000FC860100E4160020C8110020C1
:400240000000000010B562B601F0ACFC0E4C012801D1207001E00023237001F0A9FC002802D00A4801F020FF00F01CFA207801F0DBF8074B1B78002B03D004F01DFD00F057
:40028000C7F904F019FDF1E7FD16002056170020D511002070B50C1C88B0262863D01FD8212800D152E10AD8022854D0202840D0012800D063E1B34803F00CFE30E0232874
:4002C00000D14DE100D250E1242800D154E1252800D054E10978AC4803F080FD00224CE12B282FD00AD8282869D045D32A2800D045E10822A54803F0C2FC40E14C2800D1D9
:40030000C4E006D8472800D039E14D680E8900240EE14E2800D18EE0522800D1E6E02EE102F074F99A4B1B681B04DB178342F7D125E103A8031C26CC26C306CC06C301F012
:4003400021FA1CE1934B1A78002A00D117E1002291481A700DE10B78022B00D00FE101F04FFE8E4805E18E4B1B78032B00D106E1002001F0D3FD02E10822844803F07FFCAB
:40038000844B884C5A78884D002A07D1874803F0A1FD2078291C0EF08DFFF0E09978844803F01CFD291C207810F0FAFF80216078237800021843890011F018FFDFE01E228A
:4003C0007C4B744D1A82C8225B6812011A805A806B780A78744C002B0DD17748111C03F0FDFC237A002B03D1012001F097FD0CE00123637209E0A978704803F0EFFC237A3B
:40040000002BF5D1012001F0D1FD02F0FFF8604B1B681B04DB0FC0180028F6D1E870287102F0A6FC02F076F802F0F8F802F0B6F802F062F8A3E08B894D680E890E2B11D153
:40044000544B1A79012A00D099E000249A68B2189A60B44200D392E0285D013402F0C8F8E4B2F6E70F2B00D089E02A78494B1A73002A05D00120187102F07AFC504878E09B
:400480000020187102F074FC4E4872E08B894D680E890E2B0FD13F4B1A79012A1ED100249A68B2189A60B44218D2285D013402F09FF8E4B2F7E70F2B10D12878354B187352
:4004C000002805D00120187102F052FC3C4803E0187102F04DFC3B4803F0FCFC314A507813780002184312F047FA48E0294B597B5A78012909D1012A41D1A2890E2A3ED119
:400500002289196952181A6139E0012A37D1A2890E2A34D11B79012B31D100252389AB422DD96368585D013502F062F8EDB2F5E7B44224D228194178C37880782A5D0090C2
:400540000434214803F04AFCE4B2F1E7114B5B78002B14D1134B1D49187810F0E3FF0EE009681B4803F03AFC09E00122094B19481A7503F0AFFC02E00122064BDA7008B08D
:4005800070BDC0462887010012880100DE29002008022540FC1600203687010042870100662B0020682B0020CC1100204D8701005B8701008C1200206D8701008387010096
:4005C0009C870100B1870100C887010054130020E9870100FB87010038B5012002F0AAFB0123084C084A6375A3690133A361934207D10025657502F08FFB0448A56103F0DB
:4006000069FC38BDFC160020112700002288010038B5032004F044FB041C72B606F080FB032C25D1FD231840042827D1002002F0FFF8012501F0EAFF114B1C68E40B2C404A
:400640000419002CF5D101F0F9FF02F00DFA01F0F9FF052002F0B0F901F0A0FF02F0AAFB02F09EFB074B281C5C7202F0E1F805E0022C03D1022801D002F0E8F962B638BD3D
:4006800008022540CC11002008B5062002F0C4F8062002F0D9F8012002F0CAF8012002F0DFF808BD08B5062002F056FB002002F05FFB022002F068FB022002F041FB0F2345
:4006C0000B4A13810B4B0C3303CB03C202F006FB094802F0EFFA01F00FFFFFF7D5FF074801F058FB0120064910F060FB08BDC046FC290020CC110020D90500009502000021
:4007000039300000F8B5031E2DD01849041C03F00BFC1323002826D0201C3D2103F0F6FBFF25001BC2B22B1C0E2A1CD80540281C03F082FA211C2A1C061C002703F012FC4D
:400740000B4BBA001433D158301C2A1CFCB203F0F5FB002803D001371C2FF1D13C1C301C03F074FA231C181CF8BDC04633880100CC1100201FB50E2301AC238100230190A0
:40078000A180E380074A211C507813780002184311F09CFD002803D0034B1B78022BF1D01FBDC046682B0020662B002030B5444C85B06378012B00D07DE031380E2800D977
:4007C0007CE002F04DFD08192C3D7B7B7B7B7B7B7B7B7B7B59003B4D281C01F01DFC021E02D0394801210FE0384A0121137A0133DBB21372013B33E0354D281C01F00CFCD1
:40080000021E04D00221304803F0E8FA56E02F4A0221137A0133DBB21372013B20E02D4D281C01F0F9FB021E02D027480321EBE7264A0321137A0133DBB21372013B0FE0E7
:40084000254D281C01F0E8FB021E02D01E480421DAE704211D4A137A0133DBB21372013B0720D1544343D018A1700930291C062203F005FA19481FE0194B00241B78022B0A
:4008800017D1124B1A7AA24218D9072060431818057B195D827B437B0095C57A01340195857AE4B20295407A03900E4803F096FAE7E70D4800E00D4803F00CFB05B030BDFA
:4008C000FC1600200F2A002051880100B82900202D2A00204B2A0020692A002064880100662B00206B880100938801009D8801002D4B13B51B780022032B02D0022B06D106
:40090000012201AB31385A700E2848D801E0274846E002F0A5FC262F3235383B3E41444444444444080001AC201C06F013FA20780138072836D802F093FC0406080A0C0E57
:4009400010121B482CE01B482AE01B4828E01B4826E01B4824E01B4822E01B4820E01B481EE0012301A8037006F030FA002819D1174815E001A80223F5E701A80323F2E7FD
:4009800001A80423EFE701A80523ECE701A80623E9E701A80723E6E701A80823E3E70D4803F098FA13BDC046662B0020078A0100118A0100198A0100218A0100298A01007A
:4009C000318A0100398A0100418A0100498A010064880100518A0100F7B5051C0192019A2B1A934229DA154E0C7837684B783E197678B446032662461640022E00D1203CEA
:400A0000E4B2261C303EF6B2092E01D9373CE6B20324FF187F783C40022C00D1203BDBB21C1C303CE4B2092C01D9373BDCB23601A3192B7002310135D1E7F7BD74160020BE
:400A4000F0B5B1B0002801D100F0B7FC041C00211B2209A803F01CF900211F2210A803F017F93E2220A8002103F012F900236A4617261383162207AD6A446E4405AF201C56
:400A800013702B8033703B700893FFF73BFE1B2801D900F08FFC02F0EDFB1C00900430008D0438004F009004A8009400A2005B01960118025C0265029004900414030702FA
:400AC0004C0422032E036E03A9032904C50340045504637A312B01D000F06CFCCD4803F0F9F901F093FDCC4B1B681B04DB178342F7D101F055FF00F060FCE37AC7483F2B25
:400B000001D000F057FC00F056FC637A3F2B01D000F050FCC24C201C04F0CAF8A07861792279E37800906078019020780290BD4803F054F900F041FCBB4D237A6E78002ED5
:400B400051D13C2B09D03F2B01D000F033FC09A801F0CCFAB54809A9B0E20934201C3E2103F0D4F9001B172802DDB14800F023FCB04B1B78022B2FD001F00AFA311C1B22FE
:400B800009A803F085F8291C6A7F27310B3AD2B209A83A7003F073F80120391C021C331C00F00EFF3A78022009A9331C00F008FF09A801F079FA002800D1BAE39E4800F0DF
:400BC000FAFB994A237A5578002D0CD13C2B14D1984B1B78032B13D1984800F0ECFB924B5B78002B5ED09648E5E38F4BE0795B78002BF8D1FFF77CFEDFE33F2B3DD0D9E310
:400C0000271C0937381C3E2103F080F9C01B1F2801DD8C48CFE318AE291C1F22301C03F037F8391C162702226F4406A803F027F8381C06A90122FFF7CFFE211C3A780C3194
:400C4000F27720A8520003F01AF810A820A91F22FFF7C2FE10A9F27F301C03F010F8301C291C06F013F80028A8D1774B3A78986810A9C27703F003F85BE36E4B1B78032BC4
:400C8000AAD1724803F0AAF86F4B9B68DA7FAA4206D9595D6E48013503F0A0F8EDB2F3E76C4888E3634B227A1B78022B94D03C2A26D03F2A00D07DE3634D6E68308802F031
:400CC00035FF0022644B02F061FC02F0F9FE04B2708802F02BFF00225F4B02F057FC02F0EFFE2B8A02B2211C5C4803F077F801F08DFC494B1B681B04DB178342F7D15CE3E3
:400D0000032B00D168E7637A301C2B70A37A291C01226B70FFF760FE4B4F33787A68301C1380237B291C2B70637B01226B70FFF753FE33787A68301C5380E37B291C2B705C
:400D4000237C01226B70FFF747FE33783B82F0E2637A3C2B0FD03F2B00D02BE3354B1B78022B00D038E73E4B3E485988DA889B8803F034F821E32C4B5F78012F00D032E7C8
:400D80002C4B1B78022B00D026E7A37A301C2B70E37A291C3A1C6B70FFF71EFE3378324A301C1380637B291C2B70A37B3A1C6B70FFF712FE33782C4A53802C4B111C1878F5
:400DC00010F0EEFAF7E6237A312B55D03F2B03D0302B00D0EEE207E0134B25485B78002B00D1E8E22348E6E2124B1B78022B00D1F2E600240623201C08A90122089400F0AB
:400E0000DFFDA0231B06984200D0D6E2201C01F085F846E064880100080225405B8A0100082A0020738A0100FC160020958A0100A08A0100662B0020AA8A010093880100AF
:400E40009D880100B48A01008C120020BE8A0100C58A01006D8C01000000E43FCA8A0100DE290020E38A0100CC110020682B0020FB8A0100048B0100C64B1B78022B00D147
:400E8000AAE601240623002008A9221C089400F097FDA0231B06984200D08EE2002001F085F8BD4B5C7044E2BB4B5B78012B00D099E6BA4A18A90B805078023B4B801378A0
:400EC0000002184311F07CF977E2B34D6E78012E00D088E6237A312B0AD1AE4B1B78022B00D179E600F046FD002001F05FF862E6302B0AD1A74B1B78042B00D06CE600F0D7
:400F000039FD01F07DF82E7013E23F2B00D051E20024A34BA3481B78A34200D14BE2A04B1B78A34200D848E21E2565439E4E01347019C778C1794279037900978778E4B2CC
:400F4000019740780290A85D0390984802F046FFE5E7914B5B78012B00D044E6607AFFF725FC2AE28B4B1B78022B00D034E68A4DE07A6B78012B00D095E03138032800D9D0
:400F800018E2864B02F06CF90225476918780FF0F5FE021E02D1864E337A02E08548012165E0141CD2B29A4200D3C2E1375D621C012FF6D1072060433018013B0930002175
:400FC0000622337202F064FE002337713355AF70AFE118780FF0D2FE021E02D1744E337A02E07448022142E0141CD2B29A4200D39FE1315D621C0129F6D107206043301838
:40100000013B093000210622337202F041FE00233355023344E018780FF0B0FE021E02D1634E337A02E06348032120E0141CD2B29A4200D37DE1315D621C0129F6D10720F4
:4010400060433018013B093000210622337202F01FFE00233355033322E018780FF08EFE021E02D1524E337A04E00421514802F0B5FEA2E1141CD2B29A4200D359E1315DE0
:40108000621C0129F6D1072060433018013B093000210622337202F0FBFD0023335504333371AB7045E1312800D083E13B4B18780FF064FE011E00D17FE13F4802F08EFE42
:4010C0007BE1344B1B78022B00D085E5237A3F2B00D06FE105F02CFE011C3848EEE7637A3F2B00D066E12C4C3548A16802F076FE0023A36061E1274AA37A1278022A00D025
:401100006AE5254D6C78012C1ED1312B0AD03F2B2FD0302B00D04DE1002001F029FE00232B7126E027491D4A0B681C700F2350780B8113780002184311F0C8F8002800D0FC
:401140003BE12C71201C10E0002C00D044E5312B09D03F2B0DD0302B00D02BE1201C2C7101F006FE05E00120287101F001FE164821E116481FE1637A3F2B00D01AE1054B35
:401180001878062800D918E102F06AF8222426282A2C2E00662B0020FC160020682B0020541700200D8B01000F2A0020188B0100B829002051880100408B0100508B0100F9
:4011C0005E8B0100FC2900209C870100B18701007B48F0E07B48EEE07B48ECE07B48EAE07B48E8E07B48E6E07B48E4E07B4B227A5878002800D0F6E4794B1B78022B00D12F
:40120000EAE4312A05D1032B00D1E5E400F086FED1E4302A00D0CDE0032B00D0DCE400F0B7FE86E06E4B607A1B78022B00D1D3E430380F2800D9BDE002F012F80815202BCA
:4012400036BCBCBCBCBCBCBCBCBCBC4400200FF089FF041E00D0B1E4624802F03BFE5F4B4E331C70A9E001200FF07CFF002800D0A4E45C4802F02EFE01221FE002200FF039
:4012800071FF002800D099E4564802F023FE022214E003200FF066FF002800D08EE4514802F018FE032209E004200FF05BFF002800D083E44B4802F00DFE0422474B4E333B
:4012C0001A707AE0454B4E331878042875D801F0C7FF030507090B0043486CE043486AE0434868E0434866E0434864E0237A3F2B06D13A4B4148DB78002B5CD140485AE09E
:40130000312B57D1354BDB78002B00D064E43D4B3D4918780FF08BFC4DE4637A312B05D03F2B08D00022302B44D100E00122374B1A722C483FE0354B35481B7A002B3AD170
:40134000344838E0267A254C6378251C002B34D118AF381C0FF048FD3B784F34002B07D001232370302E0AD02B483F2E23D021E02370302E03D029483F2E1CD01AE0184B37
:401380001B78022B00D127E42B1C4F331B78002B0ED0281C50300FF07DFE012000F050FD041EFAD11D484F3502F094FD2C7004E01B4800E01B4802F08DFD31B0F0BDC04601
:4013C000648B01006E8B0100788B0100828B01008C8B0100968B0100A08B0100FC160020662B002064880100AA8B0100B48B0100BE8B0100C88B0100D28B0100DC8B0100E1
:40140000E58B0100682B002054130020CC110020EE8B0100FC8B01001C8C01000A8C0100138C0100518A0100F0B58BB06B466A468F4C00AFFB60E38878600433DB08DB00E8
:40144000D31A9D463B6101F097F8B8603B89251C7B61884E002B00D1EDE03079012800D096E0854B7969854C0422994204D9236800209343236002E023681343236001F034
:4014800077FCEB883A89033B9A4207DB7C4A9BB22A817B61002B00D1E4E006E02B89013B9BB22B81002B00D0DCE0754B2B8100257B699D4206D201F075F93B695855013595
:4014C000EDB2F5E76F4839690B2202F0C9FB00281FD17B68012B0ED16B496C4A0B6818700F2350780B8113780002184310F0E4FE002800D0B6E00024201C347101F038FCC2
:40150000301C211C1E303022747702F0C1FB6048A6E039695F480B2202F0A2FB011E07D17077301C30221E3002F0B2FB5A4897E07B685A4A002B1BD11378002BFCD13B696F
:40154000FB61BB8A3B840E23BB84504A50781378000218431C23F91811F0B8F9041C03F0ABFB002C7ED04E4B1B78022BEDD079E0042123688B4323601378002BFCD1386988
:401580007969FFF7F7F8042223681343236069E00123444A357D1370002D31D0002406253475414E01F0EAF8C3B2002BFAD0303B092B0CD8181C70430A212418301C01F0AA
:4015C00063FE013DEDB2061C002DEBD102E0374802F080FC2D4B211C187801220FF010FB012801D132483BE0032801D1314837E0072801D1304833E0002833D12F482FE006
:4016000001F0D0F8C0B2737F0A2804D02C4AD0540133737726E02B4A2281224A1570284AD054101CFFF70CFA291C30222448757702F02EFB16E0331C57331A78002A11D08C
:401640002189013989B2218100290BD1301C19701C4B1E3030222381717702F019FB1A4802F038FCFB689D46BD460BB0F0BDC0464C120020FC160020FF010000C80F25400B
:40168000581B0000258C0100FC290020682B0020B1870100318C01009C870100672B0020662B002053170020A08601003D8C01004F8C01006F8C0100958C0100B38C0100DA
:4016C0001A17002010270000C98C010070B50E1C151C0C1CA31BAB4204DA207800F088FF0134F7E7281C70BDF7B5431801930023441C019AA24240D92078013809283AD87E
:4017000001F0AEFD35353539393939051B351B4B00211D781E23013D5D43194B14225D190935661E281C02F0B3FA3278611C013A281C02F0A4FA33781BE0104B104F1D781A
:401740001E23013D5D437E19093600211422301C02F09EFA631E1A78611C013A301C009302F08DFA01237D196B77009B00E0631E1B780133DBB2E418BBE7F7BD541700205B
:401780000F2A0020F0B5764B8BB05A78041C0893012A6FD00123089A53700378002B69D117781E250137FFB27B1E1E1C6E4309936C4B17709E19301C6168062202F05FFA77
:4017C0006378002B00D001230998B3716843654B06221818C771237C0372616802F04FFA217AE068FFF780FF089B18785D4B441E65435B19597F1833002902D000225A716B
:401800000BE0584B14225D190935281C02F040FA281C5549052202F032FA1E20031C6343504AD31808229D79D9799A565223012D00D0023B60434B4C241865790095257958
:401840000195E5780295A578039564780494454C045D0594434C201809300690434802F0BDFA00F0D3FE424B1B681B04DB178342F7D172E01E26089B3A4F1D786E43F619DA
:40188000B74208D0391C6068062202F0E9F91E370028F5D161E0089B0135EDB21D706B1E1E1C1E277E4309932E4B61689E19301C062202F0E4F96378002B01D1503300E0D9
:4018C0005223B371099B5F43264BDF19FD712578002D42D1237C3B72217AE0681E24FFF703FF089B1E781F4B013E74431B19597F1833002901D05D710BE01A4B14221C1979
:401900000934201C02F0C4F9201C1749052202F0B6F91E2308225E43124B98194479C17982568379009404790194C478029484780394407804900B48305C0590094886197B
:4019400009360696094802F049FA00F05FFE084B1B681B04DB178342F7D10BB0F0BDC046541700200F2A0020C38D0100C88D01000802254070B5104D104C2E780A2E03D846
:401980001E235E4336190EE0002630190021062202F07EF996231E365B009E42F5D100232B706B7070BDB442F9D0201C0021062202F06EF91E34F6E7541700200F2A002063
:4019C000F0B593B000AFB961111C1E1C1F23FA18031C13701E23FA180B1C13701D23FA18331C13706B46181C1F23FB181B78002B07D11D23FB181B78052B02D801235B4237
:401A0000AFE00023BB631E23FB181B789A1C531E3B64131C3B6100237B613B69DB0E7969490179607968194379603B695B013B60131CBB600023FB60BB68DB0EF9684D0199
:401A40001D43BB685C01131C9B0003330733DB08DB006A46D31A9D466B4603339B089B00FB63424B1B687B63414B1B683B63414B1B68FB62404B1B68BB62404B1B687B626E
:401A80003F4B1B683B623F4B3F4A1A603F4B404A1A601D23FB181B781B043E4A13431A1CFB6B1A601E23FB181B78013B1A1CFB6B5A602F231822BA18D31800221A701CE0FE
:401AC0002F231822BA18D3181B789A1C2F2318217918CB181B789B00B969CB181968FB6B9200D1502F231822BA18D3181A782F2318217918CB1801321A702F231822BA1893
:401B0000D2181E23FB1812781B789A42D8D31D4BFA6B1A601D4B204A1A60FB6B1F4A1A601F23FB181A78FB6B5A60164BFA6B1A60164B1B4A1A60134B1B68BB630B4B7A6B26
:401B40001A600B4B3A6B1A600A4BFA6A1A600A4BBA6A1A60094B7A6A1A60094B3A6A1A60BB6B8546181CBD4613B0F0BD00010B4008010B401CFF0B4020FF0B4028FF0B40B2
:401B80002CFF0B4008001040B6E800000400104015000080B6D7000004000080B6EB000018000080014B18787047C04606F2FF0F002008B5044B1A78824204D003480449F9
:401BC00002F05DF8012008BD80F2FF0F5617002000F3FF0FFEE70000031C10B580240849084A0868A400C3189A1AA24201DC0B6005E001F0F5FF0C2303600120404210BDFF
:401C00005C1200208033002070B51049104B01394A1C15D000221E685C689D68A018AA4203D0B058A0500432F8E7021CDC68151AA54202D0002520C2F9E710330139E7E774
:401C400001F0D4FFFEF7FEFAFEE7C046010000009891010001210E4A10B51368141C8B43136000239A000B49032B01D80A4989580A4801338150302BF4D1FEF7CDF90022D2
:401C8000074B1A60236801321343236010BDC04600001040D51B00000000000000000020C000002070B5002905D119490023CE7F1A1C1C1C0EE01749F8E7002C11D1CA5CE9
:401CC000002A24D00133DBB2CD5C083D012D04D9D318DBB2B342F0D301E00124FAE7002C15D0D2180133DBB2D4B21A1C06E0D51A455D002D04D08D540132D2B2A242F6D340
:401D0000944204D900238B540132D2B2F8E770BD601200206D17002010B50024144B154A1C70154B1C70154B1C70154B1C70518C144B1980918C5980D11DC97F0832197337
:401D4000D27F5C821A710622DA8122321A82FA2292009A8201225242DC821A830A4B1F321A8000F0B7FB094B1C70094B1C7010BD6C2B002060120020672B00206B2B00209A
:401D80006A2B0020462B0020602B00203C2B0020442B002030B591B0051C1F490BA8142201F06DFF1D4C0134E37F002B03D1FFF7B3FF0123E3770120002D2AD000211B245A
:401DC000174B08A805AA1D60018106AB117016311C805C806944173C426008931C7103F041F8002815D1052300930E4B0E4801930E4B0F4902930F4A0BAB02F08FFF002833
:401E000007D101220C4B0D481A701121313211F0D3FA11B030BDC046F68D01006D170020402B0020009A01009D21000079020000C800002098100000662B00200C8E0100F7
:401E400070B501262F4C86B02378051C334254D00CF070F8002806D123781A1CB24322709B074AD52820002D49D002262378334213D0254B197804290FD89E31B140234BA8
:401E80002348C918013104222B1C0CF039F8002805D12378B343237003E0002801D0002D2DD00C222378134229D0082633400FD00021921901A801F0EBFE01A815491422BF
:401EC0002B1C0CF01DF8002819D12378B34312E00193114B01A80233D97F0C4B9E318900C918013104222B1C0CF00AF8002806D1042223789343237001E00020B5E706B026
:401F000070BDC0463C2B0020682B0020009A0100622B0020799C01006D170020021C10B50120022A2BD8164B1B78062B25D1154C23785B0721D4144B002A06D11E21C8200A
:401F40009987196B0001088009E0012A08D19621C8209987196BC00008808020C00148800A492C33181C0A700FF01CFB002806D1042223781343237001E00420FF3010BD73
:401F8000662B00206C2B0020601200206B2B002008B50FF09FFB0821024A13780B43137008BDC0466C2B002070470000021C08B50120022A1DD80F4B002A04D10A211985D2
:401FC0002631598407E0012A06D196211985802109015984F839998407492033181C0A700FF062FA002804D10421044A13780B43137008BD601200206A2B00206C2B00205E
:4020000008B50FF07DFA0821024A13780B43137008BDC0466C2B002038B5114C2378062B1AD10125002819D000230E4AC55C991801334D71062BF8D18379101CD3720FF03D
:40204000D9F9051E0AD105232370074B1888002804D00BF027FF01E00425FF35281C38BD662B0020462B0020602B00200C4B70B51A781E1C052A0ED10FF084F9094B051C1B
:402080001B88041C002B01D00BF026FF002D04D10623337001E00424FF34201C70BDC046662B0020602B002010B50123002818D00D4B9A6B998E00235468C9B2DAB28A423D
:4020C00006D2C25C002A02D0E2540133F6E7E254041C0021FFF7E6FD201C0121FFF7E2FD0023181C10BDC0460C8E0100021C30B50120002A11D0094B9B6B5C681D7800235A
:40210000D9B2A94203D300235354181C05E0E05C0028F8D0D0540133F2E730BD0C8E0100437800781B0218437047000038B5838900250B2B1BD1041C291C0430221C3533AA
:4021400011F052F9051E0DD16068FFF7E9FF094B1B68820702D58220400001E00620FF30211C98470121044A13788B431370281C38BDC046402B00206C2B00200023827916
:402180009A4208D1821D0378002B03D101309042F9D100E00123181C70470000F0B50126B74C87B02378051C334301912370272800D1C4E016D8062800D18EE008D802280F
:4021C0007AD0052800D184E0B04200D048E121E0242800D1AEE0262800D1B8E0212800D03EE18FE0422800D10DE109D82B2800D1CFE0412800D1F2E0282800D030E158E0EC
:402200004C2800D10FE1FA2800D125E1432800D026E1FCE00023072705AE301C7370377004F0D4FD301C3770757004F0CFFD954F3B68181C0293FFF7A1FF0390002808D0A2
:40224000029802F03DFD38680021FFF7ADFE386822E01F213F208C4B8C4F1A788C4B02401B78920119408B4B09031B780A4303401343894A381C11787F220A405204134377
:402280001A0A3B701B0C7A70BB7002F019FD381C0399FFF789FE381C291CFFF785FE00200EF060FF3F2333700023301C73700EF077FF0622794B40E0019B1B78042B00D00A
:4022C000CEE0764B1B78052B00D0C9E0FFF7CEFEC6E0019B1A78724B2FE0019B1B78002B00D0BDE0019B5B78002B08D103226D4BDA8031329A806C4A1A60019A53602378CA
:4023000001223EE023789B0600D5A9E0674E3378102B01D10B3BF370654F311C38780FF001F90122237838781343311C23700EF07EFC95E0019B5A785E4B1A7090E05E4BB7
:402340001B88002B01D00BF0C7FD0222B2E7534B19781A1C022900D182E02078304200D17EE004202678064204D003221A702378834307E023781B0706D506231370082203
:402380002378934323706BE0032969D10623137066E0424B19781F1C022961D0227832425ED004222078104201D01A7005E008222078104203D0062119702378E1E704290E
:4023C0004ED106233B703D4B1B78002B48D10120FFF7ECFD002843D104233B7040E0344E0199301C022201F04AFC00222C4B31781A709E31324B89005918013104323148A7
:4024000001F03DFC2CE00022294B5A7095E7019B59882D4B994201D980218900019B188810F020FA1CE00198FFF780FE2378334216D100280BD0122305A98B70019B9B89BF
:40244000C8700B80019B186810F002FA08E0019B186810F091FA03E01C4A13781E431670112322781A4208D001222378281C93432370174B01991B68984707B0F0BDC04602
:402480006C2B0020A01200207DF1FF0FA41200207BF1FF0F7CF1FF0F78F1FF0F662B0020672B0020901700206011002054130020682B0020442B0020602B00206A2B0020F1
:4024C000009A0100622B0020FF0100003C2B0020402B0020704700008021064A08B5136809060B4313600A2000F03CFA00F024F908BDC0460000254010B5054C2378002B69
:4025000003D100F0A7F801232370FFF7E5FF10BD9817002008B50A2000F02EFA00F01AF9054A0A2013685B005B0813600022034B1A6000F02BFA08BD00002540880F2540BF
:40254000094B0A491A680B6800209A420BD00B6807485A1C1B18581E83415B421A40054B985C0A60C0B2704778330020702B002000F8FFFF742B0020054A064B1B6811689E
:4025800010688B4201D2044A9B18181A7047C046702B0020783300200108000008B50A2000F0EAF90B4B80211A680B4B49021A6000220A4B0A201A70094B1A680A431A606E
:4025C0001968084A0A401A60074A084B1A6000F0C9F908BD702B0020783300207533002004032540FFFFFEFFED0F0000C00F2540044B1A681F231340082BF9D0024B1860A3
:402600007047C0460802254040022540024B18681F2318407047C046080225408021054B49021A680A431A601968034A0A401A607047C04604022540FFFFFEFF08B500F04D
:40264000D3F808BD08B500F0E1F808BD08B500F0A7FB08BD38B5214A0024214B07201A60012204251F4B20491C60204B1A60204B0B6020490860204903300C601F490A60E1
:402680001F4A13601F4B1C601F4B1D6000F074F90A20032100F04EF91C490A2000F042F9032000F069F90320011C00F043F91849032000F037F9174B1C60174B1C60174B32
:4026C0001C60174B1C60174B1D60174B1C60174B1C60174B1C60174B1C7038BD0B0000020000254040002540000325404800254007000080040325401003254044002540E4
:40270000000225400402254050002540C12D00004D260000880E2540C80E2540480F2540080F2540C80F2540880F254078330020702B002075330020044A054B11680B405B
:40274000902109040B4313607047C04600030240FFFF0FFF054A064B11680B401360054A054B11680B4013607047C04600030240FFFF0FFF48002540FFDFFFFF08B5FFF7D5
:40278000FBFE031C0020834201D0FFF7D9FED822034B92001968114201D000201A6008BDC00F254010B50A2000F0E6F8FFF7E4FE002806D00A2000F0D5F8FFF7C1FE041C1D
:4027C00004E0074B0A201C6800F0CCF8D823054A9B001068184000022043136010BDC04640032540C00F25408021074A08B5136889010B43136000F0D3FA032000F0C6F802
:40280000032000F0AFF808BD4800254008B5032000F0B2F808BD0000034A044B116880040B4018431060704708020440FFFFE3FF4023044980010A689A43D2B203401343FC
:402840000B60704700020440034A044B116880040B4018431060704708030440FFFFE3FF4023044980010A689A43D2B2034013430B607047000304400230800803D001388F
:40288000FDD1C046C046C0467047EFF3108072B6704780F31088704738B5051CFFF7F5FF0721054C054A23682940C90413400B432360FFF7EEFF38BD00010B40FFFFC7FFE1
:4028C00010B5041C86B0FFF7E0FF0E4B0E491A6802AB02920D4A126803920D4A1419033C227804920B4A126805920B4A00926A4601930A4B1A600A4A11601B68FFF7C9FFB6
:4029000006B010BD08010B401700008000010B40688F010030001040B6EA00000800104004001040024B8000C3181868196070474000002038B5041C0D1CFFF7A6FFA308E5
:40294000074A9B009B180322144094400634A240A5401968914329431960FFF79AFF38BD00E400E01F2318401E3B8340181C014B1860704700E100E01F2318401E3B83400C
:40298000181C014B1860704780E100E01F2318401E3B8340181C014B1860704780E200E0034A044913689BB20B4313607047C0460CED00E00400FA0510B5041C8022074BEB
:4029C0001202944205D91868FFF756FF044BE418F4E758686043FFF74FFF10BD5C1300200080FFFF08B5034B1B7A5843FFF744FF08BDC0465C13002001210F4A10B5136814
:402A0000041C0B43802113600C4A0D4B09021A600C4A13680B431360002801D100200AE00120FFF7DFFF084B1B68DB07F6D4013C002CF5D1102010BD60F02E4002200000C8
:402A400078002E4010002E400C002E4008B5FFF71CFF0421034A13688B43136030BFFFF718FF08BD10ED00E037B5FFF70EFF04210D4A0E4D1368041C5B005B0813600C4BF5
:402A80000C4A1B8802209BB213600B4A13680B4313602B680193FFF7FFFE30BF019B201C2B60FFF7F6FE37BD00000B4000010B4052F1FF0F0C000B4010ED00E001200A4ACF
:402AC000136883431360022311689943116007492E330A689A43203B1A430A6007220B68934303430B60704700F02E4000FF2E4008B5FFF7E3FF8021024A090613680B4316
:402B0000136008BD00F02E400122104B70B51C681440002815D0904215D1022507261968A94319600A490A68B2432A430A600A682E35AA43103D2A430A601A6810431860C1
:402B400001E0FFF7BBFF201C70BDC04600F02E4000FF2E4008B5FFF798FEC021034A090213680B431360FFF794FE08BD00010B4010B58024FFF789FE0749084B0A68E40153
:402B80001A4022430A600A6813408022120213430B60FFF77EFE10BD00010B40FF3FFFFF70B5051CFFF771FE0E4B041C1A68C0231B02134011D10C480C490540281C0E6866
:402BC0000B4A3240104308600A68012B01D1FFF7C1FF201CFFF75DFE70BDFFF7C9FF0123E9E7C04600010B400404040010020B40FBFBFBFF042238B5224C2368134213D0D2
:402C000021490B6813420CD0204B9D6908681540A8430860996991439961DB68002B00D098470420FFF7BCFF80232268DB001A4215D015490A681A420DD0144A956908681D
:402C40002B40984308609169114B0B4093611369002B00D098478020C000FFF7A1FF80232268DB021A420CD0074A12681A4204D0064B5B69002B00D098478020C002FFF741
:402C80008FFF38BD10020B406C130020A0170020FFFBFFFF10B5041CFFF7F7FD044AA40713689B009B0823431360FFF7F2FD10BD10E400E010B58024054B24031C60054B3A
:402CC0008C3318600320FFF7E5FF034B1C6010BD80E100E00000002000E100E000230C21074A1360074A1160074A0B3911600A2206490A6006490A60064A13607047C046ED
:402D000080012040A4012040B8012040940120408C0120408801204008B5FFF7B6FD0421034A13688B431360FFF7B3FD08BDC04600002040014B18607047C046B0012040D2
:402D4000034A044B1168C0030B4018431060704708030440FF7FFCFF034A044B116840020B4018431060704708020440FFF1FFFF08230449C0000A689A43D2B203401343E2
:402D80000B60704700020440034A044B116800030B4018431060704708030440FF8FFFFF1023034A1068184010600009C0B27047100304400822014B1A60704780E200E0B9
:402DC00008B5144B1B68002B00D09847124B1B685B071DD5114912480B685A1C1B18581E83415B421A400F4B18680F4B1B68824203D120220D4B1A7003E00D48DBB2835416
:402E00000A600C4B1B68DB06E4D104220A4B1A6008BDC0469C170020CC0F25407833002000F8FFFF702B00204003254075330020742B002008032540C00F2540F0B51F4C86
:402E40008D18031CA5B00120A54235D80020161C051CCF09039304ACFB010291E41AB54204D3012828D90120404225E00028F8D11A1C803201920090029999420BD8B5421A
:402E800009D203991A78495DE1548A4201D001220092013501E01978E154019A01339342EAD1009B002B03D0381C04A900F066F90137803C019BD2E725B0F0BDFFFF0100ED
:402EC00001607047016070472B4B2C4A19782C4B09021B7819432B4B1B7812781B021343294A934204D1072909D1284B033906E0D4221201934202D1042900D1234B244A67
:402F00001360244B244A1960244B1B7812781B021343234A134200D1224B234A23491360234A0B7812781B021343224A934204D0214A934201D0052B00D1204B204A136021
:402F4000204B214A1B681268AA2A14D11F2B12D90B780E2B0FD11D4B1D4A1B7812781B0213431C4A13601C4B1C4A1B7812781B0213431B4A13607047D9F0FF0FDEF0FF0F1D
:402F8000D8F0FF0FDFF0FF0F580B0000580D00006C002E4074002E40DAF0FF0FDBF0FF0FFFDFFFFF0220000078002E40DDF0FF0FDCF0FF0F0F0F000005050000050F000054
:402FC00080002E40EC0F00F0E00F00F06DF2FF0F6CF2FF0F84002E406FF2FF0F6EF2FF0F94002E4008B5FFF7FDFC08BD08B500F05DF808BD08B500F061F808BD08B500F0BF
:403000005DF8034800F028F8032000F02BF808BD5932000008B5024800F034F808BDC046593200000220FF3070472B2070472B2070472B2070472B2070472B2070472B2084
:4030400070472B2070472B2070472B2070472B2070472B2070477047014B18677047C0460000002010B5041CFFF70FFCC021044AA40113688B4323431360FFF70AFC10BD8B
:403080000CE400E010B58024054B64011C60054B18670320FFF7E6FF034B1C6010BDC04680E100E00000002000E100E08022024B52011A607047C04600E100E08022024BF1
:4030C00052011A607047C04680E100E082B06A46094B0A4900930A4B002004330193094B1A60094A11601A68120F0A2A02D018680F23184002B07047B6E9000016000080C6
:403100002C2900200800104004001040074B084A08491A60084A002011601A68120F0A2A02D018680F2318407047C04608001040B6E80000150000800400104082B06A46EB
:40314000094B0A4900930A4B002004330193094B1A60094A11601A68120F0A2A02D018680F23184002B07047B6EA0000170000802C29002008001040040010400023F0B507
:40318000A7B0029303932B4B98424DD800294BD0051C802206A800F072FD274B9D4201D8264B00E0264B04937F2304AE7360254C254B264A26601A6022681F1C120F002300
:4031C0000A2A02D022680F3313400293029B002B2CD1FFF75AFB0190FFF778FF0390039B002B02D1FFF792FF0290029B002B11D1174A2D0404920498164A0543049526608A
:403200003A602268120F0A2A03D00E4B1A680F2313400293039B002B02D1FFF78FFF03900198FFF736FB01E004230293029827B0F0BDC046FF030000FF010000B6D700008A
:40324000B6D70001080010400400104004000080B6D800000500008008B515F03BFA08BD02B4714649084900095C49008E4402BC7047C04603B47146490840004900095A14
:4032800049008E4403BC7047002243088B4274D303098B425FD3030A8B4244D3030B8B4228D3030C8B420DD3FF22090212BA030C8B4202D31212090265D0030B8B4219D39A
:4032C00000E0090AC30B8B4201D3CB03C01A5241830B8B4201D38B03C01A5241430B8B4201D34B03C01A5241030B8B4201D30B03C01A5241C30A8B4201D3CB02C01A52418B
:40330000830A8B4201D38B02C01A5241430A8B4201D34B02C01A5241030A8B4201D30B02C01A5241CDD2C3098B4201D3CB01C01A524183098B4201D38B01C01A52414309DE
:403340008B4201D34B01C01A524103098B4201D30B01C01A5241C3088B4201D3CB00C01A524183088B4201D38B00C01A524143088B4201D34B00C01A5241411A00D20146ED
:40338000524110467047FFE701B5002000F0FCF802BDC0460029F7D003B5FFF775FF0EBC4243891A1847C04603460B437FD4002243088B4274D303098B425FD3030A8B424F
:4033C00044D3030B8B4228D3030C8B420DD3FF22090212BA030C8B4202D31212090265D0030B8B4219D300E0090AC30B8B4201D3CB03C01A5241830B8B4201D38B03C01A1C
:403400005241430B8B4201D34B03C01A5241030B8B4201D30B03C01A5241C30A8B4201D3CB02C01A5241830A8B4201D38B02C01A5241430A8B4201D34B02C01A5241030AA0
:403440008B4201D30B02C01A5241CDD2C3098B4201D3CB01C01A524183098B4201D38B01C01A524143098B4201D34B01C01A524103098B4201D30B01C01A5241C3088B4262
:4034800001D3CB00C01A524183088B4201D38B00C01A524143088B4201D34B00C01A5241411A00D201465241104670475DE0CA0F00D04942031000D34042534000229C46B4
:4034C00003098B422DD3030A8B4212D3FC22890112BA030A8B420CD3890192118B4208D3890192118B4204D389013AD0921100E08909C3098B4201D3CB01C01A5241830986
:403500008B4201D38B01C01A524143098B4201D34B01C01A524103098B4201D30B01C01A5241C3088B4201D3CB00C01A524183088B4201D38B00C01A5241D9D243088B429A
:4035400001D34B00C01A5241411A00D20146634652415B10104601D34042002B00D54942704763465B1000D3404201B5002000F00BF802BD0029F8D003B5FFF715FF0EBC48
:403580004243891A1847C0467047C046F0B55F4656464D464446F0B4051C061C080387B099464F00030BCC0F92469B467F0D019467D06C4B9F4236D080205B4640031843F0
:4035C000C0006B0F1843684B83469C4600239846EE00674400934B4649461D03C90F5B0052462D0B5B0D894600D16EE05D498B4264D080205C4940038C4600210543ED00BB
:40360000500F0543D20063444846FF187B1C9A46009B604002900B430F2B00D9ACE053489B00C3589F465B461D4300D082E00823009300239B46023300269846CBE7029BE1
:4036400001934346022B59D1012400250026019B1C40444B00212D030A0D12052D0B1543434A1B0515401D436D00E4076D082543301C291C07B03CBC90469946A246AB466B
:40368000F0BD2B434ED05B46002B00D185E1584600F088FA021C2823291C9B1A161C5846D940083EB0400B1CB54003439B462E1C0023304F0093BF1A98468CE7514629434D
:4036C0002ED10025002202219EE75146294323D0002D00D154E1281C00F064FA031C28215046C91A1A1CC8405146083A914095400A1C05431F480021C31A85E7032B00D145
:40370000C2E1012B00D06DE14446019B00251C40E4B2002300269DE700250022012173E7032171E70423009300239B4601330026984650E70C230093093B98464BE780256B
:4037400000242D030026074B84E74B46AB46161C0193884675E7029BAB46161C019388466FE7C046FF07000001FCFFFF988F0100FFFF0F800DFCFFFF330C3604360C9C46C8
:40378000331C140C1204120C53439846634653439946634663430193331C41466343090C4B445B18994505D9802040028146019949440191190C039141460904090C1B04BF
:4037C0005B1804932B0C9846331C2D04290C4B43604600934346654658435E43009B4D431B0C9946AE194E448446B54203D980235B029946CC44350C2B1C03986344844614
:403800000593009B36041B041B0CF3189C446046039058460504060C280C84465043351C81466046654344434846000C8346724314195C44A24203D98022520293465D4465
:40384000220CAD184A461204120C24044046A41862464A437143464360460096464670438046100C84468844E044414505D9802149028C46009961440091019803998446AE
:40388000614499429B415B4299460598434684461204120C1B049B1863449C46AB4683429B4140460A19CC44A2428941E344CC45B6415C46000C8046494276425B426418B9
:4038C000334398448C428941AB459B4149425B4219430D1C009B4544EE187602E50D2E43B346049B56021E43731E9E415B46D20D324366021643DB010AD501233340760819
:403900001E435B46DB071E435B465B089B465746634BFB18002B5ADD720709D00F223240042A05D0321DB242B6417642B344161C5A46D20106D55A465A4B1A408023934621
:40394000DB00FB18584A934234DD0124029B00251C400026554B7DE680205B460003034208D0054206D105432D032D0B4C46161C4E4B6FE65D4605432D032D0B4B4B69E64C
:40398000504600F00FF9031C2033272B00DCA6E65546083885400022ACE6281C00F002F9021C2032272A00DC75E6083885400026AB467DE65A46F608520716435A4601243E
:4039C0005502029A5B052D0B5B0D144042E6384DED1B382D0ADD0124029B00251C400026002337E6019B5746029391E71F2D25DC304B321C9C466744BE405B46BB40371C00
:403A0000EA407E1EB74113433B431E1C5B46EB401D1C730709D00F233340042B05D0331DB342B6417642AD191E1C2B0220D50124029B00251C40002601230BE65A461E4B1C
:403A4000DB1BDA40131C202D1CD01C4A94465A466744BA40171C3E43721E96411E4307230025334007D00F2300253340042BD6D16B076D022D0B0124F6081E43029B1C40FE
:403A80000023E7E50027E6E780255B4601242D031D43019B2D0323401C1C2D0B034BD9E5FF030000FFFFFFFEFE070000FF07000002FCFFFF1E040000E2FBFFFF3E0400003A
:403AC0000B0330B5134C1A0B4B00051C5B0DC90F0020A34210DD104883420EDC80200F4C40030243E41A1F2C0ADD0D48C31ADA40131C48424340581830BD0A4BC818FBE7FB
:403B0000281CE040084CA44663449A40131C0343EFE7C046FE0300001D0400003304000013040000FFFFFF7FEDFBFFFF38B5041E16D0C50F00D04442201C00F033F8174B67
:403B40001B1A0A2821DC021C211C153291400A1C0B21081AC4405B052403240B5B0D03E000250023002400220021101C24030A0D1205240B14430A4A1B0514401C436400B4
:403B8000ED0764082C43211C38BD0B3884405B052403240B5B0D0022E6E7C0461E040000FFFF0F801C2101231B04984201D3000C10391B0A984201D3000A08391B0998429C
:403BC00001D30009043902A2105C40187047C04604030202010101010000000000000000014B18687047C046D81600200E4B70B500251E1C0D4CE41AA410A54204D0AB0092
:403C0000F35898470135F8E715F0B4FA084B00251E1C084CE41AA410A54204D0AB00F35898470135F8E770BD8091010080910100809101008891010008B5034B011C186810
:403C400000F074F808BDC046D816002008B5034B011C186800F024F808BDC046D816002030B50024944208D0035D651C0C5DA34201D0181B02E02C1CF4E7002030BD002363
:403C800010B5934203D0CC5CC4540133F9E710BD031C8218934202D019700133FAE7704730B500293ED004390B68002B00DAC9181D4A1368141C002B02D14B60116031E0D2
:403CC00099420DD208680A189A4203D11368C3180B6053684B60216024E08A4203D8131C5A68002AF9D11D685C198C420BD10968691858181960904214D110685268091807
:403D000019605A600EE08C4202D90C23036009E008680C18944203D114685268001908604A60596030BDC04644290020032370B5CC1C9C430834051C0C2C01D20C2405E0D7
:403D4000002C03DA0C2300202B6042E08C42F9D3204A1368101C191C002913D00A68121B0DD40B2A02D90A608B181FE08B4202D15A6802601BE04A685A600B1C17E00B1C46
:403D80004968E9E7144E3368002B03D1281C00F0ABF83060281C211C00F0A6F8031C421CD0D00322C61C964386420AD11C60181C07210B301A1D8843821A0AD05142995069
:403DC00007E0311A281C00F08FF8431CBAD0331CECE770BD44290020402900200FB40B4B13B51C68002C05D0A369002B02D1201C00F090FA05AB201CA168049A019300F04B
:403E00009BFB16BC08BC04B01847C046D816002070B5051C0E1C002804D08369002B01D100F078FAAC68A3891B0702D52369002B19D1281C211C00F001F9002813D0012007
:403E4000404245E03178002B1BDAA269934211DA221C281C00F09AF8013042424241D0B20028ECD10136A3683278013BA360002AE8D10CE023681970236819780A2903D133
:403E8000E6E723681970236801332360EAE7002B17DAA269934208DB0A2322681370236819780A2911D1281C01E0281C0A21221C00F06CF8013042424241D0B2002806D0E6
:403EC000BDE70A23226813702368013323600A2070BD000008B5034B011C1868FFF798FF08BDC046D816002038B50023064C051C081C2360FDF770FE431C03D12368002BC8
:403F000000D02B6038BDC0467C330020021CC9B21378002B03D08B4204D00132F8E7181C002900D1101C704702780B78002A03D0013001319A42F7D0D01A7047002330B5CD
:403F40009A420DD0013AC45CCD5CAC4202D1934202D1251C631B03E00133002CF3D1F8E7181C30BD031C30B5002A07D00C7801335D1E013A2C700131002CF5D19A1893421B
:403F800003D0002119700133F9E730BD70B5051C0E1C141C002804D08369002B01D100F0B9F9234B9C4201D16C6808E0214B9C4201D1AC6803E0204B9C4200D1EC68A369F5
:403FC000A360A3891B070AD52369002B07D023682269F6B2981A636998420FDB08E0281C211C00F02BF80028F1D0012040421DE0281C211C00F020F90028F6D1A368013049
:40400000013BA36023685A1C22601E706369984205D0A389301CDB0708D50A2E06D1281C211C00F009F90028DFD1301C70BDC046E09001000091010020910100354B70B54B
:404040001D68061C0C1C002D05D0AB69002B02D1281C00F05FF9304B9C4201D16C6808E02E4B9C4201D1AC6803E02D4B9C4200D1EC68A3899AB2110723D4D10607D40922EB
:404080000120326037321343A381404240E0530713D5616B002908D0231C4433994202D0301CFFF7FDFD002363632422A3899343A38100236360236923600822A389134324
:4040C000A3812369002B0BD1A023A2899B00134080229200934203D0301C211C00F0ACF90123A289134005D00023A36063695B42A36103E0910700D46369A360002023695F
:40410000834205D1130603D540231A43A281013870BDC046D8160020E09001000091010020910100F7B58A89051C0C1C13075ED44B68002B02DC0B6C002B1ADDE76A002FB8
:4041400017D000232E682B6080235B011A4001D0626D15E0281C216A0123B847021C431C0ED12B68002B0BD01D2B01D0162B02D12E6000205EE04021A3890B43A38159E0EE
:40418000A3895B0706D56368D21A636B002B01D0236CD21A0023281C216AE76AB847A389421C06D12A68002A03D01D2A01D0162A19D10022626022692260DB0405D5431C1D
:4041C00002D12B68002B00D16065616B2E600029CFD0231C4433994202D0281CFFF760FD0020606326E040221343A38122E00F69002FBED00B680F60DB1B01930023920758
:4042000000D14B69A360019B002BB2DD281C216A3A1C019BA66AB047002806DC40220120A38940421343A38104E0019B3F181B1A0193E8E7FEBD000038B50B69051C0C1C4F
:40424000002B01D100201CE0002804D08369002B01D100F05FF80B4B9C4201D16C6808E0094B9C4201D1AC6803E0084B9C4200D1EC680C22A35E002BE4D0281C211CFFF761
:4042800051FF38BDE0900100009101002091010008B5024900F0AEF808BDC04639420000002310B5041C03604360836081814366C281036143618361191C08225C30FFF774
:4042C000E7FC054B24626362044BA362044BE362044B236310BDC046654A00008D4A0000C54A0000F14A000070B568254B1E5D430E1C291C7431FFF719FD041E08D00021EA
:404300002A1C016046600C30A0606832FFF7C0FC201C70BD836913B5002B28D18364C3640365134B134A1B6882620193984201D101238361041C00F01FF86060201C00F074
:404340001BF8A060201C00F017F80421E06000226068FFF7A5FFA06809210122FFF7A0FFE06812210222FFF79BFF0123A36113BDDC90010091420000F8B51D4B061C1D68F9
:40438000AB69002B02D1281CFFF7C4FF4835AC686B68013B05D40C22A75E002F10D06834F7E72B68002B06D1301C0421FFF79CFF2860002801D02D68E9E70C23336016E084
:4043C0000123201C5B42E3810233A38167662760A760676027616761A7615C30391C0822FFF756FC201C6763A763A764E764F8BDDC900100F7B5041C071C0026019148348B
:40440000002C16D06368A5680093009B013B00930DD4AB89012B08D90E22AB5E013304D0381C291C019B984706436835EDE72468E6E7301CFEBD0000F0B58B8991B09B0768
:4044400006D50B1C47330B600B6101234B6145E00C1C0E23C95E061C002904DA8023A5891D4010D10CE001AA00F06EFB0028F5DBF023029D1B021D40194BED186B425D4174
:404480008027FF0001E000254027301C391CFFF74DFC00280CD1A3899A051FD402221343A381231C4733236023610123636115E080220C4BB362A38920601343A381206156
:4044C0006761002D0AD00E23E15E301C00F04EFB002803D00122A3891343A38111B0F0BD00E0FFFF91420000936810B5013B9360002B05DA9469A34208DBCBB20A2B05D0D0
:404500001368581C10601970C8B201E0FFF73EFD10BDF8B5061C0F1C141CD518AC4208D02178301C3A1CFFF7DFFF0134431CF5D100E00020F8BD0000F0B59FB0061C0F1CFE
:4045400002920593002804D08369002B01D1FFF7E1FE794B9F4201D1776808E0774B9F4201D1B76803E0764B9F4200D1F768BB891B070AD53B69002B07D0002306AD6B6141
:4045800020336B761033AB763DE0301C391CFFF755FD0028F1D001204042CAE0059A111D12680591002A7EDB0992013423782E2B00D189E021786348032200F0FDFA002851
:4045C00008D0604B0134C01A40238340181C2B68184328602178631C5B4806220293297600F0EAFA002800D191E0584B002B00D084E00722059B07339343083305936B6982
:40460000039A9B186B61029C2378002B04D1029BE31A049311D003E0252BF8D00134F3E7049B301C391C029AFFF773FF431C7BD06A69049B944663446B612378002B73D053
:404640000122002352426A6002A95432521801342B60EB60AB601370AB6521783C48052200F0AAFA002809D0394B0134C01A01238340181C2B6818432860EEE72B68DA060D
:4046800004D55322202102A8121811701A0704D553222B2102A81218117022782A2A00D17CE7099B05E05242EA60022213432B607BE72278303A092A04D80A214B43013415
:4046C0009B18F6E7099371E763782A2B09D1059B02341A1D1B680592002B0DDA01235B420AE0002301342278303A092A04D80A214B4301349B18F6E707935BE705AB009340
:40470000301C291C3A1C134B00E000BF07E005AB0093301C291C3A1C0E4B00F08BF80390039B013300D06AE7BB895B0600D532E70B981FB0F0BDC046E09001000091010077
:4047400020910100469101004A910100000000004091010013450000F7B5171C01930A698B6800900C1C934200DA131C221C3B6043321278002A01D001333B6023689B066C
:4047800002D53B6802333B60062523681D401ED0231C43331B785A1E9341226892061CD53020E1184031C870211C5A1C45310978A21840320233D1700FE0221C01230098E0
:4047C00001991932089EB047431C0ED00135E3683A689B1A9D42F0DBDAE7221C009801994332089DA847431C02D10120404220E006232068E1683A6803400025042B03D162
:404800008D1AEB43DB171D40A3682269934201DD9B1AED180027AF420ADA221C0123009801991A32089EB047431CDED00137F2E70020FEBDF0B58BB006920A1C4332079332
:40484000059004920A7E0C1C109B6E2A00D1A8E011D8632A22D009D8002A00D1B2E0582A00D0C2E045310A707C4A4FE0642A1DD0692A1BD0B9E0732A00D1A7E009D86F2A11
:4048800029D0702A00D0B0E0202209680A43226037E0752A1FD0782A33D0A6E00E1C1A684236111D196013683370A1E021681A68080606D4490604D5111D19600023D55E31
:4048C00002E0111D19601568002D3BDA2D23049A6D42137036E021681A68080606D4490604D51568111D1960ADB202E0111D196015685A4B227E03930A276F2A1DD10827D4
:404900001BE0221C782145321170554A19680392081D226818600D68100602D4500600D5ADB2D30702D520231A4322601027002D03D1202322689A432260231C00224333D8
:404940001A7002E00A27454B03936368A360002B03DB0422216891432160002D02D1049E002B0ED0049E281C391CFEF713FD039B013E5B5C281C3370391CFEF785FC051E45
:40498000F1D1082F09D12368DB0706D563682269934202DC3023013E3370049B9B1B23612BE009681A68080607D4490605D5111D19601368A28A1A8004E0111D19601368C7
:4049C00062691A600023049E236116E01A68111D196016680021301C626800F0EDF8002801D0801B6060636803E0261C42363270012323610023049A1370079B0598009364
:404A0000211C069B09AAFFF7A7FE431C02D10120404221E0236905980699321C079DA847431CF4D023689B0705D4099BE068984212DA181C10E00025E368099A9B1A9D4225
:404A4000F3DA221C0123059806991932079EB047431CDCD00135EFE70BB0F0BD519101006291010038B50C1C0E25495F00F0B0F8002803DB636D1B18636503E0A289024BDA
:404A80001340A38138BDC046FFEFFFFFF8B51E1C8B89051C0C1C171CDB0505D50E23C95E0022022300F074F8A289054B281C1340A3813A1C0E23E15E331C00F01FF8F8BD65
:404AC000FFEFFFFF38B50C1C0E25495F00F060F8A389421C03D1054A1340A38104E0802252011343A381606538BDC046FFEFFFFF08B50E23C95E00F015F808BD38B5051C8A
:404B00000020074C2060081C111C1A1CFCF7DEFD431C03D12368002B00D02B6038BDC0467C33002038B50023064C051C081C236000F062F8431C03D12368002B00D02B6067
:404B400038BDC0467C33002038B50023064C051C081C111C236000F057F8431C03D12368002B00D02B6038BD7C33002038B50023064C051C081C236000F04EF8431C03D13A
:404B80002368002B00D02B6038BDC0467C33002038B5051C0020074C2060081C111C1A1C00F042F8431C03D12368002B00D02B6038BDC0467C330020C9B28218904204D09F
:404BC00003788B4202D00130F8E700207047000038B5051C0020074C2060081C111C1A1C00F02AF8431C03D12368002B00D02B6038BDC0467C33002058220120014B4042A3
:404C00001A6070477C33002058220120014B40421A6070477C3300205822024B00201A607047C0467C33002058220120014B40421A6070477C33002058220120014B40424C
:404C40001A6070477C330020134A1088810703D08107890F401A001D11791030484381B25088820703D08207920F801A001D800040180A494030098980B2CA0701D050302F
:404C800080B2890706D504495422091F09785143081880B27047000076130020BC17002010B501F040FF10BD10B501F052FF10BD10B501F056FF10BD10B500F04FFA10BD79
:404CC00010B50749044609780220002907D1204601F0AAFF002802D120460CF039FB10BDEE14002070B504460120002C12D02368002B0FD0616800290CD0074D0622288903
:404D0000208118462968FEF7BAFF6968606809780170002070BD0000BC170020FFB585B0002768460E9D07734C481C460078002802D0082009B0F0BD10990F98019000951B
:404D4000029105A807C800F0FBF80028F2D16946264603AB84460873002C19D0002115E08A00B75A082F09D990198078002805D0083FB7521878401C187005E0002915D014
:404D80000027B75290198770491CC9B2A942E7D360460028CED10F9800280AD0109901F069FA0006000E04D00120C3E701208446EEE701F0CEFE2948002101610C3005998D
:404DC000016021888180022D03D3A1798171A17AC17100211EE0481C19E082008B00A75AE65ABE46BE4211D26F463E80B4461E190296B678BE7001967646E6521719029EA6
:404E0000BB78B3706646A652019EBE70401CA842E3D3491CA942DED3114800906846037B22460799069800F013F9002882D168460A4C007B60700A4801F0BAFE0028B4D185
:404E4000204607490C3008F0E3FF0028ADD108F0FDFF0028A9D1012121706BE770130020BC170020F8B5054633480E460078002802D002242046F8BD002E5BD000242F4920
:404E8000002D16D02A89D0070DD02868002808D003881B3BE12B04D24088FB2801D81B2801D2012409E0900707D56868002804D1F7E70020088108604860002CDAD11F4828
:404EC0002F8907811C481B21801D018041800421017119490020891C0870F80705D016480622801D2968FEF7CAFE1449B80703D56A681148127882700F480D46801D08602E
:404F0000001F486001F0B6FE0B48801D01F0A4FE28890FF0C5FC28890FF044FE03461033FFF792FE1F21C018890140180249308088809FE701249DE770130020BC1700204B
:404F4000FFB58446384F1C460020BB883F78054602460646002F11D100290ED0029999420BD36146002908D0002C06D00A99002906D02E4B0B99994202D2012004B0F0BDCB
:404F8000002144E0AB001F19BF78002F3BD0E35A002B38D07B43591889B22B0000F04AF8050410161C253100A7782388BC46FF27233BEB37BB4222D26346032B1FD322E052
:404FC000A388002B1FD0302B19D31CE02389002B19D0282B13D316E0A289002A13D01346134F233BBB420AD20DE0268A002A0AD033460F4F233BBB4201D2964203D9012095
:405000000EE0002001E000280AD16D1CEDB2099B9D42B7D31C2463435B1802998B42ACD89642AAD8AAE700007013002079020000BAFF000030B47446641E2578641CAB4218
:4050400000D21D46635D5B00E31830BC18470000FFB583B0002469460C801F4606468C80002806D00598002803D004983043800701D0012467E0002FFBD03449049809888A
:405080008842F6D3FDF7C6FFFDF7B4FF00F010FC002856D100F06CFD002852D12C49084601F01CF905042D0C4BD12A480499066081800021C18007810C98007AC00704D0CE
:4050C000684601F05FFD040007D10C98007A800703D501A801F05EFD0446BF1DFEB2002C21D13146059800F05DF804001BD10FF067FD0406240E16D16A4610889288083604
:405100008518144AF1B29088D288AEB29319984207D3401B801A80B201F0D0FB050007D000E0FF25012400F05BFA002D04D008E0F8B200F01BF9F6E700F07EFA0649012026
:40514000087000F0C7FB204607B0F0BD7413002091520000C81700208413002010B503480078012801D101F04BFA10BD8413002070B5084B0446DA889E8800205518B542F0
:4051800006D81D68AA182260DA885118D98070BD032070BDC81700200148008970470000C8170020F0B587B007460D4600208900009006916846FFF7DBFF844600285DD136
:4051C000304800990160002117E02E4B88001A680629115406D22C4C0419667882185670628805E0C419203CA67A8218567022891B68C018491C4280C9B2A942E5D300246C
:405200002DE0601CC2B2059025E01E4FA30039689600581840887118039604904E88B04217D938466F46FE80B6464F786E4677710297049F4F800168039F5E1876787918CF
:405240004E700168764659184E800068029F18184770521CD2B2AA42D7D30598C4B2AC42CFD36046002809D168460699FFF780FF8446002802D1054900980860604607B017
:40528000F0BD000088130020A89101008C1300207047000010B5002809D005494A68002A05D0011F08788000105801F0B5FA10BD8813002010B50446FFF76EFFC0B2801DE0
:4052C000A0420CD307484068002808D0A100405801F014FA002801D00470001D10BD002010BD000088130020F8B516460D460446FFF752FFC0B2801DA04203D20020C043E9
:405300000090F8BDB2B2E9B2684601F01DFA0099481C03D0024AA000526811500098F8BD88130020F8B50746FFF736FF801DC6B20A49002005460C680DE06178002907D062
:405340006188B94202D32078FFF7B4FF002804D1241D6D1CEDB2B542EFD3F8BD8813002010B5002801D0FFF795FF10BD70B506460948002504680BE06178002905D0628890
:405380002078121D0023FFF7AFFF241D6D1CEDB2B542F1D370BD000088130020FFB581B00A9C16002BD000F0F1F80546042826D0214F002C0BD02046FFF7B4FF2901C919DF
:4053C000486000281BD022460499FEF758FC1A4928010E5046187481019805707D20029CC000444300F0C0F8009004280AD000F055FAA0420ED800F051FA201A06E0FF2018
:4054000005B0F0BD204600F0ADFA0020B08135720020F5E700F042FA074600F0B9FA381B87B23846012100F0EFF800980101024808188781E6E70000D4170020F8B5060162
:4054400017483418217A042903D0A089002802D018E00020F8BD00F021FA054600F098FA00F0A2F804280DD001010D480F18B88941198DB2002100F0C7F80020B88128469C
:4054800000F070FA6068064D002801D0FFF768FF042020720020A8516081A081D9E70000D4170020FEB500266A46304601232549050169180D7A042D02D0898900291BD0BD
:4054C00000211154401CC0B20428F0D300246846005D002830D01B482101081841894768056802910021016041600422418102728181002E02D015E01354E3E700F054F811
:4055000004280ED001010F480818019086890021304600F079F8019800218181304600F021FA0126002D07D038460299A847002F02D03846FFF714FF641CE4B2042CC6D379
:40554000FEBD0000D41700200EB5002005216A4600901181508103486946006810F0B9F90EBD000090130020074A0020010189180B7A042B02D08989002903D0401CC0B2A1
:405580000428F3D370470000D41700200549002002015218127A042A03D0401CC0B20428F6D37047D417002030B50A4B04200A4C00210A011219157A042D06D09289002A64
:4055C00003D09A4201D808461346491CC9B20429EFD330BDFFFF0000D41700207047000030B50020074C05460423020111190B72A5504D60401C4D81C0B28D810428F4D34D
:4056000030BD0000D417002030B5094C00231A011219157A042D04D09589002906D02D1895815B1CDBB2042BF1D330BD2D1AF7E7D4170020002070471CB5002469460C70B8
:40564000142001902346054A054810F047F904480068401C00D1FF2420461CBDB5560000901300203EB5124A0146FF2000230124126800290DD0012914D0042908D104205A
:405680006946009308814B81104610F022F980B23EBD68460093048143816946104610F013F9F4E768460093048143816946EBE79013002070B545890468416800890300DD
:4056C000FFF7B8FC08280509091E22282628002007F010F91EE0022908D0C8B22A4621460EF0FAF82046FFF73BFE13E002202A4621460EF0F1F82946204600F00DF809E086
:4057000000200FF0D5FD05E02046FFF7CBFE01E0FDF7A1FC002070BD014B0022DB6818479413002070B5448905680089022803D0032809D0FF2070BD2246094C0023A468B7
:4057400029460120A04708E0FFF7AEFA241DA2B200232946022008F00CFA002070BD000094130020704700000248002141600180418070479413002070B50C46002186B080
:4057800016460391012802D0022859D116E003A9012008F04EFA01281BD1039D324621462846FEF76CFA0095287801900220694608814E816846FFF7B5FF41E0214D002B49
:4057C000686809D0049004A9022008F032FA01281DD0022006B070BD002812D0298840182146FEF74CFA28880024801980B228806988091D884206D12C801348FFF792FF1C
:4058000003E00320E6E788421AD96C6018E004986860E278A378110219430B4A698000231060E3565360032313815181A1788170E178C1706178417021780170042028808F
:405840000020C7E794130020141800203EB515460C46022803D004280CD000203EBD0091019002206946088107484A81006810F030F807E00EF030F8044B0022DB68294631
:405880002046984701203EBD9013002094130020014AD1609060704794130020034801688068081A0A214843000970472018002010B5FDF7A3FB482204490548FEF7DFF95F
:4058C00003490120C870002010BD0000C4910100241C002010B5FDF789FB10BD70B5134C2368002B08D0207B1149C20705D04008400020738868A08070BD88680B4AA188EB
:4059000080B29268814203D90A4D691A091802E0814202D2411A5118A160A080A0689842EAD30FF0F3FF00F013F870BD20180020C0102E40FFFF000010B508461946FFF78F
:40594000A7FF10BD704710B5FFF780FF10BD000003480021016041608160C1607047000020180020024610B5FF20002A0CD0FFF7EFFF064C0321207B0843207310010A2136
:40598000FDF708FD2060002010BD00002018002000B504480A21806848430209FFF7D8FF104600BD201800200248007B8007C00F704700002018002010B544490868002833
:4059C00002DA434B01221A70022290430860414800693E49C00B4031096A08425ED0012000F0D0FA3B483C497C30FDF76BFA37480E216C30FDF766FA364820218430FDF7A4
:405A000061FA344814219C30FDF75CFA3148FF21C131A430FDF756FA2E48FF212F31B030FDF750FA2B482D49BC30FDF74BFA29482B49AC30FDF746FA29492648491CB43061
:405A4000FDF740FA23482749B830FDF73BFA21482549CC30FDF736FA1E4824490830FDF731FA1C482249A830FDF72CFA194821498830FDF727FA17481F498C30FDF722FAFF
:405A800014481921C9029030FDF71CFAFDF71CFAFDF7C8FAC0B2022802D00FE0FF2010BD16491748FDF70EFA15481649001DFDF709FA134800210830FDF704FA54200449C1
:405AC000C043891C0870002010BD000000F02E40A413002000002E4055650000320300002F3F00003102000010520000EC160000FA12000031D000003AE3000099560000E9
:405B000080012E40F80F000070B50646581C80B245086D00002408E0304600F0C1F81055000A1119A41C4870A4B2AC42F4D3D80705D0D0182038D15CC47FD454C17770BD66
:405B400030B50A4C002100195B1E07E0541864782502545C2C430480891C89B29942F5DB994201D1515C018030BD000000102E4010B5FF2000F006FA0F49FF2048700E4814
:405B80001021801D41800121417001700A490020C91C4870FFF710FF04000AD100F01AF907210648FDF78CF9044807211830FDF787F9204610BD0000A4130020CC112E40A7
:405BC00070B5002405465B1E0AE0284600F068F8010A161971702D1D1055A41CADB2A4B29C42F2DB9C4203D1284600F059F8105570BD000070B500210A4D5B1E0AE05418A7
:405C000064782602545C344346193480001D891C80B289B29942F2DB994202D1515C4019018070BD00102E40F0B50599091FCFB200217E1E0BE0541864782502545C2C434D
:405C4000164D45192C80001D891C80B289B2B142F1DBFC0712D01C78515C24020F4A0C4381180C809C785D78001D210280B2294384182180001D80B2D9780CE059781A78BD
:405C800009021143054A84182180001DD9789B78090280B2194380180180F0BD00102E40014940180088704700102E4010B50B490020487000F08EF8002000F089F9002023
:405CC00000F076F907210648FDF7FAF8044807211830FDF7F5F8002010BD0000A7130020CC112E4010B506480078012803D102210448FDF7E7F802490020C91E087010BDD9
:405D0000A713002070F02E4010B50B46062812D006DC01280CD0032801D1FFF7C7FF10BD0A28FCD00B28FAD105480078107010BDFFF71EFF10BD1146184600F065F910BD6A
:405D4000AA130020F8B5204DAC6A0127A0071F4E002816DA307806280ED1286A384328621B480069F903084381B219481030FDF7A9F8042000F006F9134802212830FDF71D
:405D80009FF8E00711D0062000F0FCF80F49FF20C91E48707078002802D1686B38436863094801212830FDF78BF8E0050BD53078042802D1052000F0E5F80348FF2101312B
:405DC0002830FDF77DF8F8BD40F02E40A713002000002E4010B503212348FDF773F80120FDF700F920483038406A204C80076178800F890001431C480C38FDF763F8607815
:405E0000002808D0401E022181401820FDF7B2FBC000083800E0B82081B21548FDF752F81348032109021438FDF74CF810481149B830FDF747F8612189010F48FDF742F855
:405E40000D480321001FFDF73DF80C490C48FDF739F80B480B496038FDF734F8084801218838FDF72FF810BD70F02E40AA130020D8102E4090890000041E2E40FF0F000062
:405E800058122E4020900000044800684007400F022801D0002070470120704700010B4000B5FFF7F1FF002805D009480168C908C900016000BD0748016A49084900016259
:405EC000054801690122D2039143016100BD000000010B4040F02E4000002E400849087806280BD148780749002803D1486B400840004863C86A01221043C8627047000052
:405F0000A713002040F02E400148007870470000A713002002484078022800D001207047A413002000B50300FFF784F8080D050D0B070507090D012000BD032000BD042085
:405F400000BD022000BDFF2000BD0000074A9168D26889B2064B92B2994204D105498A4201D1012100E000210170704780002E4033D000003FE300000149487070470000A2
:405F8000A713002010B50446FDF734F8072C01D9FF2C01D102480470FDF728F810BD0000A71300200149487070470000A413002010B5064A012805D01921C9021046FCF764
:405FC00081FF10BD1D21C902F8E7000090002E4010B50A4A141D012808D009491046FCF771FF08492046FCF76DFF10BD04491046891CFCF767FF0349491DF3E788002E4012
:4060000031D000003AE3000070B50C460546FDF709F8C0B202280E49287804D0FF2810D04C280CD810E0FF2809D10A4AD0680004800F032801D0087807E09069000A5538C2
:4060400003E00878207070BD4F382070087070BDA613002000002E40F0B50122002830D000292ED00424420600D00524792342065B06D21800D0641C034600221EE00C2564
:4060800016466E43104D00277519AF720E4F002ABB51696007D0661EB24209D10B4E86197606760E05E05E06760E8027BE1B00E080269B198919521C2E81D2B2A242DED3C4
:4060C00000221046F0BD0000AC1A002079020000F8B507460020002F03D100F0BBFE002827D1154E002421460C2251438D19AA7A012A0DD12A8971586868FCF79FFE0028AD
:4061000000D028200021A972002F05D0282803D0641CE4B2062CE6D3641CE1B207E00C224A439219927A012A04D0491CC9B20629F5D3F8BD2820F8BDAC1A00200749002099
:406140000C2242435218927A012A05D0401CC0B20628F5D30020704701207047AC1A0020F8B50F000446164609D0184D18496868A04202D94018A04201D38E4201D9012036
:40618000F8BD39462046FDF76BFD00281BD0324639462046FDF773FDF0B200210C224A43521913895668F718A74208D90127A41B1B1B9772834206DAC01A1469C0B2491C00
:4061C000C9B20629EAD30020F8BD0000AC1A00207902000010B500F05DF80748054AC16806480C46FDF74BFD04492046FFF734FF10BD000079020000B013002030180020E6
:40620000002070470020054A002902D0012902D002E0506000E0906000207047B013002070B5084C154608460549A26889182A46FDF725FDA0684019A06028B270BD0000FC
:4062400030180020B01300203EB50A226946FFF7E7FF044606480A2200686946FDF700FD002802D00020C0433EBD20463EBD0000B0130020002802D0044A914201D2FF20F4
:40628000704703490A61C8600020704779020000B0130020024800214160816070470000B013002070B5074C15460548626880182A46FFF755FF60684019606028B270BD68
:4062C00030180020B013002010B503490A220968FFF7E8FF10BD0000B013002010B50F4A002313600E4A13600E4B18600E4801600E49012008600E490860000290600E4929
:406300000C4808600D4914300860FF381538506000F0BCF800F0CAF9002010BDDC130020C4130020F0130020F4130020E0130020D0130020F41B0020D4130020E813002070
:40634000014610B50020002910D0094B1A689C685118A14209D25868196080188A0704D08A07920F891A091D196010BD002010BDC4130020F8B50024164E671E321F3D46FE
:406380003168136806E01422624310328A58521C1BD0641C9C42F6D36A1C14D02C461422544322460C3288500C214843FFF7C8FF3168002808510AD031680020103408517E
:4063C0007068401C70602846F8BD2546E4E73846F8BD0000D4130020F3B50026F64381B000281BDB1E490968884217D80299002914D01B4F142204463F1D5443254639688E
:4064000010354859401C09D0FCF7F4FD38682F1F4159C359994203DBFCF7E8FD3046FEBD214608310091465801590C20704308180C220299FDF723FC0948761C001D00688B
:40644000C159B14200D100260549009A091D865008684159491C4151FCF7C8FD0020FEBDD0130020002803DB07490968884202D90020C043704704491422091D09685043AA
:406480001030085870470000D0130020F0B500200D4A451E0346171F50600FE014260146714314680E1DA3510C461668083433511668083435511468401C6350396888424F
:4064C000ECD30020F0BD0000D4130020F3B50026F64381B0002841DB2349096888423DD8029900293AD0204F142204463F1D54432546396810354859401C2FD0FCF77AFD6A
:406500003868415900292BD0211D009146580C21005971430F46C1190C220298FDF7AFFB11480021001D0068761C00590C34C0190160416081600C48001D00680159B142B5
:4065400000D100260849009A091D865008684159491E4151FCF74AFD0020FEBD3046FEBDFCF744FDFAE70000D0130020FEB504460D4600201E49089E0860471E0090019071
:406580000290002C11D0486885420ED2002A0CD0002E0AD0642E08D808460C3001681C2068430C18207A002801D03846FEBD0120226020721846FFF7DDFE6060401C13D038
:4065C0006681A6810A4827610C3067610179A94200D205710021684601810A462846029B00F040F82846FEBD00202072DDE70000DC13002038B50124009400F039F838BDC4
:40660000FEB50027164EFF433D4600240EE01C20316860430818017A002906D04068FFF721FF002801D0254603E0641C3079A042EDDA681C12D01C2130684D434419FCF741
:40664000D9FC69466068FFF741FF0546FCF7CEFC002DD9D1216868468847D5E7FEBD0000E813002038B50024009400F001F838BD1FB500220C49541E0A60002811DB4968B2
:4066800088420ED808491C220C31096850430818406801A9FFF7A0FE401C02D0002004B010BD2046FBE70000DC130020F0B50021114A4D1E174611710C3F0B46BD6016E014
:4066C00008461C2460431668041D355114680646235014680836A3551468361DA353044616680A34335318301468491C255078688142E5D30020F0BDE813002038B5002117
:406700000091002811DB0F49097888420DDA0D4D04010C3529680859002807D0201D0818694600F06FF9002801D0002038BDFCF761FC28680F34015D491E0155FCF756FCA4
:40674000009838BDF8130020F7B582B0002502986E1E06602E48D21C024017462D4A2C4610460C380178106805E02301C358002B0FD0641CE4B28C42F7D3711C28D03401C5
:40678000211D40180191039900F02AF900281FD101E02646F1E71F48016820460C300F521C480399026820460E30115419480399026820460F3011540398784300F0A0F830
:4067C000144900280968085102D00024009011E001251AE00F48016801980818009900F02CF9002801D0012502E00098C0190090641CE4B203988442ECD3002D05D10298B7
:40680000066004480179491C0171284605B0F0BDFCFF000004140020F8B50D4600216A468C461180002839DB23490978884235DA214B04010C3319680A59002A2ED02046FA
:406840000C300B5A801C0E5C184670438018954224D3854222D2002006E007465F43BF18AF4206D0401CC0B2B042F6D36046002814D0114E271DC8190C366A46294600F09C
:4068800006F900280AD168460088012808D030682946C01900F0D1F8002803D00120F8BD0020F8BDFCF7A6FB30680F34015D491C0155FCF79BFBF3E7F8130020F8B50F4648
:4068C000002400F031F8002817D10C4900220B460C334A600EE021011D680E466A501D680C36AA53B61C1D680F31AA551D68641C6A54E4B2BC42EED31A71F8BDF81300201A
:4069000000280BD0C01C074A81085068890053884118994203D89368516018187047002070470000F8130020F8B5064600200F4D009029700C0121466846FEF719FC0028EC
:406940000CD129460C3100980860301B001F84B221466846FEF70CFC002801D0FF20F8BD6C800098A8600020F8BD0000F8130020F8B5002827DB19490978884223DA174C9F
:4069800005010C342168485900281CD028460C30085A009028460E300E5C401C0E5420682F1DC01900F064F800280CD12068002445590EE0094829460C300068C01900F080
:4069C0003CF8002801D00120F8BD00982D18641CE4B2B442EED30020F8BD0000F813002030B50D4604000BD0A800FFF789FF6060002805D000202570C0436080002030BD4B
:406A0000012030BD70B50D46040005D0002D03D00220205E002801DA012070BDFCF7EAFA0221615E60688900405828606088401E6080FCF7DBFA002070BD70B50D46040025
:406A400007D0002D05D002212078615E401E814201DB012070BDFCF7CDFA6088401C00B26080616880000D50FCF7C0FA002070BD10B5040009D0227800216068FDF708F92E
:406A80000020C0436080002010BD012010BDF0B500231D46002802D00224045F0AE00120F0BD46689F00F6598E4201D1012503E05B1CDBB29C42F4DA15700020F0BD000049
:406AC00001480078704700000C1400207CB505460024FEF7E9F8A8796946087000A8062229460130FDF7CBF80021684606F0C8F90C2804D0072804D01F2804D004E0022443
:406B000002E0042400E0272420467CBD10B50024FEF7CAF80021084606F0B6F90C2800D10224204610BD10B502280BD0032802D0042809D102E000F0FDF905E000F0A8FA63
:406B4000FF2801D100F0B8FAFFF7DEF9FFF7EAF910BD10B500F0E0FAFFF7D6F9FFF7E2F910BD70B504460025FEF79EF8002C06D0A079012803D8214603F0FCFA00E0012581
:406B8000284670BD01460120002902D0502008800020704701460120002905D0034854220078504308800020704700000E14002010B502460D49FE204870032410460FF080
:406BC000ABF9002810D10FF04FF900280CD107F08DF8002808D100F0CFFC002804D106F02DFC002800D10024204610BD0C1400207CB505460024FEF757F8A879694608708C
:406C000000A8062229460130FDF739F80021684606F048F90C2802D01F2802D002E0022400E0072420467CBD70B50025044600280ED0A07901280BD8FEF736F8A0790028C5
:406C4000204602D003F0CEFE03E003F0A3FE00E00125284670BD0000014610B50120002904D006220248FDF70AF8002010BD00001014002001460120002903D00878024913
:406C800008700020704700000E14002070B592B00E4605460024FEF707F803F071FB00280AD000F0B3FE002806D0002D0ED0EA7F1F2A03D9012409E002242EE000A8294633
:406CC0000130FCF7DCFFE87F69460870002E0FD0002C22D1F27F1F2A01D901241DE008A831460130FCF7CBFFF07F08A9087001E0002C12D10020002D04D010A9684600F010
:406D0000B5FE0120002E04D010A908A800F040FF01E0002801D000F03BFE204612B070BD10B5FFF7F1F8012801D1FFF7F3F810BD1CB5FF206946087100200870FDF7B4FFE9
:406D40006A4601A90620FEF7DFFF6946002008561CBD000038B504460120002C20D0617801291DD800290BD0FF25E535FDF79CFF0C4828180088C0B22070072803D00EE06F
:406D8000FF25CD35F2E70020694608706846FFF7DDF869460878012801D108202070002038BD000000102E4010B507480024807B002806D00448203002F0C0FC012800D12A
:406DC000FE24204610BD00006C1C0020F8B504460120002C26D06178012902D92278092A20D8002905D0FF25E5352078092803D004E0FF25CD35F8E708202070FDF754FFF9
:406E00002078114F114E08280DD00020FFF7E0F870780128207810D00D4969180880FE2070700020F8BD0120FFF7D2F80720B8810549203188800120F2E7B8810248217847
:406E400020308180EBE70000C0112E400C14002000102E4010B509480024807B00280BD0FFF752F8062801D0032800D12824FFF79BFFFE2800D12824204610BD6C1C002085
:406E800070B50E46050001D0002400E00C4C002C11D0E28A500609D5D107C90F022003F09DFEE08A40218843E08204E0D107C90F012003F093FE3146284603F0D9FA70BD11
:406EC0008C1C0020F8B50546002004460D4E009013E022466946284601F04EF90098002801D00EF0FBFFA878214603F053F8A878214603F041F8641CE4B2308AA042E8D85A
:406F0000F8BD0000441D0020064A02235188891C89B25180814201D8102900D9538050887047000016140020014840787047000016140020FEB54E4DFEF7E6FF012849D155
:406F40004C480078002845D003F01AFA002841D005F038FC00283DD0474C6078C00703D000F05AFD012835D0207E00287DD16078002600285BD0000706D540488089070BC6
:406F800000F02EF9384370D13B484178684605F05BFA044628793A4DA9784018C1B2A14261D803F0EDF900285FD0344860300089314F0190203702F0DDFF6846008803F02C
:406FC00013F803F0D1F82F490988884203D10120FEF7D8FF49E02C49012008702648807B00281BD00198002818D04037F87E002814D12248603000884000A0420AD9687879
:40700000002807D103F018FE2049088A03221202104308822878002800D02E7003F030F80120FEF7A9FF00F069FC174C15E003F0A7F9002819D0102403F096F8214602F0C8
:4070400051FF02F0D1FF104C0120207003F018F80020FEF791FF00F051FC20780128B6D1FEF71EFF26700020FEBDFF20FEBD0000641C0020A41300206C1C0020A0102E402A
:407080001E1400203014002016140020E0112E4010B50848FF244078002809D103F070F9012805D1FEF71EFE0720FEF76BFF0024204610BD6C1C002038B5FEF725FF01285F
:4070C00001D0002038BD03F05BF900280AD0114C6078C00703D000F09FFC012802D0207E002801D0FF2038BD617800290FD0684605F0AAF9022806D96846008802F074FF96
:40710000012002F0C3FF0320FEF73CFFD9E70020F7E700006C1C002038B51E4CFEF7F4FE042813D0052811D0062812D003282AD007280AD100206946087002460120FEF782
:40714000E3FDFEF7E1FE0128FBD138BD00F0F6FB38BD02F0B3FF00F0F1FB03F03FF88007800F0228F4D10C4841880029F0D05B21095D0029ECD101210170A07D014002200B
:4071800003F02CFD38BD02F09DFF0120FEF7FAFE38BD00008C1C00201E140020F8B50646002403F089FD0546304603F09FFD03460A480021068A0DE001228A401046174654
:4071C00028401F40002803D0002F01D1224394B2491CC9B28E42EFD82046F8BD441D002070B500252C460A4E03E0002C01D0002000E030460079002803D02046FFF7CEFF07
:407200000543641C2406240EEFD0284670BD00008C1C00201CB50020694648706846FFF799FD01AA69460A20FEF76EFD6946042008561CBD10B50C4601F0BAFC002809D0C9
