:4000000000400020110000004D1B00004D1B000008B501F0B5FD0000F8B572B680250024474EED003460211C2A1C464803F072FD211C2A1C444803F06DFD992302253C204D
:40004000424A1B041360424A42491460424A434F1460434A1360434A1360434A13782B4313700B788343283803430B70162113780B43137040223D4B1A603D4A3D4B1A6052
:4000800060223D4B1A603D4A3D4B1A6080223D4B92001A603C4BE13AFF3A1A603B4B0E3A1A6002F06DFC3A4802F082FB012002F073FC302002F08CFB364A374BFA201A6033
:4000C0008023364ADB053B601368C0001D4315600825334A334B1A603368AB43336002F0FDFB314802F0F0FB8821304A304B89011A60304B304A281C1A60304A1160304A9A
:4001000030491A608022304B12061A6080222F4BD2021A6041222E4B1A602E4B013A1A6002F088FB281C02F0A5FB8023DB053B600323294A1360294A1360294B1C60F8BD2F
:400140006CF02E4000300F4000400F40000302400000024001700F40080004400C020B4020500F4030500F4000700F4000020440000C1800080204400003044000101B0044
:40018000080304400C0304401803044030001040001BB7000600008004010B4078002E402D3E00007C002E40DC050000007F2500040301400000014041FF008000030140C9
:4001C00040FF0080852A000008010B4000010B4024010140080101403000304030003140000E3F4010B5064C2378002B07D1054B002B02D0044800E000BF0123237010BD02
:40020000E0160020000000003C7F010008B5084B002B03D00748084900E000BF07480368002B00D108BD064B002BFBD09847F9E7000000003C7F0100E4160020C81100204F
:400240000000000010B562B601F068FC0A4C012801D1207001E00023237001F065FC002802D0064801F0DCFE00F0D2F9207801F091F804F05FFCF9E7FD16002056170020B3
:4002800070B50C1C88B0262866D01FD8212800D14FE10AD8022857D0202843D0012800D060E1B14803F058FD30E0232800D14AE100D24DE1242800D151E1252800D051E1F6
:4002C0000978AA4803F0CCFC002249E12B2832D00AD8282868D044D32A2800D042E10822A34803F00EFC3DE14C2800D1C1E006D8472800D036E14D680E8900240BE14E284D
:4003000000D18BE0522800D1E3E02BE102F03AF9984B1B681B04DB178342F7D1002001F0B9FD1FE103A8031C26CC26C306CC06C301F0DEF916E1904B1A78002A00D111E11E
:4003400000228E481A7007E10B78022B00D009E101F012FE8A48FFE08A4B1B78032BDDD100E10822824803F0CCFB834B864C5A78864D002A07D1864803F0EEFC2078291C55
:400380000EF0B2FBEEE09978824803F069FC291C207810F01FFC80216078237800021843890011F043FBDDE01E227B4B724D1A82C8225B6812011A806E785A800A78734CE7
:4003C000002E0BD17548111C03F04AFC237A0120002B00D0301C01F05DFD09E0A978704803F03EFC237A002B02D1012001F09AFD02F0C8F85F4B1B681B04DB0FC018002865
:40040000F6D1E870287102F0FBFB02F03FF802F0C1F802F07FF802F02BF8A3E08B894D680E890E2B11D1544B1A79012A00D099E000249A68B2189A60B44200D392E0285D7C
:40044000013402F091F8E4B2F6E70F2B00D089E02A78494B1A73002A05D00120187102F0CFFB504878E00020187102F0C9FB4E4872E08B894D680E890E2B0FD13E4B1A79F2
:40048000012A1ED100249A68B2189A60B44218D2285D013402F068F8E4B2F7E70F2B10D12878354B1873002805D00120187102F0A7FB3C4803E0187102F0A2FB3A4803F0E3
:4004C0004BFC314A507813780002184311F074FE48E0294B597B5A78012909D1012A41D1A2890E2A3ED12289196952181A6139E0012A37D1A2890E2A34D11B79012B31D19A
:4005000000252389AB422DD96368585D013502F02BF8EDB2F5E7B44224D228194178C37880782A5D00900434204803F099FBE4B2F1E7114B5B78002B14D1134B1C4918785A
:4005400010F00AFC0EE009681A4803F089FB09E00122094B18481A7503F0FEFB02E00122054BDA7008B070BD687F010052800100DE29002008022540FC160020767F010005
:40058000827F0100662B0020682B0020CC1100208D7F01009B7F01008C120020AD7F0100C37F0100DC7F0100F17F01000880010054130020298001003B80010038B5012031
:4005C00002F000FB0123084C084A6375A3690133A361934207D10025657502F0E5FA0448A56103F0B9FB38BDFC160020112700006280010008B5062002F0AAF8062002F0E1
:40060000BFF8012002F0B0F8012002F0C5F808BD08B5062002F0E8FA002002F0F1FA022002F0FAFA022002F0D3FA0F230B4A13810B4B0C3303CB03C202F098FA094802F00C
:4006400081FA01F015FFFFF7D5FF074801F05EFB012006490FF0C4FF08BDC046FC290020CC110020BD0500008102000039300000F8B5031E2DD01849041C03F097FB1323A3
:40068000002826D0201C3D2103F082FBFF25001BC2B22B1C0E2A1CD80540281C03F00EFA211C2A1C061C002703F09EFB0B4BBA001433D158301C2A1CFCB203F081FB0028B9
:4006C00003D001371C2FF1D13C1C301C03F000FA231C181CF8BDC04673800100CC1100201FB50E2301AC238100230190A180E380074A211C507813780002184311F006FA65
:40070000002803D0034B1B78022BF1D01FBDC046682B0020662B002030B5444C85B06378012B00D07DE031380E2800D97CE002F0D9FC08192C3D7B7B7B7B7B7B7B7B7B7BD8
:4007400059003B4D281C01F023FC021E02D0394801210FE0384A0121137A0133DBB21372013B33E0354D281C01F012FC021E04D00221304803F074FA56E02F4A0221137AE6
:400780000133DBB21372013B20E02D4D281C01F0FFFB021E02D027480321EBE7264A0321137A0133DBB21372013B0FE0254D281C01F0EEFB021E02D01E480421DAE7042132
:4007C0001D4A137A0133DBB21372013B0720D1544343D018A1700930291C062203F091F919481FE0194B00241B78022B17D1124B1A7AA24218D9072060431818057B195D4F
:40080000827B437B0095C57A01340195857AE4B20295407A03900E4803F022FAE7E70D4800E00D4803F098FA05B030BDFC1600200F2A002091800100B82900202D2A0020EC
:400840004B2A0020692A0020A4800100662B0020AB800100D3800100DD8001002D4B13B51B780022032B02D0022B06D1012201AB31385A700E2848D801E0274846E002F0C3
:4008800031FC262F3235383B3E41444444444444080001AC201C06F033F920780138072836D802F01FFC0406080A0C0E10121B482CE01B482AE01B4828E01B4826E01B482C
:4008C00024E01B4822E01B4820E01B481EE0012301A8037006F050F9002819D1174815E001A80223F5E701A80323F2E701A80423EFE701A80523ECE701A80623E9E701A8FF
:400900000723E6E701A80823E3E70D4803F024FA13BDC046662B0020478201005182010059820100618201006982010071820100798201008182010089820100A4800100C6
:4009400091820100F7B5051C0192019A2B1A934229DA154E0C7837684B783E197678B446032662461640022E00D1203CE4B2261C303EF6B2092E01D9373CE6B20324FF18F7
:400980007F783C40022C00D1203BDBB21C1C303CE4B2092C01D9373BDCB23601A3192B7002310135D1E7F7BD74160020F0B5B1B0002801D100F0B9FC041C00211B2209A8B3
:4009C00003F0A8F800211F2210A803F0A3F83E2220A8002103F09EF800236A4617261383162207AD6A446E4405AF201C13702B8033703B700893FFF73BFE1B2801D900F0B5
:400A000091FC02F079FB1C00920430008F0438004F009204A8009400A2005B01960119025B02640292049204130307024E0421032D036D03AB032B04C70342045704637AFC
:400A4000312B01D000F06EFCCD4803F085F901F099FDCC4B1B681B04DB178342F7D101F027FF00F062FCE37AC7483F2B01D000F059FC00F058FC637A3F2B01D000F052FCBF
:400A8000C24C201C04F052F8A07861792279E37800906078019020780290BD4803F0E0F800F043FCBB4D237A6E78002E51D13C2B09D03F2B01D000F035FC09A801F0D2FABF
:400AC000B54809A9AFE20934201C3E2103F060F9001B172802DDB14800F025FCB04B1B78022B2FD001F010FA311C1B2209A803F011F8291C6A7F27310B3AD2B209A83A70B9
:400B000002F0FFFF0120391C021C331C00F014FF3A78022009A9331C00F00EFF09A801F07FFA002800D1BCE39E4800F0FCFB994A237A5578002D0CD13C2B14D1984B1B7874
:400B4000032B13D1984800F0EEFB924B5B78002B5ED09648E7E38F4BE0795B78002BF8D1FFF77CFEE1E33F2B3DD0DBE3271C0937381C3E2103F00CF9C01B1F2801DD8C4894
:400B8000D1E318AE291C1F22301C02F0C3FF391C162702226F4406A802F0B3FF381C06A90122FFF7CFFE211C3A780C31F27720A8520002F0A6FF10A820A91F22FFF7C2FED3
:400BC00010A9F27F301C02F09CFF301C291C05F03BFF0028A8D1774B3A78986810A9C27702F08FFF5DE36E4B1B78032BAAD1724803F036F86F4B9B68DA7FAA4206D9595D04
:400C00006E48013503F02CF8EDB2F3E76C488AE3634B227A1B78022B94D03C2A26D03F2A00D07FE3634D6E68308802F0C1FE0022644B02F0EDFB02F085FE04B2708802F003
:400C4000B7FE00225F4B02F0E3FB02F07BFE2B8A02B2211C5C4803F003F801F093FC494B1B681B04DB178342F7D15EE3032B00D168E7637A301C2B70A37A291C01226B7098
:400C8000FFF760FE4B4F33787A68301C1380237B291C2B70637B01226B70FFF753FE33787A68301C5380E37B291C2B70237C01226B70FFF747FE33783B82F2E2637A3C2BF7
:400CC0000FD03F2B00D02DE3354B1B78022B00D038E73E4B3E485988DA889B8802F0C0FF23E32C4B5F78012F00D032E72C4B1B78022B00D026E7A37A301C2B70E37A291C4F
:400D00003A1C6B70FFF71EFE3378324A301C1380637B291C2B70A37B3A1C6B70FFF712FE33782C4A53802C4B111C18780FF052FFF7E6237A312B55D03F2B03D0302B00D07C
:400D4000F0E207E0134B25485B78002B00D1EAE22348E8E2124B1B78022B00D1F2E600240623201C08A90122089400F0E5FDA0231B06984200D0D8E2201C01F08BF846E070
:400D8000A4800100080225409B820100082A0020B3820100FC160020D5820100E0820100662B0020EA820100D3800100DD800100F48201008C120020FE82010005830100FD
:400DC000AD8401000000E43F0A830100DE29002023830100CC110020682B00203B83010044830100C74B1B78022B00D1AAE601240623002008A9221C089400F09DFDA02392
:400E00001B06984200D090E2002001F08BF8BE4B5C7046E2BC4B5A78012A00D099E618AB1A80023A5A80B94A1899507813780002184310F0DFFD78E2B34D6E78012E00D09F
:400E400087E6237A312B0AD1AE4B1B78022B00D178E600F04BFD002001F064F861E6302B08D1A84B1B78042B00D06BE601F084F82E7016E23F2B00D054E20024A44BA548E0
:400E80001B78A34200D14EE2A14B1B78A34200D84BE21E256543A04E01347019C778C1794279037900978778E4B2019740780290A85D0390994802F0D3FEE5E7924B5B7843
:400EC000012B00D045E6607AFFF726FC2DE28D4B1B78022B00D035E68B4DE07A6B78012B00D095E03138032800D91BE2874B02F0F9F80225476918780FF05AFB021E02D1F4
:400F0000874E337A02E08748012165E0141CD2B29A4200D3C5E1375D621C012FF6D1072060433018013B093000210622337202F0F1FD002337713355AF70B2E118780FF01C
:400F400037FB021E02D1764E337A02E07548022142E0141CD2B29A4200D3A2E1315D621C0129F6D1072060433018013B093000210622337202F0CEFD00233355023344E0DE
:400F800018780FF015FB021E02D1654E337A02E06448032120E0141CD2B29A4200D380E1315D621C0129F6D1072060433018013B093000210622337202F0ACFD0023335511
:400FC000033322E018780FF0F3FA021E02D1544E337A04E00421534802F042FEA5E1141CD2B29A4200D35CE1315D621C0129F6D1072060433018013B09300021062233728D
:4010000002F088FD0023335504333371AB7048E1312800D086E13D4B18780FF0C9FA011E00D182E1404802F01BFE7EE1354B1B78022B00D086E5237A3F2B00D072E105F026
:401040004DFD011C3948EEE7637A3F2B00D069E12D4C3748A16802F003FE0023A36064E1284AA37A1278022A00D06BE5264D6C78012C1ED1312B0AD03F2B2FD0302B00D051
:4010800050E1002001F0BCFD00232B7126E029491E4A0B681C700F2350780B8113780002184310F033FD002800D03EE12C71201C10E0002C00D045E5312B09D03F2B0DD077
:4010C000302B00D02EE1201C2C7101F099FD05E00120287101F094FD174824E1174822E1637A3F2B00D01DE1064B1878062800D91BE101F0F7FF0427292B2D2F310010482B
:4011000011E1C046662B0020FC160020682B0020541700204D8301000F2A002058830100B82900209180010080830100908301009E830100FC290020DC7F0100F17F010031
:40114000A48301007A48EEE07A48ECE07A48EAE07A48E8E07A48E6E07A48E4E07A4B227A5878002800D0F4E4784B1B78022B00D1E8E4312A05D1032B00D1E3E400F08AFE75
:40118000CFE4302A00D0CDE0032B00D0DAE400F0BBFE86E06D4B607A1B78022B00D1D1E430380F2800D9BDE001F09CFF0815202B36BCBCBCBCBCBCBCBCBCBC4400200FF008
:4011C000EBFB041E00D0AFE4614802F0C5FD5E4B4E331C70A9E001200FF0DEFB002800D0A2E45B4802F0B8FD01221FE002200FF0D3FB002800D097E4554802F0ADFD022246
:4012000014E003200FF0C8FB002800D08CE4504802F0A2FD032209E004200FF0BDFB002800D081E44A4802F097FD0422464B4E331A707AE0444B4E331878042875D801F0C0
:4012400051FF030507090B0042486CE042486AE0424868E0424866E0424864E0237A3F2B06D1394B4048DB78002B5CD13F485AE0312B57D1344BDB78002B00D062E43C4B6D
:401280003C4918780FF0EDF84BE4637A312B05D03F2B08D00022302B44D100E00122364B1A722B483FE0344B34481B7A002B3AD1334838E0267A244C6378251C002B34D1CD
:4012C00018AF381C0FF0AAF93B784F34002B07D001232370302E0AD02A483F2E23D021E02370302E03D028483F2E1CD01AE0174B1B78022B00D125E42B1C4F331B78002B2D
:401300000ED0281C50300FF0DFFA012000F054FD041EFAD11C484F3502F01EFD2C7004E01A4800E01A4802F017FD31B0F0BDC046AE830100B8830100C2830100CC8301002D
:40134000D6830100E0830100FC160020662B0020A4800100EA830100F4830100FE83010008840100128401001C84010025840100682B002054130020CC1100202E840100E6
:401380003C8401005C8401004A8401005384010091820100F0B58BB06B466A468F4C00AFFB60E38878600433DB08DB00D31A9D463B6101F09DF8B8603B89251C7B61884EB1
:4013C000002B00D1EDE03079012800D096E0854B7969854C0422994204D9236800209343236002E023681343236001F009FCEB883A89033B9A4207DB7C4A9BB22A817B619F
:40140000002B00D1E4E006E02B89013B9BB22B81002B00D0DCE0754B2B8100257B699D4206D201F073F93B6958550135EDB2F5E76F4839690B2202F055FB00281FD17B6818
:40144000012B0ED16B496C4A0B6818700F2350780B8113780002184310F04EFB002800D0B6E00024201C347101F0CAFB301C211C1E303022747702F04DFB6048A6E03969DE
:401480005F480B2202F02EFB011E07D17077301C30221E3002F03EFB5A4897E07B685A4A002B1BD11378002BFCD13B69FB61BB8A3B840E23BB84504A507813780002184350
:4014C0001C23F91810F022FE041C03F033FB002C7ED04E4B1B78022BEDD079E0042123688B4323601378002BFCD138697969FFF7F7F8042223681343236069E00123444AE1
:40150000357D1370002D31D0002406253475414E01F0E8F8C3B2002BFAD0303B092B0CD8181C70430A212418301C01F0EFFD013DEDB2061C002DEBD102E0374802F00CFC49
:401540002D4B211C187801220EF074FF012801D132483BE0032801D1314837E0072801D1304833E0002833D12F482FE001F0CEF8C0B2737F0A2804D02C4AD054013373775E
:4015800026E02B4A2281224A1570284AD054101CFFF70CFA291C30222448757702F0BAFA16E0331C57331A78002A11D02189013989B2218100290BD1301C19701C4B1E300D
:4015C00030222381717702F0A5FA1A4802F0C4FBFB689D46BD460BB0F0BDC0464C120020FC160020FF010000C80F2540581B000065840100FC290020682B0020F17F010000
:4016000071840100DC7F0100672B0020662B002053170020A08601007D8401008F840100AF840100D5840100F38401001A170020102700000985010070B50E1C151C0C1C69
:40164000A31BAB4204DA207800F08EFF0134F7E7281C70BDF7B5431801930023441C019AA24240D92078013809283AD801F03AFD35353539393939051B351B4B00211D7862
:401680001E23013D5D43194B14225D190935661E281C02F03FFA3278611C013A281C02F030FA33781BE0104B104F1D781E23013D5D437E19093600211422301C02F02AFA65
:4016C000631E1A78611C013A301C009302F019FA01237D196B77009B00E0631E1B780133DBB2E418BBE7F7BD541700200F2A0020F0B5794B8BB05A78041C0893012A6FD07E
:401700000123089A53700378002B69D117781E250137FFB27B1E1E1C6E4309936F4B17709E19301C6168062202F0EBF96378002B00D001230998B3716843684B06221818E5
:40174000C771237C0372616802F0DBF9217AE068FFF780FF089B1878604B441E65435B19597F1833002902D000225A710BE05B4B14225D190935281C02F0CCF9281C584974
:40178000052202F0BEF91E20031C6343534AD31808229D79D9799A565223012D00D0023B60434E4C24186579009525790195E5780295A578039564780494484C045D0594D1
:4017C000464C201809300690464802F049FA00F0D9FE454B1B681B04DB178342F7D178E01E26089B3D4F1D786E43F619B74208D0391C6068062202F075F91E370028F5D13C
:4018000067E0089B0135EDB21D706B1E1E1C1E277E430993314B61689E19301C062202F070F96378002B00D00123B371099B5F432A4BDF19FD712578002D4AD1237C3B72BC
:40184000217AE0681E24FFF705FF089B1878234B461E74431B19597F1833002901D05D710BE01E4B14221C190934201C02F052F9201C1B49052202F044F91E20031C7343F0
:40188000164AD31808229C79D9799A565223012C00D0023B7043114C24186579009525790195E5780295A5780395647804940B4C045D0594094C201809300690094802F0AD
:4018C000CFF900F05FFE084B1B681B04DB178342F7D10BB0F0BDC046541700200F2A002003860100088601000802254070B5104D104C2E780A2E03D81E235E4336190EE0CF
:40190000002630190021062202F004F996231E365B009E42F5D100232B706B7070BDB442F9D0201C0021062202F0F4F81E34F6E7541700200F2A0020F0B593B000AFB96146
:40194000111C1E1C1F23FA18031C13701E23FA180B1C13701D23FA18331C13706B46181C1F23FB181B78002B07D11D23FB181B78052B02D801235B42AFE00023BB631E2357
:40198000FB181B789A1C531E3B64131C3B6100237B613B69DB0E7969490179607968194379603B695B013B60131CBB600023FB60BB68DB0EF9684D011D43BB685C01131C1C
:4019C0009B0003330733DB08DB006A46D31A9D466B4603339B089B00FB63424B1B687B63414B1B683B63414B1B68FB62404B1B68BB62404B1B687B623F4B1B683B623F4BCA
:401A00003F4A1A603F4B404A1A601D23FB181B781B043E4A13431A1CFB6B1A601E23FB181B78013B1A1CFB6B5A602F231822BA18D31800221A701CE02F231822BA18D31869
:401A40001B789A1C2F2318217918CB181B789B00B969CB181968FB6B9200D1502F231822BA18D3181A782F2318217918CB1801321A702F231822BA18D2181E23FB18127894
:401A80001B789A42D8D31D4BFA6B1A601D4B204A1A60FB6B1F4A1A601F23FB181A78FB6B5A60164BFA6B1A60164B1B4A1A60134B1B68BB630B4B7A6B1A600B4B3A6B1A6080
:401AC0000A4BFA6A1A600A4BBA6A1A60094B7A6A1A60094B3A6A1A60BB6B8546181CBD4613B0F0BD00010B4008010B401CFF0B4020FF0B4028FF0B402CFF0B400800104054
:401B0000B6E800000400104015000080B6D7000004000080B6EB000018000080014B18787047C04606F2FF0F002008B5044B1A78824204D00348044901F0E3FF012008BD8E
:401B400080F2FF0F5617002000F3FF0FFEE70000031C10B580240849084A0868A400C3189A1AA24201DC0B6005E001F07BFF0C2303600120404210BD5C12002080330020C5
:401B800070B51049104B01394A1C15D000221E685C689D68A018AA4203D0B058A0500432F8E7021CDC68151AA54202D0002520C2F9E710330139E7E701F05AFFFEF742FBDA
:401BC000FEE7C04601000000D889010001210E4A10B51368141C8B43136000239A000B49032B01D80A4989580A4801338150302BF4D1FEF711FA0022074B1A6023680132FD
:401C00001343236010BDC046000010404D1B00000000000000000020C000002070B5002905D119490023CE7F1A1C1C1C0EE01749F8E7002C11D1CA5C002A24D00133DBB29C
:401C4000CD5C083D012D04D9D318DBB2B342F0D301E00124FAE7002C15D0D2180133DBB2D4B21A1C06E0D51A455D002D04D08D540132D2B2A242F6D3944204D900238B54EA
:401C80000132D2B2F8E770BD601200206D17002010B50024144B154A1C70154B1C70154B1C70154B1C70518C144B1980918C5980D11DC97F08321973D27F5C821A7106228B
:401CC000DA8122321A82FA2292009A8201225242DC821A830A4B1F321A8000F0B7FB094B1C70094B1C7010BD6C2B002060120020672B00206B2B00206A2B0020462B0020B7
:401D0000602B00203C2B0020442B002030B591B0051C1F490BA8142201F0F3FE1D4C0134E37F002B03D1FFF7B3FF0123E3770120002D2AD000211B24174B08A805AA1D605D
:401D4000018106AB117016311C805C806944173C426008931C7102F0C3FF002815D1052300930E4B0E4801930E4B0F4902930F4A0BAB02F011FF002807D101220C4B0D4840
:401D80001A701121313210F037FF11B030BDC046368601006D170020402B0020809201001521000079020000C800002098100000662B00204C86010070B501262F4C86B059
:401DC0002378051C334254D00BF0CEFC002806D123781A1CB24322709B074AD52820002D49D002262378334213D0254B197804290FD89E31B140234B2348C9180131042221
:401E00002B1C0BF097FC002805D12378B343237003E0002801D0002D2DD00C222378134229D0082633400FD00021921901A801F071FE01A8154914222B1C0BF07BFC00281B
:401E400019D12378B34312E00193114B01A80233D97F0C4B9E318900C918013104222B1C0BF068FC002806D1042223789343237001E00020B5E706B070BDC0463C2B00200B
:401E8000682B002080920100622B0020F99401006D170020021C10B50120022A2BD8164B1B78062B25D1154C23785B0721D4144B002A06D11E21C8209987196B0001088028
:401EC00009E0012A08D19621C8209987196BC00008808020C00148800A492C33181C0A700EF07AFF002806D1042223781343237001E00420FF3010BD662B00206C2B002058
:401F0000601200206B2B002008B50EF0FDFF0821024A13780B43137008BDC0466C2B002070470000021C08B50120022A1DD80F4B002A04D10A2119852631598407E0012A13
:401F400006D196211985802109015984F839998407492033181C0A700EF0C0FE002804D10421044A13780B43137008BD601200206A2B00206C2B002008B50EF0DBFE082106
:401F8000024A13780B43137008BDC0466C2B002038B5114C2378062B1AD10125002819D000230E4AC55C991801334D71062BF8D18379101CD3720EF037FE051E0AD10523C0
:401FC0002370074B1888002804D00BF085FB01E00425FF35281C38BD662B0020462B0020602B00200C4B70B51A781E1C052A0ED10EF0E2FD094B051C1B88041C002B01D01A
:402000000BF084FB002D04D10623337001E00424FF34201C70BDC046662B0020602B002010B50123002818D00D4B9A6B998E00235468C9B2DAB28A4206D2C25C002A02D030
:40204000E2540133F6E7E254041C0021FFF7E6FD201C0121FFF7E2FD0023181C10BDC0464C860100021C30B50120002A11D0094B9B6B5C681D780023D9B2A94203D3002325
:402080005354181C05E0E05C0028F8D0D0540133F2E730BD4C860100437800781B0218437047000038B5838900250B2B1BD1041C291C0430221C353310F0B6FD051E0DD1AE
:4020C0006068FFF7E9FF094B1B68820702D58220400001E00620FF30211C98470121044A13788B431370281C38BDC046402B00206C2B0020002382799A4208D1821D037815
:40210000002B03D101309042F9D100E00123181C70470000F0B50126B74C87B02378051C334301912370272800D1C4E016D8062800D18EE008D802287AD0052800D184E0B2
:40214000B04200D048E121E0242800D1AEE0262800D1B8E0212800D03EE18FE0422800D10DE109D82B2800D1CFE0412800D1F2E0282800D030E158E04C2800D10FE1FA28C1
:4021800000D125E1432800D026E1FCE00023072705AE301C7370377004F0EEFC301C3770757004F0E9FC954F3B68181C0293FFF7A1FF0390002808D0029802F0BFFC386861
:4021C0000021FFF7ADFE386822E01F213F208C4B8C4F1A788C4B02401B78920119408B4B09031B780A4303401343894A381C11787F220A40520413431A0A3B701B0C7A707E
:40220000BB7002F09BFC381C0399FFF789FE381C291CFFF785FE00200EF0BEFB3F2333700023301C73700EF0D5FB0622794B40E0019B1B78042B00D0CEE0764B1B78052B03
:4022400000D0C9E0FFF7CEFEC6E0019B1A78724B2FE0019B1B78002B00D0BDE0019B5B78002B08D103226D4BDA8031329A806C4A1A60019A5360237801223EE023789B06FF
:4022800000D5A9E0674E3378102B01D10B3BF370654F311C38780EF05FFD0122237838781343311C23700EF0DCF895E0019B5A785E4B1A7090E05E4B1B88002B01D00BF060
:4022C00025FA0222B2E7534B19781A1C022900D182E02078304200D17EE004202678064204D003221A702378834307E023781B0706D50623137008222378934323706BE074
:40230000032969D10623137066E0424B19781F1C022961D0227832425ED004222078104201D01A7005E008222078104203D0062119702378E1E704294ED106233B703D4B62
:402340001B78002B48D10120FFF7ECFD002843D104233B7040E0344E0199301C022201F0D0FB00222C4B31781A709E31324B8900591801310432314801F0C3FB2CE0002240
:40238000294B5A7095E7019B59882D4B994201D980218900019B18880FF084FE1CE00198FFF780FE2378334216D100280BD0122305A98B70019B9B89C8700B80019B186852
:4023C0000FF066FE08E0019B18680FF0F5FE03E01C4A13781E431670112322781A4208D001222378281C93432370174B01991B68984707B0F0BDC0466C2B0020A01200200B
:402400007DF1FF0FA41200207BF1FF0F7CF1FF0F78F1FF0F662B0020672B0020901700206011002054130020682B0020442B0020602B00206A2B002080920100622B00203A
:40244000FF0100003C2B0020402B0020704700008021064A08B5136809060B4313600A2000F008FA00F01CF908BDC0460000254010B5054C2378002B03D100F09FF80123EE
:402480002370FFF7E5FF10BD9817002008B50A2000F0FAF900F012F9054A0A2013685B005B0813600022034B1A6000F0F7F908BD00002540880F2540094B0A491A680B689D
:4024C00000209A420BD00B6807485A1C1B18581E83415B421A40054B985C0A60C0B2704778330020702B002000F8FFFF742B0020054A064B1B68116810688B4201D2044A55
:402500009B18181A7047C046702B0020783300200108000008B50A2000F0B6F90B4B80211A680B4B49021A6000220A4B0A201A70094B1A680A431A601968084A0A401A60F1
:40254000074A084B1A6000F095F908BD702B0020783300207533002004032540FFFFFEFFED0F0000C00F2540044B1A681F231340082BF9D0024B18607047C04608022540C2
:4025800040022540024B18681F2318407047C046080225408021054B49021A680A431A601968034A0A401A607047C04604022540FFFFFEFF08B500F03BFB08BD38B5214AA7
:4025C0000024214B07201A60012204251F4B20491C60204B1A60204B0B6020490860204903300C601F490A601F4A13601F4B1C601F4B1D6000F048F90A20032100F022F976
:402600001C490A2000F016F9032000F03DF90320011C00F017F91849032000F00BF9174B1C60174B1C60174B1C60174B1C60174B1D60174B1C60174B1C60174B1C60174BB8
:402640001C7038BD0B0000020000254040002540000325404800254007000080040325401003254044002540000225400402254050002540452C0000B5250000880E2540CC
:40268000C80E2540480F2540080F2540C80F2540880F254078330020702B002075330020044A054B11680B40902109040B4313607047C04600030240FFFF0FFF054A064B92
:4026C00011680B401360054A054B11680B4013607047C04600030240FFFF0FFF48002540FFDFFFFF08B5FFF703FF031C0020834201D0FFF7E1FED822034B92001968114229
:4027000001D000201A6008BDC00F254010B50A2000F0BAF8FFF7ECFE002806D00A2000F0A9F8FFF7C9FE041C04E0074B0A201C6800F0A0F8D823054A9B001068184000020B
:402740002043136010BDC04640032540C00F2540034A044B116880040B4018431060704708020440FFFFE3FF4023044980010A689A43D2B2034013430B607047000204403B
:40278000034A044B116880040B4018431060704708030440FFFFE3FF4023044980010A689A43D2B2034013430B607047000304400230800803D00138FDD1C046C046C046D8
:4027C0007047EFF3108072B6704780F31088704710B5041C86B0FFF7F4FF0E4B0E491A6802AB02920D4A126803920D4A1419033C227804920B4A126805920B4A00926A4642
:4028000001930A4B1A600A4A11601B68FFF7DDFF06B010BD08010B401700008000010B40A887010030001040B6EA00000800104004001040024B8000C3181868196070470D
:402840004000002038B5041C0D1CFFF7BAFFA308074A9B009B180322144094400634A240A5401968914329431960FFF7AEFF38BD00E400E01F2318401E3B8340181C014BAF
:402880001860704700E100E01F2318401E3B8340181C014B1860704780E100E01F2318401E3B8340181C014B1860704780E200E0034A044913689BB20B4313607047C046FB
:4028C0000CED00E00400FA0508B5034B1B7A5843FFF76EFF08BDC0465C13002001210F4A10B51368041C0B43802113600C4A0D4B09021A600C4A13680B431360002801D108
:4029000000200AE00120FFF7DFFF084B1B68DB07F6D4013C002CF5D1102010BD60F02E400220000078002E4010002E400C002E4008B5FFF746FF0421034A13688B43136006
:4029400030BFFFF742FF08BD10ED00E001200A4A136883431360022311689943116007492E330A689A43203B1A430A6007220B68934303430B60704700F02E4000FF2E40B4
:4029800008B5FFF7E3FF8021024A090613680B43136008BD00F02E400122104B70B51C681440002815D0904215D1022507261968A94319600A490A68B2432A430A600A68AA
:4029C0002E35AA43103D2A430A601A681043186001E0FFF7BBFF201C70BDC04600F02E4000FF2E4008B5FFF7ECFEC021034A090213680B431360FFF7E8FE08BD00010B404C
:402A000010B58024FFF7DDFE0749084B0A68E4011A4022430A600A6813408022120213430B60FFF7D2FE10BD00010B40FF3FFFFF70B5051CFFF7C5FE0E4B041C1A68C02305
:402A40001B02134011D10C480C490540281C0E680B4A3240104308600A68012B01D1FFF7C1FF201CFFF7B1FE70BDFFF7C9FF0123E9E7C04600010B400404040010020B4039
:402A8000FBFBFBFF042238B5224C2368134213D021490B6813420CD0204B9D6908681540A8430860996991439961DB68002B00D098470420FFF7BCFF80232268DB001A4225
:402AC00015D015490A681A420DD0144A956908682B40984308609169114B0B4093611369002B00D098478020C000FFF7A1FF80232268DB021A420CD0074A12681A4204D050
:402B0000064B5B69002B00D098478020C002FFF78FFF38BD10020B406C130020A0170020FFFBFFFF10B5041CFFF74BFE044AA40713689B009B0823431360FFF746FE10BD4A
:402B400010E400E010B58024054B24031C60054B8C3318600320FFF7E5FF034B1C6010BD80E100E00000002000E100E000230C21074A1360074A1160074A0B3911600A22E0
:402B800006490A6006490A60064A13607047C04680012040A4012040B8012040940120408C0120408801204008B5FFF70AFE0421034A13688B431360FFF707FE08BDC046AA
:402BC00000002040014B18607047C046B0012040034A044B1168C0030B4018431060704708030440FF7FFCFF034A044B116840020B4018431060704708020440FFF1FFFF16
:402C000008230449C0000A689A43D2B2034013430B60704700020440034A044B116800030B4018431060704708030440FF8FFFFF1023034A1068184010600009C0B27047D6
:402C40001003044008B5144B1B68002B00D09847124B1B685B071DD5114912480B685A1C1B18581E83415B421A400F4B18680F4B1B68824203D120220D4B1A7003E00D48A4
:402C8000DBB283540A600C4B1B68DB06E4D104220A4B1A6008BDC0469C170020CC0F25407833002000F8FFFF702B00204003254075330020742B002008032540C00F2540B4
:402CC000F0B51F4C8D18031CA5B00120A54235D80020161C051CCF09039304ACFB010291E41AB54204D3012828D90120404225E00028F8D11A1C8032019200900299994266
:402D00000BD8B54209D203991A78495DE1548A4201D001220092013501E01978E154019A01339342EAD1009B002B03D0381C04A900F066F90137803C019BD2E725B0F0BD93
:402D4000FFFF010001607047016070472B4B2C4A19782C4B09021B7819432B4B1B7812781B021343294A934204D1072909D1284B033906E0D4221201934202D1042900D1C5
:402D8000234B244A1360244B244A1960244B1B7812781B021343234A134200D1224B234A23491360234A0B7812781B021343224A934204D0214A934201D0052B00D1204BA4
:402DC000204A1360204B214A1B681268AA2A14D11F2B12D90B780E2B0FD11D4B1D4A1B7812781B0213431C4A13601C4B1C4A1B7812781B0213431B4A13607047D9F0FF0F9E
:402E0000DEF0FF0FD8F0FF0FDFF0FF0F580B0000580D00006C002E4074002E40DAF0FF0FDBF0FF0FFFDFFFFF0220000078002E40DDF0FF0FDCF0FF0F0F0F0000050500000D
:402E4000050F000080002E40EC0F00F0E00F00F06DF2FF0F6CF2FF0F84002E406FF2FF0F6EF2FF0F94002E4008B5FFF72DFD08BD08B500F05DF808BD08B500F061F808BDA8
:402E800008B500F05DF8034800F028F8032000F02BF808BDDD30000008B5024800F034F808BDC046DD3000000220FF3070472B2070472B2070472B2070472B2070472B2057
:402EC00070472B2070472B2070472B2070472B2070472B2070472B2070477047014B18677047C0460000002010B5041CFFF769FCC021044AA40113688B4323431360FFF784
:402F000064FC10BD0CE400E010B58024054B64011C60054B18670320FFF7E6FF034B1C6010BDC04680E100E00000002000E100E08022024B52011A607047C04600E100E034
:402F40008022024B52011A607047C04680E100E082B06A46094B0A4900930A4B002004330193094B1A60094A11601A68120F0A2A02D018680F23184002B07047B6E90000EE
:402F8000160000802C2900200800104004001040074B084A08491A60084A002011601A68120F0A2A02D018680F2318407047C04608001040B6E800001500008004001040B9
:402FC00082B06A46094B0A4900930A4B002004330193094B1A60094A11601A68120F0A2A02D018680F23184002B07047B6EA0000170000802C29002008001040040010406F
:403000000023F0B5A7B0029303932B4B98424DD800294BD0051C802206A800F072FD274B9D4201D8264B00E0264B04937F2304AE7360254C254B264A26601A6022681F1CFD
:40304000120F00230A2A02D022680F3313400293029B002B2CD1FFF7B4FB0190FFF778FF0390039B002B02D1FFF792FF0290029B002B11D1174A2D0404920498164A05438C
:40308000049526603A602268120F0A2A03D00E4B1A680F2313400293039B002B02D1FFF78FFF03900198FFF790FB01E004230293029827B0F0BDC046FF030000FF01000020
:4030C000B6D70000B6D70001080010400400104004000080B6D800000500008008B514F019FF08BD02B4714649084900095C49008E4402BC7047C04603B4714649084000D3
:403100004900095A49008E4403BC7047002243088B4274D303098B425FD3030A8B4244D3030B8B4228D3030C8B420DD3FF22090212BA030C8B4202D31212090265D0030B28
:403140008B4219D300E0090AC30B8B4201D3CB03C01A5241830B8B4201D38B03C01A5241430B8B4201D34B03C01A5241030B8B4201D30B03C01A5241C30A8B4201D3CB02C0
:40318000C01A5241830A8B4201D38B02C01A5241430A8B4201D34B02C01A5241030A8B4201D30B02C01A5241CDD2C3098B4201D3CB01C01A524183098B4201D38B01C01AD2
:4031C000524143098B4201D34B01C01A524103098B4201D30B01C01A5241C3088B4201D3CB00C01A524183088B4201D38B00C01A524143088B4201D34B00C01A5241411AA9
:4032000000D20146524110467047FFE701B5002000F0FCF802BDC0460029F7D003B5FFF775FF0EBC4243891A1847C04603460B437FD4002243088B4274D303098B425FD391
:40324000030A8B4244D3030B8B4228D3030C8B420DD3FF22090212BA030C8B4202D31212090265D0030B8B4219D300E0090AC30B8B4201D3CB03C01A5241830B8B4201D32B
:403280008B03C01A5241430B8B4201D34B03C01A5241030B8B4201D30B03C01A5241C30A8B4201D3CB02C01A5241830A8B4201D38B02C01A5241430A8B4201D34B02C01A5A
:4032C0005241030A8B4201D30B02C01A5241CDD2C3098B4201D3CB01C01A524183098B4201D38B01C01A524143098B4201D34B01C01A524103098B4201D30B01C01A5241DC
:40330000C3088B4201D3CB00C01A524183088B4201D38B00C01A524143088B4201D34B00C01A5241411A00D201465241104670475DE0CA0F00D04942031000D340425340A1
:4033400000229C4603098B422DD3030A8B4212D3FC22890112BA030A8B420CD3890192118B4208D3890192118B4204D389013AD0921100E08909C3098B4201D3CB01C01A22
:40338000524183098B4201D38B01C01A524143098B4201D34B01C01A524103098B4201D30B01C01A5241C3088B4201D3CB00C01A524183088B4201D38B00C01A5241D9D215
:4033C00043088B4201D34B00C01A5241411A00D20146634652415B10104601D34042002B00D54942704763465B1000D3404201B5002000F00BF802BD0029F8D003B5FFF790
:4034000015FF0EBC4243891A1847C0467047C046F0B55F4656464D464446F0B4051C061C080387B099464F00030BCC0F92469B467F0D019467D06C4B9F4236D080205B4631
:4034400040031843C0006B0F1843684B83469C4600239846EE00674400934B4649461D03C90F5B0052462D0B5B0D894600D16EE05D498B4264D080205C4940038C460021D3
:403480000543ED00500F0543D20063444846FF187B1C9A46009B604002900B430F2B00D9ACE053489B00C3589F465B461D4300D082E00823009300239B460233002698467D
:4034C000CBE7029B01934346022B59D1012400250026019B1C40444B00212D030A0D12052D0B1543434A1B0515401D436D00E4076D082543301C291C07B03CBC9046994677
:40350000A246AB46F0BD2B434ED05B46002B00D185E1584600F088FA021C2823291C9B1A161C5846D940083EB0400B1CB54003439B462E1C0023304F0093BF1A98468CE7F8
:40354000514629432ED10025002202219EE75146294323D0002D00D154E1281C00F064FA031C28215046C91A1A1CC8405146083A914095400A1C05431F480021C31A85E7C2
:40358000032B00D1C2E1012B00D06DE14446019B00251C40E4B2002300269DE700250022012173E7032171E70423009300239B4601330026984650E70C230093093B9846C5
:4035C0004BE7802500242D030026074B84E74B46AB46161C0193884675E7029BAB46161C019388466FE7C046FF07000001FCFFFFD8870100FFFF0F800DFCFFFF330C36045F
:40360000360C9C46331C140C1204120C53439846634653439946634663430193331C41466343090C4B445B18994505D9802040028146019949440191190C03914146090450
:40364000090C1B045B1804932B0C9846331C2D04290C4B43604600934346654658435E43009B4D431B0C9946AE194E448446B54203D980235B029946CC44350C2B1C0398D2
:40368000634484460593009B36041B041B0CF3189C446046039058460504060C280C84465043351C81466046654344434846000C8346724314195C44A24203D980225202F0
:4036C00093465D44220CAD184A461204120C24044046A41862464A437143464360460096464670438046100C84468844E044414505D9802149028C4600996144009101981C
:4037000003998446614499429B415B4299460598434684461204120C1B049B1863449C46AB4683429B4140460A19CC44A2428941E344CC45B6415C46000C804649427642ED
:403740005B426418334398448C428941AB459B4149425B4219430D1C009B4544EE187602E50D2E43B346049B56021E43731E9E415B46D20D324366021643DB010AD5012372
:40378000334076081E435B46DB071E435B465B089B465746634BFB18002B5ADD720709D00F223240042A05D0321DB242B6417642B344161C5A46D20106D55A465A4B1A402E
:4037C00080239346DB00FB18584A934234DD0124029B00251C400026554B7DE680205B460003034208D0054206D105432D032D0B4C46161C4E4B6FE65D4605432D032D0B37
:403800004B4B69E6504600F00FF9031C2033272B00DCA6E65546083885400022ACE6281C00F002F9021C2032272A00DC75E6083885400026AB467DE65A46F608520716439F
:403840005A4601245502029A5B052D0B5B0D144042E6384DED1B382D0ADD0124029B00251C400026002337E6019B5746029391E71F2D25DC304B321C9C466744BE405B460A
:40388000BB40371CEA407E1EB74113433B431E1C5B46EB401D1C730709D00F233340042B05D0331DB342B6417642AD191E1C2B0220D50124029B00251C40002601230BE659
:4038C0005A461E4BDB1BDA40131C202D1CD01C4A94465A466744BA40171C3E43721E96411E4307230025334007D00F2300253340042BD6D16B076D022D0B0124F6081E4370
:40390000029B1C400023E7E50027E6E780255B4601242D031D43019B2D0323401C1C2D0B034BD9E5FF030000FFFFFFFEFE070000FF07000002FCFFFF1E040000E2FBFFFF04
:403940003E0400000B0330B5134C1A0B4B00051C5B0DC90F0020A34210DD104883420EDC80200F4C40030243E41A1F2C0ADD0D48C31ADA40131C48424340581830BD0A4BFC
:40398000C818FBE7281CE040084CA44663449A40131C0343EFE7C046FE0300001D0400003304000013040000FFFFFF7FEDFBFFFF38B5041E16D0C50F00D04442201C00F0B4
:4039C00033F8174B1B1A0A2821DC021C211C153291400A1C0B21081AC4405B052403240B5B0D03E000250023002400220021101C24030A0D1205240B14430A4A1B0514406C
:403A00001C436400ED0764082C43211C38BD0B3884405B052403240B5B0D0022E6E7C0461E040000FFFF0F801C2101231B04984201D3000C10391B0A984201D3000A083958
:403A40001B09984201D30009043902A2105C40187047C04604030202010101010000000000000000014B18687047C046D81600200E4B70B500251E1C0D4CE41AA410A54294
:403A800004D0AB00F35898470135F8E714F092FF084B00251E1C084CE41AA410A54204D0AB00F35898470135F8E770BDC0890100C0890100C0890100C889010008B5034BEE
:403AC000011C186800F074F808BDC046D816002008B5034B011C186800F024F808BDC046D816002030B50024944208D0035D651C0C5DA34201D0181B02E02C1CF4E7002058
:403B000030BD002310B5934203D0CC5CC4540133F9E710BD031C8218934202D019700133FAE7704730B500293ED004390B68002B00DAC9181D4A1368141C002B02D14B60C5
:403B4000116031E099420DD208680A189A4203D11368C3180B6053684B60216024E08A4203D8131C5A68002AF9D11D685C198C420BD10968691858181960904214D11068E1
:403B80005268091819605A600EE08C4202D90C23036009E008680C18944203D114685268001908604A60596030BDC04644290020032370B5CC1C9C430834051C0C2C01D293
:403BC0000C2405E0002C03DA0C2300202B6042E08C42F9D3204A1368101C191C002913D00A68121B0DD40B2A02D90A608B181FE08B4202D15A6802601BE04A685A600B1CD1
:403C000017E00B1C4968E9E7144E3368002B03D1281C00F0ABF83060281C211C00F0A6F8031C421CD0D00322C61C964386420AD11C60181C07210B301A1D8843821A0AD048
:403C40005142995007E0311A281C00F08FF8431CBAD0331CECE770BD44290020402900200FB40B4B13B51C68002C05D0A369002B02D1201C00F090FA05AB201CA168049AD4
:403C8000019300F09BFB16BC08BC04B01847C046D816002070B5051C0E1C002804D08369002B01D100F078FAAC68A3891B0702D52369002B19D1281C211C00F001F9002809
:403CC00013D00120404245E03178002B1BDAA269934211DA221C281C00F09AF8013042424241D0B20028ECD10136A3683278013BA360002AE8D10CE02368197023681978B8
:403D00000A2903D1E6E723681970236801332360EAE7002B17DAA269934208DB0A2322681370236819780A2911D1281C01E0281C0A21221C00F06CF8013042424241D0B25E
:403D4000002806D0BDE70A23226813702368013323600A2070BD000008B5034B011C1868FFF798FF08BDC046D816002038B50023064C051C081C2360FDF7EAFE431C03D187
:403D80002368002B00D02B6038BDC0467C330020021CC9B21378002B03D08B4204D00132F8E7181C002900D1101C704702780B78002A03D0013001319A42F7D0D01A7047A1
:403DC000002330B59A420DD0013AC45CCD5CAC4202D1934202D1251C631B03E00133002CF3D1F8E7181C30BD031C30B5002A07D00C7801335D1E013A2C700131002CF5D11C
:403E00009A18934203D0002119700133F9E730BD70B5051C0E1C141C002804D08369002B01D100F0B9F9234B9C4201D16C6808E0214B9C4201D1AC6803E0204B9C4200D14F
:403E4000EC68A369A360A3891B070AD52369002B07D023682269F6B2981A636998420FDB08E0281C211C00F02BF80028F1D0012040421DE0281C211C00F020F90028F6D1A6
:403E8000A3680130013BA36023685A1C22601E706369984205D0A389301CDB0708D50A2E06D1281C211C00F009F90028DFD1301C70BDC0462089010040890100608901008D
:403EC000354B70B51D68061C0C1C002D05D0AB69002B02D1281C00F05FF9304B9C4201D16C6808E02E4B9C4201D1AC6803E02D4B9C4200D1EC68A3899AB2110723D4D106CE
:403F000007D409220120326037321343A381404240E0530713D5616B002908D0231C4433994202D0301CFFF7FDFD002363632422A3899343A3810023636023692360082221
:403F4000A3891343A3812369002B0BD1A023A2899B00134080229200934203D0301C211C00F0ACF90123A289134005D00023A36063695B42A36103E0910700D46369A3600A
:403F800000202369834205D1130603D540231A43A281013870BDC046D8160020208901004089010060890100F7B58A89051C0C1C13075ED44B68002B02DC0B6C002B1ADD65
:403FC000E76A002F17D000232E682B6080235B011A4001D0626D15E0281C216A0123B847021C431C0ED12B68002B0BD01D2B01D0162B02D12E6000205EE04021A3890B434D
:40400000A38159E0A3895B0706D56368D21A636B002B01D0236CD21A0023281C216AE76AB847A389421C06D12A68002A03D01D2A01D0162A19D10022626022692260DB047A
:4040400005D5431C02D12B68002B00D16065616B2E600029CFD0231C4433994202D0281CFFF760FD0020606326E040221343A38122E00F69002FBED00B680F60DB1B01935C
:404080000023920700D14B69A360019B002BB2DD281C216A3A1C019BA66AB047002806DC40220120A38940421343A38104E0019B3F181B1A0193E8E7FEBD000038B50B695E
:4040C000051C0C1C002B01D100201CE0002804D08369002B01D100F05FF80B4B9C4201D16C6808E0094B9C4201D1AC6803E0084B9C4200D1EC680C22A35E002BE4D0281CCD
:40410000211CFFF751FF38BD20890100408901006089010008B5024900F0AEF808BDC046BD400000002310B5041C03604360836081814366C281036143618361191C082219
:404140005C30FFF7E7FC054B24626362044BA362044BE362044B236310BDC046E948000011490000494900007549000070B568254B1E5D430E1C291C7431FFF719FD041ED7
:4041800008D000212A1C016046600C30A0606832FFF7C0FC201C70BD836913B5002B28D18364C3640365134B134A1B6882620193984201D101238361041C00F01FF8606029
:4041C000201C00F01BF8A060201C00F017F80421E06000226068FFF7A5FFA06809210122FFF7A0FFE06812210222FFF79BFF0123A36113BD1C89010015410000F8B51D4B3A
:40420000061C1D68AB69002B02D1281CFFF7C4FF4835AC686B68013B05D40C22A75E002F10D06834F7E72B68002B06D1301C0421FFF79CFF2860002801D02D68E9E70C23E7
:40424000336016E00123201C5B42E3810233A38167662760A760676027616761A7615C30391C0822FFF756FC201C6763A763A764E764F8BD1C890100F7B5041C071C002658
:4042800001914834002C16D06368A5680093009B013B00930DD4AB89012B08D90E22AB5E013304D0381C291C019B984706436835EDE72468E6E7301CFEBD0000F0B58B89BF
:4042C00091B09B0706D50B1C47330B600B6101234B6145E00C1C0E23C95E061C002904DA8023A5891D4010D10CE001AA00F06EFB0028F5DBF023029D1B021D40194BED185E
:404300006B425D418027FF0001E000254027301C391CFFF74DFC00280CD1A3899A051FD402221343A381231C4733236023610123636115E080220C4BB362A3892060134331
:40434000A38120616761002D0AD00E23E15E301C00F04EFB002803D00122A3891343A38111B0F0BD00E0FFFF15410000936810B5013B9360002B05DA9469A34208DBCBB233
:404380000A2B05D01368581C10601970C8B201E0FFF73EFD10BDF8B5061C0F1C141CD518AC4208D02178301C3A1CFFF7DFFF0134431CF5D100E00020F8BD0000F0B59FB0C3
:4043C000061C0F1C02920593002804D08369002B01D1FFF7E1FE794B9F4201D1776808E0774B9F4201D1B76803E0764B9F4200D1F768BB891B070AD53B69002B07D00023F5
:4044000006AD6B6120336B761033AB763DE0301C391CFFF755FD0028F1D001204042CAE0059A111D12680591002A7EDB0992013423782E2B00D189E021786348032200F072
:40444000FDFA002808D0604B0134C01A40238340181C2B68184328602178631C5B4806220293297600F0EAFA002800D191E0584B002B00D084E00722059B07339343083350
:4044800005936B69039A9B186B61029C2378002B04D1029BE31A049311D003E0252BF8D00134F3E7049B301C391C029AFFF773FF431C7BD06A69049B944663446B612378D7
:4044C000002B73D00122002352426A6002A95432521801342B60EB60AB601370AB6521783C48052200F0AAFA002809D0394B0134C01A01238340181C2B6818432860EEE794
:404500002B68DA0604D55322202102A8121811701A0704D553222B2102A81218117022782A2A00D17CE7099B05E05242EA60022213432B607BE72278303A092A04D80A21E6
:404540004B4301349B18F6E7099371E763782A2B09D1059B02341A1D1B680592002B0DDA01235B420AE0002301342278303A092A04D80A214B4301349B18F6E707935BE741
:4045800005AB0093301C291C3A1C134B00E000BF07E005AB0093301C291C3A1C0E4B00F08BF80390039B013300D06AE7BB895B0600D532E70B981FB0F0BDC046208901000F
:4045C0004089010060890100868901008A890100000000008089010097430000F7B5171C01930A698B6800900C1C934200DA131C221C3B6043321278002A01D001333B60EE
:4046000023689B0602D53B6802333B60062523681D401ED0231C43331B785A1E9341226892061CD53020E1184031C870211C5A1C45310978A21840320233D1700FE0221CF1
:404640000123009801991932089EB047431C0ED00135E3683A689B1A9D42F0DBDAE7221C009801994332089DA847431C02D10120404220E006232068E1683A68034000252A
:40468000042B03D18D1AEB43DB171D40A3682269934201DD9B1AED180027AF420ADA221C0123009801991A32089EB047431CDED00137F2E70020FEBDF0B58BB006920A1CC0
:4046C00043320793059004920A7E0C1C109B6E2A00D1A8E011D8632A22D009D8002A00D1B2E0582A00D0C2E045310A707C4A4FE0642A1DD0692A1BD0B9E0732A00D1A7E0FE
:4047000009D86F2A29D0702A00D0B0E0202209680A43226037E0752A1FD0782A33D0A6E00E1C1A684236111D196013683370A1E021681A68080606D4490604D5111D19608E
:404740000023D55E02E0111D19601568002D3BDA2D23049A6D42137036E021681A68080606D4490604D51568111D1960ADB202E0111D196015685A4B227E03930A276F2A1C
:404780001DD108271BE0221C782145321170554A19680392081D226818600D68100602D4500600D5ADB2D30702D520231A4322601027002D03D1202322689A432260231CD5
:4047C000002243331A7002E00A27454B03936368A360002B03DB0422216891432160002D02D1049E002B0ED0049E281C391CFEF713FD039B013E5B5C281C3370391CFEF7D3
:4048000085FC051EF1D1082F09D12368DB0706D563682269934202DC3023013E3370049B9B1B23612BE009681A68080607D4490605D5111D19601368A28A1A8004E0111D98
:404840001960136862691A600023049E236116E01A68111D196016680021301C626800F0EDF8002801D0801B6060636803E0261C42363270012323610023049A1370079B21
:4048800005980093211C069B09AAFFF7A7FE431C02D10120404221E0236905980699321C079DA847431CF4D023689B0705D4099BE068984212DA181C10E00025E368099A0B
:4048C0009B1A9D42F3DA221C0123059806991932079EB047431CDCD00135EFE70BB0F0BD91890100A289010038B50C1C0E25495F00F0B0F8002803DB636D1B18636503E0D0
:40490000A289024B1340A38138BDC046FFEFFFFFF8B51E1C8B89051C0C1C171CDB0505D50E23C95E0022022300F074F8A289054B281C1340A3813A1C0E23E15E331C00F03A
:404940001FF8F8BDFFEFFFFF38B50C1C0E25495F00F060F8A389421C03D1054A1340A38104E0802252011343A381606538BDC046FFEFFFFF08B50E23C95E00F015F808BD4D
:4049800038B5051C0020074C2060081C111C1A1CFCF752FE431C03D12368002B00D02B6038BDC0467C33002038B50023064C051C081C236000F062F8431C03D12368002BC1
:4049C00000D02B6038BDC0467C33002038B50023064C051C081C111C236000F057F8431C03D12368002B00D02B6038BD7C33002038B50023064C051C081C236000F04EF894
:404A0000431C03D12368002B00D02B6038BDC0467C33002038B5051C0020074C2060081C111C1A1C00F042F8431C03D12368002B00D02B6038BDC0467C330020C9B2821893
:404A4000904204D003788B4202D00130F8E700207047000038B5051C0020074C2060081C111C1A1C00F02AF8431C03D12368002B00D02B6038BDC0467C330020582201204C
:404A8000014B40421A6070477C33002058220120014B40421A6070477C3300205822024B00201A607047C0467C33002058220120014B40421A6070477C33002058220120CE
:404AC000014B40421A6070477C330020134A1088810703D08107890F401A001D11791030484381B25088820703D08207920F801A001D800040180A494030098980B2CA0734
:404B000001D0503080B2890706D504495422091F09785143081880B27047000076130020BC17002010B501F0F2FE10BD10B501F0F6FE10BD10B500F04FFA10BD10B5074918
:404B4000044609780220002907D1204601F04AFF002802D120460CF015F810BDEE14002070B504460120002C12D02368002B0FD0616800290CD0074D062228892081184621
:404B80002968FEF7BEFF6968606809780170002070BD0000BC170020FFB585B0002768460E9D07734C481C460078002802D0082009B0F0BD10990F9801900095029105A858
:404BC00007C800F0FBF80028F2D16946264603AB84460873002C19D0002115E08A00B75A082F09D990198078002805D0083FB7521878401C187005E0002915D00027B752A6
:404C000090198770491CC9B2A942E7D360460028CED10F9800280AD0109901F01FFA0006000E04D00120C3E701208446EEE701F06EFE2948002101610C30059901602188DE
:404C40008180022D03D3A1798171A17AC17100211EE0481C19E082008B00A75AE65ABE46BE4211D26F463E80B4461E190296B678BE7001967646E6521719029EBB78B370DB
:404C80006646A652019EBE70401CA842E3D3491CA942DED3114800906846037B22460799069800F013F9002882D168460A4C007B60700A4801F05AFE0028B4D12046074907
:404CC0000C3008F0BFFC0028ADD108F0D9FC0028A9D1012121706BE770130020BC170020F8B5054633480E460078002802D002242046F8BD002E5BD000242F49002D16D093
:404D00002A89D0070DD02868002808D003881B3BE12B04D24088FB2801D81B2801D2012409E0900707D56868002804D1F7E70020088108604860002CDAD11F482F8907817C
:404D40001C481B21801D018041800421017119490020891C0870F80705D016480622801D2968FEF7CEFE1449B80703D56A681148127882700F480D46801D0860001F486024
:404D800001F056FE0B48801D01F044FE28890FF0A7F928890FF026FB03461033FFF796FE1F21C018890140180249308088809FE701249DE770130020BC170020FFB5844614
:404DC000384F1C460020BB883F78054602460646002F11D100290ED0029999420BD36146002908D0002C06D00A99002906D02E4B0B99994202D2012004B0F0BD002144E086
:404E0000AB001F19BF78002F3BD0E35A002B38D07B43591889B22B0000F04AF8050410161C253100A7782388BC46FF27233BEB37BB4222D26346032B1FD322E0A388002BC2
:404E40001FD0302B19D31CE02389002B19D0282B13D316E0A289002A13D01346134F233BBB420AD20DE0268A002A0AD033460F4F233BBB4201D2964203D901200EE000205E
:404E800001E000280AD16D1CEDB2099B9D42B7D31C2463435B1802998B42ACD89642AAD8AAE700007013002079020000BAFF000030B47446641E2578641CAB4200D21D4673
:404EC000635D5B00E31830BC18470000FFB583B0002469460C801F4606468C80002806D00598002803D004983043800701D0012467E0002FFBD03449049809888842F6D3AE
:404F0000FDF7CAFFFDF7B8FF00F010FC002856D100F06CFD002852D12C49084601F0D2F805042D0C4BD12A480499066081800021C18007810C98007AC00704D0684601F086
:404F4000FFFC040007D10C98007A800703D501A801F0FEFC0446BF1DFEB2002C21D13146059800F05DF804001BD10FF049FA0406240E16D16A461088928808368518144A0C
:404F8000F1B29088D288AEB29319984207D3401B801A80B201F086FB050007D000E0FF25012400F05BFA002D04D008E0F8B200F01BF9F6E700F07EFA06490120087000F085
:404FC000C7FB204607B0F0BD741300200D510000C81700208413002010B503480078012801D101F001FA10BD8413002070B5084B0446DA889E8800205518B54206D81D6846
:40500000AA182260DA885118D98070BD032070BDC81700200148008970470000C8170020F0B587B007460D4600208900009006916846FFF7DBFF844600285DD13048009909
:405040000160002117E02E4B88001A680629115406D22C4C0419667882185670628805E0C419203CA67A8218567022891B68C018491C4280C9B2A942E5D300242DE0601C75
:40508000C2B2059025E01E4FA30039689600581840887118039604904E88B04217D938466F46FE80B6464F786E4677710297049F4F800168039F5E18767879184E700168B3
:4050C000764659184E800068029F18184770521CD2B2AA42D7D30598C4B2AC42CFD36046002809D168460699FFF780FF8446002802D1054900980860604607B0F0BD000013
:4051000088130020E88901008C1300207047000010B5002809D005494A68002A05D0011F08788000105801F06BFA10BD8813002010B50446FFF76EFFC0B2801DA0420CD35F
:4051400007484068002808D0A100405801F0CAF9002801D00470001D10BD002010BD000088130020F8B516460D460446FFF752FFC0B2801DA04203D20020C0430090F8BD31
:40518000B2B2E9B2684601F0D3F90099481C03D0024AA000526811500098F8BD88130020F8B50746FFF736FF801DC6B20A49002005460C680DE06178002907D06188B94290
:4051C00002D32078FFF7B4FF002804D1241D6D1CEDB2B542EFD3F8BD8813002010B5002801D0FFF795FF10BD70B506460948002504680BE06178002905D062882078121D2F
:405200000023FFF7AFFF241D6D1CEDB2B542F1D370BD000088130020FFB581B00A9C16002BD000F0F1F80546042826D0214F002C0BD02046FFF7B4FF2901C9194860002857
:405240001BD022460499FEF75CFC1A4928010E5046187481019805707D20029CC000444300F0C0F8009004280AD000F055FAA0420ED800F051FA201A06E0FF2005B0F0BD03
:40528000204600F0ADFA0020B08135720020F5E700F042FA074600F0B9FA381B87B23846012100F0EFF800980101024808188781E6E70000D4170020F8B50601174834189B
:4052C000217A042903D0A089002802D018E00020F8BD00F021FA054600F098FA00F0A2F804280DD001010D480F18B88941198DB2002100F0C7F80020B881284600F070FA6F
:405300006068064D002801D0FFF768FF042020720020A8516081A081D9E70000D4170020FEB500266A46304601232549050169180D7A042D02D0898900291BD00021115412
:40534000401CC0B20428F0D300246846005D002830D01B482101081841894768056802910021016041600422418102728181002E02D015E01354E3E700F054F804280ED00E
:4053800001010F480818019086890021304600F079F8019800218181304600F021FA0126002D07D038460299A847002F02D03846FFF714FF641CE4B2042CC6D3FEBD00004A
:4053C000D41700200EB5002005216A460090118150810348694600680FF09BFE0EBD000090130020074A0020010189180B7A042B02D08989002903D0401CC0B20428F3D306
:4054000070470000D41700200549002002015218127A042A03D0401CC0B20428F6D37047D417002030B50A4B04200A4C00210A011219157A042D06D09289002A03D09A4228
:4054400001D808461346491CC9B20429EFD330BDFFFF0000D41700207047000030B50020074C05460423020111190B72A5504D60401C4D81C0B28D810428F4D330BD000090
:40548000D417002030B5094C00231A011219157A042D04D09589002906D02D1895815B1CDBB2042BF1D330BD2D1AF7E7D4170020002070471CB5002469460C701420019062
:4054C0002346054A05480FF029FE04480068401C00D1FF2420461CBD31550000901300203EB5124A0146FF2000230124126800290DD0012914D0042908D1042069460093FE
:4055000008814B8110460FF004FE80B23EBD6846009304814381694610460FF0F5FDF4E768460093048143816946EBE79013002070B545890468416800890300FFF7B8FC2B
:4055400008280509091E22282628002006F0ECFD1EE0022908D0C8B22A4621460DF0DCFD2046FFF73BFE13E002202A4621460DF0D3FD2946204600F00DF809E000200FF0E7
:40558000B7FA05E02046FFF7CBFE01E0FDF7A5FC002070BD014B0022DB6818479413002070B5448905680089022803D0032809D0FF2070BD2246094C0023A46829460120E5
:4055C000A04708E0FFF7AEFA241DA2B200232946022007F0E8FE002070BD000094130020704700000248002141600180418070479413002070B50C46002186B016460391C3
:40560000012802D0022859D116E003A9012007F02AFF01281BD1039D324621462846FEF770FA0095287801900220694608814E816846FFF7B5FF41E0214D002B686809D02D
:40564000049004A9022007F00EFF01281DD0022006B070BD002812D0298840182146FEF750FA28880024801980B228806988091D884206D12C801348FFF792FF03E003205C
:40568000E6E788421AD96C6018E004986860E278A378110219430B4A698000231060E3565360032313815181A1788170E178C1706178417021780170042028800020C7E749
:4056C00094130020141800203EB515460C46022803D004280CD000203EBD0091019002206946088107484A8100680FF012FD07E00DF012FD044B0022DB6829462046984770
:4057000001203EBD9013002094130020014AD1609060704794130020034801688068081A0A214843000970472018002010B5FDF7A7FB482204490548FEF7E3F903490120B0
:40574000C870002010BD0000048A0100241C002010B5FDF78DFB10BD70B5134C2368002B08D0207B1149C20705D04008400020738868A08070BD88680B4AA18880B2926870
:40578000814203D90A4D691A091802E0814202D2411A5118A160A080A0689842EAD30FF0D5FC00F013F870BD20180020C0102E40FFFF000010B508461946FFF7A7FF10BDEB
:4057C000704710B5FFF780FF10BD000003480021016041608160C1607047000020180020024610B5FF20002A0CD0FFF7EFFF064C0321207B0843207310010A21FDF70CFD2E
:405800002060002010BD00002018002000B504480A21806848430209FFF7D8FF104600BD201800200248007B8007C00F704700002018002010B544490868002802DA434B43
:4058400001221A70022290430860414800693E49C00B4031096A08425ED0012000F086FA3B483C497C30FDF76FFA37480E216C30FDF76AFA364820218430FDF765FA3448F6
:4058800014219C30FDF760FA3148FF21C131A430FDF75AFA2E48FF212F31B030FDF754FA2B482D49BC30FDF74FFA29482B49AC30FDF74AFA29492648491CB430FDF744FA74
:4058C00023482749B830FDF73FFA21482549CC30FDF73AFA1E4824490830FDF735FA1C482249A830FDF730FA194821498830FDF72BFA17481F498C30FDF726FA1448192101
:40590000C9029030FDF720FAFDF720FAFDF7CCFAC0B2022802D00FE0FF2010BD16491748FDF712FA15481649001DFDF70DFA134800210830FDF708FA54200449C043891C18
:405940000870002010BD000000F02E40A413002000002E4055650000320300002F3F00003102000010520000EC160000FA12000031D000003AE300009956000080012E4023
:40598000F80F000070B50646581C80B245086D00002408E0304600F0C1F81055000A1119A41C4870A4B2AC42F4D3D80705D0D0182038D15CC47FD454C17770BD30B50A4C9C
:4059C000002100195B1E07E0541864782502545C2C430480891C89B29942F5DB994201D1515C018030BD000000102E4010B5FF2000F0BCF90F49FF2048700E481021801D4E
:405A000041800121417001700A490020C91C4870FFF710FF04000AD100F008F907210648FDF790F9044807211830FDF78BF9204610BD0000A4130020CC112E4070B50024B7
:405A400005465B1E0AE0284600F068F8010A161971702D1D1055A41CADB2A4B29C42F2DB9C4203D1284600F059F8105570BD000070B500210A4D5B1E0AE05418647826026D
:405A8000545C344346193480001D891C80B289B29942F2DB994202D1515C4019018070BD00102E40F0B50599091FCFB200217E1E0BE0541864782502545C2C43164D451912
:405AC0002C80001D891C80B289B2B142F1DBFC0712D01C78515C24020F4A0C4381180C809C785D78001D210280B2294384182180001D80B2D9780CE059781A7809021143A1
:405B0000054A84182180001DD9789B78090280B2194380180180F0BD00102E40014940180088704700102E4010B50B490020487000F07CF8002000F03FF9002000F02CF94A
:405B400007210648FDF7FEF8044807211830FDF7F9F8002010BD0000A7130020CC112E4010B50B46062812D006DC01280CD0032801D1FFF7D9FF10BD0A28FCD00B28FAD171
:405B800005480078107010BDFFF730FF10BD1146184600F02DF910BDAA130020F8B5204DAC6A0127A0071F4E002816DA307806280ED1286A384328621B480069F903084389
:405BC00081B219481030FDF7BFF8042000F0CEF8134802212830FDF7B5F8E00711D0062000F0C4F80F49FF20C91E48707078002802D1686B38436863094801212830FDF76A
:405C0000A1F8E0050BD53078042802D1052000F0ADF80348FF2101312830FDF793F8F8BD40F02E40A713002000002E4010B503212348FDF789F80120FDF716F920483038D9
:405C4000406A204C80076178800F890001431C480C38FDF779F86078002808D0401E022181401820FDF7C8FBC000083800E0B82081B21548FDF768F81348032109021438CA
:405C8000FDF762F810481149B830FDF75DF8612189010F48FDF758F80D480321001FFDF753F80C490C48FDF74FF80B480B496038FDF74AF8084801218838FDF745F810BDAC
:405CC00070F02E40AA130020D8102E4090890000041E2E40FF0F000058122E40209000000849087806280BD148780749002803D1486B400840004863C86A01221043C862C5
:405D000070470000A713002040F02E400148007870470000A713002000B50300FFF7C8F8080D050D0B070507090D012000BD032000BD042000BD022000BDFF2000BD0000BF
:405D4000074A9168D26889B2064B92B2994204D105498A4201D1012100E000210170704780002E4033D000003FE3000010B50446FDF782F8072C01D9FF2C01D10248047090
:405D8000FDF776F810BD0000A71300200149487070470000A413002010B5064A012805D01921C9021046FCF7CFFF10BD1D21C902F8E7000090002E4010B50A4A141D0128F5
:405DC00008D009491046FCF7BFFF08492046FCF7BBFF10BD04491046891CFCF7B5FF0349491DF3E788002E4031D000003AE3000070B50C460546FDF757F8C0B202280E49BA
:405E0000287804D0FF2810D04C280CD810E0FF2809D10A4AD0680004800F032801D0087807E09069000A553803E00878207070BD4F382070087070BDA613002000002E4069
:405E4000F0B50122002830D000292ED00424420600D00524792342065B06D21800D0641C034600221EE00C2516466E43104D00277519AF720E4F002ABB51696007D0661E92
:405E8000B24209D10B4E86197606760E05E05E06760E8027BE1B00E080269B198919521C2E81D2B2A242DED300221046F0BD0000AC1A002079020000F8B507460020002FEE
:405EC00003D100F09DFE002827D1154E002421460C2251438D19AA7A012A0DD12A8971586868FCF7EDFE002800D028200021A972002F05D0282803D0641CE4B2062CE6D3D2
:405F0000641CE1B207E00C224A439219927A012A04D0491CC9B20629F5D3F8BD2820F8BDAC1A0020074900200C2242435218927A012A05D0401CC0B20628F5D30020704753
:405F400001207047AC1A0020F8B50F000446164609D0184D18496868A04202D94018A04201D38E4201D90120F8BD39462046FDF7B9FD00281BD0324639462046FDF7C1FD96
:405F8000F0B200210C224A43521913895668F718A74208D90127A41B1B1B9772834206DAC01A1469C0B2491CC9B20629EAD30020F8BD0000AC1A00207902000010B500F07A
:405FC0005DF80748054AC16806480C46FDF799FD04492046FFF734FF10BD000079020000B013002030180020002070470020054A002902D0012902D002E0506000E090604D
:4060000000207047B013002070B5084C154608460549A26889182A46FDF773FDA0684019A06028B270BD000030180020B01300203EB50A226946FFF7E7FF044606480A2296
:4060400000686946FDF74EFD002802D00020C0433EBD20463EBD0000B0130020002802D0044A914201D2FF20704703490A61C8600020704779020000B0130020024800212B
:406080004160816070470000B013002070B5074C15460548626880182A46FFF755FF60684019606028B270BD30180020B013002010B503490A220968FFF7E8FF10BD0000FD
:4060C000B013002010B50F4A002313600E4A13600E4B18600E4801600E49012008600E490860000290600E490C4808600D4914300860FF381538506000F0BCF800F0CAF985
:40610000002010BDDC130020C4130020F0130020F4130020E0130020D0130020F41B0020D4130020E8130020014610B50020002910D0094B1A689C685118A14209D25868C5
:40614000196080188A0704D08A07920F891A091D196010BD002010BDC4130020F8B50024164E671E321F3D463168136806E01422624310328A58521C1BD0641C9C42F6D37D
:406180006A1C14D02C461422544322460C3288500C214843FFF7C8FF3168002808510AD031680020103408517068401C70602846F8BD2546E4E73846F8BD0000D413002062
:4061C000F3B50026F64381B000281BDB1E490968884217D80299002914D01B4F142204463F1D54432546396810354859401C09D0FCF742FE38682F1F4159C359994203DB7C
:40620000FCF736FE3046FEBD214608310091465801590C20704308180C220299FDF771FC0948761C001D0068C159B14200D100260549009A091D865008684159491C415163
:40624000FCF716FE0020FEBDD0130020002803DB07490968884202D90020C043704704491422091D096850431030085870470000D0130020F0B500200D4A451E0346171FEE
:4062800050600FE014260146714314680E1DA3510C461668083433511668083435511468401C635039688842ECD30020F0BD0000D4130020F3B50026F64381B0002841DB9A
:4062C0002349096888423DD8029900293AD0204F142204463F1D54432546396810354859401C2FD0FCF7C8FD3868415900292BD0211D009146580C21005971430F46C119F9
:406300000C220298FDF7FDFB11480021001D0068761C00590C34C0190160416081600C48001D00680159B14200D100260849009A091D865008684159491E4151FCF798FD34
:406340000020FEBD3046FEBDFCF792FDFAE70000D0130020FEB504460D4600201E49089E0860471E009001900290002C11D0486885420ED2002A0CD0002E0AD0642E08D8CA
:4063800008460C3001681C2068430C18207A002801D03846FEBD0120226020721846FFF7DDFE6060401C13D06681A6810A4827610C3067610179A94200D205710021684648
:4063C00001810A462846029B00F040F82846FEBD00202072DDE70000DC13002038B50124009400F039F838BDFEB50027164EFF433D4600240EE01C20316860430818017A06
:40640000002906D04068FFF721FF002801D0254603E0641C3079A042EDDA681C12D01C2130684D434419FCF727FD69466068FFF741FF0546FCF71CFD002DD9D12168684635
:406440008847D5E7FEBD0000E813002038B50024009400F001F838BD1FB500220C49541E0A60002811DB496888420ED808491C220C31096850430818406801A9FFF7A0FEC6
:40648000401C02D0002004B010BD2046FBE70000DC130020F0B50021114A4D1E174611710C3F0B46BD6016E008461C2460431668041D355114680646235014680836A35559
:4064C0001468361DA353044616680A34335318301468491C255078688142E5D30020F0BDE813002038B500210091002811DB0F49097888420DDA0D4D04010C35296808599B
:40650000002807D0201D0818694600F06FF9002801D0002038BDFCF7AFFC28680F34015D491E0155FCF7A4FC009838BDF8130020F7B582B0002502986E1E06602E48D21C20
:40654000024017462D4A2C4610460C380178106805E02301C358002B0FD0641CE4B28C42F7D3711C28D03401211D40180191039900F02AF900281FD101E02646F1E71F48F7
:40658000016820460C300F521C480399026820460E30115419480399026820460F3011540398784300F0A0F8144900280968085102D00024009011E001251AE00F48016807
:4065C00001980818009900F02CF9002801D0012502E00098C0190090641CE4B203988442ECD3002D05D10298066004480179491C0171284605B0F0BDFCFF00000414002059
:40660000F8B50D4600216A468C461180002839DB23490978884235DA214B04010C3319680A59002A2ED020460C300B5A801C0E5C184670438018954224D3854222D2002009
:4066400006E007465F43BF18AF4206D0401CC0B2B042F6D36046002814D0114E271DC8190C366A46294600F006F900280AD168460088012808D030682946C01900F0D1F8C5
:40668000002803D00120F8BD0020F8BDFCF7F4FB30680F34015D491C0155FCF7E9FBF3E7F8130020F8B50F46002400F031F8002817D10C4900220B460C334A600EE0210172
:4066C0001D680E466A501D680C36AA53B61C1D680F31AA551D68641C6A54E4B2BC42EED31A71F8BDF813002000280BD0C01C074A81085068890053884118994203D893684B
:40670000516018187047002070470000F8130020F8B5064600200F4D009029700C0121466846FEF763FC00280CD129460C3100980860301B001F84B221466846FEF756FCFE
:40674000002801D0FF20F8BD6C800098A8600020F8BD0000F8130020F8B5002827DB19490978884223DA174C05010C342168485900281CD028460C30085A009028460E3010
:406780000E5C401C0E5420682F1DC01900F064F800280CD12068002445590EE0094829460C300068C01900F03CF8002801D00120F8BD00982D18641CE4B2B442EED3002081
:4067C000F8BD0000F813002030B50D4604000BD0A800FFF789FF6060002805D000202570C0436080002030BD012030BD70B50D46040005D0002D03D00220205E002801DA18
:40680000012070BDFCF738FB0221615E60688900405828606088401E6080FCF729FB002070BD70B50D46040007D0002D05D002212078615E401E814201DB012070BDFCF7FA
:406840001BFB6088401C00B26080616880000D50FCF70EFB002070BD10B5040009D0227800216068FDF756F90020C0436080002010BD012010BDF0B500231D46002802D0D2
:406880000224045F0AE00120F0BD46689F00F6598E4201D1012503E05B1CDBB29C42F4DA15700020F0BD000001480078704700000C1400207CB505460024FEF733F9A879B4
:4068C0006946087000A8062229460130FDF719F90021684605F0EEFE0C2804D0072804D01F2804D004E0022402E0042400E0272420467CBD10B50024FEF714F900210846ED
:4069000005F0DCFE0C2800D10224204610BD10B500F0E6F9FFF7FAF9FFF7FEF910BD70B504460025FEF7FEF8002C06D0A079012803D8214603F0AAF900E00125284670BDB7
:4069400001460120002902D0502008800020704701460120002905D0034854220078504308800020704700000E14002010B502460D49FE204870032410460EF0EDFE00284B
:4069800010D10EF091FE00280CD106F0C9FD002808D100F0BBFB002804D106F069F9002800D10024204610BD0C1400207CB505460024FEF7B7F8A8796946087000A80622C0
:4069C00029460130FDF79DF80021684605F084FE0C2802D01F2802D002E0022400E0072420467CBD70B50025044600280ED0A07901280BD8FEF796F8A0790028204602D09C
:406A000003F02AFD03E003F0FFFC00E00125284670BD0000014610B50120002904D006220248FDF76EF8002010BD00001014002001460120002903D00878024908700020DC
:406A4000704700000E14002070B592B00E4605460024FEF767F803F0D5F900280AD000F07FFD002806D0002D0ED0EA7F1F2A03D9012409E002242EE000A829460130FDF75B
:406A800040F8E87F69460870002E0FD0002C22D1F27F1F2A01D901241DE008A831460130FDF72FF8F07F08A9087001E0002C12D10020002D04D010A9684600F081FD01201C
:406AC000002E04D010A908A800F00CFE01E0002801D000F007FD204612B070BD1CB5FF206946087100200870FEF71CF86A4601A90620FFF735F86946002008561CBD0000AC
:406B000038B504460120002C20D0617801291DD800290BD0FF25E535FEF704F80C4828180088C0B22070072803D00EE0FF25CD35F2E70020694608706846FFF701F9694615
:406B40000878012801D108202070002038BD000000102E4010B507480024807B002806D00448203002F094FB012800D1FE24204610BD00006C1C0020F8B504460120002CC6
:406B800026D06178012902D92278092A20D8002905D0FF25E5352078092803D004E0FF25CD35F8E708202070FDF7BCFF2078114F114E08280DD00020FFF7FEF87078012893
:406BC000207810D00D4969180880FE2070700020F8BD0120FFF7F0F80720B8810549203188800120F2E7B8810248217820308180EBE70000C0112E400C14002000102E40AF
:406C000010B509480024807B00280BD0FFF77EF8062801D0032800D12824FFF79BFFFE2800D12824204610BD6C1C002070B50E46050001D0002400E00C4C002C11D0E28A97
:406C4000500609D5D107C90F022003F0F7FCE08A40218843E08204E0D107C90F012003F0EDFC3146284603F03DF970BD8C1C0020F8B50546002004460D4E009013E02246F4
:406C80006946284601F022F80098002801D00EF045FDA878214602F025FFA878214602F013FF641CE4B2308AA042E8D8F8BD0000441D0020064A02235188891C89B251800C
:406CC000814201D8102900D953805088704700001614002001484078704700001614002038B51E4CFFF712F8042813D0052811D0062812D003282AD007280AD100206946B6
:406D0000087002460120FEF72BFFFEF7FFFF0128FBD138BD00F0BCFB38BD02F05BFF00F0B7FB02F0D5FF8007800F0228F4D10C4841880029F0D05B21095D0029ECD1012131
:406D40000170A07D0140022003F078FC38BD02F045FF0120FFF70AF838BD00008C1C00201E140020F8B50646002403F0D5FC0546304603F0EBFC03460A480021068A0DE0B3
:406D800001228A401046174628401F40002803D0002F01D1224394B2491CC9B28E42EFD82046F8BD441D00201CB50020694648706846FFF7A5FE01AA69460A20FEF7D0FECC
:406DC0006946042008561CBD10B50C4601F09AFC002809D00179002906D0C1788078224603F02EF9002010BD022010BD0148007870470000641C00204030C07E002800D024
:406E00000120704700B500F001F800BD8C2148430749084A40186030417F491CC9B24177D289914201D300214177C8B2704700006C1C0020441D002013B501F063FC0400B4
:406E40000BD002F0F4F9002807D0214601AA0A310620FEF785FE00201CBD02201CBD000010B50C4601F04EFC00280AD002F0DFF9002806D0224604490A20FEF771FE0020FB
:406E800010BD022010BD00004D1C0020F3B581B0074601460026029803F036FC0446002F01D0002500E0154D002D21D0284601F05FFC032C04D13946029803F081FC0646D9
:406EC0003846029902F000FE032C06D0002C10D00121384601F03CFE03E03146384603F031FF284602F0C2FC0221284602F0D8FCFEBD3846029902F0E7FDFEBD8C1C002010
:406F000010B5044604F03AFF002801D00C2010BD2078611C03F0A8F9FF2801D01F2010BD03F0EEF9FF280AD02178621C02F056FD044821780068026B601C904710BD07203E
:406F400010BD00003814002010B504F017FF002801D00C2010BD03F069F903480068C06A8047002010BD00003814002070B50D46044610210EF012FB1021601806460EF0D4
:406F80000DFB334610221946204604F02DFF102130460EF003FB02202870204605F0AEFD70BD0000F8B504464078217802028006870FE0781143A67809050002090D064308
:406FC000084601F09FFB00210546F2B2002812D0002C10D0022F0ED0032F0CD0002A0AD00279092A07D0002A05D0134A5A23527E1B5C9A4207D82889002105F06CFC20467C
:407000000EF08CFBFF21002914D10C48224600682946436930469847C0B2FF280AD128464030817EF2B2491C8176FF232146284600F007F9F8BD0000241C00205014002038
:407040000020704710B5044604F098FE002801D00C2010BD2078611C03F006F9FF2808D003F032F8044821780068426B601C904710BD1F2010BD00003814002010B505F03F
:40708000F7FD00F099F9002010BD000010B504460F4802F0FDF8012817D00D48052221469C30FCF72EFD0A4905229C310846AC38FCF727FD00F036FF054880222038C17B0B
:4070C0001143C17300F0B4F910BD3A2010BD00008C1C002010B5044600786178E2780843A17811430843217908436179084305D004F02EFE002803D00C2010BD122010BD00
:40710000204603F0A9F9002010BD000010B5FBF7CBFE03F023FB044804F0C6FE02F0DEFF012000F003F810BD341C0020F1B586B003A8009005A8019027489F22817A1140E9
:4071400081726846FDF70CFD002843D169460989C90705D0214806990068C2686846904769460989890706D5002833D11C480068816A0698884700282CD11A4E002575709D
:4071800075737571F575357675767575B570F570B5713746F5730120BC3738731F20F880FF2130467972A0300175457500F0A4FA04F05EFB02F01CF800242046069901F090
:4071C000C9FF002803D1641C2406240EF5D0FD72BD72B57307B0F0BD241C002050140020381400206C1C002070B505460E46084603F092FA0446304603F0A8FA0121A94017
:407200000A46224001400A4301D0012070BD002070BD10B50446084603F098FA0121A140014201D0012010BD002010BD10B5FEF76DFD032804D102F0D1FC0120FEF796FD42
