:400000000040002011000000B11B0000B11B000008B501F0E7FD0000F8B572B6802500244E4EED003460211C2A1C4D4803F008FD211C2A1C4B4803F003FDEE224A4B120694
:400040001A60992302253C20484A1B041360484A48491360484A494F1360494A1360494A1360494A13782B4313700B788343283803430B70162113780B431370D822434BD0
:4000800012041A602023C421414A89021360414A11608021404A89001160404A136040223F4B1A603F4A404B1A6040223F4B1A60C0223F4B52031A6012223E4B1A6002F023
:4000C0006FFC3D4802F030FB012002F075FC302002F04EFB394A3A4BFA201A608023394ADB053B601368C0001D4315600825364A364B1A603368AB43336002F0D5FB344895
:4001000002F0C8FB8821334A334B89011A60334B334A281C1A60334A1160334A33491A608022334B12061A608022324BD2021A604122314B1A60314B013A1A6002F04AFB68
:40014000281C02F067FB8023DB053B6003232C4A13602C4A13602C4B1C60F8BD6CF02E4000300F4000400F40000002400001024000500F4001700F4010500F400C020B4065
:4001800020500F4030500F4000700F400800044000010440080104400C0104401801044000020440000C180008020440000304400803044030001040001BB7000600008040
:4001C00004010B4078002E402D3E00007C002E40DC050000007F2500040301400000014041FF00800003014040FF0080A52A000008010B4000010B401C0101400401014090
:400200003000304030003140000E3F4010B5064C2378002B07D1054B002B02D0044800E000BF0123237010BD1005002000000000D86D010008B5084B002B03D00748084956
:4002400000E000BF07480368002B00D108BD064B002BFBD09847F9E700000000D86D010014050020C80000200000000038B562B601F086FC1B4C012801D1207001E0002389
:40028000237001F083FC002802D0174801F0A6FE00F008FA207801F0BBF8144B1B78002B15D0012502F008F9114B1B68DB0B2B40C01800280BD101F09DFD002807D10D4B15
:4002C0001A78002A03D10C481D7003F0DBFC0B4B1B78002B03D004F09BFB00F099F904F097FBD7E72D05002086050020F8160020080224407B050020806E0100D50000206F
:4003000070B50C1C88B0252800D12DE119D8212800D10FE10AD8022846D0202832D0012800D028E1954803F0ADFC22E0232800D10AE10122924B232800D91BE11A75914899
:400340000FE12B2827D007D8282861D02A285AD0272800D00FE12FE04E2800D193E0522800D1B7E0472800D005E14D680E890024D2E002F0A1F8844B1B681B04DB178342B3
:40038000F7D1F8E003A8031C26CC26C306CC06C301F0E6F9EFE07A4B1A78002A00D1EAE000227A481A70DCE00B78022B00D0E2E001F0C8FD7648D4E00822764803F037FB01
:4003C0006F4B754C5A78754D002A0BD1744803F059FC291C20780DF08DFE207871490FF05AFBC8E09978704803F0D0FB291C20780FF0C0FD80216078237800021843890017
:4004000010F036FDB7E00822624803F010FBB2E01E22664B5A4D1A825B6802321A805A806B780A785D4C002B0DD16148111C03F0ADFB237A002B03D1012001F011FD0CE0BF
:400440000123637209E0A9785A4803F09FFB237A002BF5D1012001F04BFD02F02DF84A4B1B681B04DB0FC0180028F6D1E870287102F0C0FB01F0A4FF02F026F801F0E4FF4D
:4004800001F090FF77E08B894D680E890E2B0FD13B4B1A79012A6ED100249A68B2189A60B44268D2285D013401F0F8FFE4B2F7E70F2B60D12878324B1873002805D0012008
:4004C000187102F097FB3C484BE0187102F092FB3A4846E02A4B597B5A78012909D1012A49D1A2890E2A46D12289196952181A6141E0012A3FD1A2890E2A3CD11B79012B14
:4005000039D100252389AB4235D96368585D013501F0C4FFEDB2F5E7B4422CD228194178C37880782A5D00900434254803F02EFBE4B2F1E7124B5B78002B1CD1164B19498E
:4005400018780FF0D5FD16E009681E4B1E48994204D81E4803F01AFB1D48216803F016FB09E003F08FFB06E009781A4803F00EFB0022034BDA7008B070BDC046896E010005
:400580002C050020646F010008022440976E0100A36E010096150020C8270020CC000020AE6E010054020020BC6E01008C010020CE6E0100E46E0100FD6E0100126F0100E1
:4005C000296F01009F860100556F01004A6F01005E6F01007B6F010038B5012002F004FB0123084C084A6375A3690133A361934207D10025657502F0E9FA0448A56103F059
:4006000041FB38BD2C050020112700008B6F010038B5032004F0F0F9041C72B605F046FF032C25D1FD231840042827D1002002F049F8012501F040FF114B1C68E40B2C40F1
:400640000419002CF5D101F04FFF02F065F901F04FFF052002F008F901F0F6FE02F0ECFA02F0E0FA074B281C5C7202F02BF805E0022C03D1022801D002F040F962B638BD69
:4006800008022440CC00002008B5062002F026F8062002F03BF8012002F014F8012002F029F808BD08B5062002F0B0FA002002F0A1FA0F23094A1381094B0C3303CB03C21F
:4006C00002F066FA074802F04FFA01F06BFEFFF7DBFF054801F04CFB08BDC046B4150020CC000020D905000001030000F8B5031E2DD01849041C03F0EFFA1323002826D071
:40070000201C3D2103F0DAFAFF25001BC2B22B1C0B2A1CD80540281C03F066F9211C2A1C061C002703F0F6FA0B4BBA001433D158301C2A1CFCB203F0D9FA002803D00137F2
:400740001C2FF1D13C1C301C03F058F9231C181CF8BDC0469C6F0100CC0000201FB50E2301AC238100230190A180E380074A211C507813780002184310F0EAFB002803D0B2
:40078000034B1B78022BF1D01FBDC046C8270020C627002030B5444C85B06378012B00D07DE031380E2800D97CE002F031FC08192C3D7B7B7B7B7B7B7B7B7B7B59003B4D62
:4007C000281C01F0CBFB021E02D0394801210FE0384A0121137A0133DBB21372013B33E0354D281C01F0BAFB021E04D00221304803F0CCF956E02F4A0221137A0133DBB2E1
:400800001372013B20E02D4D281C01F0A7FB021E02D027480321EBE7264A0321137A0133DBB21372013B0FE0254D281C01F096FB021E02D01E480421DAE704211D4A137A2E
:400840000133DBB21372013B0720D1544343D018A1700930291C062203F0E9F819481FE0194B00241B78022B17D1124B1A7AA24218D9072060431818057B195D827B437BB0
:400880000095C57A01340195857AE4B20295407A03900E4803F07AF9E7E70D4800E00D4803F0F0F905B030BD2C050020C7150020BA6F010070150020E5150020031600201F
:4008C00021160020CD6F0100C6270020D46F0100FC6F0100067001002D4B13B51B780022032B02D0022B06D1012201AB31385A700E2848D801E0274846E002F089FB262F9E
:400900003235383B3E41444444444444080001AC201C05F0E4FD20780138072836D802F077FB0406080A0C0E10121B482CE01B482AE01B4828E01B4826E01B4824E01B48BB
:4009400022E01B4820E01B481EE0012301A8037005F0ECFD002819D1174815E001A80223F5E701A80323F2E701A80423EFE701A80523ECE701A80623E9E701A80723E6E74F
:4009800001A80823E3E70D4803F07CF913BDC046C6270020707101007A710100827101008A710100927101009A710100A2710100AA710100B2710100CD6F0100BA7101006E
:4009C000F7B5051C0192019A2B1A934229DA154E0C7837684B783E197678B446032662461640022E00D1203CE4B2261C303EF6B2092E01D9373CE6B20324FF187F783C4018
:400A0000022C00D1203BDBB21C1C303CE4B2092C01D9373BDCB23601A3192B7002310135D1E7F7BDA8040020F0B5B1B0002801D100F0B7FC041C00211B2209A803F000F89A
:400A400000211F2210A802F0FBFF3E2220A8002102F0F6FF00236A4617261383162207AD6A446E4405AF201C13702B8033703B700893FFF73BFE1B2801D900F08FFC02F08E
:400A8000D1FA1C00900430008D0438004F009004A8009400A2005B01960118025C02650290049004140307024C0422032E036E03A9032904C50340045504637A312B01D088
:400AC00000F06CFCCD4803F0DDF801F0F5FCCC4B1B681B04DB178342F7D101F0B9FE00F060FCE37AC7483F2B01D000F057FC00F056FC637A3F2B01D000F050FCC24C201CE9
:400B000003F082FFA07861792279E37800906078019020780290BD4803F038F800F041FCBB4D237A6E78002E51D13C2B09D03F2B01D000F033FC09A801F072FAB54809A9AF
:400B4000B0E20934201C3E2103F0B8F8001B172802DDB14800F023FCB04B1B78022B2FD001F0B8F9311C1B2209A802F069FF291C6A7F27310B3AD2B209A83A7002F057FF44
:400B80000120391C021C331C00F008FF3A78022009A9331C00F002FF09A801F01FFA002800D1BAE39E4800F0FAFB994A237A5578002D0CD13C2B14D1984B1B78032B13D14E
:400BC000984800F0ECFB924B5B78002B5ED09648E5E38F4BE0795B78002BF8D1FFF77CFEDFE33F2B3DD0D9E3271C0937381C3E2103F064F8C01B1F2801DD8C48CFE318AE5F
:400C0000291C1F22301C02F01BFF391C162702226F4406A802F00BFF381C06A90122FFF7CFFE211C3A780C31F27720A8520002F0FEFE10A820A91F22FFF7C2FE10A9F27F9B
:400C4000301C02F0F4FE301C291C05F0E5FB0028A8D1774B3A78986810A9C27702F0E7FE5BE36E4B1B78032BAAD1724802F08EFF6F4B9B68DA7FAA4206D9595D6E48013511
:400C800002F084FFEDB2F3E76C4888E3634B227A1B78022B94D03C2A26D03F2A00D07DE3634D6E68308802F019FE0022644B02F045FB02F0DDFD04B2708802F00FFE0022DF
:400CC0005F4B02F03BFB02F0D3FD2B8A02B2211C5C4802F05BFF01F0EFFB494B1B681B04DB178342F7D15CE3032B00D168E7637A301C2B70A37A291C01226B70FFF760FE35
:400D00004B4F33787A68301C1380237B291C2B70637B01226B70FFF753FE33787A68301C5380E37B291C2B70237C01226B70FFF747FE33783B82F0E2637A3C2B0FD03F2B83
:400D400000D02BE3354B1B78022B00D038E73E4B3E485988DA889B8802F018FF21E32C4B5F78012F00D032E72C4B1B78022B00D026E7A37A301C2B70E37A291C3A1C6B7092
:400D8000FFF71EFE3378324A301C1380637B291C2B70A37B3A1C6B70FFF712FE33782C4A53802C4B111C18780FF0E4F8F7E6237A312B55D03F2B03D0302B00D0EEE207E0EB
:400DC000134B25485B78002B00D1E8E22348E6E2124B1B78022B00D1F2E600240623201C08A90122089400F0D9FDA0231B06984200D0D6E2201C01F033F846E0CD6F0100D6
:400E000008022440C4710100C0150020DC7101002C050020FE71010009720100C627002013720100FC6F0100067001001D7201008C010020277201002E720100CD7301005F
:400E40000000E43F33720100961500204C720100CC000020C8270020647201006D720100C64B1B78022B00D1AAE601240623002008A9221C089400F091FDA0231B06984206
:400E800000D08EE2002001F033F8BD4B5C7044E2BB4B5B78012B00D099E6BA4A18A90B805078023B4B801378000218430FF0CAFF77E2B34D6E78012E00D088E6237A312BF3
:400EC0000AD1AE4B1B78022B00D179E600F040FD002001F00DF862E6302B0AD1A74B1B78042B00D06CE600F033FD01F02BF82E7013E23F2B00D051E20024A34BA3481B78D3
:400F0000A34200D14BE2A04B1B78A34200D848E21E2565439E4E01347019C778C1794279037900978778E4B2019740780290A85D0390984802F02AFEE5E7914B5B78012BDD
:400F400000D044E6607AFFF725FC2AE28B4B1B78022B00D034E68A4DE07A6B78012B00D095E03138032800D918E2864B02F050F80225476918780EF007FE021E02D1864ED2
:400F8000337A02E08548012165E0141CD2B29A4200D3C2E1375D621C012FF6D1072060433018013B093000210622337202F048FD002337713355AF70AFE118780EF0E4FD42
:400FC000021E02D1744E337A02E07448022142E0141CD2B29A4200D39FE1315D621C0129F6D1072060433018013B093000210622337202F025FD00233355023344E01878AF
:401000000EF0C2FD021E02D1634E337A02E06348032120E0141CD2B29A4200D37DE1315D621C0129F6D1072060433018013B093000210622337202F003FD002333550333EB
:4010400022E018780EF0A0FD021E02D1524E337A04E00421514802F099FDA2E1141CD2B29A4200D359E1315D621C0129F6D1072060433018013B093000210622337202F055
:40108000DFFC0023335504333371AB7045E1312800D083E13B4B18780EF076FD011E00D17FE13F4802F072FD7BE1344B1B78022B00D085E5237A3F2B00D06FE105F0FEF95A
:4010C000011C3848EEE7637A3F2B00D066E12C4C3548A16802F05AFD0023A36061E1274AA37A1278022A00D06AE5254D6C78012C1ED1312B0AD03F2B2FD0302B00D04DE1A4
:40110000002001F077FD00232B7126E027491D4A0B681C700F2350780B811378000218430FF016FF002800D03BE12C71201C10E0002C00D044E5312B09D03F2B0DD0302B34
:4011400000D02BE1201C2C7101F054FD05E00120287101F04FFD164821E116481FE1637A3F2B00D01AE1054B1878062800D918E101F04EFF222426282A2C2E00C627002089
:401180002C050020C82700208405002076720100C71500208172010070150020BA6F0100A9720100B9720100C7720100B4150020FD6E0100126F01007B48F0E07B48EEE001
:4011C0007B48ECE07B48EAE07B48E8E07B48E6E07B48E4E07B4B227A5878002800D0F6E4794B1B78022B00D1EAE4312A05D1032B00D1E5E400F034FED1E4302A00D0CDE06A
:40120000032B00D0DCE400F065FE86E06E4B607A1B78022B00D1D3E430380F2800D9BDE001F0F6FE0815202B36BCBCBCBCBCBCBCBCBCBC4400200EF087FD041E00D0B1E4FF
:40124000624802F01FFD5F4B4E331C70A9E001200EF07AFD002800D0A4E45C4802F012FD01221FE002200EF06FFD002800D099E4564802F007FD022214E003200EF064FD6A
:40128000002800D08EE4514802F0FCFC032209E004200EF059FD002800D083E44B4802F0F1FC0422474B4E331A707AE0454B4E331878042875D801F0ABFE030507090B00F6
:4012C00043486CE043486AE0434868E0434866E0434864E0237A3F2B06D13A4B4148DB78002B5CD140485AE0312B57D1354BDB78002B00D064E43D4B3D4918780EF0CBFB7A
:401300004DE4637A312B05D03F2B08D00022302B44D100E00122374B1A722C483FE0354B35481B7A002B3AD1344838E0267A254C6378251C002B34D118AF381C0EF051FCD7
:401340003B784F34002B07D001232370302E0AD02B483F2E23D021E02370302E03D029483F2E1CD01AE0184B1B78022B00D127E42B1C4F331B78002B0ED0281C50300EF0C4
:401380008FFC012000F036FD041EFAD11D484F3502F078FC2C7004E01B4800E01B4802F071FC31B0F0BDC046CD720100D7720100E1720100EB720100F5720100FF720100F3
:4013C000097301002C050020C6270020CD6F0100137301001D73010027730100317301003B730100457301004E730100C827002054020020CC00002057730100657301003E
:40140000806E0100737301007C730100BA710100F0B58BB06B466A468D4C00AFFB60E38878600433DB08DB00D31A9D463B6100F0F9FFB8603B89251C7B61864E002B00D141
:40144000E9E03079012800D092E0834B7969834C0422994204D9236800209343236002E023681343236001F0C5FBEB883A89033B9A4207DB7A4A9BB22A817B61002B00D171
:40148000E0E006E02B89013B9BB22B81002B00D0D8E0734B2B8100257B699D4206D201F0D7F83B6958550135EDB2F5E76D4839690B2202F0ADFA00281FD17B68012B0ED1DB
:4014C00069496A4A0B6818700F2350780B811378000218430FF032FD002800D0B2E00024201C347101F086FB301C211C1E303022747702F0A5FA5E48A2E039695D480B22AD
:4015000002F086FA011E07D17077301C30221E3002F096FA584893E07B68584A002B1BD11378002BFCD13B69FB61BB8A3B840E23BB844E4A50781378000218431C23F918AF
:401540000FF0DAFF041C03F063FA002C7AD04C4B1B78022BEDD075E0042123688B4323601378002BFCD138697969FFF7F7F869E00123444A357D1370002D31D000240625AB
:401580003475414E01F050F8C3B2002BFAD0303B092B0CD8181C70430A212418301C01F04BFD013DEDB2061C002DEBD102E0374802F068FB2D4B211C187801220EF054FAA8
:4015C000012801D132483BE0032801D1314837E0072801D1304833E0002833D12F482FE001F036F8C0B2737F0A2804D02C4AD0540133737726E01A4A2281224A1570284ADF
:40160000D054101CFFF710FA291C30222448757702F016FA16E0331C57331A78002A11D02189013989B2218100290BD1301C19700B4B1E3030222381717702F001FA194892
:4016400002F020FBFB689D46BD460BB0F0BDC0464C0100202C050020FF010000C80F2440581B000085730100B4150020C8270020126F010091730100FD6E0100C727002048
:40168000C627002083050020A08601009D730100AF730100CF730100F5730100137401004A0500202974010070B50E1C151C0C1CA31BAB4204DA207800F0F0FE0134F7E71F
:4016C000281C70BDF7B5431801930023441C019AA24240D92078013809283AD801F098FC35353539393939051B351B4B00211D781E23013D5D43194B14225D190935661E45
:40170000281C02F09DF93278611C013A281C02F08EF933781BE0104B104F1D781E23013D5D437E19093600211422301C02F088F9631E1A78611C013A301C009302F077F9B2
:4017400001237D196B77009B00E0631E1B780133DBB2E418BBE7F7BD84050020C7150020F0B5764B8BB05A78041C0893012A6FD00123089A53700378002B69D117781E25B3
:401780000137FFB27B1E1E1C6E4309936C4B17709E19301C6168062202F049F96378002B00D001230998B3716843654B06221818C771237C0372616802F039F9217AE0682C
:4017C000FFF780FF089B18785D4B441E65435B19597F1833002902D000225A710BE0584B14225D190935281C02F02AF9281C5549052202F01CF91E20031C6343504AD318A7
:4018000008229D79D9799A565223012D00D0023B60434B4C24186579009525790195E5780295A578039564780494454C045D0594434C201809300690434802F0A7F900F00E
:401840003BFE424B1B681B04DB178342F7D172E01E26089B3A4F1D786E43F619B74208D0391C6068062202F0D3F81E370028F5D161E0089B0135EDB21D706B1E1E1C1E2706
:401880007E4309932E4B61689E19301C062202F0CEF86378002B01D1503300E05223B371099B5F43264BDF19FD712578002D42D1237C3B72217AE0681E24FFF703FF089BCC
:4018C0001E781F4B013E74431B19597F1833002901D05D710BE01A4B14221C190934201C02F0AEF8201C1749052202F0A0F81E2308225E43124B98194479C17982568379D5
:40190000009404790194C478029484780394407804900B48305C05900948861909360696094802F033F900F0C7FD084B1B681B04DB178342F7D10BB0F0BDC0468405002063
:40194000C715002023750100287501000802244070B5104D104C2E780A2E03D81E235E4336190EE0002630190021062202F068F896231E365B009E42F5D100232B706B705F
:4019800070BDB442F9D0201C0021062202F058F81E34F6E784050020C7150020F0B593B000AFB961111C1E1C1F23FA18031C13701E23FA180B1C13701D23FA18331C137071
:4019C0006B46181C1F23FB181B78002B07D11D23FB181B78052B02D801235B42AFE00023BB631E23FB181B789A1C531E3B64131C3B6100237B613B69DB0E7969490179608D
:401A00007968194379603B695B013B60131CBB600023FB60BB68DB0EF9684D011D43BB685C01131C9B0003330733DB08DB006A46D31A9D466B4603339B089B00FB63424B0A
:401A40001B687B63414B1B683B63414B1B68FB62404B1B68BB62404B1B687B623F4B1B683B623F4B3F4A1A603F4B404A1A601D23FB181B781B043E4A13431A1CFB6B1A6018
:401A80001E23FB181B78013B1A1CFB6B5A602F231822BA18D31800221A701CE02F231822BA18D3181B789A1C2F2318217918CB181B789B00B969CB181968FB6B9200D1505E
:401AC0002F231822BA18D3181A782F2318217918CB1801321A702F231822BA18D2181E23FB1812781B789A42D8D31D4BFA6B1A601D4B204A1A60FB6B1F4A1A601F23FB18DE
:401B00001A78FB6B5A60164BFA6B1A60164B1B4A1A60134B1B68BB630B4B7A6B1A600B4B3A6B1A600A4BFA6A1A600A4BBA6A1A60094B7A6A1A60094B3A6A1A60BB6B85460F
:401B4000181CBD4613B0F0BD00010B4008010B401CFF0B4020FF0B4028FF0B402CFF0B4008001040B6E800000400104015000080B6D7000004000080B6EB0000180000803D
:401B8000014B18787047C04606F2FF0F002008B5044B1A78824204D00348044901F047FF012008BD80F2FF0F8605002000F3FF0FFEE70000031C10B580240849084A0868CF
:401BC000A400C3189A1AA24201DC0B6005E001F0DFFE0C2303600120404210BD5C010020E02F002070B51049104B01394A1C15D000221E685C689D68A018AA4203D0B058D7
:401C0000A0500432F8E7021CDC68151AA54202D0002520C2F9E710330139E7E701F0BEFEFEF724FBFEE7C046010000000C7B010001210E4A10B51368141C8B4313600023A0
:401C40009A000B49032B01D80A4989580A4801338150302BF4D1FEF7DFF90022074B1A60236801321343236010BDC04600001040B11B00000000000000000020C000002083
:401C800070B5002905D119490023CE7F1A1C1C1C0EE01749F8E7002C11D1CA5C002A24D00133DBB2CD5C083D012D04D9D318DBB2B342F0D301E00124FAE7002C15D0D218F5
:401CC0000133DBB2D4B21A1C06E0D51A455D002D04D08D540132D2B2A242F6D3944204D900238B540132D2B2F8E770BD600100209D05002010B50024144B154A1C70154B5C
:401D00001C70154B1C70154B1C70518C144B1980918C5980D11DC97F08321973D27F5C821A710622DA8122321A82FA2292009A8201225242DC821A830A4B1F321A8000F09F
:401D40001FFB094B1C70094B1C7010BDCC27002060010020C7270020CB270020CA270020A6270020C0270020F8160020A427002030B58BB0051C164904A8182201F057FE1E
:401D8000144C0134E37F002B03D1FFF7B3FF0123E3770120002D18D00F4B10481D60062300930F4B0F4901936E23FF3302930E4A04AB02F043FE002807D101220B4B0C4841
:401DC0001A701121313210F00FF90BB030BDC046807501009D050020FC160020B12000000082010000170020A4100000C62700208077010070B50126154C051C2378334202
:401E000009D00BF069F800281FD123781A1CB24322709B0718D4002002262378334216D00C4B1978042912D85A31B1400A4B0B48C918053104222B1C0BF03CF8002806D15C
:401E40002378B343237002E02820002DE4D170BDF8160020C827002000820100C2270020021C10B50120022A2AD8164B1B78062B24D1154C23785B0720D4144B002A05D13F
:401E80001E219987196B1F30088009E0012A08D19621C8209987196BC00008808020C00148800B492C33181C0A700EF057F9002806D1042223781343237001E00420FF303B
:401EC00010BDC046C6270020CC27002060010020CB27002008B50EF0BBF90821024A13780B43137008BDC046CC27002070470000021C08B50120022A1DD80F4B002A04D111
:401F00000A2119852631598407E0012A06D196211985802109015984F839998407492033181C0A700EF0A4F8002804D10421044A13780B43137008BD60010020CA27002082
:401F4000CC27002008B50EF0C1F80821024A13780B43137008BDC046CC27002038B5114C2378062B1AD10125002819D000230E4AC55C991801334D71062BF8D18379101C92
:401F8000D3720EF021F8051E0AD105232370074B1888002804D00AF05FFF01E00425FF35281C38BDC6270020A6270020C027002010B50DF0D1FF074B041C1B88002B01D0AB
:401FC0000AF064FF002C02D10622034B1A70201C10BDC046C0270020C627002010B50123002818D00D4B9A6B998E00235468C9B2DAB28A4206D2C25C002A02D0E2540133D7
:40200000F6E7E254041C0021FFF73AFE201C0121FFF736FE0023181C10BDC04680770100021C30B50120002A11D0094B9B6B5C681D780023D9B2A94203D300235354181C25
:4020400005E0E05C0028F8D0D0540133F2E730BD80770100437800781B0218437047000038B5838900250B2B1BD1041C291C0430221C35330FF0D0FF051E0DD16068FFF7CB
:40208000E9FF094B1B68820702D58220400001E00620FF30211C98470121044A13788B431370281C38BDC046FC160020CC270020F0B501279F4C85B02378051C3B430E1CAC
:4020C000237027286ED00FD805284ED004D8B84222D002283DD00AE124285FD0262879D0212800D003E143E0422800D1D7E009D82B2800D19AE0412800D1C0E0282800D007
:40210000F5E065E04C2800D1D7E0FA2800D1EAE0432800D0EBE0C6E0072303AF3B700023381C7B7004F002FA0723381C3B707D7004F0FCF9804F38688379002B00D0E4E01E
:40214000031C821D1978002935D101339342F9D1DBE00B78042B00D0C9E0784B1B78052B00D0C4E0FFF724FFC1E00A78744B17E023789B0600D5BAE0724B1A781F1C102ACD
:4021800001D10523FB70704B391C18780DF0B0FF6D4B391C18780DF07EFCA8E04A786B4B1A70A4E06A4B1B88002B01D00AF06EFE0222624BF4E702F02FFC38680021FFF712
:4021C00095FE38680121FFF791FE00200DF0BCFD0622EEE7594B1A780192022A00D186E022783A4200D182E004222178114201D0032130E023781B0705D506234F4A1370CA
:40220000237808221FE0019B032B70D14B4A03331370504B1B78002B69D10120FFF720FE002864D16A46454B1279B9E7434B197802295CD022783A4259D00422207810422C
:4022400004D01A7023789343237050E008222078104202D006211970F4E7042947D10623364A13703C4B1B78002B40D10120FFF73FFE00283BD10423304A137037E0324F50
:402280000222381C01F0D3FB3978344B5A318900591805310422324801F0C9FB27E00022294B5A707CE749882E4B994201D98021890030880FF010F919E0081CFFF7D0FE13
:4022C00023783B4213D1002809D0122303A98B70B389C87030680B800FF0F2F807E030680FF068F903E0204A13781F431770112322781A421CD001222378281C9343237064
:402300001A4B311C1B68984712E0194B194F1B78381C3B70184B1B787B70184B1B78BB7002F07AFB381C0021FFF7E0FD381C49E705B0F0BDCC270020A0010020C6270020C1
:40234000C727002054020020C8270020A4270020C0270020CB270020CA27002000820100C2270020FF010000F8160020FC1600207CF1FF0FA40100207DF1FF0F7BF1FF0F93
:40238000704700008021064A08B5136809060B431360092000F03EFA00F024F908BDC0460000244010B5054C2378002B03D100F0A7F801232370FFF7E5FF10BDC00500205E
:4023C00008B5092000F030FA00F01AF9054A092013685B005B0813600022034B1A6000F02DFA08BD00002440880F2440094B0A491A680B6800209A420BD00B6807485A1CE6
:402400001B18581E83415B421A40054B985C0A60C0B27047D82F0020D027002000F8FFFFD4270020054A064B1B68116810688B4201D2044A9B18181A7047C046D027002057
:40244000D82F00200108000008B5092000F0ECF90B4B80211A680B4B49021A6000220A4B09201A70094B1A680A431A601968084A0A401A60074A084B1A6000F0CBF908BDE8
:40248000D0270020D82F0020D52F002004032440FFFFFEFFED0F0000C00F2440044B1A681F231340082BF9D0024B18607047C0460802244040022440024B18681F231840C6
:4024C0007047C046080224408021054B49021A680A431A601968034A0A401A607047C04604022440FFFFFEFF08B500F0D3F808BD08B500F0E1F808BD08B500F093FB08BDF0
:4025000070B500240125072104261F4A1F4B09201A601F4B1F4A1C601F4B1D601F4B13601F4A11601F4A14601F4A15601F4A13601F4B1C601F4B1E6000F076F90920032166
:4025400000F050F91C49092000F044F9281C00F06BF9281C032100F045F9281C174900F039F9174B1C60174B1C60174B1C60174B1C60174B1E60174B1C60174B1C60174BFD
:402580001C60174B1C7070BD0B0000020000244040002440000324404800244007000080040324401003244044002440000224400402244050002440452C0000F924000039
:4025C000880E2440C80E2440480F2440080F2440C80F2440880F2440D82F0020D0270020D52F0020044A054B11680B40902109040B4313607047C04600010240FFFF0FFFEC
:40260000054A064B11680B401360054A054B11680B4013607047C04600010240FFFF0FFF48002440FFDFFFFF08B5FFF7FBFE031C0020834201D0FFF7D9FED822034B920031
:402640001968114201D000201A6008BDC00F244010B5092000F0E8F8FFF7E4FE002806D0092000F0D7F8FFF7C1FE041C04E0074B09201C6800F0CEF8D823054A9B001068DC
:40268000184000022043136010BDC04640032440C00F24408021074A08B5136889010B43136000F0BFFA012000F0C8F8012000F0B1F808BD4800244008B5012000F0B4F8A9
:4026C00008BD00004023044980010A689A43D2B2034013430B60704700020440034A044B116880040B4018431060704708020440FFFFE3FF4023044980010A689A43D2B278
:40270000034013430B60704700030440034A044B116880040B4018431060704708030440FFFFE3FF000000000230800803D00138FDD1C046C046C0467047EFF3108072B60B
:40274000704780F31088704738B5051CFFF7F5FF0721054C054A23682940C90413400B432360FFF7EEFF38BD00010B40FFFFC7FF10B5041C86B0FFF7E0FF0E4B0E491A6831
:4027800002AB02920D4A126803920D4A1419033C227804920B4A126805920B4A00926A4601930A4B1A600A4A11601B68FFF7C9FF06B010BD08010B401700008000010B405F
:4027C000DC78010030001040B6EA00000800104004001040024B8000C3181868196070474000002038B5041C0D1CFFF7A6FFA308074A9B009B180322144094400634A2407C
:40280000A5401968914329431960FFF79AFF38BD00E400E01F2318401E3B8340181C014B1860704700E100E01F2318401E3B8340181C014B1860704780E100E01F231840CB
:402840001E3B8340181C014B1860704780E200E0034A044913689BB20B4313607047C0460CED00E00400FA0510B5041C8022074B1202944205D91868FFF756FF044BE418D8
:40288000F4E758686043FFF74FFF10BD580200200080FFFF08B5034B1B7A5843FFF744FF08BDC0465802002001210F4A10B51368041C0B43802113600C4A0D4B09021A60A8
:4028C0000C4A13680B431360002801D100200AE00120FFF7DFFF084B1B68DB07F6D4013C002CF5D1102010BD60F02E400220000078002E4010002E400C002E4008B5FFF72E
:402900001CFF0421034A13688B43136030BFFFF718FF08BD10ED00E037B5FFF70EFF04210D4A0E4D1368041C5B005B0813600C4B0C4A1B8802209BB213600B4A13680B43CE
:4029400013602B680193FFF7FFFE30BF019B201C2B60FFF7F6FE37BD00000B4000010B4052F1FF0F0C000B4010ED00E001200A4A136883431360022311689943116007491A
:402980002E330A689A43203B1A430A6007220B68934303430B60704700F02E4000FF2E4008B5FFF7E3FF8021024A090613680B43136008BD00F02E400122104B70B51C6889
:4029C0001440002815D0904215D1022507261968A94319600A490A68B2432A430A600A682E35AA43103D2A430A601A681043186001E0FFF7BBFF201C70BDC04600F02E4062
:402A000000FF2E4008B5FFF798FEC021034A090213680B431360FFF794FE08BD00010B4010B58024FFF789FE0749084B0A68E4011A4022430A600A681340802212021343F8
:402A40000B60FFF77EFE10BD00010B40FF3FFFFF70B5051CFFF771FE0E4B041C1A68C0231B02134011D10C480C490540281C0E680B4A3240104308600A68012B01D1FFF7B9
:402A8000C1FF201CFFF75DFE70BDFFF7C9FF0123E9E7C04600010B400404040010020B40FBFBFBFF042238B5224C2368134213D021490B6813420CD0204B9D6908681540B7
:402AC000A8430860996991439961DB68002B00D098470420FFF7BCFF80232268DB001A4215D015490A681A420DD0144A956908682B40984308609169114B0B4093611369E4
:402B0000002B00D098478020C000FFF7A1FF80232268DB021A420CD0074A12681A4204D0064B5B69002B00D098478020C002FFF78FFF38BD10020B4068020020C8050020EA
:402B4000FFFBFFFF10B5041CFFF7F7FD0449054A0B68A403134023430B60FFF7F2FD10BD10E400E0FF3FFFFF10B58024054BA4021C60054B0833D8670320FFF7E3FF034B04
:402B80001C6010BD80E100E00000002000E100E000230C21074A1360074A1160074A0B3911600A2206490A6006490A60064A13607047C04600012040240120403801204031
:402BC000140120400C0120400801204008B5FFF7B4FD0121034A13688B431360FFF7B1FD08BDC04600002040014B18607047C0463001204008230449C0000A689A43D2B20F
:402C0000034013430B60704700020440034A044B116840020B4018431060704708020440FFF1FFFF1023034A1068184010600009C0B27047100104400222014B1A6070474B
:402C400080E200E008B5144B1B68002B00D09847124B1B685B071DD5114912480B685A1C1B18581E83415B421A400F4B18680F4B1B68824203D120220D4B1A7003E00D48B9
:402C8000DBB283540A600C4B1B68DB06E4D104220A4B1A6008BDC046C4050020CC0F2440D82F002000F8FFFFD027002040032440D52F0020D427002008032440C00F244032
:402CC000F0B51F4C8D18031CA5B00120A54235D80020161C051CCF09039304ACFB010291E41AB54204D3012828D90120404225E00028F8D11A1C8032019200900299994266
:402D00000BD8B54209D20399E25C495D8A4202D00122E1540092013501E01978E154019A01339342EAD1009B002B03D0381C04A900F0CAF80137803C019BD2E725B0F0BD83
:402D4000FFFF010001607047016070471E4B1F4A19781F4B09021B7819431E4B1B7812781B0213431C4A934204D1072909D11B4B033906E0D4221201934202D1042900D113
:402D8000164B174A1360174B174A1960174B1B7812781B021343164A134200D1154B164A1360164B164A1B7812781B021343154A934204D0144A934201D0052B00D1134B3B
:402DC000134A13607047C046D9F0FF0FDEF0FF0FD8F0FF0FDFF0FF0F580B0000580D00006C002E4074002E40DAF0FF0FDBF0FF0FFFDFFFFF0220000078002E40DDF0FF0FEC
:402E0000DCF0FF0F0F0F000005050000050F000080002E4008B5FFF73DFD08BD08B500F043F808BD08B500F047F808BD08B500F043F8034800F00EF8032000F011F808BD74
:402E40000930000008B5024800F01AF808BDC04609300000014B18677047C0460000002010B5041CFFF769FCC021044AA40113688B4323431360FFF764FC10BD0CE400E03B
:402E800010B58024054B64011C60054B18670320FFF7E6FF034B1C6010BDC04680E100E00000002000E100E08022024B52011A607047C04600E100E08022024B52011A60F6
:402EC0007047C04680E100E00023F0B5ABB0029303933D4B984272D8002970D0019080220AA800F0A4FD394B019A9A4201D8384B00E0384B08937F2308AF7B60364C374B6E
:402F0000374D27602B6022680023120F0A2A02D022680F3313400293029E002E51D1FFF70CFC304A04AB04922F4A0432059223602E4B2B6023681B0F0A2B03D0264B1E6845
:402F40000F231E400396039B002B0CD128492160284929602168090F0A2903D01E4B19680F230B400293029B002B12D1224908910199089E09043143089120492760296071
:402F80002168090F0A2903D0134B19680F230B400293039B002B0FD1194E06A906960792184A21602A602268120F0A2A03D00A4B1A680F2313400393FFF7C3FB01E00423B8
:402FC000029302982BB0F0BDFF030000FF010000B6D70000B6D70001080010400400008004001040B6E90000E414002016000080B6E8000015000080B6D80000050000803A
:40300000B6EA00001700008008B513F0D1FE08BD02B4714649084900095C49008E4402BC7047C04603B47146490840004900095A49008E4403BC7047002243088B4274D346
:4030400003098B425FD3030A8B4244D3030B8B4228D3030C8B420DD3FF22090212BA030C8B4202D31212090265D0030B8B4219D300E0090AC30B8B4201D3CB03C01A524151
:40308000830B8B4201D38B03C01A5241430B8B4201D34B03C01A5241030B8B4201D30B03C01A5241C30A8B4201D3CB02C01A5241830A8B4201D38B02C01A5241430A8B4228
:4030C00001D34B02C01A5241030A8B4201D30B02C01A5241CDD2C3098B4201D3CB01C01A524183098B4201D38B01C01A524143098B4201D34B01C01A524103098B4201D35C
:403100000B01C01A5241C3088B4201D3CB00C01A524183088B4201D38B00C01A524143088B4201D34B00C01A5241411A00D20146524110467047FFE701B5002000F0FCF8F6
:4031400002BDC0460029F7D003B5FFF775FF0EBC4243891A1847C04603460B437FD4002243088B4274D303098B425FD3030A8B4244D3030B8B4228D3030C8B420DD3FF2207
:40318000090212BA030C8B4202D31212090265D0030B8B4219D300E0090AC30B8B4201D3CB03C01A5241830B8B4201D38B03C01A5241430B8B4201D34B03C01A5241030BDD
:4031C0008B4201D30B03C01A5241C30A8B4201D3CB02C01A5241830A8B4201D38B02C01A5241430A8B4201D34B02C01A5241030A8B4201D30B02C01A5241CDD2C3098B42DB
:4032000001D3CB01C01A524183098B4201D38B01C01A524143098B4201D34B01C01A524103098B4201D30B01C01A5241C3088B4201D3CB00C01A524183088B4201D38B0034
:40324000C01A524143088B4201D34B00C01A5241411A00D201465241104670475DE0CA0F00D04942031000D34042534000229C4603098B422DD3030A8B4212D3FC22890179
:4032800012BA030A8B420CD3890192118B4208D3890192118B4204D389013AD0921100E08909C3098B4201D3CB01C01A524183098B4201D38B01C01A524143098B4201D381
:4032C0004B01C01A524103098B4201D30B01C01A5241C3088B4201D3CB00C01A524183088B4201D38B00C01A5241D9D243088B4201D34B00C01A5241411A00D201466346BB
:4033000052415B10104601D34042002B00D54942704763465B1000D3404201B5002000F00BF802BD0029F8D003B5FFF715FF0EBC4243891A1847C0467047C046F0B55F469F
:4033400056464D464446F0B4051C061C080387B099464F00030BCC0F92469B467F0D019467D06C4B9F4236D080205B4640031843C0006B0F1843684B83469C4600239846D2
:40338000EE00674400934B4649461D03C90F5B0052462D0B5B0D894600D16EE05D498B4264D080205C4940038C4600210543ED00500F0543D20063444846FF187B1C9A46B5
:4033C000009B604002900B430F2B00D9ACE053489B00C3589F465B461D4300D082E00823009300239B46023300269846CBE7029B01934346022B59D1012400250026019BE0
:403400001C40444B00212D030A0D12052D0B1543434A1B0515401D436D00E4076D082543301C291C07B03CBC90469946A246AB46F0BD2B434ED05B46002B00D185E1584653
:4034400000F088FA021C2823291C9B1A161C5846D940083EB0400B1CB54003439B462E1C0023304F0093BF1A98468CE7514629432ED10025002202219EE75146294323D085
:40348000002D00D154E1281C00F064FA031C28215046C91A1A1CC8405146083A914095400A1C05431F480021C31A85E7032B00D1C2E1012B00D06DE14446019B00251C40D7
:4034C000E4B2002300269DE700250022012173E7032171E70423009300239B4601330026984650E70C230093093B98464BE7802500242D030026074B84E74B46AB46161C57
:403500000193884675E7029BAB46161C019388466FE7C046FF07000001FCFFFF0C790100FFFF0F800DFCFFFF330C3604360C9C46331C140C1204120C534398466346534341
:403540009946634663430193331C41466343090C4B445B18994505D9802040028146019949440191190C039141460904090C1B045B1804932B0C9846331C2D04290C4B43F5
:40358000604600934346654658435E43009B4D431B0C9946AE194E448446B54203D980235B029946CC44350C2B1C0398634484460593009B36041B041B0CF3189C44604674
:4035C000039058460504060C280C84465043351C81466046654344434846000C8346724314195C44A24203D98022520293465D44220CAD184A461204120C24044046A418CB
:4036000062464A437143464360460096464670438046100C84468844E044414505D9802149028C46009961440091019803998446614499429B415B42994605984346844649
:403640001204120C1B049B1863449C46AB4683429B4140460A19CC44A2428941E344CC45B6415C46000C8046494276425B426418334398448C428941AB459B4149425B42E5
:4036800019430D1C009B4544EE187602E50D2E43B346049B56021E43731E9E415B46D20D324366021643DB010AD50123334076081E435B46DB071E435B465B089B46574672
:4036C000634BFB18002B5ADD720709D00F223240042A05D0321DB242B6417642B344161C5A46D20106D55A465A4B1A4080239346DB00FB18584A934234DD0124029B0025CE
:403700001C400026554B7DE680205B460003034208D0054206D105432D032D0B4C46161C4E4B6FE65D4605432D032D0B4B4B69E6504600F00FF9031C2033272B00DCA6E631
:403740005546083885400022ACE6281C00F002F9021C2032272A00DC75E6083885400026AB467DE65A46F608520716435A4601245502029A5B052D0B5B0D144042E6384D46
:40378000ED1B382D0ADD0124029B00251C400026002337E6019B5746029391E71F2D25DC304B321C9C466744BE405B46BB40371CEA407E1EB74113433B431E1C5B46EB409E
:4037C0001D1C730709D00F233340042B05D0331DB342B6417642AD191E1C2B0220D50124029B00251C40002601230BE65A461E4BDB1BDA40131C202D1CD01C4A94465A469F
:403800006744BA40171C3E43721E96411E4307230025334007D00F2300253340042BD6D16B076D022D0B0124F6081E43029B1C400023E7E50027E6E780255B4601242D031A
:403840001D43019B2D0323401C1C2D0B034BD9E5FF030000FFFFFFFEFE070000FF07000002FCFFFF1E040000E2FBFFFF3E0400000B0330B5134C1A0B4B00051C5B0DC90FD7
:403880000020A34210DD104883420EDC80200F4C40030243E41A1F2C0ADD0D48C31ADA40131C48424340581830BD0A4BC818FBE7281CE040084CA44663449A40131C0343C8
:4038C000EFE7C046FE0300001D0400003304000013040000FFFFFF7FEDFBFFFF38B5041E16D0C50F00D04442201C00F033F8174B1B1A0A2821DC021C211C153291400A1C45
:403900000B21081AC4405B052403240B5B0D03E000250023002400220021101C24030A0D1205240B14430A4A1B0514401C436400ED0764082C43211C38BD0B3884405B058B
:403940002403240B5B0D0022E6E7C0461E040000FFFF0F801C2101231B04984201D3000C10391B0A984201D3000A08391B09984201D30009043902A2105C40187047C04607
:4039800004030202010101010000000000000000014B18687047C0460C0500200E4B70B500251E1C0D4CE41AA410A54204D0AB00F35898470135F8E714F096F8084B0025A7
:4039C0001E1C084CE41AA410A54204D0AB00F35898470135F8E770BDF47A0100F47A0100F47A0100FC7A010008B5034B011C186800F074F808BDC0460C05002008B5034BE6
:403A0000011C186800F024F808BDC0460C05002030B50024944208D0035D651C0C5DA34201D0181B02E02C1CF4E7002030BD002310B5934203D0CC5CC4540133F9E710BD34
:403A4000031C8218934202D019700133FAE7704730B500293ED004390B68002B00DAC9181D4A1368141C002B02D14B60116031E099420DD208680A189A4203D11368C31850
:403A80000B6053684B60216024E08A4203D8131C5A68002AF9D11D685C198C420BD10968691858181960904214D110685268091819605A600EE08C4202D90C23036009E056
:403AC00008680C18944203D114685268001908604A60596030BDC046FC140020032370B5CC1C9C430834051C0C2C01D20C2405E0002C03DA0C2300202B6042E08C42F9D31D
:403B0000204A1368101C191C002913D00A68121B0DD40B2A02D90A608B181FE08B4202D15A6802601BE04A685A600B1C17E00B1C4968E9E7144E3368002B03D1281C00F076
:403B4000ABF83060281C211C00F0A6F8031C421CD0D00322C61C964386420AD11C60181C07210B301A1D8843821A0AD05142995007E0311A281C00F08FF8431CBAD0331C37
:403B8000ECE770BDFC140020F81400200FB40B4B13B51C68002C05D0A369002B02D1201C00F090FA05AB201CA168049A019300F09BFB16BC08BC04B01847C0460C050020F6
:403BC00070B5051C0E1C002804D08369002B01D100F078FAAC68A3891B0702D52369002B19D1281C211C00F001F9002813D00120404245E03178002B1BDAA269934211DA62
:403C0000221C281C00F09AF8013042424241D0B20028ECD10136A3683278013BA360002AE8D10CE023681970236819780A2903D1E6E723681970236801332360EAE7002B91
:403C400017DAA269934208DB0A2322681370236819780A2911D1281C01E0281C0A21221C00F06CF8013042424241D0B2002806D0BDE70A23226813702368013323600A20FD
:403C800070BD000008B5034B011C1868FFF798FF08BDC0460C05002038B50023064C051C081C2360FDF786FF431C03D12368002B00D02B6038BDC046DC2F0020021CC9B200
:403CC0001378002B03D08B4204D00132F8E7181C002900D1101C704702780B78002A03D0013001319A42F7D0D01A7047002330B59A420DD0013AC45CCD5CAC4202D19342FB
:403D000002D1251C631B03E00133002CF3D1F8E7181C30BD031C30B5002A07D00C7801335D1E013A2C700131002CF5D19A18934203D0002119700133F9E730BD70B5051C6C
:403D40000E1C141C002804D08369002B01D100F0B9F9234B9C4201D16C6808E0214B9C4201D1AC6803E0204B9C4200D1EC68A369A360A3891B070AD52369002B07D02368B2
:403D80002269F6B2981A636998420FDB08E0281C211C00F02BF80028F1D0012040421DE0281C211C00F020F90028F6D1A3680130013BA36023685A1C22601E7063699842DE
:403DC00005D0A389301CDB0708D50A2E06D1281C211C00F009F90028DFD1301C70BDC046547A0100747A0100947A0100354B70B51D68061C0C1C002D05D0AB69002B02D189
:403E0000281C00F05FF9304B9C4201D16C6808E02E4B9C4201D1AC6803E02D4B9C4200D1EC68A3899AB2110723D4D10607D409220120326037321343A381404240E053077E
:403E400013D5616B002908D0231C4433994202D0301CFFF7FDFD002363632422A3899343A38100236360236923600822A3891343A3812369002B0BD1A023A2899B00134065
:403E800080229200934203D0301C211C00F0ACF90123A289134005D00023A36063695B42A36103E0910700D46369A36000202369834205D1130603D540231A43A28101388C
:403EC00070BDC0460C050020547A0100747A0100947A0100F7B58A89051C0C1C13075ED44B68002B02DC0B6C002B1ADDE76A002F17D000232E682B6080235B011A4001D013
:403F0000626D15E0281C216A0123B847021C431C0ED12B68002B0BD01D2B01D0162B02D12E6000205EE04021A3890B43A38159E0A3895B0706D56368D21A636B002B01D09B
:403F4000236CD21A0023281C216AE76AB847A389421C06D12A68002A03D01D2A01D0162A19D10022626022692260DB0405D5431C02D12B68002B00D16065616B2E6000299F
:403F8000CFD0231C4433994202D0281CFFF760FD0020606326E040221343A38122E00F69002FBED00B680F60DB1B01930023920700D14B69A360019B002BB2DD281C216A97
:403FC0003A1C019BA66AB047002806DC40220120A38940421343A38104E0019B3F181B1A0193E8E7FEBD000038B50B69051C0C1C002B01D100201CE0002804D08369002B13
:4040000001D100F05FF80B4B9C4201D16C6808E0094B9C4201D1AC6803E0084B9C4200D1EC680C22A35E002BE4D0281C211CFFF751FF38BD547A0100747A0100947A0100BD
:4040400008B5024900F0AEF808BDC046E93F0000002310B5041C03604360836081814366C281036143618361191C08225C30FFF7E7FC054B24626362044BA362044BE3629D
:40408000044B236310BDC046154800003D48000075480000A148000070B568254B1E5D430E1C291C7431FFF719FD041E08D000212A1C016046600C30A0606832FFF7C0FC05
:4040C000201C70BD836913B5002B28D18364C3640365134B134A1B6882620193984201D101238361041C00F01FF86060201C00F01BF8A060201C00F017F80421E0600022B7
:404100006068FFF7A5FFA06809210122FFF7A0FFE06812210222FFF79BFF0123A36113BD507A010041400000F8B51D4B061C1D68AB69002B02D1281CFFF7C4FF4835AC6864
:404140006B68013B05D40C22A75E002F10D06834F7E72B68002B06D1301C0421FFF79CFF2860002801D02D68E9E70C23336016E00123201C5B42E3810233A3816766276058
:40418000A760676027616761A7615C30391C0822FFF756FC201C6763A763A764E764F8BD507A0100F7B5041C071C002601914834002C16D06368A5680093009B013B009396
:4041C0000DD4AB89012B08D90E22AB5E013304D0381C291C019B984706436835EDE72468E6E7301CFEBD0000F0B58B8991B09B0706D50B1C47330B600B6101234B6145E04A
:404200000C1C0E23C95E061C002904DA8023A5891D4010D10CE001AA00F06EFB0028F5DBF023029D1B021D40194BED186B425D418027FF0001E000254027301C391CFFF754
:404240004DFC00280CD1A3899A051FD402221343A381231C4733236023610123636115E080220C4BB362A38920601343A38120616761002D0AD00E23E15E301C00F04EFB7E
:40428000002803D00122A3891343A38111B0F0BD00E0FFFF41400000936810B5013B9360002B05DA9469A34208DBCBB20A2B05D01368581C10601970C8B201E0FFF73EFDB4
:4042C00010BDF8B5061C0F1C141CD518AC4208D02178301C3A1CFFF7DFFF0134431CF5D100E00020F8BD0000F0B59FB0061C0F1C02920593002804D08369002B01D1FFF7AE
:40430000E1FE794B9F4201D1776808E0774B9F4201D1B76803E0764B9F4200D1F768BB891B070AD53B69002B07D0002306AD6B6120336B761033AB763DE0301C391CFFF73E
:4043400055FD0028F1D001204042CAE0059A111D12680591002A7EDB0992013423782E2B00D189E021786348032200F0FDFA002808D0604B0134C01A40238340181C2B6860
:40438000184328602178631C5B4806220293297600F0EAFA002800D191E0584B002B00D084E00722059B07339343083305936B69039A9B186B61029C2378002B04D1029B51
:4043C000E31A049311D003E0252BF8D00134F3E7049B301C391C029AFFF773FF431C7BD06A69049B944663446B612378002B73D00122002352426A6002A954325218013414
:404400002B60EB60AB601370AB6521783C48052200F0AAFA002809D0394B0134C01A01238340181C2B6818432860EEE72B68DA0604D55322202102A8121811701A0704D5E5
:4044400053222B2102A81218117022782A2A00D17CE7099B05E05242EA60022213432B607BE72278303A092A04D80A214B4301349B18F6E7099371E763782A2B09D1059B07
:4044800002341A1D1B680592002B0DDA01235B420AE0002301342278303A092A04D80A214B4301349B18F6E707935BE705AB0093301C291C3A1C134B00E000BF07E005AB35
:4044C0000093301C291C3A1C0E4B00F08BF80390039B013300D06AE7BB895B0600D532E70B981FB0F0BDC046547A0100747A0100947A0100BA7A0100BE7A010000000000FD
:40450000B47A0100C3420000F7B5171C01930A698B6800900C1C934200DA131C221C3B6043321278002A01D001333B6023689B0602D53B6802333B60062523681D401ED0BF
:40454000231C43331B785A1E9341226892061CD53020E1184031C870211C5A1C45310978A21840320233D1700FE0221C0123009801991932089EB047431C0ED00135E3682D
:404580003A689B1A9D42F0DBDAE7221C009801994332089DA847431C02D10120404220E006232068E1683A6803400025042B03D18D1AEB43DB171D40A3682269934201DD77
:4045C0009B1AED180027AF420ADA221C0123009801991A32089EB047431CDED00137F2E70020FEBDF0B58BB006920A1C43320793059004920A7E0C1C109B6E2A00D1A8E06B
:4046000011D8632A22D009D8002A00D1B2E0582A00D0C2E045310A707C4A4FE0642A1DD0692A1BD0B9E0732A00D1A7E009D86F2A29D0702A00D0B0E0202209680A43226055
:4046400037E0752A1FD0782A33D0A6E00E1C1A684236111D196013683370A1E021681A68080606D4490604D5111D19600023D55E02E0111D19601568002D3BDA2D23049AB2
:404680006D42137036E021681A68080606D4490604D51568111D1960ADB202E0111D196015685A4B227E03930A276F2A1DD108271BE0221C782145321170554A19680392CD
:4046C000081D226818600D68100602D4500600D5ADB2D30702D520231A4322601027002D03D1202322689A432260231C002243331A7002E00A27454B03936368A360002BDE
:4047000003DB0422216891432160002D02D1049E002B0ED0049E281C391CFEF713FD039B013E5B5C281C3370391CFEF785FC051EF1D1082F09D12368DB0706D563682269D2
:40474000934202DC3023013E3370049B9B1B23612BE009681A68080607D4490605D5111D19601368A28A1A8004E0111D1960136862691A600023049E236116E01A68111D46
:40478000196016680021301C626800F0EDF8002801D0801B6060636803E0261C42363270012323610023049A1370079B05980093211C069B09AAFFF7A7FE431C02D101205B
:4047C000404221E0236905980699321C079DA847431CF4D023689B0705D4099BE068984212DA181C10E00025E368099A9B1A9D42F3DA221C0123059806991932079EB04795
:40480000431CDCD00135EFE70BB0F0BDC57A0100D67A010038B50C1C0E25495F00F0B0F8002803DB636D1B18636503E0A289024B1340A38138BDC046FFEFFFFFF8B51E1C6F
:404840008B89051C0C1C171CDB0505D50E23C95E0022022300F074F8A289054B281C1340A3813A1C0E23E15E331C00F01FF8F8BDFFEFFFFF38B50C1C0E25495F00F060F8C8
:40488000A389421C03D1054A1340A38104E0802252011343A381606538BDC046FFEFFFFF08B50E23C95E00F015F808BD38B5051C0020074C2060081C111C1A1CFCF7F4FE91
:4048C000431C03D12368002B00D02B6038BDC046DC2F002038B50023064C051C081C236000F062F8431C03D12368002B00D02B6038BDC046DC2F002038B50023064C051CED
:40490000081C111C236000F057F8431C03D12368002B00D02B6038BDDC2F002038B50023064C051C081C236000F04EF8431C03D12368002B00D02B6038BDC046DC2F002036
:4049400038B5051C0020074C2060081C111C1A1C00F042F8431C03D12368002B00D02B6038BDC046DC2F0020C9B28218904204D003788B4202D00130F8E70020704700005F
:4049800038B5051C0020074C2060081C111C1A1C00F02AF8431C03D12368002B00D02B6038BDC046DC2F002058220120014B40421A607047DC2F002058220120014B4042C5
:4049C0001A607047DC2F00205822024B00201A607047C046DC2F002058220120014B40421A607047DC2F002058220120014B40421A607047DC2F002010B501F092FC10BD77
:404A000010B501F0A4FC10BD10B501F0A8FC10BD10B500F067F910BD10B50749044609780220002907D1204601F0DFFC002802D120460BF073FA10BD84030020FFB585B0EF
:404A4000002568460E9F057339481C460078002802D0082009B0F0BD10990F9801900097029105A807C800F067F80028F2D10120694603AA0D73002C1BD0002113E08B00E7
:404A8000E55A082D09D91E19B678002E05D0083DE55213785B1C137003E0042901D2012003E0491CC9B2B942E9D31178042900D300200028CED110990F9800F0D7FF00280B
:404AC00001D00120C6E701F042FC1A480599016021888180A188C180A27A0272A17B4172A089012540084843A0810220A073208950432081A5726846037B224607990698D6
:404B000000F0A2F80028A5D16846094C007B607001F036FC00289DD1064808F051F9002898D108F06DF9002894D1257092E700006C020020E4050020FFB53A4F1C460346AD
:404B40003F780020364A0A9E0B9D002F12D100290FD0029991420CD3002B0AD0002C08D00999042905D3002E03D0FF216E318D4202D2012004B0F0BD00210A460D463FE0AF
:404B80008B001E19B678002E36D0E35A002B33D073435B199DB20B0000F048F806040E15191D253F2388FF27A678233BEB37BB42DFD2032EDDD31FE0A3880C2BD9D91A4E72
:404BC000B342D6D818E02389302BD2D114E0A389482BCED110E0228A134E1346233B223EB342C6D208E0A38A0F4F1E46233E223FBE42BED29342BCD80028BBD1491CC9B277
:404C0000099B9942BCD319461C2251434A190449521802998A42ACD8ACE70020EEE70000D80800006C020020DCFF000030B47446641E2578641CAB4200D21D46635D5B00E5
:404C4000E31830BC18470000FFB50F4606460024384381B01D46800701D0012438E0FEF7F1F8FEF7DFF800F097FA00282ED100F0D3FB00282AD11849084600F02BFF0004D1
:404C8000000C23D13000154E04D03060B7800020F0803581AD1DEFB23946039800F046F804000ED1B088F2880837801AF9B280B201F000FA002801D0012407E0E8B200F008
:404CC00019F900F031F906490120087000F076FA204605B0F0BD0000194E0000F00500206E02002010B503480078012801D101F083F810BD6E02002070B5084B0446DA88FC
:404D00009E8800205518B54206D81D68AA182260DA885118D98070BD032070BDF00500200148008970470000F0050020F0B587B007460D4600208900009006916846FFF7DE
:404D4000DBFF844600285DD1304800990160002117E02E4B88001A680629115406D22C4C0419667882185670628805E0C419203CA67A8218567022891B68C018491C428038
:404D8000C9B2A942E5D300242DE0601CC2B2059025E01E4FA30039689600581840887118039604904E88B04217D938466F46FE80B6464F786E4677710297049F4F800168A9
:404DC000039F5E18767879184E700168764659184E800068029F18184770521CD2B2AA42D7D30598C4B2AC42CFD36046002809D168460699FFF780FF8446002802D1054962
:404E000000980860604607B0F0BD000070020020207B0100740200207047000010B5002809D005494A68002A05D0011F08788000105801F0EDF810BD7002002010B504465C
:404E4000FFF76EFFC0B2801DA0420CD307484068002808D0A100405801F04CF8002801D00470001D10BD002010BD000070020020F8B516460D460446FFF752FFC0B2801DC8
:404E8000A04203D20020C0430090F8BDB2B2E9B2684601F055F80099481C03D0024AA000526811500098F8BD70020020F8B50746FFF736FF801DC6B20A49002005460C68C6
:404EC0000DE06178002907D06188B94202D32078FFF7B4FF002804D1241D6D1CEDB2B542EFD3F8BD7002002010B5002801D0FFF795FF10BD70B506460948002504680BE039
:404F00006178002905D062882078121D0023FFF7AFFF241D6D1CEDB2B542F1D370BD000070020020002070471CB5002469460C70142001902346054A05480FF0F7F9044843
:404F40000068401C00D1FF2420461CBDA54F0000780200203EB5124A0146FF2000230124126800290DD0012914D0042908D104206946009308814B8110460FF0D2F980B20E
:404F80003EBD6846009304814381694610460FF0C3F9F4E768460093048143816946EBE77802002070B545890468416800890300FFF73CFE06240408081D2124002006F0B2
:404FC0003BFD1BE0022908D0C8B22A4621460DF09BFA2046FFF788FF10E002202A4621460DF092FA2946204600F00AF806E000200EF090FE02E020460FF038FA002070BD24
:40500000014B0022DB6818477C02002070B5448905680089022803D0032809D0FF2070BD2246094C0023A46829460120A04708E0FFF7E6FC241DA2B200232946022007F02A
:40504000A2FD002070BD00007C020020704700000248002141600180418070477C02002070B50C46002186B016460391012802D0022859D116E003A9012007F0DCFD012883
:405080001BD1039D324621462846FEF7D0FC0095287801900220694608814E816846FFF7B5FF41E0214D002B686809D0049004A9022007F0C0FD01281DD0022006B070BD7A
:4050C000002812D0298840182146FEF7B0FC28880024801980B228806988091D884206D12C801348FFF792FF03E00320E6E788421AD96C6018E004986860E278A3781102C8
:4051000019430B4A698000231060E3565360032313815181A1788170E178C1706178417021780170042028800020C7E77C020020FC0500203EB515460C46022803D0042880
:405140000CD000203EBD0091019002206946088107484A8100680FF0E4F807E00DF0D4F9044B0022DB6829462046984701203EBD780200207C020020014AD16090607047CF
:405180007C020020034801688068081A0A214843000970470806002010B5FDF747FE542204490548FEF743FC03490120C870002010BD00003C7B0100E808002010B5FDF79A
:4051C0002DFE10BD70B5134C2368002B08D0207B1149C20705D04008400020738868A08070BD88680B4AA18880B29268814203D90A4D691A091802E0814202D2411A511849
:40520000A160A080A0689842EAD300F015F80FF0A5F870BD08060020C0102E40FFFF000010B508461946FFF7A7FF10BD704710B5FFF780FF10BD0000034800210160416077
:405240008160C160704700000806002010B502000DD0FFF7F1FF074C0321207B0843207310010A21FDF76EFF2060002010BDFF2010BD00000806002000B504480A21806895
:4052800048430209FFF7D8FF104600BD080600200248007B8007C00F704700000806002010B537490868002802DA364B01221A70022290430860344800693149C00B403169
:4052C000096A08425AD0012000F074FA2E482F497C30FDF739FD2A480E216C30FDF734FD294820218430FDF72FFD274814219C30FDF72AFD2448FF21C131A430FDF724FDAA
:405300002148FF212F31B030FDF71EFD1E482049BC30FDF719FD1C481E49AC30FDF714FD1C491948491CB430FDF70EFD16481A49B830FDF709FD14481849CC30FDF704FDC5
:40534000114817490830FDF7FFFC0F481549A830FDF7FAFC0C4814498830FDF7F5FC0A4812498C30FDF7F0FC07481921C9029030FDF7EAFCFDF7EAFC002010BDFF2010BD9E
:4053800000F02E408C02002000002E4055650000320300002F3F00003102000010520000EC160000FA12000031D000003AE3000070B50646581C80B245086D00002408E078
:4053C000304600F07FF81055000A1119A41C4870A4B2AC42F4D3D80705D0D0182038D15CC47FD454C17770BD30B50A4C002100195B1E07E0541864782502545C2C430480DC
:40540000891C89B29942F5DB994201D1515C018030BD000000102E4010B5FF2000F0CAF90F49FF2048700E481021801D41800121417001700A490020C91C4870FFF730FF77
:4054400004000AD100F0DEF807210648FDF77AFC044807211830FDF775FC204610BD00008C020020CC112E4030B504465B1C1804450C002308E0204600F024F8241D590030
:405480005B1CA4B250529BB2AB42F4D330BD000070B500210A4D5B1E0AE0541864782602545C344346193480001D891C80B289B29942F2DB994202D1515C4019018070BDAC
:4054C00000102E40014940180088704700102E40014A80180180704700102E4010B50B490020487000F08EF8002000F089F9002000F076F907210648FDF724FC04480721C0
:405500001830FDF71FFC002010BD00008F020020CC112E4010B506480078012803D102210448FDF711FC02490020C91E087010BD8F02002070F02E4010B50B46062812D0F7
:4055400006DC01280CD0032801D1FFF7C7FF10BD0A28FCD00B28FAD105480078107010BDFFF75AFF10BD1146184600F065F910BD92020020F8B5204DAC6A0127A0071F4EA4
:40558000002816DA307806280ED1286A384328621B480069F903084381B219481030FDF7D3FB042000F006F9134802212830FDF7C9FBE00711D0062000F0FCF80F49FF20F4
:4055C000C91E48707078002802D1686B38436863094801212830FDF7B5FBE0050BD53078042802D1052000F0E5F80348FF2101312830FDF7A7FBF8BD40F02E408F020020B4
:4056000000002E4010B503212348FDF79DFB0120FDF700FC20483038406A204C80076178800F890001431C480C38FDF78DFB6078002808D0401E022181401820FDF772FE8F
:40564000C000083800E0B82081B21548FDF77CFB1348032109021438FDF776FB10481149B830FDF771FB612189010F48FDF76CFB0D480321001FFDF767FB0C490C48FDF7F9
:4056800063FB0B480B496038FDF75EFB084801218838FDF759FB10BD70F02E4092020020D8102E4090890000041E2E40FF0F000058122E4020900000044800684007400F58
:4056C000022801D0002070470120704700010B4000B5FFF7F1FF002805D009480168C908C900016000BD0748016A490849000162054801690122D2039143016100BD000051
:4057000000010B4040F02E4000002E400849087806280BD148780749002803D1486B400840004863C86A01221043C862704700008F02002040F02E400148007870470000F4
:405740008F02002002484078022800D0012070478C02002000B50300FFF768FA080D050D0B070507090D012000BD032000BD042000BD022000BDFF2000BD0000074A9168E7
:40578000D26889B2064B92B2994204D105498A4201D1012100E000210170704780002E4033D000003FE3000001494870704700008F02002010B50446FDF734FB072C01D93C
:4057C000FF2C01D102480470FDF728FB10BD00008F02002001494870704700008C02002010B5064A012805D01921C9021046FDF7ABFA10BD1D21C902F8E7000090002E4038
:4058000010B50A4A141D012808D009491046FDF79BFA08492046FDF797FA10BD04491046891CFDF791FA0349491DF3E788002E4031D000003AE300000078074AFF2803D0B9
:405840004C2804D9553803E01078087070474F3808701070704700008E020020F0B50122002830D000292ED00224420600D003246D2342065B06D21800D0641C0346002270
:405880001EE00C2516466E43104D00277519AF720E4F002ABB51696007D0661EB24209D106466D367606760E05E05E06760E8027BE1B00E080269B198919521C2E81D2B23B
:4058C000A242DED300221046F0BD000088070020F8B507460020002F03D100F053FE002827D1154E002421460C2251438D19AA7A012A0DD12A8971586868FDF7E1F90028FC
:4059000000D028200021A972002F05D0282803D0641CE4B2042CE6D3641CE1B207E00C224A439219927A012A04D0491CC9B20429F5D3F8BD2820F8BD8807002007490020DC
:405940000C2242435218927A012A05D0401CC0B20428F5D3002070470120704788070020F8B5044616460F000BD0184D6868A04203D9FF306E30A04203D3FF206E308642A4
:4059800001D90120F8BD2046FEF742F800281BD0324639462046FEF74AF8F0B200210C224A43521913895668F718A74208D90127A41B1B1B9772834206DAC01A1469C0B24B
:4059C000491CC9B20429EAD30020F8BD8807002010B500F05BF80648FF22C1686E320C460448FEF724F803492046FFF737FF10BD9802002018060020002070470020054A81
:405A0000002902D0012902D002E0506000E09060002070479802002070B5084C154608460549A26889182A46FEF701F8A0684019A06028B270BD00001806002098020020A3
:405A40003EB50A226946FFF7E7FF044606480A2200686946FDF7DCFF002802D00020C0433EBD20463EBD000098020020002803D0FF226E32914201D2FF20704702490A61B1
:405A8000C860002070470000980200200248002141608160704700009802002070B5074C15460548626880182A46FFF759FF60684019606028B270BD1806002098020020AF
:405AC00010B503490A220968FFF7E8FF10BD00009802002010B50F4A002313600E4A13600E4B18600E4801600E49012008600E490860000290600E490C4808600D4914304F
:405B00000860FF381538506000F0BCF800F0CAF9002010BDC4020020AC020020D8020020DC020020C8020020B8020020B8080020BC020020D0020020014610B50020002910
:405B400010D0094B1A689C685118A14209D25868196080188A0704D08A07920F891A091D196010BD002010BDAC020020F8B50024164E671E321F3D463168136806E0142254
:405B8000624310328A58521C1BD0641C9C42F6D36A1C14D02C461422544322460C3288500C214843FFF7C8FF3168002808510AD031680020103408517068401C7060284644
:405BC000F8BD2546E4E73846F8BD0000BC020020F3B50026F64381B000281BDB1E490968884217D80299002914D01B4F142204463F1D54432546396810354859401C09D016
:405C0000FDF710F938682F1F4159C359994203DBFDF704F93046FEBD214608310091465801590C20704308180C220299FDF7FFFE0948761C001D0068C159B14200D100269A
:405C40000549009A091D865008684159491C4151FDF7E4F80020FEBDB8020020002803DB07490968884202D90020C043704704491422091D09685043103008587047000070
:405C8000B8020020F0B500200D4A451E0346171F50600FE014260146714314680E1DA3510C461668083433511668083435511468401C635039688842ECD30020F0BD00004B
:405CC000BC020020F3B50026F64381B0002841DB2349096888423DD8029900293AD0204F142204463F1D54432546396810354859401C2FD0FDF796F83868415900292BD0B1
:405D0000211D009146580C21005971430F46C1190C220298FDF78BFE11480021001D0068761C00590C34C0190160416081600C48001D00680159B14200D100260849009A5A
:405D4000091D865008684159491E4151FDF766F80020FEBD3046FEBDFDF760F8FAE70000B8020020FEB504460D4600201E49089E0860471E009001900290002C11D0486805
:405D800085420ED2002A0CD0002E0AD0642E08D808460C3001681C2068430C18207A002801D03846FEBD0120226020721846FFF7DDFE6060401C13D06681A6810A482761A7
:405DC0000C3067610179A94200D205710021684601810A462846029B00F040F82846FEBD00202072DDE70000C402002038B50124009400F039F838BDFEB50027164EFF435D
:405E00003D4600240EE01C20316860430818017A002906D04068FFF721FF002801D0254603E0641C3079A042EDDA681C12D01C2130684D434419FCF7F5FF69466068FFF768
:405E400041FF0546FCF7EAFF002DD9D1216868468847D5E7FEBD0000D002002038B50024009400F001F838BD1FB500220C49541E0A60002811DB496888420ED808491C22C7
:405E80000C31096850430818406801A9FFF7A0FE401C02D0002004B010BD2046FBE70000C4020020F0B50021114A4D1E174611710C3F0B46BD6016E008461C2460431668D5
:405EC000041D355114680646235014680836A3551468361DA353044616680A34335318301468491C255078688142E5D30020F0BDD002002038B500210091002811DB0F49FA
:405F0000097888420DDA0D4D04010C3529680859002807D0201D0818694600F071F9002801D0002038BDFCF77DFF28680F34015D491E0155FCF772FF009838BDE0020020DA
:405F4000F7B582B0002502986E1E06602E48D21C024017462D4A2C4610460C380178106805E02301C358002B0FD0641CE4B28C42F7D3711C28D03401211D401801910399C1
:405F800000F02CF900281FD101E02646F1E71F48016820460C300F521C480399026820460E30115419480399026820460F3011540398784300F0A0F81449002809680851AB
:405FC00002D00024009011E001251AE00F48016801980818009900F02EF9002801D0012502E00098C0190090641CE4B203988442ECD3002D05D10298066004480179491C7B
:406000000171284605B0F0BDFCFF0000EC020020F8B50D4600216A468C461180002839DB23490978884235DA214B04010C3319680A59002A2ED020460C300B5A801C0E5C16
:40604000184670438018954224D3854222D2002006E007465F43BF18AF4206D0401CC0B2B042F6D36046002814D0114E271DC8190C366A46294600F008F900280AD1684699
:406080000088012808D030682946C01900F0D3F8002803D00120F8BD0020F8BDFCF7C2FE30680F34015D491C0155FCF7B7FEF3E7E0020020F8B50F46002400F033F8002882
:4060C00017D10C4900220B460C334A600EE021011D680E466A501D680C36AA53B61C1D680F31AA551D68641C6A54E4B2BC42EED31A71F8BDE0020020014610B5002000295B
:406100000CD0C91C064B8A08596892005C888A18A24202D898685A60401810BD002010BDE0020020F8B5064600200F4D009029700C0121466846FEF7DFFD00280CD1294651
:406140000C3100980860301B001F84B221466846FEF7D2FD002801D0FF20F8BD6C800098A8600020F8BD0000E0020020F8B5002827DB19490978884223DA174C05010C340F
:406180002168485900281CD028460C30085A009028460E300E5C401C0E5420682F1DC01900F064F800280CD12068002445590EE0094829460C300068C01900F03CF8002872
:4061C00001D00120F8BD00982D18641CE4B2B442EED30020F8BD0000E002002030B50D4604000BD0A800FFF787FF6060002805D000202570C0436080002030BD012030BDCC
:4062000070B50D46040005D0002D03D00220205E002801DA012070BDFCF704FE0221615E60688900405828606088401E6080FCF7F5FD002070BD70B50D46040007D0002DFC
:4062400005D002212078615E401E814201DB012070BDFCF7E7FD6088401C00B26080616880000D50FCF7DAFD002070BD10B5040009D0227800216068FDF7E2FB0020C04301
:406280006080002010BD012010BDF0B500231D46002802D00224045F0AE00120F0BD46689F00F6598E4201D1012503E05B1CDBB29C42F4DA15700020F0BD000001480078B3
:4062C00070470000F40200207CB505460024FEF797FBA8796946087000A8062229460130FDF7A5FB0021684605F004FE0C2804D0072804D01F2804D004E0022402E004245E
:4063000000E0272420467CBD10B50024FEF778FB0021084605F0F2FD0C2800D10224204610BD10B502280BD0032802D0042809D102E000F087F905E000F056FAFF2801D154
:4063400000F066FAFFF7F8F9FFF704FA10BD10B500F08EFAFFF7F0F9FFF7FCF910BD70B504460025FEF74CFB002C06D0A079012803D8214603F017F900E00125284670BD57
:4063800010B503240EF03CFC002810D10EF0E0FB00280CD106F09EFC002808D100F060FC002804D106F054F8002800D10024204610BD7CB505460024FEF722FBA8796946E6
:4063C000087000A8062229460130FDF730FB0021684605F09FFD0C2802D01F2802D002E0022400E0072420467CBD70B50025044600280ED0A07901280BD8FEF701FBA0799C
:406400000028204602D003F085FD03E003F03AFD00E00125284670BD70B592B00E4605460024FEF7EDFA03F0D3F900280AD000F0CEFD002806D0002D0ED0EA7F1F2A03D9C0
:40644000012409E002242EE000A829460130FDF7EEFAE87F69460870002E0FD0002C22D1F27F1F2A01D901241DE008A831460130FDF7DDFAF07F08A9087001E0002C12D19B
:406480000020002D04D010A9684600F0D9FD0120002E04D010A908A800F05AFE01E0002801D000F053FD204612B070BD10B5FFF743F9012801D1FFF745F910BD1CB5FF2068
:4064C0006946087100200870FEF79AFA6A4601A90620FFF731F86946002008561CBD38B504460120002C20D0617801291DD800290BD0FF25E535FEF783FA2846FEF7E2FF4A
:40650000C0B22070072803D00EE0FF25CD35F2E70020694608706846FFF730F969460878012801D108202070002038BD70B504460120002C1FD06178012902D92278092A09
:4065400019D8002905D0FF25E5352078092803D004E0FF25CD35F8E708202070FEF750FA2078082808D00020FFF74AF921782846FEF7AEFF002070BD0120FFF741F907210A
:40658000F5E7000010B50B480024807B00280ED0FFF7D2F8062801D0032800D12824054820300079022801D0012800D12824204610BD00003C09002070B50D46040001D07F
:4065C000002000E00548002802D0012102F098FD2946204603F078F970BD00005C09002038B5054600200446009022466946284601F08EF80098002801D00EF0E3FAA87806
:40660000214602F0C0FEA878214602F0AFFE641CE4B2052CE9D338BD064A02235188891C89B25180814201D8102900D95380508870470000F6020020014840787047000046
:40664000F6020020F8B5624CFFF776F8012846D160480078002842D003F0BAF80028FAD005F052F90028F6D05B4E7078C00703D000F0B3FC0128EED0B07E0028E7D170783D
:406680000025002878D0000707D5AC20FEF71AFF070B00F061F9384321D14F484178684604F0E2FF4D4F06462079B9784018C1B2B14271D803F08CF8002810D0464C2034CE
:4066C00002F053FE6846008802F08BFE02F066FF43490988884203D10120FFF76BF874E04049012008703C48807B00282BD04034608A002827D0E07E002824D1A120000148
:40670000FEF7E0FE208A4000B04218D97878002815D1A12424012046FEF7D4FE0221884301462046FEF7D4FEFF24F1342046FEF7C9FE0321090201432046FEF7C9FE387893
:40674000002800D03D7002F0AFFE0120FFF72CF8244C08E0FCF7D2F8FEF7EEFF06282CD02078002829D0FEF7E7FF062825D020780128EFD021E0FFE703F02AF8002824D02A
:40678000142002F02EFE174C0120207002F08CFE0020FFF709F809E015E0FCF7AFF8FEF7CBFF062809D02078002806D0FEF7C4FF062802D020780128EFD0207801288BD1B7
:4067C000FEF786FF25700020F8BDFF20F8BD0000280900208C0200203C090020FE02002010030020F602002010B50848FF244078002809D102F0ECFF012805D1FEF78AFEC7
:406800000720FEF7D7FF0024204610BD3C09002038B5FEF791FF012801D0002038BD02F0D7FF00280AD0114C6078C00703D000F0D4FB012802D0A07E002801D0FF2038BDAB
:40684000617800290FD0684604F00EFF022806D96846008802F0C5FD012002F02BFE0320FEF7A8FFD9E70020F7E700003C09002038B5FEF761FF042819D0052817D00628DE
:406880001AD0032842D007280AD100206946087002460120FEF750FEFEF74EFF0128FBD138BDFCF72BF8FEF747FF0128F8D0FEF743FF0128F5D138BD02F01AFE05E0FCF749
:4068C0001DF8FEF739FF012803D0FEF735FF0128F5D1A12424012046FEF7F4FD01220E4983079B0F0A70022BE5D149880029E2D0104301462046FEF7EBFD2046FEF7E2FD3E
:40690000410849002046FEF7E3FD38BD02F0F4FD0120FEF74FFF38BDFE020020F8B50646002403F05DFC0546304603F071FC00210346012632468A40174610462F40184062
:40694000002F03D0002801D1224394B2491CC9B20529EFD32046F8BD70B500252C460A4E03E0002C01D0002000E030460079002803D02046FFF7D2FF0543641C2406240E56
:40698000EFD0284670BD00005C0900201CB50020694648706846FFF7A2FD01AA69460A20FEF7CAFD6946042008561CBD10B50C4601F088FB002809D00179002906D0C178D5
:4069C0008078224603F053F8002010BD022010BD0148007870470000280900204030C07E002800D00120704700B500F001F800BD88214843064940186030417F491CC9B270
:406A00004177052901D300214177C8B2704700003C09002013B501F055FB04000BD002F05AF8002807D0214601AA0A310620FEF783FD00201CBD02201CBD000010B50C460F
:406A400001F040FB00280AD002F045F8002806D0224604490A20FEF76FFD002010BD022010BD000011090020F3B581B0074601460026029803F0ACFB0446002F01D000252F
:406A800000E0154D002D21D0284601F051FB032C04D13946029803F0C5FB06463846029902F064FC032C06D0002C10D00121384601F0F2FC03E03146384603F0FDFD284681
:406AC00002F004FB0221284602F01AFBFEBD3846029902F04BFCFEBD5C09002070B50446002504F02DFD002801D00C2070BD2078611C03F0CDF8FF2802D01F25284670BD17
:406B000003F01AF9FF2804D02178621C02F0A0FBF4E70725F2E710B504F012FD002801D00C2010BD03F08CF8002010BD70B50D46044610210DF086FF1021601806460DF04B
:406B400081FF334610221946204604F02DFD102130460DF077FF02202870204605F0C2FB70BD70B504464078217802028006850FE0781143A67809050002090D0643084689
:406B800001F0A0FA002812D0022D10D0032D0ED0002E08D00179092909D0002907D0214600F0C1F870BD0089002105F088FA20460EF008F870BD0020704770B5044600253E
:406BC00004F0BEFC002801D00C2070BD2078611C03F05EF8FF2802D002F08FFF00E01F25284670BD10B505F033FC00F02FF9002010BD000010B5014605220A48FCF717FF83
:406C0000084905220846A038FCF711FF00F0A4FE04488022B038C17B1143C17300F052F910BD0000EC09002010B5044600786178E2780843A17811430843217908436179EE
:406C4000084305D004F066FC002803D00C2010BD122010BD204603F05DF9002010BD000010B5044804F0DAFD02F050FF00F004F8002010BDF8080020F8B5134D00266E70E8
:406C80006E736E716E76AE76EE766E75AE70EE70AE712F46EE730120B03778723F207871FF20B87100F05EFA04F01CFA01F0F4FE0024204601F0C0FE641C2406240EF8D0C0
:406CC0003E72FE71AE73F8BD3C09002070B505460E46084603F084FA0446304603F098FA0121A9400A46224001400A4301D0012070BD002070BD10B50446084603F088FAE9
:406D00000121A140014201D0012010BD002010BD10B5FEF711FD032804D102F0EDFB0120FEF748FD10BD70B5044600790D4609281CD000281AD020464030817E491C8176FC
:406D4000204602F0C3F9A078FFF74EFE064602462946204600F00CF8002806D1A0783146FFF72AFC28460DF02DFF70BD0846FAE7F7B5054648780C468006870FC878897845
:406D8000000282B0014368468180284601F0B8FE060007D021462846049A00F048FC304605B0F0BD384600F045FD0746034601AA2946204600F01AFB68468088231DC0B208
:406DC0000090A878FF22049902F038FD684680883B46C2B2A878049903F06CF9DFE770B5002500242846FFF799FD060010D03046E040C007C00F07D02146284602F0A9FABD
:406E000021462846FFF730FE641CE4B2052CEED36D1C2D062D0EE4D070BD000070B50024094D03E0002C01D0002000E028464121095C012901D100F0BEFB641C2406240E44
:406E4000F0D000F03FF870BD5C09002010B502F05DFEFFF711FF0DF01DFF002010BD0000F8B5002400F0B3F80125012800D1012404F0DAF8012801D102200443104F002001
:406E80003E4620360423082203E0002801D0002100E031460979002907D001290BD002290BD0114681402143CCB2401C0006000EEBD07C70F8BD2C43F7E71C43F5E7000078
:406EC0003C09002070B5144E0024F07BC00921D03546203503E0002C01D0002000E0284601F004FE012814D0641C2406240EF2D0F07B4006400EF073002403E0002C01D03B
:406F0000002000E0284600F056FB641C2406240EF4D0002070BD00003C09002010B5FFF79FFF10BD10B50B4681791943817103D08078114603F066F810BD10B582798A43FF
:406F4000827102D1807803F075F810BD70B5FF25D53502242846FEF7B5FA0C4A9178002901D0022906D1137852789A18282A01D9032402E0032900D101244105490DE00264
:406F800001432846FEF7A4FA70BD0000FA02002010B500F022F8002807D0012805D0032801D0042801D0002010BD012010BD014610B50020C90701D000F009F810BD0146D1
:406FC00010B50020C90701D000F001F810BD10B52020FEF777FA000A10BD10B51820FEF771FA410501D5042010BD4007800F10BD38B5044640060CD5684602F08DFA02205F
:40700000FFF78CFF072002F0AFFE6846007801F01DFC200613D5FFF7E0FF01280FD1684602F07AFA6846007800F005FB072002F09BFE012002F0C6F80220FFF76FFF38BDC5
:4070400010B5034A0178117002F09DFE002010BDFA02002010B50446FFF7B9FF002801D00C2010BDA27B01211848002A827801D00A4301E05208520082706279012A0FD07A
:40708000C17849084900C170207901280CD06188208803F081FE2080207904280BD00DE0C2780A43C270EFE7E01D02F01BFF0848808C208002E0E01D02F014FF054920799F
:4070C0008870204602F06EFE002010BD3C090020E8080020FA02002038B50478FFF777FF844201D10C2038BD002C18D0072069460870FFF74DFF012807D10121684600F063
:4071000091F8012801D0092038BD6846007802F02BFEFFF71BFF02F072FE012014E0FFF737FF012806D1684602F0F6F96846007800F0B4FA072002F017FE02F057FEFFF7FC
:4071400046FF0028FBD10220FFF7E8FE002038BD10B5034A0178517002F02CFF002010BDFA02002038B568460DF0C2FC002801D01F2038BD01210098C902018041800025E2
:4071800005714571857107214173857302F00AFE009C202200212046FCF752FC25702A460021601CFCF74CFC204602F0ECFD204602F000FF00980DF005FD0422002102489C
:4071C000FCF73EFC002038BDFA0200200346084800B5834209D8184600F074FF002804D00089984201D1012000BD002000BD0000FF0E0000074A9179491C8906890E91719B
:4072000038220A4092014907090E114308430249084070473C090020FF0E0000C006C00E70470000F8B507460E4600240D4803E0002C01D0002500E005462979002905D073
