:400000000040002011000000411700004117000008B501F0AFFB0000F8B572B6802500244E4EED003460211C2A1C4D4803F05AF9211C2A1C4B4803F055F9EE224A4B12061A
:400040001A60992302253C20484A1B041360484A48491360484A494F1360494A1360494A1360494A13782B4313700B788343283803430B70162113780B431370D822434BD0
:4000800012041A602023C421414A89021360414A11608021404A89001160404A136048223F4B1A603F4A404B1A6040223F4B1A60C0223F4B52031A6012223E4B1A6002F01B
:4000C000A3F93D4802F064F8012002F0A9F9302002F082F8394A3A4BFA201A608023394ADB053B601368C0001D4315600825364A364B1A603368AB43336002F009F934489F
:4001000002F0FCF88821334A334B89011A60334B334A281C1A60334A1160334A33491A608022334B12061A608022324BD2021A604122314B1A60314B013A1A6002F07EF806
:40014000281C02F09BF88023DB053B6003232C4A13602C4A13602C4B1C60F8BD6CF02E4000300F4000400F40000002400001024000500F4001700F4010500F400C020B4034
:4001800020500F4030500F4000700F400800044000010440080104400C0104401801044000020440000C180008020440000304400803044030001040001BB7000600008040
:4001C00004010B4078002E402D3E00007C002E40DC050000007F2500040301400000014041FF00800003014040FF00800D25000008010B4000010B401C010140040101402D
:400200003000304030003140000E3F4010B5064C2378002B07D1054B002B02D0044800E000BF0123237010BD08050020000000005C64010008B5084B002B03D007480849E3
:4002400000E000BF07480368002B00D108BD064B002BFBD09847F9E7000000005C6401000C050020C80000200000000010B562B601F060FA0B4C012801D1207001E0002376
:40028000237000F0DBF9207800F034FF064B1B78002B03D004F00EF800F086F904F00AF8F1E7C04625050020D600002070B50C1C88B0272860D01FD8212800D10CE10AD8E9
:4002C000022851D020283DD0012800D020E1914803F02AF92DE0232800D107E100D20AE1242800D10EE1252800D011E109788A4803F09EF8002209E1432865D007D82A28D3
:400300005CD02B2827D0282800D001E170E0472800D1D0E006D8442800D0F9E049887F4B198163E04E2800D185E0522800D1A3E0EEE001F019FE7A4B1B681B04DB1783422C
:40034000F7D1E5E003A8031C26CC26C306CC06C301F056F8DCE0734B1A78002A00D1D7E0002271481A70CAE00B78022B00D0CFE001F072FB6D48C2E008226D4802F0A9FF47
:40038000684B6C4C5A78654D002A07D16A4803F0CBF82078291C0DF06FFAB9E09978674803F046F8291C20780FF064F96078237800021843332110F0DBF8A9E05C48082290
:4003C00002F087FF5E489AE05A4A3321507813780002184310F000FC8022618892000B1C914200D9131C4D4A99B2138155487FE01E22554B4B4D1A825B6802321A805A80B1
:400400006B780A78002B04D1111C504803F010F803E0A9784E4803F00BF801F0A5FD01223F4B1B68DB0B1340C0180028F5D13B4BE8709A726CE08B894D680E890E2B0CD199
:400440000024384A5368F3185360B44260D2285D013401F07BFDE4B2F7E70F2B58D12A78304B1A72002A03D001223A485A7246E0002239485A7242E02A4B997A5A780129E9
:4004800009D1012A44D1A2890E2A41D12289D9685218DA603CE0012A3AD1A3890E2B37D100252389AB4233D96368585D013501F04DFDEDB2F5E700244D680E89B44227D2C9
:4004C00028194178C37880782A5D00900434234802F0AEFFE4B2F1E7124B5B78002B17D1144B1F4918780FF083F911E01D48096802F09EFF0CE001220A4B1B481A7403F055
:4005000013F805E0194803F00FF80122054BDA7008B070BD006501001F660100CC00002008022440240500200E6501001A65010056150020862700202565010033650100CF
:40054000476501005B65010084010020676501007F6501009A650100B1650100CA6501004C020020ED650100FE6501001566010038B5012002F06CF80123084C084A6374C9
:40058000636901336361934207D10025657402F051F80448656102F0C7FF38BD24050020112700002B66010038B5032003F076FE041C72B605F06DFB032C25D1FD23184006
:4005C000042827D1002001F0B1FD012501F0CCFC114B1C68E40B2C400419002CF5D101F0CBFC01F0CDFE01F0CBFC052001F070FE01F082FC02F054F802F048F8074B281CCA
:400600009C7201F093FD05E0022C03D1022801D001F0A8FE62B638BD08022440CC00002008B5062001F08EFD062001F0A3FD012001F07CFD012001F091FD08BD08B5062062
:4006400002F018F8012002F009F80F23094A1381094B0C3303CB03C201F0CEFF074801F0B7FF01F00DFCFFF7DBFF054801F040F908BDC04674150020CC000020710500005A
:40068000AD020000F8B5031E28D01549041C02F075FF1323002821D03D21201C02F060FF051BEDB2281C02F0F1FD211C2A1C061C002702F081FF0B4BBA001433D158301CBA
:4006C0002A1CFCB202F064FF002803D001371A2FF1D13C1C301C02F0E3FD231C181CF8BD3C660100CC0000201FB50E2301AC238100230190A180E380074A211C50781378D7
:40070000000218430FF0A4FF002803D0034B1B78022BF1D01FBDC046862700208427002030B5444C85B06378012B00D07DE031380E2800D97CE002F0BDF808192C3D7B7B9D
:400740007B7B7B7B7B7B7B7B59003B4D281C01F08FF9021E02D0394801210FE0384A0121137A0133DBB21372013B33E0354D281C01F07EF9021E04D00221304802F058FEB4
:4007800056E02F4A0221137A0133DBB21372013B20E02D4D281C01F06BF9021E02D027480321EBE7264A0321137A0133DBB21372013B0FE0254D281C01F05AF9021E02D070
:4007C0001E480421DAE704211D4A137A0133DBB21372013B0720D1544343D018A1700930291C062202F075FD19481FE0194B00241B78022B17D1124B1A7AA24218D90720C0
:4008000060431818057B195D827B437B0095C57A01340195857AE4B20295407A03900E4802F006FEE7E70D4800E00D4802F07CFE05B030BD24050020871500205A660100A4
:4008400030150020A5150020C3150020E11500206F6601008427002076660100A2660100AC6601002B4B13B51B780022032B02D0022B4DD1012201AB31385A700E2847D8FC
:4008800002F018F8263134373A3D4043464646464646080001AC201C05F014FA20780138072835D802F006F80406080A0C0E1012194815E0194813E0194811E019480FE041
:4008C00019480DE019480BE0194809E0194807E0012301A8037005F01CFA002818D1164802F022FE14E001A80223F3E701A80323F0E701A80423EDE701A80523EAE701A8CF
:400900000623E7E701A80723E4E701A80823E1E713BDC0468427002016680100256801003468010042680100506801005E6801006C680100796801006F660100F7B5051CB6
:400940000192019A2B1A934229DA154E0C7837684B783E197678B446032662461640022E00D1203CE4B2261C303EF6B2092E01D9373CE6B20324FF187F783C40022C00D166
:40098000203BDBB21C1C303CE4B2092C01D9373BDCB23601A3192B7002310135D1E7F7BDA0040020F0B5B1B0041C00211B2209A802F098FC00211F2210A802F093FC3E2229
:4009C00020A8002102F08EFC00236A4617261383162207AD6A446E44201C13702B8033700893FFF74FFE192800D946E301F06CFF1A004503280045032A003E00450379001B
:400A00006800730021015701A70113021C02450345034C029601C7025C0268029302B0022C03C902CF4802F07FFD01F09DFACE4B1B681B04DB178342F7D101F03DFC1CE3CF
:400A4000CA480AE3637ACA4C3F2B02D1201C03F02DFCA07861792279E37800906078019020780290C34802F0E3FC06E3237AC24C6578002D33D13C2B08D03F2B00D0FCE20F
:400A800009A801F057F8BD4809A90AE2BC4B1B78022B1ED000F0A8FF291C1B2209A802F021FC211C627E23310B3A09A802F011FC09A801F01DF8002800D160E2B148CCE215
:400AC000AD4A237A5578002D09D1AD4A1278032A0FD0AD48C1E2A84B5B78002B53D0AB48BBE2A54BE0795B78002BF8D1FFF7BAFEC3E23C2B06D03F2B00D0BEE2A44802F06D
:400B000097FC32E018AE291C1F22301C02F0EAFB1627211C022209316F4406A802F0D9FB381C06A90122FFF709FF211C3A780C31F27720A8520002F0CCFB10A820A91F2254
:400B4000FFF7FCFE10A9F27F301C02F0C2FB301C291C05F054F80028B0D18E4B3A78986810A9C27702F0B5FB09E28A4B9B68DA7FAA4206D9595D8848013502F059FCEDB23D
:400B8000F3E7864869E27E4B227A1B78022BA0D03C2A26D03F2A00D06FE27E4D6E68308802F0EEFA00227E4B02F01AF802F0B2FA04B2708802F0E4FA0022794B02F010F8A9
:400BC00002F0A8FA2B8A02B2211C764802F030FC01F0CAF9644B1B681B04DB178342F7D14BE2032B00D174E7637A301C2B70A37A291C01226B70FFF7A1FE664F33787A68D9
:400C0000301C1380237B291C2B70637B01226B70FFF794FE33787A68301C5380E37B291C2B70237C01226B70FFF788FE33783B82A5E1637A3C2B0FD03F2B00D01DE2504B0B
:400C40001B78022B00D044E7574B58485988DA889B8802F0EDFB10E2474B5F78012F00D03DE7A37A301C2B70E37A291C3A1C6B70FFF764FE33784E4A301C1380637B291C44
:400C80002B70A37B3A1C6B70FFF758FE3378484A5380484B111C18780EF0ECFC0BE7237A312B23D03F2B03D0302B00D0E5E107E0314B41485B78002B00D1CEE13F48CCE10E
:400CC0002F4B1B78022B00D103E7002408A9201C089400F0B3FCA0231B06984200D0CCE100F0BAFE201C00F045FE14E0244B1B78022B00D1EDE60124002008A9089400F018
:400D00009DFCA0231B06984200D0B6E100F06CFE002000F077FE184B5C7030E1164B5B78012B00D0DBE6234A18A90B805078023B4B801378000218430FF004FC9DE10E4D9C
:400D40006E78012E00D0CAE6237A312B38D10C4B1B78022B00D1BCE600F04AFC002000F051FEA8E66F6601000802244086680100801500209768010024050020BD680100D8
:400D800084270020CA680100A2660100AC660100D468010084010020DE6801007C6701000000E43FE3680100561500200E690100CC000020862700204A6901005E69010065
:400DC000302B0AD1AE4B1B78042B00D081E600F00FFC00F041FE2E70D1E03F2B00D04CE10024A84B1B78A34200D846E11E256543A54E01347019C778C1794279037900977A
:400E00008778E4B2019740780290A85D03909F4802F00EFBE5E79E4B5B78012B00D05EE6607AFFF77DFC28E1954B1B78022B00D04FE6E37A312B00D01FE1964B18780EF00A
:400E400065FA021E02D1944D2B7A04E00121934802F0EEFA11E1141CD2B29A4200D38EE02E5D621C012EF6D1072060432818013B0930002106222B7202F034FA00232B55F5
:400E8000834B2E719E707AE07D4B1B78022B00D01FE6237A3F2B00D0EFE004F002FF011C7F4802F0C5FAE8E0637A3F2B00D0E4E0774C7C48616802F0BBFA00236360DCE094
:400EC0006F4AA37A1278022A00D002E6704D6C78012C12D1312B15D173496E4A0B681C700F2350780B811378000218430FF0B0FB002800D0C1E06C720BE0002C00D0E8E505
:400F0000312B04D03F2B00D0B7E06848A5E001236B726748A1E0637A3F2B00D0ADE0584B1878062800D9A8E001F0C4FC0406080A0C0E10005F4890E05F488EE05F488CE0AE
:400F40005F488AE05F4888E05F4886E05F4884E04B4B227A1B78022B00D1BAE5312A06D1032B00D1B5E5002000F004FDA3E5302A00D082E0032B00D0ABE500F035FD54489B
:400F80006BE03F4B607A1B78022B00D1A1E530380F2872D801F08EFC0815202B36717171717171717171714400200EF04DFA041E00D083E5464802F0B7FA354B4A331C7042
:400FC0005BE001200EF040FA002800D076E5404802F0AAFA01221FE002200EF035FA002800D06BE53A4802F09FFA022214E003200EF02AFA002800D060E5354802F094FA8F
:40100000032209E004200EF01FFA002800D055E52F4802F089FA04221D4B4A331A702CE01B4B4A331878042827D801F043FC030507090B00274810E027480EE027480CE0A0
:4010400027480AE0274808E0237A3F2B08D1104B2548DB78002B00D1244802F065FA0CE0312B0AD10A4BDB78002B00D031E5094B1F4918780EF0D1F81DE531B0F0BDC04687
:401080008427002070050020871500206F6901002405002086270020301500205A6601009B690100AB69010074150020B16501009A650100B1690100C9690100E669010087
:4010C000006A01001C6A0100356A0100506A01006F6601006D6A0100846A01009C6A0100B46A0100CF6A0100EA6A0100FA6A01004C020020F0B58BB06B466A467F4C00AFC3
:40110000FB60238978600433DB08DB00D31A9D467B6100F0DFFEB8603D89794B3C61794E04229D4206D9336800209343336001F095FA08E0336801201343336001F08EFACE
:40114000002D00D1D4E0704C637A012B00D084E03B693A691B893989033B7E32994206DB6A499DB21180002D00D1C1E006E01388013B9BB21380002B00D0B9E03C69634BB7
:401180007E3423800024AC4206D200F095FF7B6918550134E4B2F6E75D4879690B2202F089F800281CD17B68012B0ED159495A4A0B6818700F2350780B811378000218439A
:4011C0000FF03CFA002800D092E04F4B0021181C30221A305972597602F084F84F480EE079694F480B2202F065F8011E0AD1464B30225876181C1A3002F074F8494802F039
:4012000093F975E07B68484A002B1AD11378002BFCD17B693D84FB610E23BB843E4A50781378000218431C23F9180FF0E5FC041C03F040F8002C5BD03C4B1B78022BEDD040
:4012400056E0042133688B4333601378002BFCD17869291CFFF748FA4AE0267C002E32D00023062523741C1C314E00F011FFC3B2002BFAD0303B092B0CD8181C70430A219F
:401280002418301C01F02AFB013DEDB2061C002DEBD102E0274802F047F91F4B211C187801220DF0A3FF012801D12348A7E7032801D12248A3E7072801D121489FE700282F
:4012C00016D120489BE700F0F7FE251C637EC0B21A35E8540A2802D00133637608E0281CFFF760FB281C311C3022667601F0FAFFFB689D46BD460BB0F0BDC046CC0000203F
:40130000FF030000C80F244024050020581B00000B6B01007415002086270020B1650100176B01009A6501008527002084270020A0860100236B0100376B0100576B01007A
:401340007D6B01009B6B010070B50E1C151C0C1CA31BAB4204DA207800F0F8FD0134F7E7281C70BDF7B5431801930023441C019AA24240D92078013809283AD801F09AFAFC
:4013800035353539393939051B351B4B00211D781E23013D5D43194B14225D190935661E281C01F09FFF3278611C013A281C01F090FF33781BE0104B104F1D781E23013DDB
:4013C0005D437E19093600211422301C01F08AFF631E1A78611C013A301C009301F079FF01237D196B77009B00E0631E1B780133DBB2E418BBE7F7BD7005002087150020B8
:40140000F0B5764B8BB05A78041C0893012A6FD00123089A53700378002B69D117781E250137FFB27B1E1E1C6E4309936C4B17709E19301C6168062201F04BFF6378002B5D
:4014400000D001230998B3716843654B06221818C771237C0372616801F03BFF217AE068FFF780FF089B18785D4B441E65435B19597F1833002902D000225A710BE0584B76
:4014800014225D190935281C01F02CFF281C5549052201F01EFF1E20031C6343504AD31808229D79D9799A565223012D00D0023B60434B4C24186579009525790195E57897
:4014C0000295A578039564780494454C045D0594434C201809300690434801F0A9FF00F043FD424B1B681B04DB178342F7D172E01E26089B3A4F1D786E43F619B74208D021
:40150000391C6068062201F0D5FE1E370028F5D161E0089B0135EDB21D706B1E1E1C1E277E4309932E4B61689E19301C062201F0D0FE6378002B01D1503300E05223B371B4
:40154000099B5F43264BDF19FD712578002D42D1237C3B72217AE0681E24FFF703FF089B1E781F4B013E74431B19597F1833002901D05D710BE01A4B14221C190934201C1C
:4015800001F0B0FE201C1749052201F0A2FE1E2308225E43124B98194479C17982568379009404790194C478029484780394407804900B48305C05900948861909360696BD
:4015C000094801F035FF00F0CFFC084B1B681B04DB178342F7D10BB0F0BDC0467005002087150020926C0100976C01000802244070B5104D104C2E780A2E03D81E235E439D
:4016000036190EE0002630190021062201F06AFE96231E365B009E42F5D100232B706B7070BDB442F9D0201C0021062201F05AFE1E34F6E7700500208715002080B58CB00A
:4016400000AF021C3960FB1D1A700023FB622B4B1B68FB612A4B1B68BB612A4B1B687B61294B1B683B61294B1B68FB60284B1B68BB60284B284A1A60284B294A1A602023AD
:40168000FB18284A1A602023FB1801225A603B681A682023FB189A601E4B2022BA181A601E4B214A1A602023FB18204A1A60FB1D1A782023FB185A60164B2022BA181A605B
:4016C000164B1B4A1A60134B1B68FB620B4BFA691A600B4BBA691A600A4B7A691A600A4B3A691A60094BFA681A60094BBA681A60FB6A181CBD460CB080BDC04600010B401B
:4017000008010B401CFF0B4020FF0B4028FF0B402CFF0B4008001040B6E800000400104015000080B6D7060004000080B6EB000018000080014B18787047C04606F2FF0FCF
:40174000FEE70000031C10B580240849084A0868A400C3189A1AA24201DC0B6005E001F069FD0C2303600120404210BD54010020A02F002070B51049104B01394A1C15D08A
:4017800000221E685C689D68A018AA4203D0B058A0500432F8E7021CDC68151AA54202D0002520C2F9E710330139E7E701F048FDFEF75CFDFEE7C046010000008C72010049
:4017C00001210E4A10B51368141C8B43136000239A000B49032B01D80A4989580A4801338150302BF4D1FEF717FC0022074B1A60236801321343236010BDC046000010404B
:40180000411700000000000000000020C000002070B5002905D119490023CE7F1A1C1C1C0EE01749F8E7002C11D1CA5C002A24D00133DBB2CD5C083D012D04D9D318DBB2BB
:40184000B342F0D301E00124FAE7002C15D0D2180133DBB2D4B21A1C06E0D51A455D002D04D08D540132D2B2A242F6D3944204D900238B540132D2B2F8E770BD58010020A3
:4018800072050020002208B5124B13491A70134B1A70134B1A70134B1A70488C124B1880888C5880C81DC07F08311873C97F5A8219710621D98122311982FA21DA828900FD
:4018C000013A1A839982094B1F321A8000F0C6FA08BDC0468A27002058010020852700208927002088270020642700207E27002030B58BB0051C164904A8182201F0E9FCBA
:40190000144C0134E37F002B03D1FFF7BBFF0123E3770120002D18D00F4B10481D60062300930F4B0F4901936E23FF3302930E4A04AB02F0D5FC002807D101220B4B0C482D
:401940001A70112131320FF0CFFE0BB030BDC046006D010072050020B8160020C51B000080790100C0160020A410000084270020006F0100021C10B50120022A2AD8164B89
:401980001B78062B24D1154C23785B0720D4144B002A05D11E219987196B1F30088009E0012A08D19621C8209987196BC00008808020C00148800B492C33181C0A700DF004
:4019C0004DFF002806D1042223781343237001E00420FF3010BDC046842700208A270020580100208927002008B50DF0B1FF0821024A13780B43137008BDC0468A2700202F
:401A000070470000021C08B50120022A1DD80F4B002A04D10A2119852631598407E0012A06D196211985802109015984F839998407492033181C0A700DF09AFE002804D185
:401A40000421044A13780B43137008BD58010020882700208A27002008B50DF0B7FE0821024A13780B43137008BDC0468A27002038B5114C2378062B1AD10125002819D0A5
:401A800000230E4AC55C991801334D71062BF8D18379101CD3720DF017FE051E0AD105232370074B1888002804D00AF0ADFD01E00425FF35281C38BD842700206427002036
:401AC0007E27002010B50DF0C7FD074B041C1B88002B01D00AF0B2FD002C02D10622034B1A70201C10BDC0467E2700208427002010B50123002818D00D4B9A6B998E0023A3
:401B00005468C9B2DAB28A4206D2C25C002A02D0E2540133F6E7E254041C0021FFF778FE201C0121FFF774FE0023181C10BDC046006F0100021C30B50120002A11D0094B17
:401B40009B6B5C681D780023D9B2A94203D300235354181C05E0E05C0028F8D0D0540133F2E730BD006F0100437800781B0218437047000038B5838900250B2B1BD1041C38
:401B8000291C0430221C35330FF0C6FD051E0DD16068FFF7E9FF094B1B68820702D58220400001E00620FF30211C98470121044A13788B431370281C38BDC046B8160020B9
:401BC0008A270020F0B50127934C85B02378051C3B430E1C2370272862D00CD8052846D004D8B8421AD0022835D0F2E0212841D026286ED0EDE0412800D1B7E005D8282822
:401C000065D02B2800D184E0E3E0432800D1C1E000D2BBE04C2800D1C6E0DAE0072303AF3B700023381C7B7004F073F80723381C3B707D7004F06DF8784F38688379002BF0
:401C400000D0D4E0031C821D1978002932D101339342F9D1CBE00B78042B00D0B9E0704B1B78052B00D0B4E0FFF72CFFB1E00A786C4B1DE023789B0600D5AAE06A4B1A7820
:401C80001F1C102A01D10523FB70684B391C18780DF0AEFD654B391C18780DF0BEFA98E0634B1B88002B01D00AF0C8FC02225C4B1A708EE002F002FB38680021FFF7A0FE36
:401CC00038680121FFF79CFE00200DF0BDFB0622EDE7534B1A780192022A7AD022783A4277D004222178114202D0032119701DE023781B071FD4019B032B6AD1484A033320
:401D000013704C4B1B78002B63D10120FFF732FE26E0434B1A780192022A5AD022783A4257D004222178114202D01A70237807E023781B0707D50623394A13700822237887
:401D40009343237045E0019B042B42D1344A02331370394B1B78002B3BD10120FFF752FE002836D16A462E4B1279A1E72F4F0222381C01F0AEFA3978304B5A318900591861
:401D8000053104222E4801F0A4FA22E00022274B5A708DE749882B4B994201D98021890030880EF019FF14E0081CFFF7E3FE23783B420ED1002809D0122303A98B70B389FB
:401DC000C87030680B800EF0FBFE02E030680EF071FF112322781A421CD001222378281C93432370184B311C1B68984712E0174B174F1B78381C3B70164B1B787B70164B8A
:401E00001B78BB7002F05AFA381C0021FFF7F8FD381C56E705B0F0BD8A2700209801002084270020852700204C020020862700207E27002089270020882700208079010091
:401E400080270020FF010000B81600207CF1FF0F9C0100207DF1FF0F7BF1FF0F704700008021064A08B5136809060B431360092000F004FA00F0FEF808BDC04600002440A3
:401E800010B5054C2378002B03D100F081F801232370FFF7E5FF10BD94050020094B0A491A680B6800209A420BD00B6807485A1C1B18581E83415B421A40054B985C0A6035
:401EC000C0B27047942F00208C27002000F8FFFF90270020054A064B1B68116810688B4201D2044A9B18181A7047C0468C270020942F00200108000008B5092000F0C8F93C
:401F00000B4B80211A680B4B49021A6000220A4B09201A70094B1A680A431A601968084A0A401A60074A084B1A6000F0A7F908BD8C270020942F0020912F0020040324403B
:401F4000FFFFFEFFED0F0000C00F2440044B1A681F231340082BF9D0024B18607047C0460802244040022440024B18681F2318407047C0460802244008B500F0BFF808BD84
:401F800008B500F0CDF808BD08B500F07FFB08BD70B500240125072104261F4A1F4B09201A601F4B1F4A1C601F4B1D601F4B13601F4A11601F4A14601F4A15601F4A136043
:401FC0001F4B1C601F4B1E6000F062F90920032100F03CF91C49092000F030F9281C00F057F9281C032100F031F9281C174900F025F9174B1C60174B1C60174B1C60174BFB
:402000001C60174B1E60174B1C60174B1C60174B1C60174B1C7070BD0B000002000024404000244000032440480024400700008004032440100324404400244000022440F0
:402040000402244050002440AD260000891F0000880E2440C80E2440480F2440080F2440C80F2440880F2440942F00208C270020912F0020044A054B11680B409021090471
:402080000B4313607047C04600010240FFFF0FFF08B5FFF71FFF031C0020834201D0FFF7FDFED822034B92001968114201D000201A6008BDC00F244010B5092000F0E8F8ED
:4020C000FFF708FF002806D0092000F0D7F8FFF7E5FE041C04E0074B09201C6800F0CEF8D823054A9B001068184000022043136010BDC04640032440C00F24408021074A3F
:4021000008B5136889010B43136000F0BFFA012000F0C8F8012000F0B1F808BD4800244008B5012000F0B4F808BD00004023044980010A689A43D2B2034013430B60704779
:4021400000020440034A044B116880040B4018431060704708020440FFFFE3FF4023044980010A689A43D2B2034013430B60704700030440034A044B116880040B40184340
:402180001060704708030440FFFFE3FF000000000230800803D00138FDD1C046C046C0467047EFF3108072B6704780F31088704738B5051CFFF7F5FF0721054C054A23680E
:4021C0002940C90413400B432360FFF7EEFF38BD00010B40FFFFC7FF10B5041C86B0FFF7E0FF0E4B0E491A6802AB02920D4A126803920D4A1419033C227804920B4A126812
:4022000005920B4A00926A4601930A4B1A600A4A11601B68FFF7C9FF06B010BD08010B401700008000010B405C70010030001040B6EA00000800104004001040024B8000E7
:40224000C3181868196070474000002038B5041C0D1CFFF7A6FFA308074A9B009B180322144094400634A240A5401968914329431960FFF79AFF38BD00E400E01F231840EE
:402280001E3B8340181C014B1860704700E100E01F2318401E3B8340181C014B1860704780E100E01F2318401E3B8340181C014B1860704780E200E0034A044913689BB2E3
:4022C0000B4313607047C0460CED00E00400FA0510B5041C8022074B1202944205D91868FFF756FF044BE418F4E758686043FFF74FFF10BD500200200080FFFF08B5034B83
:402300001B7A5843FFF744FF08BDC0465002002001210F4A10B51368041C0B43802113600C4A0D4B09021A600C4A13680B431360002801D100200AE00120FFF7DFFF084BA9
:402340001B68DB07F6D4013C002CF5D1102010BD60F02E400220000078002E4010002E400C002E4008B5FFF71CFF0421034A13688B43136030BFFFF718FF08BD10ED00E0AA
:4023800037B5FFF70EFF04210D4A0E4D1368041C5B005B0813600C4B0C4A1B8802209BB213600B4A13680B4313602B680193FFF7FFFE30BF019B201C2B60FFF7F6FE37BD7E
:4023C00000000B4000010B4052F1FF0F0C000B4010ED00E001200A4A136883431360022311689943116007492E330A689A43203B1A430A6007220B68934303430B607047B1
:4024000000F02E4000FF2E4008B5FFF7E3FF8021024A090613680B43136008BD00F02E400122104B70B51C681440002815D0904215D1022507261968A94319600A490A68A2
:40244000B2432A430A600A682E35AA43103D2A430A601A681043186001E0FFF7BBFF201C70BDC04600F02E4000FF2E4008B5FFF798FEC021034A090213680B431360FFF7DE
:4024800094FE08BD00010B4010B58024FFF789FE0749084B0A68E4011A4022430A600A6813408022120213430B60FFF77EFE10BD00010B40FF3FFFFF70B5051CFFF771FEC2
:4024C0000E4B041C1A68C0231B02134011D10C480C490540281C0E680B4A3240104308600A68012B01D1FFF7C1FF201CFFF75DFE70BDFFF7C9FF0123E9E7C04600010B409E
:402500000404040010020B40FBFBFBFF042238B5224C2368134213D021490B6813420CD0204B9D6908681540A8430860996991439961DB68002B00D098470420FFF7BCFFA5
:4025400080232268DB001A4215D015490A681A420DD0144A956908682B40984308609169114B0B4093611369002B00D098478020C000FFF7A1FF80232268DB021A420CD06C
:40258000074A12681A4204D0064B5B69002B00D098478020C002FFF78FFF38BD10020B40600200209C050020FFFBFFFF10B5041CFFF7F7FD0449054A0B68A4031340234380
:4025C0000B60FFF7F2FD10BD10E400E0FF3FFFFF10B58024054BA4021C60054B0833D8670320FFF7E3FF034B1C6010BD80E100E00000002000E100E000230C21074A136041
:40260000074A1160074A0B3911600A2206490A6006490A60064A13607047C046000120402401204038012040140120400C0120400801204008B5FFF7B4FD0121034A13689C
:402640008B431360FFF7B1FD08BDC04600002040014B18607047C0463001204008230449C0000A689A43D2B2034013430B60704700020440034A044B116840020B4018432F
:402680001060704708020440FFF1FFFF1023034A1068184010600009C0B27047100104400222014B1A60704780E200E008B5144B1B68002B00D09847124B1B685B071DD5E0
:4026C000114912480B685A1C1B18581E83415B421A400F4B18680F4B1B68824203D120220D4B1A7003E00D48DBB283540A600C4B1B68DB06E4D104220A4B1A6008BDC04630
:4027000098050020CC0F2440942F002000F8FFFF8C27002040032440912F00209027002008032440C00F244001607047016070471E4B1F4A19781F4B09021B7819431E4B91
:402740001B7812781B0213431C4A934204D1072909D11B4B033906E0D4221201934202D1042900D1164B174A1360174B174A1960174B1B7812781B021343164A134200D18F
:40278000154B164A1360164B164A1B7812781B021343154A934204D0144A934201D0052B00D1134B134A13607047C046D9F0FF0FDEF0FF0FD8F0FF0FDFF0FF0F580B0000D4
:4027C000580D00006C002E4074002E40DAF0FF0FDBF0FF0FFFDFFFFF0220000078002E40DDF0FF0FDCF0FF0F0F0F000005050000050F000080002E4008B5FFF77FFD08BD50
:4028000008B500F043F808BD08B500F047F808BD08B500F043F8034800F00EF8032000F011F808BDAD28000008B5024800F01AF808BDC046AD280000014B18677047C0462A
:402840000000002010B5041CFFF7ABFCC021044AA40113688B4323431360FFF7A6FC10BD0CE400E010B58024054B64011C60054B18670320FFF7E6FF034B1C6010BDC04687
:4028800080E100E00000002000E100E08022024B52011A607047C04600E100E08022024B52011A607047C04680E100E008B513F0C1FD08BD02B4714649084900095C49000A
:4028C0008E4402BC7047C04603B47146490840004900095A49008E4403BC7047002243088B4274D303098B425FD3030A8B4244D3030B8B4228D3030C8B420DD3FF22090214
:4029000012BA030C8B4202D31212090265D0030B8B4219D300E0090AC30B8B4201D3CB03C01A5241830B8B4201D38B03C01A5241430B8B4201D34B03C01A5241030B8B42A3
:4029400001D30B03C01A5241C30A8B4201D3CB02C01A5241830A8B4201D38B02C01A5241430A8B4201D34B02C01A5241030A8B4201D30B02C01A5241CDD2C3098B4201D35C
:40298000CB01C01A524183098B4201D38B01C01A524143098B4201D34B01C01A524103098B4201D30B01C01A5241C3088B4201D3CB00C01A524183088B4201D38B00C01AB7
:4029C000524143088B4201D34B00C01A5241411A00D20146524110467047FFE701B5002000F0FCF802BDC0460029F7D003B5FFF775FF0EBC4243891A1847C04603460B4327
:402A00007FD4002243088B4274D303098B425FD3030A8B4244D3030B8B4228D3030C8B420DD3FF22090212BA030C8B4202D31212090265D0030B8B4219D300E0090AC30B9F
:402A40008B4201D3CB03C01A5241830B8B4201D38B03C01A5241430B8B4201D34B03C01A5241030B8B4201D30B03C01A5241C30A8B4201D3CB02C01A5241830A8B4201D3A6
:402A80008B02C01A5241430A8B4201D34B02C01A5241030A8B4201D30B02C01A5241CDD2C3098B4201D3CB01C01A524183098B4201D38B01C01A524143098B4201D34B01A8
:402AC000C01A524103098B4201D30B01C01A5241C3088B4201D3CB00C01A524183088B4201D38B00C01A524143088B4201D34B00C01A5241411A00D20146524110467047C3
:402B00005DE0CA0F00D04942031000D34042534000229C4603098B422DD3030A8B4212D3FC22890112BA030A8B420CD3890192118B4208D3890192118B4204D389013AD026
:402B4000921100E08909C3098B4201D3CB01C01A524183098B4201D38B01C01A524143098B4201D34B01C01A524103098B4201D30B01C01A5241C3088B4201D3CB00C01A97
:402B8000524183088B4201D38B00C01A5241D9D243088B4201D34B00C01A5241411A00D20146634652415B10104601D34042002B00D54942704763465B1000D3404201B5E7
:402BC000002000F00BF802BD0029F8D003B5FFF715FF0EBC4243891A1847C0467047C046F0B55F4656464D464446F0B4051C061C080387B099464F00030BCC0F92469B4640
:402C00007F0D019467D06C4B9F4236D080205B4640031843C0006B0F1843684B83469C4600239846EE00674400934B4649461D03C90F5B0052462D0B5B0D894600D16EE006
:402C40005D498B4264D080205C4940038C4600210543ED00500F0543D20063444846FF187B1C9A46009B604002900B430F2B00D9ACE053489B00C3589F465B461D4300D000
:402C800082E00823009300239B46023300269846CBE7029B01934346022B59D1012400250026019B1C40444B00212D030A0D12052D0B1543434A1B0515401D436D00E40734
:402CC0006D082543301C291C07B03CBC90469946A246AB46F0BD2B434ED05B46002B00D185E1584600F088FA021C2823291C9B1A161C5846D940083EB0400B1CB5400343F9
:402D00009B462E1C0023304F0093BF1A98468CE7514629432ED10025002202219EE75146294323D0002D00D154E1281C00F064FA031C28215046C91A1A1CC8405146083A65
:402D4000914095400A1C05431F480021C31A85E7032B00D1C2E1012B00D06DE14446019B00251C40E4B2002300269DE700250022012173E7032171E70423009300239B467B
:402D800001330026984650E70C230093093B98464BE7802500242D030026074B84E74B46AB46161C0193884675E7029BAB46161C019388466FE7C046FF07000001FCFFFFC1
:402DC0008C700100FFFF0F800DFCFFFF330C3604360C9C46331C140C1204120C53439846634653439946634663430193331C41466343090C4B445B18994505D9802040025C
:402E00008146019949440191190C039141460904090C1B045B1804932B0C9846331C2D04290C4B43604600934346654658435E43009B4D431B0C9946AE194E448446B5423B
:402E400003D980235B029946CC44350C2B1C0398634484460593009B36041B041B0CF3189C446046039058460504060C280C84465043351C81466046654344434846000C4B
:402E80008346724314195C44A24203D98022520293465D44220CAD184A461204120C24044046A41862464A437143464360460096464670438046100C84468844E044414567
:402EC00005D9802149028C46009961440091019803998446614499429B415B4299460598434684461204120C1B049B1863449C46AB4683429B4140460A19CC44A242894118
:402F0000E344CC45B6415C46000C8046494276425B426418334398448C428941AB459B4149425B4219430D1C009B4544EE187602E50D2E43B346049B56021E43731E9E4169
:402F40005B46D20D324366021643DB010AD50123334076081E435B46DB071E435B465B089B465746634BFB18002B5ADD720709D00F223240042A05D0321DB242B6417642F7
:402F8000B344161C5A46D20106D55A465A4B1A4080239346DB00FB18584A934234DD0124029B00251C400026554B7DE680205B460003034208D0054206D105432D032D0B6E
:402FC0004C46161C4E4B6FE65D4605432D032D0B4B4B69E6504600F00FF9031C2033272B00DCA6E65546083885400022ACE6281C00F002F9021C2032272A00DC75E6083872
:4030000085400026AB467DE65A46F608520716435A4601245502029A5B052D0B5B0D144042E6384DED1B382D0ADD0124029B00251C400026002337E6019B5746029391E705
:403040001F2D25DC304B321C9C466744BE405B46BB40371CEA407E1EB74113433B431E1C5B46EB401D1C730709D00F233340042B05D0331DB342B6417642AD191E1C2B02D2
:4030800020D50124029B00251C40002601230BE65A461E4BDB1BDA40131C202D1CD01C4A94465A466744BA40171C3E43721E96411E4307230025334007D00F2300253340B8
:4030C000042BD6D16B076D022D0B0124F6081E43029B1C400023E7E50027E6E780255B4601242D031D43019B2D0323401C1C2D0B034BD9E5FF030000FFFFFFFEFE070000D9
:40310000FF07000002FCFFFF1E040000E2FBFFFF3E0400000B0330B5134C1A0B4B00051C5B0DC90F0020A34210DD104883420EDC80200F4C40030243E41A1F2C0ADD0D482A
:40314000C31ADA40131C48424340581830BD0A4BC818FBE7281CE040084CA44663449A40131C0343EFE7C046FE0300001D0400003304000013040000FFFFFF7FEDFBFFFF62
:4031800038B5041E16D0C50F00D04442201C00F033F8174B1B1A0A2821DC021C211C153291400A1C0B21081AC4405B052403240B5B0D03E000250023002400220021101C0C
:4031C00024030A0D1205240B14430A4A1B0514401C436400ED0764082C43211C38BD0B3884405B052403240B5B0D0022E6E7C0461E040000FFFF0F801C2101231B04984245
:4032000001D3000C10391B0A984201D3000A08391B09984201D30009043902A2105C40187047C04604030202010101010000000000000000014B18687047C0460405002049
:403240000E4B70B500251E1C0D4CE41AA410A54204D0AB00F35898470135F8E714F004F8084B00251E1C084CE41AA410A54204D0AB00F35898470135F8E770BD7472010050
:4032800074720100747201007C72010008B5034B011C186800F074F808BDC0460405002008B5034B011C186800F024F808BDC0460405002030B50024944208D0035D651C19
:4032C0000C5DA34201D0181B02E02C1CF4E7002030BD002310B5934203D0CC5CC4540133F9E710BD031C8218934202D019700133FAE7704730B500293ED004390B68002B0D
:4033000000DAC9181D4A1368141C002B02D14B60116031E099420DD208680A189A4203D11368C3180B6053684B60216024E08A4203D8131C5A68002AF9D11D685C198C4299
:403340000BD10968691858181960904214D110685268091819605A600EE08C4202D90C23036009E008680C18944203D114685268001908604A60596030BDC046BC1400200C
:40338000032370B5CC1C9C430834051C0C2C01D20C2405E0002C03DA0C2300202B6042E08C42F9D3204A1368101C191C002913D00A68121B0DD40B2A02D90A608B181FE0F1
:4033C0008B4202D15A6802601BE04A685A600B1C17E00B1C4968E9E7144E3368002B03D1281C00F0ABF83060281C211C00F0A6F8031C421CD0D00322C61C964386420AD1CA
:403400001C60181C07210B301A1D8843821A0AD05142995007E0311A281C00F08FF8431CBAD0331CECE770BDBC140020B81400200FB40B4B13B51C68002C05D0A369002BE7
:4034400002D1201C00F090FA05AB201CA168049A019300F09BFB16BC08BC04B01847C0460405002070B5051C0E1C002804D08369002B01D100F078FAAC68A3891B0702D54E
:403480002369002B19D1281C211C00F001F9002813D00120404245E03178002B1BDAA269934211DA221C281C00F09AF8013042424241D0B20028ECD10136A3683278013BCE
:4034C000A360002AE8D10CE023681970236819780A2903D1E6E723681970236801332360EAE7002B17DAA269934208DB0A2322681370236819780A2911D1281C01E0281C1C
:403500000A21221C00F06CF8013042424241D0B2002806D0BDE70A23226813702368013323600A2070BD000008B5034B011C1868FFF798FF08BDC0460405002038B5002366
:40354000064C051C081C2360FEF7FCF8431C03D12368002B00D02B6038BDC046982F0020021CC9B21378002B03D08B4204D00132F8E7181C002900D1101C704702780B783F
:40358000002A03D0013001319A42F7D0D01A7047002330B59A420DD0013AC45CCD5CAC4202D1934202D1251C631B03E00133002CF3D1F8E7181C30BD031C30B5002A07D0EE
:4035C0000C7801335D1E013A2C700131002CF5D19A18934203D0002119700133F9E730BD70B5051C0E1C141C002804D08369002B01D100F0B9F9234B9C4201D16C6808E097
:40360000214B9C4201D1AC6803E0204B9C4200D1EC68A369A360A3891B070AD52369002B07D023682269F6B2981A636998420FDB08E0281C211C00F02BF80028F1D00120B9
:4036400040421DE0281C211C00F020F90028F6D1A3680130013BA36023685A1C22601E706369984205D0A389301CDB0708D50A2E06D1281C211C00F009F90028DFD1301C6E
:4036800070BDC046D4710100F471010014720100354B70B51D68061C0C1C002D05D0AB69002B02D1281C00F05FF9304B9C4201D16C6808E02E4B9C4201D1AC6803E02D4B11
:4036C0009C4200D1EC68A3899AB2110723D4D10607D409220120326037321343A381404240E0530713D5616B002908D0231C4433994202D0301CFFF7FDFD0023636324224E
:40370000A3899343A38100236360236923600822A3891343A3812369002B0BD1A023A2899B00134080229200934203D0301C211C00F0ACF90123A289134005D00023A36098
:4037400063695B42A36103E0910700D46369A36000202369834205D1130603D540231A43A281013870BDC04604050020D4710100F471010014720100F7B58A89051C0C1CD3
:4037800013075ED44B68002B02DC0B6C002B1ADDE76A002F17D000232E682B6080235B011A4001D0626D15E0281C216A0123B847021C431C0ED12B68002B0BD01D2B01D0CF
:4037C000162B02D12E6000205EE04021A3890B43A38159E0A3895B0706D56368D21A636B002B01D0236CD21A0023281C216AE76AB847A389421C06D12A68002A03D01D2AB3
:4038000001D0162A19D10022626022692260DB0405D5431C02D12B68002B00D16065616B2E600029CFD0231C4433994202D0281CFFF760FD0020606326E040221343A3817C
:4038400022E00F69002FBED00B680F60DB1B01930023920700D14B69A360019B002BB2DD281C216A3A1C019BA66AB047002806DC40220120A38940421343A38104E0019B0E
:403880003F181B1A0193E8E7FEBD000038B50B69051C0C1C002B01D100201CE0002804D08369002B01D100F05FF80B4B9C4201D16C6808E0094B9C4201D1AC6803E0084B5F
:4038C0009C4200D1EC680C22A35E002BE4D0281C211CFFF751FF38BDD4710100F47101001472010008B5024900F0AEF808BDC0468D380000002310B5041C036043608360A9
:4039000081814366C281036143618361191C08225C30FFF7E7FC054B24626362044BA362044BE362044B236310BDC046B9400000E1400000194100004541000070B5682512
:403940004B1E5D430E1C291C7431FFF719FD041E08D000212A1C016046600C30A0606832FFF7C0FC201C70BD836913B5002B28D18364C3640365134B134A1B6882620193C1
:40398000984201D101238361041C00F01FF86060201C00F01BF8A060201C00F017F80421E06000226068FFF7A5FFA06809210122FFF7A0FFE06812210222FFF79BFF0123CC
:4039C000A36113BDD0710100E5380000F8B51D4B061C1D68AB69002B02D1281CFFF7C4FF4835AC686B68013B05D40C22A75E002F10D06834F7E72B68002B06D1301C04218E
:403A0000FFF79CFF2860002801D02D68E9E70C23336016E00123201C5B42E3810233A38167662760A760676027616761A7615C30391C0822FFF756FC201C6763A763A764B5
:403A4000E764F8BDD0710100F7B5041C071C002601914834002C16D06368A5680093009B013B00930DD4AB89012B08D90E22AB5E013304D0381C291C019B9847064368359D
:403A8000EDE72468E6E7301CFEBD0000F0B58B8991B09B0706D50B1C47330B600B6101234B6145E00C1C0E23C95E061C002904DA8023A5891D4010D10CE001AA00F06EFB46
:403AC0000028F5DBF023029D1B021D40194BED186B425D418027FF0001E000254027301C391CFFF74DFC00280CD1A3899A051FD402221343A381231C4733236023610123B6
:403B0000636115E080220C4BB362A38920601343A38120616761002D0AD00E23E15E301C00F04EFB002803D00122A3891343A38111B0F0BD00E0FFFFE5380000936810B566
:403B4000013B9360002B05DA9469A34208DBCBB20A2B05D01368581C10601970C8B201E0FFF73EFD10BDF8B5061C0F1C141CD518AC4208D02178301C3A1CFFF7DFFF01345E
:403B8000431CF5D100E00020F8BD0000F0B59FB0061C0F1C02920593002804D08369002B01D1FFF7E1FE794B9F4201D1776808E0774B9F4201D1B76803E0764B9F4200D1DC
:403BC000F768BB891B070AD53B69002B07D0002306AD6B6120336B761033AB763DE0301C391CFFF755FD0028F1D001204042CAE0059A111D12680591002A7EDB09920134D5
:403C000023782E2B00D189E021786348032200F0FDFA002808D0604B0134C01A40238340181C2B68184328602178631C5B4806220293297600F0EAFA002800D191E0584B84
:403C4000002B00D084E00722059B07339343083305936B69039A9B186B61029C2378002B04D1029BE31A049311D003E0252BF8D00134F3E7049B301C391C029AFFF773FFB0
:403C8000431C7BD06A69049B944663446B612378002B73D00122002352426A6002A95432521801342B60EB60AB601370AB6521783C48052200F0AAFA002809D0394B013418
:403CC000C01A01238340181C2B6818432860EEE72B68DA0604D55322202102A8121811701A0704D553222B2102A81218117022782A2A00D17CE7099B05E05242EA60022270
:403D000013432B607BE72278303A092A04D80A214B4301349B18F6E7099371E763782A2B09D1059B02341A1D1B680592002B0DDA01235B420AE0002301342278303A092A3E
:403D400004D80A214B4301349B18F6E707935BE705AB0093301C291C3A1C134B00E000BF07E005AB0093301C291C3A1C0E4B00F08BF80390039B013300D06AE7BB895B06DE
:403D800000D532E70B981FB0F0BDC046D4710100F4710100147201003A7201003E7201000000000034720100673B0000F7B5171C01930A698B6800900C1C934200DA131CA7
:403DC000221C3B6043321278002A01D001333B6023689B0602D53B6802333B60062523681D401ED0231C43331B785A1E9341226892061CD53020E1184031C870211C5A1C5E
:403E000045310978A21840320233D1700FE0221C0123009801991932089EB047431C0ED00135E3683A689B1A9D42F0DBDAE7221C009801994332089DA847431C02D1012032
:403E4000404220E006232068E1683A6803400025042B03D18D1AEB43DB171D40A3682269934201DD9B1AED180027AF420ADA221C0123009801991A32089EB047431CDED00C
:403E80000137F2E70020FEBDF0B58BB006920A1C43320793059004920A7E0C1C109B6E2A00D1A8E011D8632A22D009D8002A00D1B2E0582A00D0C2E045310A707C4A4FE043
:403EC000642A1DD0692A1BD0B9E0732A00D1A7E009D86F2A29D0702A00D0B0E0202209680A43226037E0752A1FD0782A33D0A6E00E1C1A684236111D196013683370A1E012
:403F000021681A68080606D4490604D5111D19600023D55E02E0111D19601568002D3BDA2D23049A6D42137036E021681A68080606D4490604D51568111D1960ADB202E06B
:403F4000111D196015685A4B227E03930A276F2A1DD108271BE0221C782145321170554A19680392081D226818600D68100602D4500600D5ADB2D30702D520231A432260F7
:403F80001027002D03D1202322689A432260231C002243331A7002E00A27454B03936368A360002B03DB0422216891432160002D02D1049E002B0ED0049E281C391CFEF74D
:403FC00013FD039B013E5B5C281C3370391CFEF785FC051EF1D1082F09D12368DB0706D563682269934202DC3023013E3370049B9B1B23612BE009681A68080607D44906E0
:4040000005D5111D19601368A28A1A8004E0111D1960136862691A600023049E236116E01A68111D196016680021301C626800F0EDF8002801D0801B6060636803E0261C3D
:4040400042363270012323610023049A1370079B05980093211C069B09AAFFF7A7FE431C02D10120404221E0236905980699321C079DA847431CF4D023689B0705D4099BF0
:40408000E068984212DA181C10E00025E368099A9B1A9D42F3DA221C0123059806991932079EB047431CDCD00135EFE70BB0F0BD457201005672010038B50C1C0E25495FE5
:4040C00000F0B0F8002803DB636D1B18636503E0A289024B1340A38138BDC046FFEFFFFFF8B51E1C8B89051C0C1C171CDB0505D50E23C95E0022022300F074F8A289054BF7
:40410000281C1340A3813A1C0E23E15E331C00F01FF8F8BDFFEFFFFF38B50C1C0E25495F00F060F8A389421C03D1054A1340A38104E0802252011343A381606538BDC04698
:40414000FFEFFFFF08B50E23C95E00F015F808BD38B5051C0020074C2060081C111C1A1CFDF7F2F8431C03D12368002B00D02B6038BDC046982F002038B50023064C051C6D
:40418000081C236000F062F8431C03D12368002B00D02B6038BDC046982F002038B50023064C051C081C111C236000F057F8431C03D12368002B00D02B6038BD982F002032
:4041C00038B50023064C051C081C236000F04EF8431C03D12368002B00D02B6038BDC046982F002038B5051C0020074C2060081C111C1A1C00F042F8431C03D12368002B9E
:4042000000D02B6038BDC046982F0020C9B28218904204D003788B4202D00130F8E700207047000038B5051C0020074C2060081C111C1A1C00F02AF8431C03D12368002B02
:4042400000D02B6038BDC046982F002058220120014B40421A607047982F002058220120014B40421A607047982F00205822024B00201A607047C046982F0020582201205F
:40428000014B40421A607047982F002058220120014B40421A607047982F002010B501F04FFC10BD10B501F061FC10BD10B501F065FC10BD10B500F067F910BD10B507490E
:4042C000044609780220002907D1204601F080FC002802D120460BF0A1F910BD7C030020FFB585B0002568460E9F057339481C460078002802D0082009B0F0BD10990F9887
:4043000001900097029105A807C800F067F80028F2D10120694603AA0D73002C1BD0002113E08B00E55A082D09D91E19B678002E05D0083DE55213785B1C137003E004298A
:4043400001D2012003E0491CC9B2B942E9D31178042900D300200028CED110990F9800F0A1FF002801D00120C6E701F0FFFB1A480599016021888180A188C180A27A0272C8
:40438000A17B4172A089012540084843A0810220A073208950432081A5726846037B22460799069800F0A2F80028A5D16846094C007B607001F0F3FB00289DD1064808F0BF
:4043C000D7F8002898D108F0F3F8002894D1257092E7000064020020B8050020FFB53A4F1C4603463F780020364A0A9E0B9D002F12D100290FD0029991420CD3002B0AD081
:40440000002C08D00999042905D3002E03D0FF216E318D4202D2012004B0F0BD00210A460D463FE08B001E19B678002E36D0E35A002B33D073435B199DB20B0000F048F8C6
:4044400006040E15191D253F2388FF27A678233BEB37BB42DFD2032EDDD31FE0A3880C2BD9D91A4EB342D6D818E02389302BD2D114E0A389482BCED110E0228A134E13462F
:40448000233B223EB342C6D208E0A38A0F4F1E46233E223FBE42BED29342BCD80028BBD1491CC9B2099B9942BCD319461C2251434A190449521802998A42ACD8ACE7002094
:4044C000EEE70000D808000064020020DCFF000030B47446641E2578641CAB4200D21D46635D5B00E31830BC18470000FFB50F4606460024384381B01D46800701D00124E1
:4045000038E0FEF791F9FEF77FF900F097FA00282ED100F0D3FB00282AD11849084600F0F5FE0004000C23D13000154E04D03060B7800020F0803581AD1DEFB2394603985F
:4045400000F046F804000ED1B088F2880837801AF9B280B201F0CAF9002801D0012407E0E8B200F019F900F031F906490120087000F076FA204605B0F0BD0000BD46000040
:40458000C40500206602002010B503480078012801D101F04DF810BD6602002070B5084B0446DA889E8800205518B54206D81D68AA182260DA885118D98070BD032070BD66
:4045C000C40500200148008970470000C4050020F0B587B007460D4600208900009006916846FFF7DBFF844600285DD1304800990160002117E02E4B88001A6806291154D5
:4046000006D22C4C0419667882185670628805E0C419203CA67A8218567022891B68C018491C4280C9B2A942E5D300242DE0601CC2B2059025E01E4FA3003968960058188A
:4046400040887118039604904E88B04217D938466F46FE80B6464F786E4677710297049F4F800168039F5E18767879184E700168764659184E800068029F18184770521C69
:40468000D2B2AA42D7D30598C4B2AC42CFD36046002809D168460699FFF780FF8446002802D1054900980860604607B0F0BD000068020020A07201006C02002070470000D4
:4046C00010B5002809D005494A68002A05D0011F08788000105801F0B7F810BD6802002010B50446FFF76EFFC0B2801DA0420CD307484068002808D0A100405801F016F805
:40470000002801D00470001D10BD002010BD000068020020F8B516460D460446FFF752FFC0B2801DA04203D20020C0430090F8BDB2B2E9B2684601F01FF80099481C03D00B
:40474000024AA000526811500098F8BD68020020F8B50746FFF736FF801DC6B20A49002005460C680DE06178002907D06188B94202D32078FFF7B4FF002804D1241D6D1C68
:40478000EDB2B542EFD3F8BD6802002010B5002801D0FFF795FF10BD70B506460948002504680BE06178002905D062882078121D0023FFF7AFFF241D6D1CEDB2B542F1D39C
:4047C00070BD000068020020002070471CB5002469460C70142001902346054A05480FF025F904480068401C00D1FF2420461CBD49480000700200203EB5124A0146FF2009
:4048000000230124126800290DD0012914D0042908D104206946009308814B8110460FF000F980B23EBD6846009304814381694610460FF0F1F8F4E768460093048143818A
:404840006946EBE77002002070B545890468416800890300FFF73CFE06240408081D2124002006F0C1FC1BE0022908D0C8B22A4621460DF0C9F92046FFF788FF10E00220EB
:404880002A4621460DF0C0F92946204600F00AF806E000200EF0BEFD02E020460FF066F9002070BD014B0022DB6818477402002070B5448905680089022803D0032809D063
:4048C000FF2070BD2246094C0023A46829460120A04708E0FFF7E6FC241DA2B200232946022007F028FD002070BD0000740200207047000002480021416001804180704745
:404900007402002070B50C46002186B016460391012802D0022859D116E003A9012007F062FD01281BD1039D324621462846FEF7D0FC0095287801900220694608814E8109
:404940006846FFF7B5FF41E0214D002B686809D0049004A9022007F046FD01281DD0022006B070BD002812D0298840182146FEF7B0FC28880024801980B228806988091D4B
:40498000884206D12C801348FFF792FF03E00320E6E788421AD96C6018E004986860E278A378110219430B4A698000231060E3565360032313815181A1788170E178C1704F
:4049C0006178417021780170042028800020C7E774020020D00500203EB515460C46022803D004280CD000203EBD0091019002206946088107484A8100680FF012F807E050
:404A00000DF002F9044B0022DB6829462046984701203EBD7002002074020020014AD1609060704774020020034801688068081A0A21484300097047DC05002010B5FDF72B
:404A4000E7FE542204490548FEF743FC03490120C870002010BD0000BC720100BC08002010B5FDF7CDFE10BD70B5134C2368002B08D0207B1149C20705D040084000207357
:404A80008868A08070BD88680B4AA18880B29268814203D90A4D691A091802E0814202D2411A5118A160A080A0689842EAD300F015F80EF0D3FF70BDDC050020C0102E404F
:404AC000FFFF000010B508461946FFF7A7FF10BD704710B5FFF780FF10BD000003480021016041608160C16070470000DC05002010B502000DD0FFF7F1FF074C0321207B5B
:404B00000843207310010A21FDF76EFF2060002010BDFF2010BD0000DC05002000B504480A21806848430209FFF7D8FF104600BDDC0500200248007B8007C00F7047000043
:404B4000DC05002010B537490868002802DA364B01221A70022290430860344800693149C00B4031096A08425AD0012000F074FA2E482F497C30FDF7D9FD2A480E216C304C
:404B8000FDF7D4FD294820218430FDF7CFFD274814219C30FDF7CAFD2448FF21C131A430FDF7C4FD2148FF212F31B030FDF7BEFD1E482049BC30FDF7B9FD1C481E49AC3054
:404BC000FDF7B4FD1C491948491CB430FDF7AEFD16481A49B830FDF7A9FD14481849CC30FDF7A4FD114817490830FDF79FFD0F481549A830FDF79AFD0C4814498830FDF7DB
:404C000095FD0A4812498C30FDF790FD07481921C9029030FDF78AFDFDF78AFD002010BDFF2010BD00F02E408402002000002E4055650000320300002F3F00003102000013
:404C400010520000EC160000FA12000031D000003AE3000070B50646581C80B245086D00002408E0304600F07FF81055000A1119A41C4870A4B2AC42F4D3D80705D0D01834
:404C80002038D15CC47FD454C17770BD30B50A4C002100195B1E07E0541864782502545C2C430480891C89B29942F5DB994201D1515C018030BD000000102E4010B5FF2003
:404CC00000F0CAF90F49FF2048700E481021801D41800121417001700A490020C91C4870FFF730FF04000AD100F0DEF807210648FDF71AFD044807211830FDF715FD204626
:404D000010BD000084020020CC112E4030B504465B1C1804450C002308E0204600F024F8241D59005B1CA4B250529BB2AB42F4D330BD000070B500210A4D5B1E0AE05418C2
:404D400064782602545C344346193480001D891C80B289B29942F2DB994202D1515C4019018070BD00102E40014940180088704700102E40014A80180180704700102E4046
:404D800010B50B490020487000F08EF8002000F089F9002000F076F907210648FDF7C4FC044807211830FDF7BFFC002010BD000087020020CC112E4010B506480078012851
:404DC00003D102210448FDF7B1FC02490020C91E087010BD8702002070F02E4010B50B46062812D006DC01280CD0032801D1FFF7C7FF10BD0A28FCD00B28FAD1054800786D
:404E0000107010BDFFF75AFF10BD1146184600F065F910BD8A020020F8B5204DAC6A0127A0071F4E002816DA307806280ED1286A384328621B480069F903084381B2194816
:404E40001030FDF773FC042000F006F9134802212830FDF769FCE00711D0062000F0FCF80F49FF20C91E48707078002802D1686B38436863094801212830FDF755FCE00574
:404E80000BD53078042802D1052000F0E5F80348FF2101312830FDF747FCF8BD40F02E408702002000002E4010B503212348FDF73DFC0120FDF7A0FC20483038406A204CCB
:404EC00080076178800F890001431C480C38FDF72DFC6078002808D0401E022181401820FDF772FEC000083800E0B82081B21548FDF71CFC1348032109021438FDF716FC4B
:404F000010481149B830FDF711FC612189010F48FDF70CFC0D480321001FFDF707FC0C490C48FDF703FC0B480B496038FDF7FEFB084801218838FDF7F9FB10BD70F02E406B
:404F40008A020020D8102E4090890000041E2E40FF0F000058122E4020900000044800684007400F022801D0002070470120704700010B4000B5FFF7F1FF002805D00948C7
:404F80000168C908C900016000BD0748016A490849000162054801690122D2039143016100BD000000010B4040F02E4000002E400849087806280BD148780749002803D138
:404FC000486B400840004863C86A01221043C862704700008702002040F02E4001480078704700008702002002484078022800D0012070478402002000B50300FFF768FA50
:40500000080D050D0B070507090D012000BD032000BD042000BD022000BDFF2000BD0000074A9168D26889B2064B92B2994204D105498A4201D1012100E000210170704780
:4050400080002E4033D000003FE3000001494870704700008702002010B50446FDF7D4FB072C01D9FF2C01D102480470FDF7C8FB10BD00008702002001494870704700003B
:405080008402002010B5064A012805D01921C9021046FDF74BFB10BD1D21C902F8E7000090002E4010B50A4A141D012808D009491046FDF73BFB08492046FDF737FB10BD28
:4050C00004491046891CFDF731FB0349491DF3E788002E4031D000003AE300000078074AFF2803D04C2804D9553803E01078087070474F380870107070470000860200208F
:40510000F0B50122002830D000292ED00224420600D003246D2342065B06D21800D0641C034600221EE00C2516466E43104D00277519AF720E4F002ABB51696007D0661EEF
:40514000B24209D106466D367606760E05E05E06760E8027BE1B00E080269B198919521C2E81D2B2A242DED300221046F0BD00005C070020074900200C2242435218927AD2
:40518000012A05D0401CC0B20428F5D300207047012070475C070020F8B5044616460F000BD0184D6868A04203D9FF306E30A04203D3FF206E30864201D90120F8BD2046AB
:4051C000FEF778F800281BD0324639462046FEF780F8F0B200210C224A43521913895668F718A74208D90127A41B1B1B9772834206DAC01A1469C0B2491CC9B20429EAD3F3
:405200000020F8BD5C07002010B500F05BF80648FF22C1686E320C460448FEF75AF803492046FFF76DFF10BD90020020EC050020002070470020054A002902D0012902D010
:4052400002E0506000E09060002070479002002070B5084C154608460549A26889182A46FEF737F8A0684019A06028B270BD0000EC050020900200203EB50A226946FFF7A5
:40528000E7FF044606480A2200686946FEF712F8002802D00020C0433EBD20463EBD000090020020002803D0FF226E32914201D2FF20704702490A61C86000207047000016
:4052C000900200200248002141608160704700009002002070B5074C15460548626880182A46FFF759FF60684019606028B270BDEC0500209002002010B503490A2209680D
:40530000FFF7E8FF10BD00009002002010B50F4A002313600E4A13600E4B18600E4801600E49012008600E490860000290600E490C4808600D4914300860FF381538506030
:4053400000F0BCF800F0CAF9002010BDBC020020A4020020D0020020D4020020C0020020B00200208C080020B4020020C8020020014610B50020002910D0094B1A689C6826
:405380005118A14209D25868196080188A0704D08A07920F891A091D196010BD002010BDA4020020F8B50024164E671E321F3D463168136806E01422624310328A58521CA7
:4053C0001BD0641C9C42F6D36A1C14D02C461422544322460C3288500C214843FFF7C8FF3168002808510AD031680020103408517068401C70602846F8BD2546E4E73846DA
:40540000F8BD0000B4020020F3B50026F64381B000281BDB1E490968884217D80299002914D01B4F142204463F1D54432546396810354859401C09D0FDF7E6F938682F1F8D
:405440004159C359994203DBFDF7DAF93046FEBD214608310091465801590C20704308180C220299FDF735FF0948761C001D0068C159B14200D100260549009A091D86505C
:4054800008684159491C4151FDF7BAF90020FEBDB0020020002803DB07490968884202D90020C043704704491422091D096850431030085870470000B0020020F0B50020B6
:4054C0000D4A451E0346171F50600FE014260146714314680E1DA3510C461668083433511668083435511468401C635039688842ECD30020F0BD0000B4020020F3B500260E
:40550000F64381B0002841DB2349096888423DD8029900293AD0204F142204463F1D54432546396810354859401C2FD0FDF76CF93868415900292BD0211D009146580C21B3
:40554000005971430F46C1190C220298FDF7C1FE11480021001D0068761C00590C34C0190160416081600C48001D00680159B14200D100260849009A091D86500868415980
:40558000491E4151FDF73CF90020FEBD3046FEBDFDF736F9FAE70000B0020020FEB504460D4600201E49089E0860471E009001900290002C11D0486885420ED2002A0CD080
:4055C000002E0AD0642E08D808460C3001681C2068430C18207A002801D03846FEBD0120226020721846FFF7DDFE6060401C13D06681A6810A4827610C3067610179A942B3
:4056000000D205710021684601810A462846029B00F040F82846FEBD00202072DDE70000BC02002038B50124009400F039F838BDFEB50027164EFF433D4600240EE01C20C4
:40564000316860430818017A002906D04068FFF721FF002801D0254603E0641C3079A042EDDA681C12D01C2130684D434419FDF7CBF869466068FFF741FF0546FDF7C0F8FA
:40568000002DD9D1216868468847D5E7FEBD0000C802002038B50024009400F001F838BD1FB500220C49541E0A60002811DB496888420ED808491C220C310968504308189D
:4056C000406801A9FFF7A0FE401C02D0002004B010BD2046FBE70000BC020020F0B50021114A4D1E174611710C3F0B46BD6016E008461C2460431668041D35511468064697
:40570000235014680836A3551468361DA353044616680A34335318301468491C255078688142E5D30020F0BDC802002038B500210091002811DB0F49097888420DDA0D4DAC
:4057400004010C3529680859002807D0201D0818694600F071F9002801D0002038BDFDF753F828680F34015D491E0155FDF748F8009838BDD8020020F7B582B000250298F9
:405780006E1E06602E48D21C024017462D4A2C4610460C380178106805E02301C358002B0FD0641CE4B28C42F7D3711C28D03401211D40180191039900F02CF900281FD1F9
:4057C00001E02646F1E71F48016820460C300F521C480399026820460E30115419480399026820460F3011540398784300F0A0F8144900280968085102D00024009011E029
:4058000001251AE00F48016801980818009900F02EF9002801D0012502E00098C0190090641CE4B203988442ECD3002D05D10298066004480179491C0171284605B0F0BD77
:40584000FCFF0000E4020020F8B50D4600216A468C461180002839DB23490978884235DA214B04010C3319680A59002A2ED020460C300B5A801C0E5C1846704380189542A8
:4058800024D3854222D2002006E007465F43BF18AF4206D0401CC0B2B042F6D36046002814D0114E271DC8190C366A46294600F008F900280AD168460088012808D03068C0
:4058C0002946C01900F0D3F8002803D00120F8BD0020F8BDFCF798FF30680F34015D491C0155FCF78DFFF3E7D8020020F8B50F46002400F033F8002817D10C4900220B4615
:405900000C334A600EE021011D680E466A501D680C36AA53B61C1D680F31AA551D68641C6A54E4B2BC42EED31A71F8BDD8020020014610B5002000290CD0C91C064B8A0836
:40594000596892005C888A18A24202D898685A60401810BD002010BDD8020020F8B5064600200F4D009029700C0121466846FEF715FE00280CD129460C3100980860301B06
:40598000001F84B221466846FEF708FE002801D0FF20F8BD6C800098A8600020F8BD0000D8020020F8B5002827DB19490978884223DA174C05010C342168485900281CD0F2
:4059C00028460C30085A009028460E300E5C401C0E5420682F1DC01900F064F800280CD12068002445590EE0094829460C300068C01900F03CF8002801D00120F8BD009839
:405A00002D18641CE4B2B442EED30020F8BD0000D802002030B50D4604000BD0A800FFF787FF6060002805D000202570C0436080002030BD012030BD70B50D46040005D089
:405A4000002D03D00220205E002801DA012070BDFCF7DAFE0221615E60688900405828606088401E6080FCF7CBFE002070BD70B50D46040007D0002D05D002212078615E19
:405A8000401E814201DB012070BDFCF7BDFE6088401C00B26080616880000D50FCF7B0FE002070BD10B5040009D0227800216068FDF718FC0020C0436080002010BD012045
:405AC00010BDF0B500231D46002802D00224045F0AE00120F0BD46689F00F6598E4201D1012503E05B1CDBB29C42F4DA15700020F0BD00000148007870470000EC020020A4
:405B00007CB505460024FEF7CDFBA8796946087000A8062229460130FDF7DBFB0021684605F0C0FD0C2804D0072804D01F2804D004E0022402E0042400E0272420467CBD01
:405B400010B502280BD0032802D0042809D102E000F050F905E000F01FFAFF2801D100F02FFAFFF73BFAFFF747FA10BD10B500F057FAFFF733FAFFF73FFA10BD70B504467A
:405B80000025FEF78FFB002C06D0A079012803D8214603F0E0F800E00125284670BD10B503240EF0ADFB002810D10EF051FB00280CD106F067FC002808D100F029FC0028CE
:405BC00004D106F01DF8002800D10024204610BD70B50025044600280ED0A07901280BD8FEF760FBA0790028204602D003F06AFD03E003F01FFD00E00125284670BD70B5DB
:405C000092B00E4605460024FEF74CFB03F0B8F900280AD000F0B3FD002806D0002D0ED0EA7F1F2A03D9012409E002242EE000A829460130FDF74DFBE87F69460870002EC4
:405C40000FD0002C22D1F27F1F2A01D901241DE008A831460130FDF73CFBF07F08A9087001E0002C12D10020002D04D010A9684600F0BEFD0120002E04D010A908A800F0B6
:405C80003FFE01E0002801D000F038FD204612B070BD10B5FFF7A2F9012801D1FFF7A4F910BD1CB5FF206946087100200870FEF7F9FA6A4601A90620FFF790F8694600203D
:405CC00008561CBD38B504460120002C20D0617801291DD800290BD0FF25E535FEF7E2FA2846FFF741F8C0B22070072803D00EE0FF25CD35F2E70020694608706846FFF775
:405D00008FF969460878012801D108202070002038BD70B504460120002C1FD06178012902D92278092A19D8002905D0FF25E5352078092803D004E0FF25CD35F8E70820B4
:405D40002070FEF7AFFA2078082808D00020FFF7A9F921782846FFF70DF8002070BD0120FFF7A0F90721F5E770B50D46040001D0002000E00548002802D0012102F098FD5D
:405D80002946204603F078F970BD00003009002038B5054600200446009022466946284601F08EF80098002801D00EF08BFAA878214602F0C0FEA878214602F0AFFE641C05
:405DC000E4B2052CE9D338BD064A02235188891C89B25180814201D8102900D95380508870470000EE0200200148407870470000EE020020F8B5624CFFF7F0F8012846D1CB
:405E000060480078002842D003F0BAF80028FAD005F052F90028F6D05B4E7078C00703D000F0B3FC0128EED0B07E0028E7D170780025002878D0000707D5AC20FEF794FFD0
:405E4000070B00F061F9384321D14F484178684604F0E2FF4D4F06462079B9784018C1B2B14271D803F08CF8002810D0464C203402F053FE6846008802F08BFE02F066FF1D
:405E800043490988884203D10120FFF7E5F874E04049012008703C48807B00282BD04034608A002827D0E07E002824D1A1200001FEF75AFF208A4000B04218D9787800282E
:405EC00015D1A12424012046FEF74EFF0221884301462046FEF74EFFFF24F1342046FEF743FF0321090201432046FEF743FF3878002800D03D7002F0AFFE0120FFF7A6F8AF
:405F0000244C08E0FCF72EFAFFF768F806282CD02078002829D0FFF761F8062825D020780128EFD021E0FFE703F02AF8002824D0142002F02EFE174C0120207002F08CFEC9
:405F40000020FFF783F809E015E0FCF70BFAFFF745F8062809D02078002806D0FFF73EF8062802D020780128EFD0207801288BD1FFF700F825700020F8BDFF20F8BD0000F5
:405F8000FC0800208402002010090020F602002008030020EE02002010B50848FF244078002809D102F0ECFF012805D1FEF704FF0720FFF751F80024204610BD10090020CF
:405FC00038B5FFF70BF8012801D0002038BD02F0D7FF00280AD0114C6078C00703D000F0D4FB012802D0A07E002801D0FF2038BD617800290FD0684604F00EFF022806D995
:406000006846008802F0C5FD012002F02BFE0320FFF722F8D9E70020F7E700001009002038B5FEF7DBFF042819D0052817D006281AD0032842D007280AD100206946087085
:4060400002460120FEF7CAFEFEF7C8FF0128FBD138BDFCF787F9FEF7C1FF0128F8D0FEF7BDFF0128F5D138BD02F01AFE05E0FCF779F9FEF7B3FF012803D0FEF7AFFF0128E3
:40608000F5D1A12424012046FEF76EFE01220E4983079B0F0A70022BE5D149880029E2D0104301462046FEF765FE2046FEF75CFE410849002046FEF75DFE38BD02F0F4FD85
:4060C0000120FEF7C9FF38BDF6020020F8B50646002403F05DFC0546304603F071FC00210346012632468A40174610462F401840002F03D0002801D1224394B2491CC9B257
:406100000529EFD32046F8BD70B500252C460A4E03E0002C01D0002000E030460079002803D02046FFF7D2FF0543641C2406240EEFD0284670BD0000300900201CB5002081
:40614000694648706846FFF7BDFD01AA69460A20FEF744FE6946042008561CBD10B50C4601F088FB002809D00179002906D0C1788078224603F053F8002010BD022010BDDD
:406180000148007870470000FC0800204030C07E002800D00120704700B500F001F800BD88214843064940186030417F491CC9B24177052901D300214177C8B2704700009B
:4061C0001009002013B501F055FB04000BD002F05AF8002807D0214601AA0A310620FEF7FDFD00201CBD02201CBD000010B50C4601F040FB00280AD002F045F8002806D073
:40620000224604490A20FEF7E9FD002010BD022010BD0000E5080020F3B581B0074601460026029803F0ACFB0446002F01D0002500E0154D002D21D0284601F051FB032C4B
:4062400004D13946029803F0C5FB06463846029902F064FC032C06D0002C10D00121384601F0F2FC03E03146384603F0FDFD284602F004FB0221284602F01AFBFEBD384641
:40628000029902F04BFCFEBD3009002070B50446002504F02DFD002801D00C2070BD2078611C03F0CDF8FF2802D01F25284670BD03F01AF9FF2804D02178621C02F0A0FBA8
:4062C000F4E70725F2E710B504F012FD002801D00C2010BD03F08CF8002010BD70B50D46044610210DF02EFF1021601806460DF029FF334610221946204604F02DFD1021AA
:4063000030460DF01FFF02202870204605F0C2FB70BD70B504464078217802028006850FE0781143A67809050002090D0643084601F0A0FA002812D0022D10D0032D0ED0B6
:40634000002E08D00179092909D0002907D0214600F0C1F870BD0089002105F088FA20460DF0B0FF70BD0020704770B50446002504F0BEFC002801D00C2070BD2078611C75
:4063800003F05EF8FF2802D002F08FFF00E01F25284670BD10B505F033FC00F02FF9002010BD000010B5014605220A48FCF791FF084905220846A038FCF78BFF00F0A4FEB9
:4063C00004488022B038C17B1143C17300F052F910BD0000C009002010B5044600786178E2780843A17811430843217908436179084305D004F066FC002803D00C2010BD2C
:40640000122010BD204603F05DF9002010BD000010B5044804F0DAFD02F050FF00F004F8002010BDCC080020F8B5134D00266E706E736E716E76AE76EE766E75AE70EE703B
:40644000AE712F46EE730120B03778723F207871FF20B87100F05EFA04F01CFA01F0F4FE0024204601F0C0FE641C2406240EF8D03E72FE71AE73F8BD1009002070B50546F5
:406480000E46084603F084FA0446304603F098FA0121A9400A46224001400A4301D0012070BD002070BD10B50446084603F088FA0121A140014201D0012010BD002010BD09
:4064C00010B5FEF78BFD032804D102F0EDFB0120FEF7C2FD10BD70B5044600790D4609281CD000281AD020464030817E491C8176204602F0C3F9A078FFF74EFE0646024641
:406500002946204600F00CF8002806D1A0783146FFF72AFC28460DF0D5FE70BD0846FAE7F7B5054648780C468006870FC8788978000282B0014368468180284601F0B8FEAC
:40654000060007D021462846049A00F048FC304605B0F0BD384600F045FD0746034601AA2946204600F01AFB68468088231DC0B20090A878FF22049902F038FD6846808841
:406580003B46C2B2A878049903F06CF9DFE770B5002500242846FFF799FD060010D03046E040C007C00F07D02146284602F0A9FA21462846FFF730FE641CE4B2052CEED34F
:4065C0006D1C2D062D0EE4D070BD000070B50024094D03E0002C01D0002000E028464121095C012901D100F0BEFB641C2406240EF0D000F03FF870BD3009002010B502F06A
:406600005DFEFFF711FF0DF0C5FE002010BD0000F8B5002400F0B3F80125012800D1012404F0DAF8012801D102200443104F00203E4620360423082203E0002801D00021CA
:4066400000E031460979002907D001290BD002290BD0114681402143CCB2401C0006000EEBD07C70F8BD2C43F7E71C43F5E700001009002070B5144E0024F07BC00921D0DF
:406680003546203503E0002C01D0002000E0284601F004FE012814D0641C2406240EF2D0F07B4006400EF073002403E0002C01D0002000E0284600F056FB641C2406240E2D
:4066C000F4D0002070BD00001009002010B5FFF79FFF10BD10B50B4681791943817103D08078114603F066F810BD10B582798A43827102D1807803F075F810BD70B5FF25CB
:40670000D53502242846FEF72FFB0C4A9178002901D0022906D1137852789A18282A01D9032402E0032900D101244105490DE00201432846FEF71EFB70BD0000F202002064
:4067400010B500F022F8002807D0012805D0032801D0042801D0002010BD012010BD014610B50020C90701D000F009F810BD014610B50020C90701D000F001F810BD10B5A6
:406780002020FEF7F1FA000A10BD10B51820FEF7EBFA410501D5042010BD4007800F10BD38B5044640060CD5684602F08DFA0220FFF78CFF072002F0AFFE6846007801F056
:4067C0001DFC200613D5FFF7E0FF01280FD1684602F07AFA6846007800F005FB072002F09BFE012002F0C6F80220FFF76FFF38BD10B5034A0178117002F09DFE002010BDE6
:40680000F202002010B50446FFF7B9FF002801D00C2010BDA27B01211848002A827801D00A4301E05208520082706279012A0FD0C17849084900C170207901280CD06188C5
:40684000208803F081FE2080207904280BD00DE0C2780A43C270EFE7E01D02F01BFF0848808C208002E0E01D02F014FF054920798870204602F06EFE002010BD1009002090
:40688000BC080020F202002038B50478FFF777FF844201D10C2038BD002C18D0072069460870FFF74DFF012807D10121684600F091F8012801D0092038BD6846007802F034
:4068C0002BFEFFF71BFF02F072FE012014E0FFF737FF012806D1684602F0F6F96846007800F0B4FA072002F017FE02F057FEFFF746FF0028FBD10220FFF7E8FE002038BDB2
:4069000010B5034A0178517002F02CFF002010BDF202002038B568460DF06AFC002801D01F2038BD01210098C90201804180002505714571857107214173857302F00AFEE6
:40694000009C202200212046FCF7CCFC25702A460021601CFCF7C6FC204602F0ECFD204602F000FF00980DF0ADFC042200210248FCF7B8FC002038BDF202002003460848D0
:4069800000B5834209D8184600F074FF002804D00089984201D1012000BD002000BD0000FF0E0000074A9179491C8906890E917138220A4092014907090E11430843024952
:4069C0000840704710090020FF0E0000C006C00E70470000F8B507460E4600240D4803E0002C01D0002500E005462979002905D0641C2406240EF3D00020F8BD204601F0A5
:406A0000F3FB2E712046FFF7CDFF28813C700120F8BD00003009002010B504F0F3F90222002100F003F802F0E7FB10BD10B5094B40074907000F090F185A595A40185043C0
:406A4000C0086421FBF7D0FF002800D1012080B210BD000010730100F7B53D20405C88B016460C46002829D030786946087200252046FFF78BFB012800D00125204603A9B6
:406A800038300191009023460327A17E34332A46206A04F0BBFA02A8089900900B46019120463A4603A9243004F038F902466846007A3070204601F083FB10460BB0F0BD24
:406AC000FFB587B00C4605461078694608723D20005D1746002826D000262046FFF756FB012800D00126204603A93830019100902346A17E34333246206A04F087FA02A889
:406B00000090291D019120462B1D03A924300A9A04F004F902006846007A388002D1204601F04EFB10460BB0F0BDF7B53C20405C88B015460C4600280CD028786946087241
:406B4000002806D000262046FFF720FB012803D003E01F200BB0F0BD0126204603A938300191009023460327E17E34333246E06904F04CFA02A8089900900B4601912046B9
:406B80003A4603A9243004F0FBF802466846007A2870204601F01EFB1046DBE7FFB505463C20405C87B016460C46002810D0084601F07EFB01280BD0308869460883002824
:406BC00009D000272046FFF7E1FA012805D005E000200BB0F0BD0220FBE70127204602A93830019100902346E17E34333A46E06904F00CFA06A80090291D019120462B1D76
:406C000002A924300A9A04F0BBF802466846008B30806846008BA870000AE870204601F0D9FA1046D5E7000010B518490446484028D0002101231A468A40904221D0491C63
:406C40002029F8D300212046C840C243520618D0400616D0491C1929F5D3A0B2210C020AC3B2884201D193420BD01F21204600F0BEF9182805D8A00E062100F0B8F902283B
:406C800001D2002010BD012010BD0000D6BE898E70B50D460446FFF779FA01280AD0E87AA97A00020143A07802F044F9012808D0002070BD00222421204603F08FFB24205F
:406CC00070BD28214C200155204600F005FD282070BD0000002801D0002000E003484030C07F012800D0002070470000300900200146002049070ED50021084B03E0002959
:406D000001D0002200E01A461279022A04D0491C0906090EF3D0704701207047300900200146002049070ED50021084B03E0002901D0002200E01A461279022A04D0491C22
:406D40000906090EF3D07047012070473009002010B5044680346068002803D00DF0C6FA0020606010BD38B50546002000902846FFF70CFA01281FD1284601F084FA0028E2
:406D80001AD028792C46C01E40340300FDF7A0FB07050511110511141100284601F08EFA012806D068460DF033FA002805D0012008E060780028FAD038BD2846009903F007
:406DC000B9F90220607038BD4030417070474030817070474030017070470171704792001018C166704770B53C2501F0BBFC040004D020460021433002F024F829462046CE
:406E000000F0FCFC002C02D0A07801F037FC70BD10B5002801D0002000E00348002802D0008904F098FD10BD3009002010B5002801D0002000E00448002804D00179072918
:406E400001D100F08DF810BD3009002010B501F089FC002802D0807801F010FC10BD10B54121095C012901D1FFF77DFF002010BD70B50546008A00281ED010491122897A28
:406E80001140C90618D5294640314A8A098A521C4A4392B2D10800D10121540801E0621A94B2A042FBD9FEF725FE012804D1298AA878224602F02EF970BD0000BC08002043
:406EC00000230B60052A04D292001018C26E0A60C3667047FEB506460020009001908020855968460DF094F9002801D00720FEBD20213046009FFFF7F8FB34464034A08AA3
:406F0000E080608AA080208A2081304603F052FBA88C218A884207D1288A618A884203D1688AA18A884203D0F07920210843F071688AA082288A6082A88C2082E98CE182C4
:406F4000FEF742FFE081208AFEF74EFF60733946304603F017F90120A0700198FEBD000038B5044600200090A079002814D14020015D052901D00E290ED168460DF048F972
:406F8000002809D12046009903F010FA03481021C28A2046FFF79EFB38BD0000BC08002010B50446807803F023FB204601F0EEFA002010BD10B50B4604460146184602F002
:406FC0003DFD002802D020460DF086F910BD13B5044601AA11460620FDF700FF6846818861811CBD002800D102207047704770B500231A46491E0CE00446D440E507ED0F45
:40700000541C0646E640F407E40FA54200D05B1C521C8A42F0D3D8B270BD0000F8B504462346401D543300909A1EA078911E01F062FE25464035A88A298A8000FBF7D4FCF3
:40704000401E81B2688A884203D96982A07802F058FC20460021433001F0F4FE8020FDF783FEE88103F0CEFEE989891C8AB26179FFF7DCFC02F0C0F803F0C4FE2A8A61799C
:40708000FFF7D4FC074602F0A9F8688A00280BD0FF26F1363046FDF767FE0321090201433046FDF767FE02E0002002F018FCFF206130FDF759FE6E8A002E0BD070431049C8
:4070C000FBF782FD0004000C01D0401C80B20D49488002E00B4800214180288A704381B2A07802F04DFB2837B9B2204603F044FAE98AA07802F064FAA07801F03EFDF8BD5C
:4071000071020000F602002030B50021124C0A46A05C002308E0C50701D0491CC9B201290AD840085B1CDBB20028F4D1012903D8521CD2B2052AEBD302290BD20748811873
:40714000C87B0122082B03D29A400243D0B200E01043C87330BD0000C0090020100900207FB504468034616805460E46183108226846FCF7AEF831462031082202A8FCF7A0
:40718000A8F8102168460CF0DDFF6068102108300CF0D8FF60682B46083024331022694603F0DAFD7FBD10B504460821FFF79DFA10212046FFF799FA2079052822D00628FA
:4071C00020D008281DD12189002004F00FFB072020712046FEF7DAFF014620464030012916D00E21017000210176204601F052FA2046FFF7ADFD2046FFF73AFE2046FFF7CF
:407200002EFE10BD20890122002104F0D3FADEE70521E7E7FFB581B01F4604460821FFF764FA10212046FFF760FA2079082803D0092804D0042203E00422012501E00922F4
