:400000000040002011000000051D0000051D000008B501F091FE0000F8B572B680260024444DF6002C60211C321C434803F074FE211C321C414803F06FFE992302273C20EC
:400040003F4A1B0413603F4A3F4914603F4A404E1460404A1360404A1360404A13783B4313700B788343283803430B70162113780B43137040223A4B1A603A4A3A4B1A6064
:4000800060223A4B1A603A4A3A4B1A6080223A4B92001A60394BE13AFF3A1A60384B0E3A1A6002F049FD374802F05EFC012002F04FFD302002F068FC334A344BFA201A60DA
:4000C0008023334ADB0533601368C0001F431760304B314A1A6008222B6893432B6002F0D9FC2E4802F0CCFC88212D4A2D4B89011A602D4B2D4A1A602D4A11602D4A1A60F6
:4001000080222D4B12061A6080222C4BD2021A6041222B4B1A602B4B013A1A608023DB0533600323284A1360284A1360284B1C60F8BDC0466CF02E4000300F4000400F40A6
:40014000000302400000024001700F40080004400C020B4020500F4030500F4000700F4000020440000C1800080204400003044000101B00080304400C030440180304401B
:4001800030001040001BB7000600008004010B4078002E407C002E402D3E0000DC050000007F2500040301400000014041FF00800003014040FF008008010B4000010B406B
:4001C00024010140080101403000304030003140000E3F4010B5064C2378002B07D1054B002B02D0044800E000BF0123237010BDD8160020000000000C81010008B5084B64
:40020000002B03D00748084900E000BF07480368002B00D108BD064B002BFBD09847F9E7000000000C810100DC160020C81100200000000008B502F03BFD08BD08B502F00C
:40024000ADFC0C4802F0ECFD0120032102F0CAFC0120011C02F0DCFC0749012002F004FD8020000102F02EFD8020400002F0E6FC08BDC04635020000FF7F000030B589B02D
:4002800062B601F027FD1A4C012801D1207001E00023237001F024FD002802D0154801F099FF00F05BFAFFF7C9FF8020000102F009FD207801F040F90F4B1A78002A14D03F
:4002C000002268461A7010F0A2FA6B461B780B4D002B00D001230A482B7010F0EFFB012001F044FE0028FAD1287004F025FDDCE7F51600204E170020F81600204317002066
:4003000044170020F0B50C1C89B0262862D01FD8212800D1CBE10AD8022853D020283FD0012800D0DCE1BE4803F018FE2FE0232800D1C6E100D2C9E1242800D1CDE125284E
:4003400000D0CDE10978B74803F08CFD0022C5E1462800D12EE107D828286CD043D32A2864D02B2825D0BBE14C2800D1CAE007D8472800D0B4E10B894E68019300244BE132
:400380004E2800D193E0522800D1EBE0A8E102F0D3F9A54B1B681B04DB178342F7D19FE103A8031C26CC26C306CC06C301F07CFA96E19E4B1A78002A00D191E100229C4889
:4003C0001A7087E10B78022B00D089E101F0AEFE98487FE1984B1B78032B00D180E1002001F032FE7CE19548082203F08CFC8F4D934C6B78002B07D1924803F0AFFD20789C
:4004000091490EF073FC6BE1A978904803F02AFD012203AB1A80EA706078023A5A80237800021843039911F0F5FB59E10822834803F069FC54E11E22854B7C4D1A82C822C3
:400440005B6812011A806E785A800A787E4C002E0BD18048111C03F005FD237A0120002B00D0301C01F0F0FD09E0A9787A4803F0F9FC237A002B02D1012001F02DFE02F0AB
:400480005BF90122684B1B68DB0B1340C0180028F5D12A716871A87102F090FC02F0D0F802F052F902F010F902F0BCF818E18B894D680E890E2B11D15C4B9A79012A00D0C4
:4004C0000EE100249A68B2189A60B44200D307E1285D013402F022F9E4B2F6E70F2B00D0FEE02A78514B1A73002A05D00120987102F064FC5948EDE00020987102F05EFC27
:400500005748E7E08B894D680E890E2B0FD1474B9A79012A1ED100249A68B2189A60B44218D2285D013402F0F9F8E4B2F7E70F2B10D128783D4B1873002805D0012098714D
:4005400002F03CFC454803E0987102F037FC444803F004FD3A4A507813780002184311F02BFFBDE0314B597B5A7801290BD1012A00D0B5E0A2890E2A00D0B1E0228919698E
:4005800052181A61ACE0012A00D0A9E0A2890E2A00D0A5E09B79012B00D0A1E000252389AB4200D89CE06368585D013502F0B6F8EDB2F4E700244D684E89B44200D38FE033
:4005C0002A199378DB0611D51379D2781B021343244A03A913800123194A0B805078023B4B8013780002184311F0FEFA0734E4B2E3E71C4A631CF318311917881A780878A7
:4006000012020243094D974201D101222A752A7D002A29D10434E4B2019B9C42E9D35FE0388101000182010008022540F41600204681010052810100462B0020BA29002089
:40064000482B00205D810100CC1100206B8101008C1200207D81010093810100AC810100C1810100D8290020CA78B078120202431C488242CED1002201272A751B78097833
:400680001B02194A0B43194913800B681F701388174A0B81507813780002184311F036FB0028B7D11348AF7103F058FCB2E7124B5B78002B14D10E4B1049187810F046FC3C
:4006C0000EE009680E4803F0CDFB09E001220A4B0C485A7503F042FC02E00122064B5A7109B0F0BD02290000D6290020DC290020482B0020AC810100F4160020541300206D
:40070000D8810100EA81010038B5012002F038FB0123084C084AA375A3690133A361934207D10025A57502F01DFB0448A56103F015FC38BDF4160020112700001182010063
:4007400008B5062002F0DEF8062002F0F3F8012002F0E4F8012002F0F9F808BD08B5062002F020FB002002F029FB022002F032FB022002F00BFB0F23094A1381094B0C33E6
:4007800003CB03C202F0D0FA074802F0B9FA01F049FFFFF7D5FF054801F092FB08BDC046DC290020CC1100200907000005030000F8B5031E2DD01849041C03F0F9FB1323BA
:4007C000002826D0201C3D2103F0E4FBFF25001BC2B22B1C0E2A1CD80540281C03F070FA211C2A1C061C002703F000FC0B4BBA001433D158301C2A1CFCB203F0E3FB0028EF
:4008000003D001371C2FF1D13C1C301C03F062FA231C181CF8BDC04622820100CC1100201FB50E2301AC238100230190A180E380074A211C507813780002184311F066FAB0
:40084000002803D0034B1B78022BF1D01FBDC046482B0020462B002030B5444C85B06378012B00D07DE031380E2800D97CE002F03BFD08192C3D7B7B7B7B7B7B7B7B7B7B74
:4008800059003B4D281C01F05DFC021E02D0394801210FE0384A0121137A0133DBB21372013B33E0354D281C01F04CFC021E04D00221304803F0D6FA56E02F4A0221137ACF
:4008C0000133DBB21372013B20E02D4D281C01F039FC021E02D027480321EBE7264A0321137A0133DBB21372013B0FE0254D281C01F028FC021E02D01E480421DAE704217B
:400900001D4A137A0133DBB21372013B0720D1544343D018A1700930291C062203F0F3F919481FE0194B00241B78022B17D1124B1A7AA24218D9072060431818057B195DAB
:40094000827B437B0095C57A01340195857AE4B20295407A03900E4803F084FAE7E70D4800E00D4803F0FAFA05B030BDF4160020EF29002040820100942900200D2A0020A3
:400980002B2A0020492A002053820100462B00205A820100828201008C8201002D4B13B51B780022032B02D0022B06D1012201AB31385A700E2848D801E0274846E002F01E
:4009C00093FC262F3235383B3E41444444444444080001AC201C06F095F920780138072836D802F081FC0406080A0C0E10121B482CE01B482AE01B4828E01B4826E01B48C5
:400A000024E01B4822E01B4820E01B481EE0012301A8037006F0B2F9002819D1174815E001A80223F5E701A80323F2E701A80423EFE701A80523ECE701A80623E9E701A85B
:400A40000723E6E701A80823E3E70D4803F086FA13BDC046462B0020F68301000084010008840100108401001884010020840100288401003084010038840100538201005A
:400A800040840100F7B5051C0192019A2B1A934229DA154E0C7837684B783E197678B446032662461640022E00D1203CE4B2261C303EF6B2092E01D9373CE6B20324FF1805
:400AC0007F783C40022C00D1203BDBB21C1C303CE4B2092C01D9373BDCB23601A3192B7002310135D1E7F7BD70160020F0B5B3B0002801D100F0EBFC041C00211B220BA840
:400B000003F00AF900211F2212A803F005F900213E2222A803F000F9002302AA13831726162202A9521809AD761807AF201C13702B8033703B700A93FFF73AFE1B2801D9F2
:400B400000F0C2FC02F0DAFB1C00C3043000C00438004F00C304A9009400A20060019B011D025F026802C304C30417030C025404250331037103AE032F04CA0348045D04D9
:400B8000637A312B01D000F09FFCD04803F0E6F901F0D2FDCE4B1B681B04DB178342F7D101F062FF00F093FCE37ACA483F2B01D000F08AFC00F089FC637A3F2B01D000F04E
:400BC00083FCC54C201C04F0B3F8A07861792279E37800906078019020780290BF4803F041F900F074FCBE4D237A6E78002E51D13C2B09D03F2B01D000F066FC0BA801F09C
:400C00000BFBB8480BA9B3E20934201C3E2103F0C1F9001B172802DDB34800F056FCB34B1B78022B2FD001F049FA311C1B220BA803F072F8291C6A7F27310B3AD2B20BA8DD
:400C40003A7003F060F80120391C021C331C00F04FFF3A7802200BA9331C00F049FF0BA801F0B8FA002800D1C2E3A14800F02DFC9B4A237A5578002D0CD13C2B16D19B4BCC
:400C80001B78032B16D19B4800F01FFC944B5B78002B63D0984800F018FC914BE0795B78002BF7D1FFF77AFE00F011FC3F2B40D000F00AFC271C0937381C3E2103F06AF948
:400CC000C01B1F2802DD8D4800F0FFFB1AAE291C1F22301C03F020F8391C1627022208A803F011F802ABFF18381C08A90122FFF7C9FE211C3A780C31F27722A8520003F0E0
:400D000002F812A822A91F22FFF7BCFE12A9F27F301C02F0F8FF301C291C05F097FF0028A3D1774B3A78986812A9C27702F0EBFF5EE36E4B1B78032BA5D1724803F092F87E
:400D40006F4B9B68DA7FAA4206D9595D6E48013503F088F8EDB2F3E76C48B6E3634B227A1B78022B8FD03C2A26D03F2A00D0ABE3634D6E68308802F01DFF0022644B02F01C
:400D800049FC02F0E1FE04B2708802F013FF00225F4B02F03FFC02F0D7FE2B8A02B2211C5C4803F05FF801F0C7FC494B1B681B04DB178342F7D18AE3032B00D163E7637A1B
:400DC000301C2B70A37A291C01226B70FFF75AFE4B4F33787A68301C1380237B291C2B70637B01226B70FFF74DFE33787A68301C5380E37B291C2B70237C01226B70FFF740
:400E000041FE33783B82F3E2637A3C2B0FD03F2B00D059E3354B1B78022B00D033E73E4B3E485988DA889B8803F01CF84FE32C4B5F78012F00D02DE72C4B1B78022B00D05C
:400E400021E7A37A301C2B70E37A291C3A1C6B70FFF718FE3378324A301C1380637B291C2B70A37B3A1C6B70FFF70CFE33782C4A53802C4B111C18780FF0A6FFF2E6237A33
:400E8000312B55D03F2B03D0302B00D01CE307E0134B25485B78002B00D116E3234814E3124B1B78022B00D1EDE600240623201C0AA901220A9400F01BFEA0231B069842E9
:400EC00000D004E3201C01F0BFF846E053820100080225404A840100E829002062840100F4160020848401008F840100462B002099840100828201008C820100A3840100D3
:400F00008C120020AD840100B48401005C8601000000E43FB9840100BA290020D2840100CC110020482B0020EA840100F3840100C64B1B78022B00D1A5E6012406230020D8
:400F40000AA9221C0A9400F0D3FDA0231B06984200D0BCE2002001F0BFF8BD4B5C7047E2BB4B5B78012B00D094E6BA4A1AA90B805078023B4B8013780002184310F034FEA6
:400F8000A5E2B34D6E78012E00D083E6237A312B0AD1AE4B1B78022B00D174E600F082FD002001F099F85DE6302B08D1A74B1B78042B00D067E601F0B9F82E7018E23F2BA7
:400FC00000D081E20024A44BA4481B78A34200D17BE2A14B1B78A34200D878E21E2565439F4E01347019C778C1794279037900978778E4B2019740780290A85D03909948B6
:4010000002F030FFE5E7924B5B78012B00D041E6607AFFF721FC5AE28C4B1B78022B00D031E68B4DE07A6B78012B00D095E03138032800D948E2874B02F056F90225476942
:4010400018780FF0B7FB021E02D1874E337A02E08648012165E0141CD2B29A4200D3C7E1375D621C012FF6D1072060433018013B093000210622337202F04EFE0023377111
:401080003355AF70B4E118780FF094FB021E02D1754E337A02E07548022142E0141CD2B29A4200D3A4E1315D621C0129F6D1072060433018013B093000210622337202F043
:4010C0002BFE00233355023344E018780FF072FB021E02D1644E337A02E06448032120E0141CD2B29A4200D382E1315D621C0129F6D1072060433018013B09300021062230
:40110000337202F009FE00233355033322E018780FF050FB021E02D1534E337A04E00421524802F09FFED2E1141CD2B29A4200D35EE1315D621C0129F6D10720604330187D
:40114000013B093000210622337202F0E5FD0023335504333371AB704AE1312800D0B3E13C4B18780FF026FB011E00D1AFE1404802F078FEABE1354B1B78022B00D082E505
:40118000237A3F2B00D09FE105F0AAFD011C3948EEE7637A3F2B00D096E12D4C3648A16802F060FE0023A36091E1284AA37A1278022A00D067E5264D6C78012C1ED1312B23
:4011C0000AD03F2B2FD0302B00D07DE1002001F0F5FD0023AB7126E028491E4A0B681C700F2350780B8113780002184310F08EFD002800D06BE1AC71201C10E0002C00D081
:4012000041E5312B09D03F2B0DD0302B00D05BE1201CAC7101F0D2FD05E00120A87101F0CDFD174851E117484FE1637A3F2B00D04AE1064B1878062800D948E102F054F801
:401240000426282A2C2E30000F483EE1462B0020F4160020482B00204C170020FC840100EF2900200785010094290020408201002F8501003F8501004D850100DC290020C9
:40128000AC810100C18101005385010091481CE191481AE1914818E1914816E1914814E1914812E1914B227A5878002800D0F1E48F4B1B78022B00D1E5E4312A05D1032B56
:4012C00000D1E0E400F0C0FECCE4302A00D0FBE0032B00D0D7E400F0F1FE89E0844B607A1B78022B00D1CEE430380F2800D9EBE001F0FAFF0815202B36EAEAEAEAEAEAEAD8
:40130000EAEAEA4400200FF041FC041E00D0ACE4784802F023FE754B4E331C70D7E001200FF034FC002800D09FE4724802F016FE01221FE002200FF029FC002800D094E413
:401340006C4802F00BFE022214E003200FF01EFC002800D089E4674802F000FE032209E004200FF013FC002800D07EE4614802F0F5FD04225D4B4E331A70A8E05B4B4E33B7
:401380001878042800D9A2E001F0AEFF030507090B00594899E0594897E0594895E0594893E0594891E0237A3F2B07D14F4B57485B79002B00D088E0554886E0312B00D069
:4013C00082E04A4B5B79002B00D05CE4514B524918780FF048F945E4637A312B05D03F2B08D00022302B6FD100E001224B4B1A7240486AE0494B4A481B7A002B65D1494806
:4014000063E0257A394C6378261C002B2BD11AAF381C0FF0FCF93B784F34002B04D001232370302D30D102E02370302D33D1304B1B78022B00D126E4331C4F331B78002B2B
:401440000FD0301C50300FF039FB012000F08EFD0028FAD1344802F081FD00234F36337035E0324831E0224B1A780593022A2ED01AAF381C0FF0CBF93B784F34002B07D04F
:4014800001232370302D0AD029483F2D1DD01BE02370302D03D024483F2D16D014E0059B1B78022B01D1FFF7EEFB331C4F331B78002BD6D0301C50300FF000FB012000F0E7
:4014C00055FD0028FAD1C5E71A4802F047FD33B0F0BDC0465D85010067850100718501007B850100858501008F850100F4160020462B00205382010099850100A38501000C
:40150000AD850100B7850100C1850100CB850100D4850100482B002054130020CC110020DD850100EB850100F9850100028601000B86010040840100F0B58BB06B466A46BE
:40154000944C00AFFB60E38878600433DB08DB00D31A9D463B6101F0A5F8B8603B89251C7B618D4E002B00D1F8E0B079012800D097E08A4B79698A4C0422994204D9236818
:4015800000209343236002E023681343236001F015FCEB883A89033B9A4207DB814A9BB22A817B61002B00D1EFE006E02B89013B9BB22B81002B00D0E7E07A4B2B810025A7
:4015C0007B699D4206D201F07BF93B6958550135EDB2F5E7744839690B2202F085FB00281FD17B68012B0ED17049714A0B6818700F2350780B8113780002184310F07CFB92
:40160000002800D0C1E00024201CB47101F0D6FB301C211C1E303022747702F07DFB6548B1E0396964480B2202F05EFB011E07D17077301C30221E3002F06EFB5F48A2E0FA
:401640007B685F4A002B1CD11378002BFCD13B69FB61BB8A3B840E23BB84554A50781378000218431C23F91810F050FE041C03F063FB002C00D188E0524B1B78022BECD0F3
:4016800083E0042123688B4323601378002BFCD138697969FFF7C4F8042223681343236073E00123484A757D1370002D3BD000240625464B74757B6101F0EEF8C3B2002BB2
:4016C000FAD0303B092B0DD8181C7B690A2158432418181C01F01CFE013DEDB27861002DEAD102E03A4802F039FC314B211C187801220EF0A1FF012801D136480AE0032882
:4017000001D1354806E0072801D1344802E0002802D1334802F022FC00F0D6FF301C00235730037031E001F0CBF8C0B2737F0A2804D02C4AD0540133737726E02A4A22815D
:40174000214A1570274AD054101CFFF7CFF9291C30222448757702F0DFFA16E0331C57331A78002A11D02189013989B2218100290BD1301C19701C4B1E30302223817177A6
:4017800002F0CAFA194802F0E9FBFB689D46BD460BB0F0BD4C120020F4160020FF010000C80F2540581B000014860100DC290020482B0020C181010020860100AC810100C9
:4017C000472B0020462B00204B170020A08601002C8601003E8601005E86010084860100A28601001217002010270000B886010070B50E1C151C0C1CA31BAB4204DA207804
:4018000000F08CFF0134F7E7281C70BDF7B5431801930023441C019AA24240D92078013809283AD801F060FD35353539393939051B351B4B00211D781E23013D5D43194B1A
:4018400014225D190935661E281C02F065FA3278611C013A281C02F056FA33781BE0104B104F1D781E23013D5D437E19093600211422301C02F050FA631E1A78611C013AE9
:40188000301C009302F03FFA01237D196B77009B00E0631E1B780133DBB2E418BBE7F7BD4C170020EF290020F0B5794B8BB05A78041C0893012A6FD00123089A5370037886
:4018C000002B69D117781E250137FFB27B1E1E1C6E4309936F4B17709E19301C6168062202F011FA6378002B00D001230998B3716843684B06221818C771237C03726168EC
:4019000002F001FA217AE068FFF780FF089B1878604B441E65435B19597F1833002902D000225A710BE05B4B14225D190935281C02F0F2F9281C5849052202F0E4F91E2046
:40194000031C6343534AD31808229D79D9799A565223012D00D0023B60434E4C24186579009525790195E5780295A578039564780494484C045D0594464C20180930069084
:40198000464802F06FFA00F0D7FE454B1B681B04DB178342F7D178E01E26089B3D4F1D786E43F619B74208D0391C6068062202F09BF91E370028F5D167E0089B0135EDB20A
:4019C0001D706B1E1E1C1E277E430993314B61689E19301C062202F096F96378002B00D00123B371099B5F432A4BDF19FD712578002D4AD1237C3B72217AE0681E24FFF779
:401A000005FF089B1878234B461E74431B19597F1833002901D05D710BE01E4B14221C190934201C02F078F9201C1B49052202F06AF91E20031C7343164AD31808229C7973
:401A4000D9799A565223012C00D0023B7043114C24186579009525790195E5780295A5780395647804940B4C045D0594094C201809300690094802F0F5F900F05DFE084BE9
:401A80001B681B04DB178342F7D10BB0F0BDC0464C170020EF290020B2870100B78701000802254070B5104D104C2E780A2E03D81E235E4336190EE0002630190021062286
:401AC00002F02AF996231E365B009E42F5D100232B706B7070BDB442F9D0201C0021062202F01AF91E34F6E74C170020EF290020F0B593B000AFB961111C1E1C1F23FA185E
:401B0000031C13701E23FA180B1C13701D23FA18331C13706B46181C1F23FB181B78002B07D11D23FB181B78052B02D801235B42AFE00023BB631E23FB181B789A1C531E83
:401B40003B64131C3B6100237B613B69DB0E7969490179607968194379603B695B013B60131CBB600023FB60BB68DB0EF9684D011D43BB685C01131C9B0003330733DB0839
:401B8000DB006A46D31A9D466B4603339B089B00FB63424B1B687B63414B1B683B63414B1B68FB62404B1B68BB62404B1B687B623F4B1B683B623F4B3F4A1A603F4B404ADF
:401BC0001A601D23FB181B781B043E4A13431A1CFB6B1A601E23FB181B78013B1A1CFB6B5A602F231822BA18D31800221A701CE02F231822BA18D3181B789A1C2F231821EB
:401C00007918CB181B789B00B969CB181968FB6B9200D1502F231822BA18D3181A782F2318217918CB1801321A702F231822BA18D2181E23FB1812781B789A42D8D31D4B24
:401C4000FA6B1A601D4B204A1A60FB6B1F4A1A601F23FB181A78FB6B5A60164BFA6B1A60164B1B4A1A60134B1B68BB630B4B7A6B1A600B4B3A6B1A600A4BFA6A1A600A4BB8
:401C8000BA6A1A60094B7A6A1A60094B3A6A1A60BB6B8546181CBD4613B0F0BD00010B4008010B401CFF0B4020FF0B4028FF0B402CFF0B4008001040B6E800000400104028
:401CC00015000080B6D7000004000080B6EB000018000080014B18787047C04606F2FF0F002008B5044B1A78824204D00348044902F009F8012008BD80F2FF0F4E1700209A
:401D000000F3FF0FFEE70000031C10B580240849084A0868A400C3189A1AA24201DC0B6005E001F0A1FF0C2303600120404210BD5C1200206033002070B51049104B0139F7
:401D40004A1C15D000221E685C689D68A018AA4203D0B058A0500432F8E7021CDC68151AA54202D0002520C2F9E710330139E7E701F080FFFEF782FAFEE7C04601000000DA
:401D8000848B010001210E4A10B51368141C8B43136000239A000B49032B01D80A4989580A4801338150302BF4D1FEF735F90022074B1A60236801321343236010BDC046AA
:401DC00000001040051D00000000000000000020C000002070B5002905D119490023CE7F1A1C1C1C0EE01749F8E7002C11D1CA5C002A24D00133DBB2CD5C083D012D04D954
:401E0000D318DBB2B342F0D301E00124FAE7002C15D0D2180133DBB2D4B21A1C06E0D51A455D002D04D08D540132D2B2A242F6D3944204D900238B540132D2B2F8E770BDDE
:401E4000601200206517002010B50024134B144A1C70144B1C70144B1C70144B1C70518C134B1980918C5980D11DC97F08321973D27F5C821A710622DA8122321A823C32E1
:401E80009A82653ADC821A830A4B1F321A8000F0B7FB094B1C70094B1C7010BD4C2B002060120020472B00204B2B00204A2B0020262B0020402B00201C2B0020242B002045
:401EC00030B591B0051C1F490BA8142201F01BFF1D4C0134E37F002B03D1FFF7B5FF0123E3770120002D2AD000211B24174B08A805AA1D60018106AB117016311C805C80BF
:401F00006944173C426008931C7102F0EBFF002815D1052300930E4B0E4801930E4B0F4902930F4A0BAB02F039FF002807D101220C4B0D481A701121313210F05DFF11B065
:401F400030BDC046E487010065170020202B002000940100C922000079020000C800002098100000462B0020F887010070B501262F4C86B02378051C334254D00BF0F6FC20
:401F8000002806D123781A1CB24322709B074AD52820002D49D002262378334213D0254B197804290FD89E31B140234B2348C918013104222B1C0BF0BFFC002805D12378E3
:401FC000B343237003E0002801D0002D2DD00C222378134229D0082633400FD00021921901A801F099FE01A8154914222B1C0BF0A3FC002819D12378B34312E00193114B1B
:4020000001A80233D97F0C4B9E318900C918013104222B1C0BF090FC002806D1042223789343237001E00020B5E706B070BDC0461C2B0020482B002000940100422B0020E9
:402040007996010065170020021C10B50120022A2BD8164B1B78062B25D1154C23785B0721D4144B002A06D11E21C8209987196B0001088009E0012A08D19621C8209987B3
:40208000196BC00008808020C00148800A492C33181C0A700EF09AFF002806D1042223781343237001E00420FF3010BD462B00204C2B0020601200204B2B002008B50FF07E
:4020C0001DF80821024A13780B43137008BDC0464C2B002070470000021C08B50120022A1DD80F4B002A04D10A2119852631598407E0012A06D196211985802109015984A8
:40210000F839998407492033181C0A700EF0E0FE002804D10421044A13780B43137008BD601200204A2B00204C2B002008B50EF0FBFE0821024A13780B43137008BDC04685
:402140004C2B002038B5114C2378062B1AD10125002819D000230E4AC55C991801334D71062BF8D18379101CD3720EF057FE051E0AD105232370074B1888002804D00BF0F5
:40218000ADFB01E00425FF35281C38BD462B0020262B0020402B00200C4B70B51A781E1C052A0ED10EF002FE094B051C1B88041C002B01D00BF0ACFB002D04D1062333707B
:4021C00001E00424FF34201C70BDC046462B0020402B002010B50123002818D00D4B9A6B998E00235468C9B2DAB28A4206D2C25C002A02D0E2540133F6E7E254041C002139
:40220000FFF7E8FD201C0121FFF7E4FD0023181C10BDC046F8870100021C30B50120002A11D0094B9B6B5C681D780023D9B2A94203D300235354181C05E0E05C0028F8D084
:40224000D0540133F2E730BDF8870100437800781B0218437047000038B5838900250B2B1BD1041C291C0430221C353310F0DCFD051E0DD16068FFF7E9FF094B1B688207FF
:4022800002D58220400001E00620FF30211C98470121044A13788B431370281C38BDC046202B00204C2B0020002382799A4208D1821D0378002B03D101309042F9D100E0ED
:4022C0000123181C70470000F0B50126B74C87B02378051C334301912370272800D1C4E016D8062800D18EE008D802287AD0052800D184E0B04200D048E121E0242800D194
:40230000AEE0262800D1B8E0212800D03EE18FE0422800D10DE109D82B2800D1CFE0412800D1F2E0282800D030E158E04C2800D10FE1FA2800D125E1432800D026E1FCE013
:402340000023072705AE301C7370377004F016FD301C3770757004F011FD954F3B68181C0293FFF7A1FF0390002808D0029802F0E7FC38680021FFF7ADFE386822E01F2176
:402380003F208C4B8C4F1A788C4B02401B78920119408B4B09031B780A4303401343894A381C11787F220A40520413431A0A3B701B0C7A70BB7002F0C3FC381C0399FFF79E
:4023C00089FE381C291CFFF785FE02200EF0DEFB3F2333700023301C73700EF0F5FB0622794B40E0019B1B78042B00D0CEE0764B1B78052B00D0C9E0FFF7CEFEC6E0019B1D
:402400001A78724B2FE0019B1B78002B00D0BDE0019B5B78002B08D103226D4BDA8031329A806C4A1A60019A5360237801223EE023789B0600D5A9E0674E3378102B01D1EF
:402440000B3BF370654F311C38780EF07FFD0122237838781343311C23700EF004F995E0019B5A785E4B1A7090E05E4B1B88002B01D00BF04DFA0222B2E7534B19781A1CB7
:40248000022900D182E02078304200D17EE004202678064204D003221A702378834307E023781B0706D50623137008222378934323706BE0032969D10623137066E0424B0E
:4024C00019781F1C022961D0227832425ED004222078104201D01A7005E008222078104203D0062119702378E1E704294ED106233B703D4B1B78002B48D10120FFF7ECFDAF
:40250000002843D104233B7040E0344E0199301C022201F0F8FB00222C4B31781A709E31324B8900591801310432314801F0EBFB2CE00022294B5A7095E7019B59882D4B56
:40254000994201D980218900019B18880FF0AAFE1CE00198FFF780FE2378334216D100280BD0122305A98B70019B9B89C8700B80019B18680FF08CFE08E0019B18680FF08D
:402580001BFF03E01C4A13781E431670112322781A4208D001222378281C93432370174B01991B68984707B0F0BDC0464C2B0020A01200207DF1FF0FA41200207BF1FF0FDC
:4025C0007CF1FF0F78F1FF0F462B0020472B0020881700206011002054130020482B0020242B0020402B00204A2B002000940100422B0020FF0100001C2B0020202B0020D9
:40260000704700008021064A08B5136809060B4313600A2000F00AFA00F01CF908BDC0460000254010B5054C2378002B03D100F09FF801232370FFF7E5FF10BD901700203B
:4026400008B50A2000F0FCF900F012F9054A0A2013685B005B0813600022034B1A6000F0F9F908BD00002540880F2540094B0A491A680B6800209A420BD00B6807485A1CD1
:402680001B18581E83415B421A40054B985C0A60C0B2704758330020502B002000F8FFFF542B0020054A064B1B68116810688B4201D2044A9B18181A7047C046502B0020C5
:4026C000583300200108000008B50A2000F0B8F90B4B80211A680B4B49021A6000220A4B0A201A70094B1A680A431A601968084A0A401A60074A084B1A6000F097F908BD48
:40270000502B0020583300205533002004032540FFFFFEFFED0F0000C00F2540044B1A681F231340082BF9D0024B18607047C0460802254040022540024B18681F231840B3
:402740007047C046080225408021054B49021A680A431A601968034A0A401A607047C04604022540FFFFFEFF08B500F03FFB08BD38B5214A0024214B07201A600122042572
:402780001F4B20491C60204B1A60204B0B6020490860204903300C601F490A601F4A13601F4B1C601F4B1D6000F04AF90A20032100F024F91C490A2000F018F9032000F08A
:4027C0003FF90320011C00F019F91849032000F00DF9174B1C60174B1C60174B1C60174B1C60174B1D60174B1C60174B1C60174B1C60174B1C7038BD0B000002000025409F
:4028000040002540000325404800254007000080040325401003254044002540000225400402254050002540492E000069270000880E2540C80E2540480F2540080F2540CE
:40284000C80F2540880F254058330020502B002055330020044A054B11680B40902109040B4313607047C04600030240FFFF0FFF054A064B11680B401360054A054B116854
:402880000B4013607047C04600030240FFFF0FFF48002540FFDFFFFF08B5FFF703FF031C0020834201D0FFF7E1FED822034B92001968114201D000201A6008BDC00F254052
:4028C00010B50A2000F0BCF8FFF7ECFE002806D00A2000F0ABF8FFF7C9FE041C04E0074B0A201C6800F0A2F8D823054A9B001068184000022043136010BDC0464003254057
:40290000C00F2540034A044B116880040B4018431060704708020440FFFFE3FF4023044980010A689A43D2B2034013430B60704700020440034A044B116880040B4018438B
:402940001060704708030440FFFFE3FF4023044980010A689A43D2B2034013430B60704700030440000000000230800803D00138FDD1C046C046C0467047EFF3108072B604
:40298000704780F31088704710B5041C86B0FFF7F4FF0E4B0E491A6802AB02920D4A126803920D4A1419033C227804920B4A126805920B4A00926A4601930A4B1A600A4A1A
:4029C00011601B68FFF7DDFF06B010BD08010B401700008000010B405489010030001040B6EA00000800104004001040024B8000C3181868196070474000002038B5041CE8
:402A00000D1CFFF7BAFFA308074A9B009B180322144094400634A240A5401968914329431960FFF7AEFF38BD00E400E01F2318401E3B8340181C014B1860704700E100E06A
:402A40001F2318401E3B8340181C014B1860704780E100E01F2318401E3B8340181C014B1860704780E200E0034A044913689BB20B4313607047C0460CED00E00400FA054D
:402A800008B5034B1B7A5843FFF76EFF08BDC0465C13002001210F4A10B51368041C0B43802113600C4A0D4B09021A600C4A13680B431360002801D100200AE00120FFF701
:402AC000DFFF084B1B68DB07F6D4013C002CF5D1102010BD60F02E400220000078002E4010002E400C002E4008B5FFF746FF0421034A13688B43136030BFFFF742FF08BD7B
:402B000010ED00E001200A4A136883431360022311689943116007492E330A689A43203B1A430A6007220B68934303430B60704700F02E4000FF2E4008B5FFF7E3FF8021A7
:402B4000024A090613680B43136008BD00F02E400122104B70B51C681440002815D0904215D1022507261968A94319600A490A68B2432A430A600A682E35AA43103D2A4314
:402B80000A601A681043186001E0FFF7BBFF201C70BDC04600F02E4000FF2E4010B58024FFF7EBFE0749084B0A68E4011A4022430A600A6813408022120213430B60FFF7F6
:402BC000E0FE10BD00010B40FF3FFFFF044BC0001B680130C340181C012318407047C04610020B4038B5041C0D1CFFF7EFFF00280AD10321081CE400A0402940A140034A52
:402C0000136883431943116038BDC0460C020B4038B5041C0D1CFFF7D9FF00280AD1E40002340121A540A1402C1C034A13688B431C43146038BDC0460C020B40094B1A684E
:402C400002431A60C20702D51A689207FCD5C20502D51A689205FCD5C20302D51A689203FCD5704710020B4070B50E4D061C2B680C1C9B0FC920002B00D06C38FFF700FF65
:402C80000949300181408440084A432013688B43234313602B689B0F00D02438FFF7F0FE70BDC0460C020B40FFFF000008020B40024B1868024B18407047C04610020B407D
:402CC00004040400044B054A196810400843186019681142FCD1704710020B400808080010B5041CFFF749FE044AA40713689B009B0823431360FFF744FE10BD10E400E043
:402D000010B58024054B24031C60054B8C3318600320FFF7E5FF034B1C6010BD80E100E00000002000E100E000230C21074A1360074A1160074A0B3911600A2206490A6039
:402D400006490A60064A13607047C04680012040A4012040B8012040940120408C0120408801204008B5FFF708FE0421034A13688B431360FFF705FE08BDC0460000204045
:402D8000014B18607047C046B0012040034A044B1168C0030B4018431060704708030440FF7FFCFF034A044B116840020B4018431060704708020440FFF1FFFF082304493C
:402DC000C0000A689A43D2B2034013430B60704700020440034A044B116800030B4018431060704708030440FF8FFFFF1023034A1068184010600009C0B270471003044036
:402E000010B5041CFFF7B9FDC021044AA40113688B4323431360FFF7B4FD10BD08E400E010B58024054B64001C60054B18660320FFF7E6FF034B1C6010BDC04680E100E088
:402E40000000002000E100E008B5144B1B68002B00D09847124B1B685B071DD5114912480B685A1C1B18581E83415B421A400F4B18680F4B1B68824203D120220D4B1A7050
:402E800003E00D48DBB283540A600C4B1B68DB06E4D104220A4B1A6008BDC04694170020CC0F25405833002000F8FFFF502B00204003254055330020542B00200803254036
:402EC000C00F2540F0B51F4C8D18031CA5B00120A54235D80020161C051CCF09039304ACFB010291E41AB54204D3012828D90120404225E00028F8D11A1C803201920090A6
:402F0000029999420BD8B54209D203991A78495DE1548A4201D001220092013501E01978E154019A01339342EAD1009B002B03D0381C04A900F066F90137803C019BD2E79D
:402F400025B0F0BDFFFF010001607047016070472B4B2C4A19782C4B09021B7819432B4B1B7812781B021343294A934204D1072909D1284B033906E0D4221201934202D13F
:402F8000042900D1234B244A1360244B244A1960244B1B7812781B021343234A134200D1224B234A23491360234A0B7812781B021343224A934204D0214A934201D0052BE0
:402FC00000D1204B204A1360204B214A1B681268AA2A14D11F2B12D90B780E2B0FD11D4B1D4A1B7812781B0213431C4A13601C4B1C4A1B7812781B0213431B4A1360704737
:40300000D9F0FF0FDEF0FF0FD8F0FF0FDFF0FF0F580B0000580D00006C002E4074002E40DAF0FF0FDBF0FF0FFFDFFFFF0220000078002E40DDF0FF0FDCF0FF0F0F0F00003E
:4030400005050000050F000080002E40EC0F00F0E00F00F06DF2FF0F6CF2FF0F84002E406FF2FF0F6EF2FF0F94002E4008B5FFF707FD08BD08B500F05DF808BD08B500F0E0
:4030800061F808BD08B500F05DF8034800F028F8032000F02BF808BDE132000008B5024800F034F808BDC046E13200000220FF3070472B2070472B2070472B2070472B202D
:4030C00070472B2070472B2070472B2070472B2070472B2070472B2070472B2070477047014B18677047C0460000002010B5041CFFF743FCC021044AA40113688B4323430F
:403100001360FFF73EFC10BD0CE400E010B58024054B64011C60054B18670320FFF7E6FF034B1C6010BDC04680E100E00000002000E100E08022024B52011A607047C046B0
:4031400000E100E08022024B52011A607047C04680E100E082B06A46094B0A4900930A4B002004330193094B1A60094A11601A68120F0A2A02D018680F23184002B07047CA
:40318000B6E9000016000080082900200800104004001040074B084A08491A60084A002011601A68120F0A2A02D018680F2318407047C04608001040B6E800001500008090
:4031C0000400104082B06A46094B0A4900930A4B002004330193094B1A60094A11601A68120F0A2A02D018680F23184002B07047B6EA000017000080082900200800104091
:40320000040010400023F0B5A7B0029303932B4B98424DD800294BD0051C802206A800F072FD274B9D4201D8264B00E0264B04937F2304AE7360254C254B264A26601A606C
:4032400022681F1C120F00230A2A02D022680F3313400293029B002B2CD1FFF78EFB0190FFF778FF0390039B002B02D1FFF792FF0290029B002B11D1174A2D040492049893
:40328000164A0543049526603A602268120F0A2A03D00E4B1A680F2313400293039B002B02D1FFF78FFF03900198FFF76AFB01E004230293029827B0F0BDC046FF0300009C
:4032C000FF010000B6D70000B6D70001080010400400104004000080B6D800000500008008B514F0FFFE08BD02B4714649084900095C49008E4402BC7047C04603B471467D
:40330000490840004900095A49008E4403BC7047002243088B4274D303098B425FD3030A8B4244D3030B8B4228D3030C8B420DD3FF22090212BA030C8B4202D312120902D8
:4033400065D0030B8B4219D300E0090AC30B8B4201D3CB03C01A5241830B8B4201D38B03C01A5241430B8B4201D34B03C01A5241030B8B4201D30B03C01A5241C30A8B421C
:4033800001D3CB02C01A5241830A8B4201D38B02C01A5241430A8B4201D34B02C01A5241030A8B4201D30B02C01A5241CDD2C3098B4201D3CB01C01A524183098B4201D395
:4033C0008B01C01A524143098B4201D34B01C01A524103098B4201D30B01C01A5241C3088B4201D3CB00C01A524183088B4201D38B00C01A524143088B4201D34B00C01A2F
:403400005241411A00D20146524110467047FFE701B5002000F0FCF802BDC0460029F7D003B5FFF775FF0EBC4243891A1847C04603460B437FD4002243088B4274D30309A0
:403440008B425FD3030A8B4244D3030B8B4228D3030C8B420DD3FF22090212BA030C8B4202D31212090265D0030B8B4219D300E0090AC30B8B4201D3CB03C01A5241830BCB
:403480008B4201D38B03C01A5241430B8B4201D34B03C01A5241030B8B4201D30B03C01A5241C30A8B4201D3CB02C01A5241830A8B4201D38B02C01A5241430A8B4201D3DE
:4034C0004B02C01A5241030A8B4201D30B02C01A5241CDD2C3098B4201D3CB01C01A524183098B4201D38B01C01A524143098B4201D34B01C01A524103098B4201D30B0120
:40350000C01A5241C3088B4201D3CB00C01A524183088B4201D38B00C01A524143088B4201D34B00C01A5241411A00D201465241104670475DE0CA0F00D04942031000D347
:403540004042534000229C4603098B422DD3030A8B4212D3FC22890112BA030A8B420CD3890192118B4208D3890192118B4204D389013AD0921100E08909C3098B4201D3B1
:40358000CB01C01A524183098B4201D38B01C01A524143098B4201D34B01C01A524103098B4201D30B01C01A5241C3088B4201D3CB00C01A524183088B4201D38B00C01AAB
:4035C0005241D9D243088B4201D34B00C01A5241411A00D20146634652415B10104601D34042002B00D54942704763465B1000D3404201B5002000F00BF802BD0029F8D0FE
:4036000003B5FFF715FF0EBC4243891A1847C0467047C046F0B55F4656464D464446F0B4051C061C080387B099464F00030BCC0F92469B467F0D019467D06C4B9F4236D0C2
:4036400080205B4640031843C0006B0F1843684B83469C4600239846EE00674400934B4649461D03C90F5B0052462D0B5B0D894600D16EE05D498B4264D080205C49400383
:403680008C4600210543ED00500F0543D20063444846FF187B1C9A46009B604002900B430F2B00D9ACE053489B00C3589F465B461D4300D082E00823009300239B4602338C
:4036C00000269846CBE7029B01934346022B59D1012400250026019B1C40444B00212D030A0D12052D0B1543434A1B0515401D436D00E4076D082543301C291C07B03CBC26
:4037000090469946A246AB46F0BD2B434ED05B46002B00D185E1584600F088FA021C2823291C9B1A161C5846D940083EB0400B1CB54003439B462E1C0023304F0093BF1A92
:4037400098468CE7514629432ED10025002202219EE75146294323D0002D00D154E1281C00F064FA031C28215046C91A1A1CC8405146083A914095400A1C05431F480021B8
:40378000C31A85E7032B00D1C2E1012B00D06DE14446019B00251C40E4B2002300269DE700250022012173E7032171E70423009300239B4601330026984650E70C2300939C
:4037C000093B98464BE7802500242D030026074B84E74B46AB46161C0193884675E7029BAB46161C019388466FE7C046FF07000001FCFFFF84890100FFFF0F800DFCFFFF06
:40380000330C3604360C9C46331C140C1204120C53439846634653439946634663430193331C41466343090C4B445B18994505D9802040028146019949440191190C039169
:4038400041460904090C1B045B1804932B0C9846331C2D04290C4B43604600934346654658435E43009B4D431B0C9946AE194E448446B54203D980235B029946CC44350C1E
:403880002B1C0398634484460593009B36041B041B0CF3189C446046039058460504060C280C84465043351C81466046654344434846000C8346724314195C44A24203D902
:4038C0008022520293465D44220CAD184A461204120C24044046A41862464A437143464360460096464670438046100C84468844E044414505D9802149028C46009961444E
:403900000091019803998446614499429B415B4299460598434684461204120C1B049B1863449C46AB4683429B4140460A19CC44A2428941E344CC45B6415C46000C804604
:40394000494276425B426418334398448C428941AB459B4149425B4219430D1C009B4544EE187602E50D2E43B346049B56021E43731E9E415B46D20D324366021643DB0130
:403980000AD50123334076081E435B46DB071E435B465B089B465746634BFB18002B5ADD720709D00F223240042A05D0321DB242B6417642B344161C5A46D20106D55A4628
:4039C0005A4B1A4080239346DB00FB18584A934234DD0124029B00251C400026554B7DE680205B460003034208D0054206D105432D032D0B4C46161C4E4B6FE65D4605439E
:403A00002D032D0B4B4B69E6504600F00FF9031C2033272B00DCA6E65546083885400022ACE6281C00F002F9021C2032272A00DC75E6083885400026AB467DE65A46F608E7
:403A4000520716435A4601245502029A5B052D0B5B0D144042E6384DED1B382D0ADD0124029B00251C400026002337E6019B5746029391E71F2D25DC304B321C9C466744F5
:403A8000BE405B46BB40371CEA407E1EB74113433B431E1C5B46EB401D1C730709D00F233340042B05D0331DB342B6417642AD191E1C2B0220D50124029B00251C400026CD
:403AC00001230BE65A461E4BDB1BDA40131C202D1CD01C4A94465A466744BA40171C3E43721E96411E4307230025334007D00F2300253340042BD6D16B076D022D0B0124B8
:403B0000F6081E43029B1C400023E7E50027E6E780255B4601242D031D43019B2D0323401C1C2D0B034BD9E5FF030000FFFFFFFEFE070000FF07000002FCFFFF1E0400007E
:403B4000E2FBFFFF3E0400000B0330B5134C1A0B4B00051C5B0DC90F0020A34210DD104883420EDC80200F4C40030243E41A1F2C0ADD0D48C31ADA40131C48424340581861
:403B800030BD0A4BC818FBE7281CE040084CA44663449A40131C0343EFE7C046FE0300001D0400003304000013040000FFFFFF7FEDFBFFFF38B5041E16D0C50F00D044429C
:403BC000201C00F033F8174B1B1A0A2821DC021C211C153291400A1C0B21081AC4405B052403240B5B0D03E000250023002400220021101C24030A0D1205240B14430A4AB2
:403C00001B0514401C436400ED0764082C43211C38BD0B3884405B052403240B5B0D0022E6E7C0461E040000FFFF0F801C2101231B04984201D3000C10391B0A984201D32D
:403C4000000A08391B09984201D30009043902A2105C40187047C04604030202010101010000000000000000014B18687047C046D41600200E4B70B500251E1C0D4CE41AE6
:403C8000A410A54204D0AB00F35898470135F8E714F066FF084B00251E1C084CE41AA410A54204D0AB00F35898470135F8E770BD6C8B01006C8B01006C8B0100748B0100D0
:403CC00008B5034B011C186800F074F808BDC046D416002008B5034B011C186800F024F808BDC046D416002030B50024944208D0035D651C0C5DA34201D0181B02E02C1C4E
:403D0000F4E7002030BD002310B5934203D0CC5CC4540133F9E710BD031C8218934202D019700133FAE7704730B500293ED004390B68002B00DAC9181D4A1368141C002B46
:403D400002D14B60116031E099420DD208680A189A4203D11368C3180B6053684B60216024E08A4203D8131C5A68002AF9D11D685C198C420BD109686918581819609042BE
:403D800014D110685268091819605A600EE08C4202D90C23036009E008680C18944203D114685268001908604A60596030BDC04620290020032370B5CC1C9C430834051C63
:403DC0000C2C01D20C2405E0002C03DA0C2300202B6042E08C42F9D3204A1368101C191C002913D00A68121B0DD40B2A02D90A608B181FE08B4202D15A6802601BE04A68A5
:403E00005A600B1C17E00B1C4968E9E7144E3368002B03D1281C00F0ABF83060281C211C00F0A6F8031C421CD0D00322C61C964386420AD11C60181C07210B301A1D8843DB
:403E4000821A0AD05142995007E0311A281C00F08FF8431CBAD0331CECE770BD202900201C2900200FB40B4B13B51C68002C05D0A369002B02D1201C00F090FA05AB201C4B
:403E8000A168049A019300F09BFB16BC08BC04B01847C046D416002070B5051C0E1C002804D08369002B01D100F078FAAC68A3891B0702D52369002B19D1281C211C00F086
:403EC00001F9002813D00120404245E03178002B1BDAA269934211DA221C281C00F09AF8013042424241D0B20028ECD10136A3683278013BA360002AE8D10CE023681970B0
:403F0000236819780A2903D1E6E723681970236801332360EAE7002B17DAA269934208DB0A2322681370236819780A2911D1281C01E0281C0A21221C00F06CF80130424245
:403F40004241D0B2002806D0BDE70A23226813702368013323600A2070BD000008B5034B011C1868FFF798FF08BDC046D416002038B50023064C051C081C2360FDF7C4FEDD
:403F8000431C03D12368002B00D02B6038BDC0465C330020021CC9B21378002B03D08B4204D00132F8E7181C002900D1101C704702780B78002A03D0013001319A42F7D02D
:403FC000D01A7047002330B59A420DD0013AC45CCD5CAC4202D1934202D1251C631B03E00133002CF3D1F8E7181C30BD031C30B5002A07D00C7801335D1E013A2C7001316B
:40400000002CF5D19A18934203D0002119700133F9E730BD70B5051C0E1C141C002804D08369002B01D100F0B9F9234B9C4201D16C6808E0214B9C4201D1AC6803E0204B0A
:404040009C4200D1EC68A369A360A3891B070AD52369002B07D023682269F6B2981A636998420FDB08E0281C211C00F02BF80028F1D0012040421DE0281C211C00F020F9E4
:404080000028F6D1A3680130013BA36023685A1C22601E706369984205D0A389301CDB0708D50A2E06D1281C211C00F009F90028DFD1301C70BDC046CC8A0100EC8A01002C
:4040C0000C8B0100354B70B51D68061C0C1C002D05D0AB69002B02D1281C00F05FF9304B9C4201D16C6808E02E4B9C4201D1AC6803E02D4B9C4200D1EC68A3899AB2110702
:4041000023D4D10607D409220120326037321343A381404240E0530713D5616B002908D0231C4433994202D0301CFFF7FDFD002363632422A3899343A381002363602369FE
:4041400023600822A3891343A3812369002B0BD1A023A2899B00134080229200934203D0301C211C00F0ACF90123A289134005D00023A36063695B42A36103E0910700D42A
:404180006369A36000202369834205D1130603D540231A43A281013870BDC046D4160020CC8A0100EC8A01000C8B0100F7B58A89051C0C1C13075ED44B68002B02DC0B6CB2
:4041C000002B1ADDE76A002F17D000232E682B6080235B011A4001D0626D15E0281C216A0123B847021C431C0ED12B68002B0BD01D2B01D0162B02D12E6000205EE04021A3
:40420000A3890B43A38159E0A3895B0706D56368D21A636B002B01D0236CD21A0023281C216AE76AB847A389421C06D12A68002A03D01D2A01D0162A19D10022626022695F
:404240002260DB0405D5431C02D12B68002B00D16065616B2E600029CFD0231C4433994202D0281CFFF760FD0020606326E040221343A38122E00F69002FBED00B680F6083
:40428000DB1B01930023920700D14B69A360019B002BB2DD281C216A3A1C019BA66AB047002806DC40220120A38940421343A38104E0019B3F181B1A0193E8E7FEBD000033
:4042C00038B50B69051C0C1C002B01D100201CE0002804D08369002B01D100F05FF80B4B9C4201D16C6808E0094B9C4201D1AC6803E0084B9C4200D1EC680C22A35E002B62
:40430000E4D0281C211CFFF751FF38BDCC8A0100EC8A01000C8B010008B5024900F0AEF808BDC046C1420000002310B5041C03604360836081814366C28103614361836170
:40434000191C08225C30FFF7E7FC054B24626362044BA362044BE362044B236310BDC046ED4A0000154B00004D4B0000794B000070B568254B1E5D430E1C291C7431FFF796
:4043800019FD041E08D000212A1C016046600C30A0606832FFF7C0FC201C70BD836913B5002B28D18364C3640365134B134A1B6882620193984201D101238361041C00F0C6
:4043C0001FF86060201C00F01BF8A060201C00F017F80421E06000226068FFF7A5FFA06809210122FFF7A0FFE06812210222FFF79BFF0123A36113BDC88A010019430000C3
:40440000F8B51D4B061C1D68AB69002B02D1281CFFF7C4FF4835AC686B68013B05D40C22A75E002F10D06834F7E72B68002B06D1301C0421FFF79CFF2860002801D02D68CF
:40444000E9E70C23336016E00123201C5B42E3810233A38167662760A760676027616761A7615C30391C0822FFF756FC201C6763A763A764E764F8BDC88A0100F7B5041CF3
:40448000071C002601914834002C16D06368A5680093009B013B00930DD4AB89012B08D90E22AB5E013304D0381C291C019B984706436835EDE72468E6E7301CFEBD00002D
:4044C000F0B58B8991B09B0706D50B1C47330B600B6101234B6145E00C1C0E23C95E061C002904DA8023A5891D4010D10CE001AA00F06EFB0028F5DBF023029D1B021D400C
:40450000194BED186B425D418027FF0001E000254027301C391CFFF74DFC00280CD1A3899A051FD402221343A381231C4733236023610123636115E080220C4BB362A3899C
:4045400020601343A38120616761002D0AD00E23E15E301C00F04EFB002803D00122A3891343A38111B0F0BD00E0FFFF19430000936810B5013B9360002B05DA9469A342B5
:4045800008DBCBB20A2B05D01368581C10601970C8B201E0FFF73EFD10BDF8B5061C0F1C141CD518AC4208D02178301C3A1CFFF7DFFF0134431CF5D100E00020F8BD000055
:4045C000F0B59FB0061C0F1C02920593002804D08369002B01D1FFF7E1FE794B9F4201D1776808E0774B9F4201D1B76803E0764B9F4200D1F768BB891B070AD53B69002BF9
:4046000007D0002306AD6B6120336B761033AB763DE0301C391CFFF755FD0028F1D001204042CAE0059A111D12680591002A7EDB0992013423782E2B00D189E0217863488B
:40464000032200F0FDFA002808D0604B0134C01A40238340181C2B68184328602178631C5B4806220293297600F0EAFA002800D191E0584B002B00D084E00722059B07334A
:404680009343083305936B69039A9B186B61029C2378002B04D1029BE31A049311D003E0252BF8D00134F3E7049B301C391C029AFFF773FF431C7BD06A69049B944663442B
:4046C0006B612378002B73D00122002352426A6002A95432521801342B60EB60AB601370AB6521783C48052200F0AAFA002809D0394B0134C01A01238340181C2B68184388
:404700002860EEE72B68DA0604D55322202102A8121811701A0704D553222B2102A81218117022782A2A00D17CE7099B05E05242EA60022213432B607BE72278303A092A8E
:4047400004D80A214B4301349B18F6E7099371E763782A2B09D1059B02341A1D1B680592002B0DDA01235B420AE0002301342278303A092A04D80A214B4301349B18F6E714
:4047800007935BE705AB0093301C291C3A1C134B00E000BF07E005AB0093301C291C3A1C0E4B00F08BF80390039B013300D06AE7BB895B0600D532E70B981FB0F0BDC046DB
:4047C000CC8A0100EC8A01000C8B0100328B0100368B0100000000002C8B01009B450000F7B5171C01930A698B6800900C1C934200DA131C221C3B6043321278002A01D0F9
:4048000001333B6023689B0602D53B6802333B60062523681D401ED0231C43331B785A1E9341226892061CD53020E1184031C870211C5A1C45310978A21840320233D1704D
:404840000FE0221C0123009801991932089EB047431C0ED00135E3683A689B1A9D42F0DBDAE7221C009801994332089DA847431C02D10120404220E006232068E1683A6863
:4048800003400025042B03D18D1AEB43DB171D40A3682269934201DD9B1AED180027AF420ADA221C0123009801991A32089EB047431CDED00137F2E70020FEBDF0B58BB014
:4048C00006920A1C43320793059004920A7E0C1C109B6E2A00D1A8E011D8632A22D009D8002A00D1B2E0582A00D0C2E045310A707C4A4FE0642A1DD0692A1BD0B9E0732A96
:4049000000D1A7E009D86F2A29D0702A00D0B0E0202209680A43226037E0752A1FD0782A33D0A6E00E1C1A684236111D196013683370A1E021681A68080606D4490604D5DB
:40494000111D19600023D55E02E0111D19601568002D3BDA2D23049A6D42137036E021681A68080606D4490604D51568111D1960ADB202E0111D196015685A4B227E03933D
:404980000A276F2A1DD108271BE0221C782145321170554A19680392081D226818600D68100602D4500600D5ADB2D30702D520231A4322601027002D03D1202322689A43CA
:4049C0002260231C002243331A7002E00A27454B03936368A360002B03DB0422216891432160002D02D1049E002B0ED0049E281C391CFEF713FD039B013E5B5C281C33705A
:404A0000391CFEF785FC051EF1D1082F09D12368DB0706D563682269934202DC3023013E3370049B9B1B23612BE009681A68080607D4490605D5111D19601368A28A1A805E
:404A400004E0111D1960136862691A600023049E236116E01A68111D196016680021301C626800F0EDF8002801D0801B6060636803E0261C42363270012323610023049A32
:404A80001370079B05980093211C069B09AAFFF7A7FE431C02D10120404221E0236905980699321C079DA847431CF4D023689B0705D4099BE068984212DA181C10E00025D2
:404AC000E368099A9B1A9D42F3DA221C0123059806991932079EB047431CDCD00135EFE70BB0F0BD3D8B01004E8B010038B50C1C0E25495F00F0B0F8002803DB636D1B182F
:404B0000636503E0A289024B1340A38138BDC046FFEFFFFFF8B51E1C8B89051C0C1C171CDB0505D50E23C95E0022022300F074F8A289054B281C1340A3813A1C0E23E15ECC
:404B4000331C00F01FF8F8BDFFEFFFFF38B50C1C0E25495F00F060F8A389421C03D1054A1340A38104E0802252011343A381606538BDC046FFEFFFFF08B50E23C95E00F0DE
:404B800015F808BD38B5051C0020074C2060081C111C1A1CFCF72CFE431C03D12368002B00D02B6038BDC0465C33002038B50023064C051C081C236000F062F8431C03D1E9
:404BC0002368002B00D02B6038BDC0465C33002038B50023064C051C081C111C236000F057F8431C03D12368002B00D02B6038BD5C33002038B50023064C051C081C236052
:404C000000F04EF8431C03D12368002B00D02B6038BDC0465C33002038B5051C0020074C2060081C111C1A1C00F042F8431C03D12368002B00D02B6038BDC0465C330020B0
:404C4000C9B28218904204D003788B4202D00130F8E700207047000038B5051C0020074C2060081C111C1A1C00F02AF8431C03D12368002B00D02B6038BDC0465C330020F0
:404C800058220120014B40421A6070475C33002058220120014B40421A6070475C3300205822024B00201A607047C0465C33002058220120014B40421A6070475C3300204C
:404CC00058220120014B40421A6070475C330020134A1088810703D08107890F401A001D11791030484381B25088820703D08207920F801A001D800040180A4940300989BA
:404D000080B2CA0701D0503080B2890706D504495422091F09785143081880B270470000721300209817002010B501F0F2FE10BD10B501F0F6FE10BD10B500F04FFA10BD50
:404D400010B50749044609780220002907D1204601F04AFF002802D120460CF00DF810BDEA14002070B504460120002C12D02368002B0FD0616800290CD0074D0622288915
:404D8000208118462968FEF7BEFF6968606809780170002070BD000098170020FFB585B0002768460E9D07734C481C460078002802D0082009B0F0BD10990F9801900095BB
:404DC000029105A807C800F0FBF80028F2D16946264603AB84460873002C19D0002115E08A00B75A082F09D990198078002805D0083FB7521878401C187005E0002915D094
:404E00000027B75290198770491CC9B2A942E7D360460028CED10F9800280AD0109901F01FFA0006000E04D00120C3E701208446EEE701F06EFE2948002101610C300599B6
:404E4000016021888180022D03D3A1798171A17AC17100211EE0481C19E082008B00A75AE65ABE46BE4211D26F463E80B4461E190296B678BE7001967646E6521719029E25
:404E8000BB78B3706646A652019EBE70401CA842E3D3491CA942DED3114800906846037B22460799069800F013F9002882D168460A4C007B60700A4801F05AFE0028B4D165
:404EC000204607490C3008F0BFFC0028ADD108F0D9FC0028A9D1012121706BE76C13002098170020F8B5054633480E460078002802D002242046F8BD002E5BD000242F4916
:404F0000002D16D02A89D0070DD02868002808D003881B3BE12B04D24088FB2801D81B2801D2012409E0900707D56868002804D1F7E70020088108604860002CDAD11F48A7
:404F40002F8907811C481B21801D018041800421017119490020891C0870F80705D016480622801D2968FEF7CEFE1449B80703D56A681148127882700F480D46801D0860A9
:404F8000001F486001F056FE0B48801D01F044FE28890FF0A5F928890FF024FB03461033FFF796FE1F21C018890140180249308088809FE701249DE76C13002098170020F5
:404FC000FFB58446384F1C460020BB883F78054602460646002F11D100290ED0029999420BD36146002908D0002C06D00A99002906D02E4B0B99994202D2012004B0F0BD4B
:40500000002144E0AB001F19BF78002F3BD0E35A002B38D07B43591889B22B0000F04AF8050410161C253100A7782388BC46FF27233BEB37BB4222D26346032B1FD322E0D1
:40504000A388002B1FD0302B19D31CE02389002B19D0282B13D316E0A289002A13D01346134F233BBB420AD20DE0268A002A0AD033460F4F233BBB4201D2964203D9012014
:405080000EE0002001E000280AD16D1CEDB2099B9D42B7D31C2463435B1802998B42ACD89642AAD8AAE700006C13002079020000BAFF000030B47446641E2578641CAB429C
:4050C00000D21D46635D5B00E31830BC18470000FFB583B0002469460C801F4606468C80002806D00598002803D004983043800701D0012467E0002FFBD03449049809880A
:405100008842F6D3FDF7CAFFFDF7B8FF00F010FC002856D100F06CFD002852D12C49084601F0D2F805042D0C4BD12A480499066081800021C18007810C98007AC00704D090
:40514000684601F0FFFC040007D10C98007A800703D501A801F0FEFC0446BF1DFEB2002C21D13146059800F05DF804001BD10FF047FA0406240E16D16A4610889288083668
:405180008518144AF1B29088D288AEB29319984207D3401B801A80B201F086FB050007D000E0FF25012400F05BFA002D04D008E0F8B200F01BF9F6E700F07EFA06490120F0
:4051C000087000F0C7FB204607B0F0BD7013002011530000A41700208013002010B503480078012801D101F001FA10BD8013002070B5084B0446DA889E8800205518B54269
:4052000006D81D68AA182260DA885118D98070BD032070BDA41700200148008970470000A4170020F0B587B007460D4600208900009006916846FFF7DBFF844600285DD1FD
:40524000304800990160002117E02E4B88001A680629115406D22C4C0419667882185670628805E0C419203CA67A8218567022891B68C018491C4280C9B2A942E5D30024EB
:405280002DE0601CC2B2059025E01E4FA30039689600581840887118039604904E88B04217D938466F46FE80B6464F786E4677710297049F4F800168039F5E18767879184F
:4052C0004E700168764659184E800068029F18184770521CD2B2AA42D7D30598C4B2AC42CFD36046002809D168460699FFF780FF8446002802D1054900980860604607B097
:40530000F0BD000084130020988B0100881300207047000010B5002809D005494A68002A05D0011F08788000105801F06BFA10BD8413002010B50446FFF76EFFC0B2801DCB
:40534000A0420CD307484068002808D0A100405801F0CAF9002801D00470001D10BD002010BD000084130020F8B516460D460446FFF752FFC0B2801DA04203D20020C043B7
:405380000090F8BDB2B2E9B2684601F0D3F90099481C03D0024AA000526811500098F8BD84130020F8B50746FFF736FF801DC6B20A49002005460C680DE06178002907D031
:4053C0006188B94202D32078FFF7B4FF002804D1241D6D1CEDB2B542EFD3F8BD8413002010B5002801D0FFF795FF10BD70B506460948002504680BE06178002905D0628814
:405400002078121D0023FFF7AFFF241D6D1CEDB2B542F1D370BD000084130020FFB581B00A9C16002BD000F0F1F80546042826D0214F002C0BD02046FFF7B4FF2901C91962
:40544000486000281BD022460499FEF75CFC1A4928010E5046187481019805707D20029CC000444300F0C0F8009004280AD000F055FAA0420ED800F051FA201A06E0FF2093
:4054800005B0F0BD204600F0ADFA0020B08135720020F5E700F042FA074600F0B9FA381B87B23846012100F0EFF800980101024808188781E6E70000B0170020F8B5060106
:4054C00017483418217A042903D0A089002802D018E00020F8BD00F021FA054600F098FA00F0A2F804280DD001010D480F18B88941198DB2002100F0C7F80020B88128461C
:4055000000F070FA6068064D002801D0FFF768FF042020720020A8516081A081D9E70000B0170020FEB500266A46304601232549050169180D7A042D02D0898900291BD060
:4055400000211154401CC0B20428F0D300246846005D002830D01B482101081841894768056802910021016041600422418102728181002E02D015E01354E3E700F054F890
:4055800004280ED001010F480818019086890021304600F079F8019800218181304600F021FA0126002D07D038460299A847002F02D03846FFF714FF641CE4B2042CC6D3F9
:4055C000FEBD0000B01700200EB5002005216A460090118150810348694600680FF099FE0EBD00008C130020074A0020010189180B7A042B02D08989002903D0401CC0B265
:405600000428F3D370470000B01700200549002002015218127A042A03D0401CC0B20428F6D37047B017002030B50A4B04200A4C00210A011219157A042D06D09289002A2B
:4056400003D09A4201D808461346491CC9B20429EFD330BDFFFF0000B01700207047000030B50020074C05460423020111190B72A5504D60401C4D81C0B28D810428F4D3F0
:4056800030BD0000B017002030B5094C00231A011219157A042D04D09589002906D02D1895815B1CDBB2042BF1D330BD2D1AF7E7B0170020002070471CB5002469460C7080
:4056C000142001902346054A05480FF027FE04480068401C00D1FF2420461CBD355700008C1300203EB5124A0146FF2000230124126800290DD0012914D0042908D1042079
:405700006946009308814B8110460FF002FE80B23EBD6846009304814381694610460FF0F3FDF4E768460093048143816946EBE78C13002070B54589046841680089030099
:40574000FFF7B8FC08280509091E22282628002006F0ECFD1EE0022908D0C8B22A4621460DF0DAFD2046FFF73BFE13E002202A4621460DF0D1FD2946204600F00DF809E05E
:4057800000200FF0B5FA05E02046FFF7CBFE01E0FDF7A5FC002070BD014B0022DB6818479013002070B5448905680089022803D0032809D0FF2070BD2246094C0023A4685A
:4057C00029460120A04708E0FFF7AEFA241DA2B200232946022007F0E8FE002070BD000090130020704700000248002141600180418070479013002070B50C46002186B029
:4058000016460391012802D0022859D116E003A9012007F02AFF01281BD1039D324621462846FEF770FA0095287801900220694608814E816846FFF7B5FF41E0214D002BE4
:40584000686809D0049004A9022007F00EFF01281DD0022006B070BD002812D0298840182146FEF750FA28880024801980B228806988091D884206D12C801348FFF792FFB7
:4058800003E00320E6E788421AD96C6018E004986860E278A378110219430B4A698000231060E3565360032313815181A1788170E178C1706178417021780170042028800F
:4058C0000020C7E790130020F01700203EB515460C46022803D004280CD000203EBD0091019002206946088107484A8100680FF010FD07E00DF010FD044B0022DB68294612
:405900002046984701203EBD8C13002090130020014AD1609060704790130020034801688068081A0A21484300097047FC17002010B5FDF7A7FB482204490548FEF7E3F907
:4059400003490120C870002010BD0000B48B0100001C002010B5FDF78DFB10BD70B5134C2368002B08D0207B1149C20705D04008400020738868A08070BD88680B4AA188A0
:4059800080B29268814203D90A4D691A091802E0814202D2411A5118A160A080A0689842EAD30FF0D3FC00F013F870BDFC170020C0102E40FFFF000010B508461946FFF757
:4059C000A7FF10BD704710B5FFF780FF10BD000003480021016041608160C16070470000FC170020024610B5FF20002A0CD0FFF7EFFF064C0321207B0843207310010A21DB
:405A0000FDF70CFD2060002010BD0000FC17002000B504480A21806848430209FFF7D8FF104600BDFC1700200248007B8007C00F70470000FC17002010B54449086800281D
:405A400002DA434B01221A70022290430860414800693E49C00B4031096A08425ED0012000F086FA3B483C497C30FDF76FFA37480E216C30FDF76AFA364820218430FDF765
:405A800065FA344814219C30FDF760FA3148FF21C131A430FDF75AFA2E48FF212F31B030FDF754FA2B482D49BC30FDF74FFA29482B49AC30FDF74AFA29492648491CB430C9
:405AC000FDF744FA23482749B830FDF73FFA21482549CC30FDF73AFA1E4824490830FDF735FA1C482249A830FDF730FA194821498830FDF72BFA17481F498C30FDF726FA63
:405B000014481921C9029030FDF720FAFDF720FAFDF7CCFAC0B2022802D00FE0FF2010BD16491748FDF712FA15481649001DFDF70DFA134800210830FDF708FA5420044928
:405B4000C043891C0870002010BD000000F02E40A013002000002E4055650000320300002F3F00003102000010520000EC160000FA12000031D000003AE30000995600006C
:405B800080012E40F80F000070B50646581C80B245086D00002408E0304600F0C1F81055000A1119A41C4870A4B2AC42F4D3D80705D0D0182038D15CC47FD454C17770BDE6
:405BC00030B50A4C002100195B1E07E0541864782502545C2C430480891C89B29942F5DB994201D1515C018030BD000000102E4010B5FF2000F0BCF90F49FF2048700E48DF
:405C00001021801D41800121417001700A490020C91C4870FFF710FF04000AD100F008F907210648FDF790F9044807211830FDF78BF9204610BD0000A0130020CC112E4034
:405C400070B5002405465B1E0AE0284600F068F8010A161971702D1D1055A41CADB2A4B29C42F2DB9C4203D1284600F059F8105570BD000070B500210A4D5B1E0AE0541826
:405C800064782602545C344346193480001D891C80B289B29942F2DB994202D1515C4019018070BD00102E40F0B50599091FCFB200217E1E0BE0541864782502545C2C43CD
:405CC000164D45192C80001D891C80B289B2B142F1DBFC0712D01C78515C24020F4A0C4381180C809C785D78001D210280B2294384182180001D80B2D9780CE059781A783D
:405D000009021143054A84182180001DD9789B78090280B2194380180180F0BD00102E40014940180088704700102E4010B50B490020487000F07CF8002000F03FF90020FE
:405D400000F02CF907210648FDF7FEF8044807211830FDF7F9F8002010BD0000A3130020CC112E4010B50B46062812D006DC01280CD0032801D1FFF7D9FF10BD0A28FCD05C
:405D80000B28FAD105480078107010BDFFF730FF10BD1146184600F02DF910BDA6130020F8B5204DAC6A0127A0071F4E002816DA307806280ED1286A384328621B480069D4
:405DC000F903084381B219481030FDF7BFF8042000F0CEF8134802212830FDF7B5F8E00711D0062000F0C4F80F49FF20C91E48707078002802D1686B38436863094801216D
:405E00002830FDF7A1F8E0050BD53078042802D1052000F0ADF80348FF2101312830FDF793F8F8BD40F02E40A313002000002E4010B503212348FDF789F80120FDF716F95F
:405E400020483038406A204C80076178800F890001431C480C38FDF779F86078002808D0401E022181401820FDF7C8FBC000083800E0B82081B21548FDF768F8134803214F
:405E800009021438FDF762F810481149B830FDF75DF8612189010F48FDF758F80D480321001FFDF753F80C490C48FDF74FF80B480B496038FDF74AF8084801218838FDF75D
:405EC00045F810BD70F02E40A6130020D8102E4090890000041E2E40FF0F000058122E40209000000849087806280BD148780749002803D1486B400840004863C86A01223A
:405F00001043C86270470000A313002040F02E400148007870470000A313002000B50300FFF7C8F8080D050D0B070507090D012000BD032000BD042000BD022000BDFF2005
:405F400000BD0000074A9168D26889B2064B92B2994204D105498A4201D1012100E000210170704780002E4033D000003FE3000010B50446FDF782F8072C01D9FF2C01D18F
:405F800002480470FDF776F810BD0000A31300200149487070470000A013002010B5064A012805D01921C9021046FCF7CFFF10BD1D21C902F8E7000090002E4010B50A4A97
:405FC000141D012808D009491046FCF7BFFF08492046FCF7BBFF10BD04491046891CFCF7B5FF0349491DF3E788002E4031D000003AE3000070B50C460546FDF757F8C0B2DF
:4060000002280E49287804D0FF2810D04C280CD810E0FF2809D10A4AD0680004800F032801D0087807E09069000A553803E00878207070BD4F382070087070BDA213002058
:4060400000002E40F0B50122002830D000292ED00424420600D00524792342065B06D21800D0641C034600221EE00C2516466E43104D00277519AF720E4F002ABB5169607D
:4060800007D0661EB24209D10B4E86197606760E05E05E06760E8027BE1B00E080269B198919521C2E81D2B2A242DED300221046F0BD0000881A002079020000F8B5074604
:4060C0000020002F03D100F09DFE002827D1154E002421460C2251438D19AA7A012A0DD12A8971586868FCF7EDFE002800D028200021A972002F05D0282803D0641CE4B26C
:40610000062CE6D3641CE1B207E00C224A439219927A012A04D0491CC9B20629F5D3F8BD2820F8BD881A0020074900200C2242435218927A012A05D0401CC0B20628F5D361
:406140000020704701207047881A0020F8B50F000446164609D0184D18496868A04202D94018A04201D38E4201D90120F8BD39462046FDF7B9FD00281BD032463946204693
:40618000FDF7C1FDF0B200210C224A43521913895668F718A74208D90127A41B1B1B9772834206DAC01A1469C0B2491CC9B20629EAD30020F8BD0000881A0020790200009F
:4061C00010B500F05DF80748054AC16806480C46FDF799FD04492046FFF734FF10BD000079020000AC1300200C180020002070470020054A002902D0012902D002E050608E
:4062000000E0906000207047AC13002070B5084C154608460549A26889182A46FDF773FDA0684019A06028B270BD00000C180020AC1300203EB50A226946FFF7E7FF04466A
:4062400006480A2200686946FDF74EFD002802D00020C0433EBD20463EBD0000AC130020002802D0044A914201D2FF20704703490A61C8600020704779020000AC13002022
:40628000024800214160816070470000AC13002070B5074C15460548626880182A46FFF755FF60684019606028B270BD0C180020AC13002010B503490A220968FFF7E8FF89
:4062C00010BD0000AC13002010B50F4A002313600E4A13600E4B18600E4801600E49012008600E490860000290600E490C4808600D4914300860FF381538506000F0BCF86D
:4063000000F0CAF9002010BDD8130020C0130020EC130020F0130020DC130020CC130020D01B0020D0130020E4130020014610B50020002910D0094B1A689C685118A142EF
:4063400009D25868196080188A0704D08A07920F891A091D196010BD002010BDC0130020F8B50024164E671E321F3D463168136806E01422624310328A58521C1BD0641C8B
:406380009C42F6D36A1C14D02C461422544322460C3288500C214843FFF7C8FF3168002808510AD031680020103408517068401C70602846F8BD2546E4E73846F8BD0000C0
:4063C000D0130020F3B50026F64381B000281BDB1E490968884217D80299002914D01B4F142204463F1D54432546396810354859401C09D0FCF742FE38682F1F4159C35930
:40640000994203DBFCF736FE3046FEBD214608310091465801590C20704308180C220299FDF771FC0948761C001D0068C159B14200D100260549009A091D8650086841599F
:40644000491C4151FCF716FE0020FEBDCC130020002803DB07490968884202D90020C043704704491422091D096850431030085870470000CC130020F0B500200D4A451E7C
:406480000346171F50600FE014260146714314680E1DA3510C461668083433511668083435511468401C635039688842ECD30020F0BD0000D0130020F3B50026F64381B061
:4064C000002841DB2349096888423DD8029900293AD0204F142204463F1D54432546396810354859401C2FD0FCF7C8FD3868415900292BD0211D009146580C2100597143E2
:406500000F46C1190C220298FDF7FDFB11480021001D0068761C00590C34C0190160416081600C48001D00680159B14200D100260849009A091D865008684159491E41518B
:40654000FCF798FD0020FEBD3046FEBDFCF792FDFAE70000CC130020FEB504460D4600201E49089E0860471E009001900290002C11D0486885420ED2002A0CD0002E0AD0B6
:40658000642E08D808460C3001681C2068430C18207A002801D03846FEBD0120226020721846FFF7DDFE6060401C13D06681A6810A4827610C3067610179A94200D20571A3
:4065C0000021684601810A462846029B00F040F82846FEBD00202072DDE70000D813002038B50124009400F039F838BDFEB50027164EFF433D4600240EE01C2031686043D4
:406600000818017A002906D04068FFF721FF002801D0254603E0641C3079A042EDDA681C12D01C2130684D434419FCF727FD69466068FFF741FF0546FCF71CFD002DD9D1CF
:40664000216868468847D5E7FEBD0000E413002038B50024009400F001F838BD1FB500220C49541E0A60002811DB496888420ED808491C220C31096850430818406801A925
:40668000FFF7A0FE401C02D0002004B010BD2046FBE70000D8130020F0B50021114A4D1E174611710C3F0B46BD6016E008461C2460431668041D35511468064623501468FD
:4066C0000836A3551468361DA353044616680A34335318301468491C255078688142E5D30020F0BDE413002038B500210091002811DB0F49097888420DDA0D4D04010C3559
:4067000029680859002807D0201D0818694600F06FF9002801D0002038BDFCF7AFFC28680F34015D491E0155FCF7A4FC009838BDF4130020F7B582B0002502986E1E066094
:406740002E48D21C024017462D4A2C4610460C380178106805E02301C358002B0FD0641CE4B28C42F7D3711C28D03401211D40180191039900F02AF900281FD101E02646D0
:40678000F1E71F48016820460C300F521C480399026820460E30115419480399026820460F3011540398784300F0A0F8144900280968085102D00024009011E001251AE086
:4067C0000F48016801980818009900F02CF9002801D0012502E00098C0190090641CE4B203988442ECD3002D05D10298066004480179491C0171284605B0F0BDFCFF0000CF
:4068000000140020F8B50D4600216A468C461180002839DB23490978884235DA214B04010C3319680A59002A2ED020460C300B5A801C0E5C184670438018954224D38542E7
:4068400022D2002006E007465F43BF18AF4206D0401CC0B2B042F6D36046002814D0114E271DC8190C366A46294600F006F900280AD168460088012808D030682946C01968
:4068800000F0D1F8002803D00120F8BD0020F8BDFCF7F4FB30680F34015D491C0155FCF7E9FBF3E7F4130020F8B50F46002400F031F8002817D10C4900220B460C334A60CB
:4068C0000EE021011D680E466A501D680C36AA53B61C1D680F31AA551D68641C6A54E4B2BC42EED31A71F8BDF413002000280BD0C01C074A81085068890053884118994213
:4069000003D89368516018187047002070470000F4130020F8B5064600200F4D009029700C0121466846FEF763FC00280CD129460C3100980860301B001F84B22146684671
:40694000FEF756FC002801D0FF20F8BD6C800098A8600020F8BD0000F4130020F8B5002827DB19490978884223DA174C05010C342168485900281CD028460C30085A009077
:4069800028460E300E5C401C0E5420682F1DC01900F064F800280CD12068002445590EE0094829460C300068C01900F03CF8002801D00120F8BD00982D18641CE4B2B442B4
:4069C000EED30020F8BD0000F413002030B50D4604000BD0A800FFF789FF6060002805D000202570C0436080002030BD012030BD70B50D46040005D0002D03D00220205E3C
:406A0000002801DA012070BDFCF738FB0221615E60688900405828606088401E6080FCF729FB002070BD70B50D46040007D0002D05D002212078615E401E814201DB012015
:406A400070BDFCF71BFB6088401C00B26080616880000D50FCF70EFB002070BD10B5040009D0227800216068FDF756F90020C0436080002010BD012010BDF0B500231D46AA
:406A8000002802D00224045F0AE00120F0BD46689F00F6598E4201D1012503E05B1CDBB29C42F4DA15700020F0BD00000148007870470000081400207CB505460024FEF709
:406AC00033F9A8796946087000A8062229460130FDF719F90021684605F0EEFE0C2804D0072804D01F2804D004E0022402E0042400E0272420467CBD10B50024FEF714F90D
:406B00000021084605F0DCFE0C2800D10224204610BD10B500F0E6F9FFF7FAF9FFF7FEF910BD70B504460025FEF7FEF8002C06D0A079012803D8214603F0AAF900E00125E1
:406B4000284670BD01460120002902D0502008800020704701460120002905D0034854220078504308800020704700000A14002010B502460D49FE204870032410460EF0C5
:406B8000EBFE002810D10EF08FFE00280CD106F0C9FD002808D100F0BBFB002804D106F069F9002800D10024204610BD081400207CB505460024FEF7B7F8A8796946087083
:406BC00000A8062229460130FDF79DF80021684605F084FE0C2802D01F2802D002E0022400E0072420467CBD70B50025044600280ED0A07901280BD8FEF796F8A079002802
:406C0000204602D003F02AFD03E003F0FFFC00E00125284670BD0000014610B50120002904D006220248FDF76EF8002010BD00000C14002001460120002903D0087802493E
:406C400008700020704700000A14002070B592B00E4605460024FEF767F803F0D5F900280AD000F07FFD002806D0002D0ED0EA7F1F2A03D9012409E002242EE000A82946EA
:406C80000130FDF740F8E87F69460870002E0FD0002C22D1F27F1F2A01D901241DE008A831460130FDF72FF8F07F08A9087001E0002C12D10020002D04D010A9684600F094
:406CC00081FD0120002E04D010A908A800F00CFE01E0002801D000F007FD204612B070BD1CB5FF206946087100200870FEF71CF86A4601A90620FFF735F8694600200856E4
:406D00001CBD000038B504460120002C20D0617801291DD800290BD0FF25E535FEF704F80C4828180088C0B22070072803D00EE0FF25CD35F2E70020694608706846FFF7E3
:406D400001F969460878012801D108202070002038BD000000102E4010B507480024807B002806D00448203002F094FB012800D1FE24204610BD0000481C0020F8B504468C
:406D80000120002C26D06178012902D92278092A20D8002905D0FF25E5352078092803D004E0FF25CD35F8E708202070FDF7BCFF2078114F114E08280DD00020FFF7FEF855
:406DC00070780128207810D00D4969180880FE2070700020F8BD0120FFF7F0F80720B8810549203188800120F2E7B8810248217820308180EBE70000C0112E40081400201E
:406E000000102E4010B509480024807B00280BD0FFF77EF8062801D0032800D12824FFF79BFFFE2800D12824204610BD481C002070B50E46050001D0002400E00C4C002C88
:406E400011D0E28A500609D5D107C90F022003F0F7FCE08A40218843E08204E0D107C90F012003F0EDFC3146284603F03DF970BD681C0020F8B50546002004460D4E009024
:406E800013E022466946284601F022F80098002801D00EF043FDA878214602F025FFA878214602F013FF641CE4B2308AA042E8D8F8BD0000201D0020064A02235188891CE1
:406EC00089B25180814201D8102900D953805088704700001214002001484078704700001214002038B51E4CFFF712F8042813D0052811D0062812D003282AD007280AD17F
:406F000000206946087002460120FEF72BFFFEF7FFFF0128FBD138BD00F0BCFB38BD02F05BFF00F0B7FB02F0D5FF8007800F0228F4D10C4841880029F0D05B21095D00293F
:406F4000ECD101210170A07D0140022003F078FC38BD02F045FF0120FFF70AF838BD0000681C00201A140020F8B50646002403F0D5FC0546304603F0EBFC03460A48002177
:406F8000068A0DE001228A401046174628401F40002803D0002F01D1224394B2491CC9B28E42EFD82046F8BD201D00201CB50020694648706846FFF7A5FE01AA69460A2034
:406FC000FEF7D0FE6946042008561CBD10B50C4601F09AFC002809D00179002906D0C1788078224603F02EF9002010BD022010BD0148007870470000401C00204030C07E7B
:40700000002800D00120704700B500F001F800BD8C2148430749084A40186030417F491CC9B24177D289914201D300214177C8B270470000481C0020201D002013B501F065
:4070400063FC04000BD002F0F4F9002807D0214601AA0A310620FEF785FE00201CBD02201CBD000010B50C4601F04EFC00280AD002F0DFF9002806D0224604490A20FEF725
:4070800071FE002010BD022010BD0000291C0020F3B581B0074601460026029803F036FC0446002F01D0002500E0154D002D21D0284601F05FFC032C04D13946029803F035
:4070C00081FC06463846029902F000FE032C06D0002C10D00121384601F03CFE03E03146384603F031FF284602F0C2FC0221284602F0D8FCFEBD3846029902F0E7FDFEBD0D
:40710000681C002010B5044604F03AFF002801D00C2010BD2078611C03F0A8F9FF2801D01F2010BD03F0EEF9FF280AD02178621C02F056FD044821780068026B601C90478C
:4071400010BD072010BD00003414002010B504F017FF002801D00C2010BD03F069F903480068C06A8047002010BD00003414002070B50D46044610210EF010FB1021601832
:4071800006460EF00BFB334610221946204604F02DFF102130460EF001FB02202870204605F0AEFD70BD0000F8B504464078217802028006870FE0781143A678090500021F
:4071C000090D0643084601F09FFB00210546F2B2002812D0002C10D0022F0ED0032F0CD0002A0AD00279092A07D0002A05D0134A5A23527E1B5C9A4207D82889002105F0E9
:407200006CFC20460EF08AFBFF21002914D10C48224600682946436930469847C0B2FF280AD128464030817EF2B2491C8176FF232146284600F007F9F8BD0000001C002012
